:020000040800F2
:1000000000100020DD050008DB050008D905000808
:1000100000000000000000000000000000000000E0
:10002000000000000000000000000000DB050008E8
:100030000000000000000000DB050008DB050008F0
:10004000D9050008D9050008D9050008D905000818
:10005000D9050008D9050008D9050008D905000808
:10006000D9050008D9050008D9050008D9050008F8
:10007000D9050008D9050008D9050008D9050008E8
:10008000D9050008D9050008D9050008D9050008D8
:10009000D9050008D9050008D9050008D9050008C8
:1000A000D9050008D9050008D9050008D9050008B8
:1000B000D9050008D9050008D9050008D9050008A8
:1000C00011221F4B10B51A60A02280211D4B9203F4
:1000D0001A601D4A49041068014311608021890497
:1000E00010680842FCD00222196801240A431A60F1
:1000F000164B174A17491A60802390221648D205DA
:100100005B000B60106015486442046080200C683E
:100110008002204308601249086803430B60802373
:1001200010495B05086803430B600F490F4B0868D3
:1001300003430B6013680E490B40136010BDC046AB
:10014000002002400410024000100240141002403F
:10015000400006001C100240FFFFFFEB00040048B7
:1001600020000048240000480C00004810000080D7
:10017000EFFFFFBF144B1548F0B5022503600123C4
:1001800080271349134A144C6D420B60134E1360C1
:100190002560134D3F022E60124E25681D4205D189
:1001A00035683D42F9D108240F4B1C600F4B104CB1
:1001B0001C60104B104C1C60104B036001230B6043
:1001C00004331360F0BDC0465F0900002C200040DE
:1001D000142000400020004010200040E2040000F5
:1001E0000844004010000048144400400C44004003
:1001F0000C20000028200040BF12000087130000E0
:100200000223F7B501252027114C124E5B42124AFA
:10021000019125603360013B1360BC4600230199C6
:100220008B4204DB0120FEBD37682F420DD16146B1
:1002300017680F42F8D0094F3F68C7541768BF07C7
:1002400003D401272760DB19E9E70020EBE7C0466C
:1002500014200040102000400044004004440040AE
:100260000B4B0C4AF0B51360802500230A4C0B4E53
:100270008B4206DB402321681942FCD0084B1360F7
:10028000F0BD27682F42FCD0C75C01333760EFE731
:10029000082000000C44004000440040044400409A
:1002A0000C20000007B5022101A8FFF7A9FF0028D4
:1002B00006D06B4618795B794340FF2B00D10EBD09
:1002C00001204042FBE707B56B46C0B21871C0433E
:1002D0000221587101A8FFF7C3FF07BD37B505001C
:1002E000FFF7E0FF0400431C03D101246442200017
:1002F0003EBD0134A40021002800FFF781FF002843
:10030000F3D0042101A8FFF77BFF0028EDD02100E6
:10031000280000F0CFF8019B9842E8D0E5E737B518
:100320000C00050000F0C6F80190A0100138FFF79E
:10033000CAFF28002100FFF793FF042101A8FFF75F
:100340008FFF37BDF0B5524CA544FFF7B9FEFFF75C
:1003500011FF90224F4B52051968114271D0802233
:1003600052041A600020FFF7AEFFFFF79BFF05283D
:1003700067D800F027F9F7030F1E32560223002139
:100380001C2203A8029300F015F9202102A8FFF710
:10039000C6FFEAE7FFF786FF0400431C51D0FFF7D2
:1003A00081FF431C4DD001303B4B8100A002C0189F
:1003B000EDE7FFF777FF0400431C42D002A8FFF7E8
:1003C0008DFF0200431C3CD03348A402334B20185D
:1003D00002A9984743425841C5E7002635002E4BF5
:1003E0002F4FDB1B9B1201932E4B0093019B9E42D0
:1003F00006DB2A00380000992B4B98470120B2E712
:10040000009B5819FFF76AFF0400431C19D0002015
:10041000FFF759FF80232D19DB009C42E9DB0136F1
:10042000E2E7FFF73FFF442807D0552807D03328DD
:10043000E4D1002000F050F8E0E70120FAE70220C4
:10044000F8E7154B19495A781878120202438A4284
:100450008BD18022D2009818995C427812020A430C
:10046000817809041143C27812060A4382F308888E
:100470000F490F4A9A5C5B185978090211439A7820
:10048000DB7812040A431B0613439847FEE7C04675
:10049000F4FBFFFF241002400010000801000020C0
:1004A0000000000800100020AD000020EA3200002B
:1004B00004040000E122064B89101A60054B013943
:1004C00002D21868C043704704C81A60F7E7C046F4
:1004D000083002400030024073B5274B2749284AB4
:1004E00019601A60274B284C19601A60012369466D
:1004F0005B42264A236012880A70254A12884A7095
:10050000244A12888A70244A12888B80CA70012873
:100510002BD1224A224B9B1A1B1398404042087150
:100520008823204A9B001360403313600123216815
:100530001942FCD184239B00136001256B461349AB
:1005400019481E780E8026682E42FCD102310133F4
:100550008142F6D11423216819420BD180239B01DB
:100560001360124B124A1A60FEE70228D8D100230A
:100570008B80D5E773BDC046042002402301674548
:10058000AB89EFCD082002400C20024000F8FF1F8D
:1005900002F8FF1F04F8FF1F06F8FF1F0000000805
:1005A000FF1F0008102002400CF8FF1F0CED00E0B8
:1005B0000400FA0503008218934200D170471970B5
:1005C0000133F9E702B47146490849000956490068
:1005D0008E4402BC7047C046FEE7704710B5164B0C
:1005E000164A17498B4218D30021164A934217D353
:1005F0008023154A9B001168144C0B431360144B65
:100600009C420FD3134C144B9C420ED3FFF79AFE1F
:10061000124C134B9C420BD310BD01CA01C3E1E73E
:1006200002C3E3E708CC9847E9E708CC9847EAE734
:1006300008CC9847EDE7C04600000020640600089B
:10064000C8000020C800002014ED00E06406000887
:1006500064060008640600086406000864060008D2
:040660006406000824
:10066400F7B50300224C234802250460224C0460A1
:100674000124224864420460214C2560214D5D1907
:10068400AD0AAD0201950025954212DB0126002535
:10069400266095421DDB8025256006686C3D34008C
:1006A40000202C402E4203D12000904218DB012070
:1006B400FEBD019E144FB446AC4466463E604226DD
:1006C4002660012706683E42FBD18026F600AD195C
:1006D400DAE74F5B5F5307683742FCD10235D8E74E
:1006E4001D580C58A54201D10430DEE70020DFE795
:1006F4002301674504200240AB89EFCD0C20024062
:1007040010200240FF0300001420024010B5FFF740
:10071400A7FF002803D0024B024A1A60FEE710BD6F
:080724000CED00E00400FA05F1
:04000005080005DD0D
:00000001FF
