:020000040800F2
:10100000EA3208005F534C4F544341520000000045
:101010000000000000010000040008306001640AC4
:10102000001946000001E803DC05D00701000000BC
:101030000E00000000646661230000000000000054
:1010400000000000000000000000000000000000A0
:101050000000000000000000000000000000000090
:101060000000000000000000000000000000000080
:101070000000000000000000000000000000000070
:101080000000000000000000000000000000000060
:101090000000000000000000000000000000000050
:1010A0000000000000000000000000000000000040
:1010B0000000000000000000000000000000000030
:1010C0000000000000000000000000000000000020
:1010D0000000000000000000000000000000000010
:1010E0000000000000000000000000000000000000
:1010F00000000000000000000000000000000000F0
:1011000000000000000000000000000000000000DF
:1011100000000000000000000000000000000000CF
:1011200000000000000000000000000000000000BF
:08113000000000000000320085
:101400000020002019520008175200081552000849
:1014100000000000000000000000000000000000CC
:10142000000000000000000000000000175200084B
:1014300000000000000000002D3F0008F93E0008F9
:1014400015520008155200081552000815520008E0
:1014500015520008155200081552000815520008D0
:1014600015520008F517000829490008F938000846
:1014700015520008713D0008D117000815520008E8
:101480008D3D00081552000815520008155200083D
:10149000ED380008155200081552000815520008D2
:1014A000155200081552000815520008DD480008C2
:1014B000113900081552000815520008155200088D
:1014C00038B5764B5A6822F002025A605A681407FF
:1014D000FCD41A6822F080721A60714A13211160DC
:1014E000704A5A601A6842F080721A601A68900155
:1014F000FCD55A686C4842F002025A604FF0FF3245
:10150000DA6000211A6102F10612D96019615A618C
:10151000664A9A6140F60212DA614FF0E022C2F8A0
:10152000080D4FF090424FF00050106240F2222020
:1015300050622220C2F82004C2F824144FF0105147
:10154000D1604FF48051C2F80C14594911605949C7
:10155000C2F80014996941F480319961D36843F06D
:10156000004343F01003D360136823F010031360AB
:101570004021142003F0B4FE80211B2003F0B0FEB4
:1015800040211C2003F0ACFE8021092003F0A8FEBE
:1015900080210A2003F0A4FE40210B2003F0A0FECE
:1015A0000D2003F085FE0E2003F082FE102003F0D4
:1015B0007FFE142003F07CFE1B2003F079FE1C202C
:1015C00003F076FE092003F073FE0A2003F070FE9C
:1015D0000B2003F06DFE384B384AC3F80824384A14
:1015E00040F26711C2F82C180921C2F80018D2F88D
:1015F0000018C907FBD4D3F8082442F00402C3F84A
:101600000824D3F8082412F00402FAD14FF48071B0
:10161000C3F804144FF0FF31C3F80C14C3F81014CE
:101620002849C3F834240A70274A92F82C20012A4A
:1016300008D10A70D3F8340440F00300C3F834042E
:10164000224802700A78D3F8345402EB82044FF433
:101650000C70A0400232D2B22843C3F834040A709E
:10166000013A1205C3F82C24194A1A4911611A4982
:1016700051610222C3F80C2C2022C3F8082C4FF031
:1016800080436022C3F80424C122C3F818247822BE
:10169000C3F81C240122C3F8202438BD00100240E6
:1016A0000020024000C0342000140008014A040059
:1016B000FFBFEAEBFAEFFFFF0020014001008000CE
:1016C00000400140BD01002000000020BC010020BE
:1016D000000002404C240140A801002004490B688E
:1016E000C3F38502024462F387030B60704700BFB7
:1016F0000010024000F00303013B022B9ABF054A91
:1017000052F8233000234207034A48BF43F4004302
:10171000D36170471C5300080000014008B5114B0D
:101720000022DA60142003F0CFFD0F4B9A6922F4F7
:1017300080329A61DA6942F40032DA614FF0904304
:101740001A6A42F480721A625A6A42F080525A62ED
:101750001A6842F000421A601A6822F080421A6049
:1017600008BD00BF004001400010024008B50B4B0F
:101770000022DA60142003F0A7FD094A936923F4DC
:10178000803393614FF09043DA6822F03002DA60E0
:101790001A6842F030021A6008BD00BF00400140E4
:1017A00000100240074B9A68D2070AD4064A127802
:1017B000DA6040F283529A60A3F56043034AC3F8AB
:1017C0000824704700000240BD01002001019E0076
:1017D000064B6FF00202C3F8102CD3F80824D20590
:1017E00044BF034AC3F80824704700BF00200140EB
:1017F0000101DE00164B1749022210B45A60002284
:101800009A60A3F56043144AC3F80824134B0A886E
:101810001B78D3B113460120421C31F8100031F877
:1018200012400F4AB2FBF4F2504300135343A0F5A9
:10183000A0600A2250432B2290FBF2F0002210BC41
:101840001B131146193002F0FFBA1846E4E700BF37
:1018500000000240A801002001008000BC0100201F
:1018600050FB4A00034B1A6802435EBF024A1860ED
:1018700010607047380100205401002070B5054603
:101880000E46002456F8240018B1294603F03EFC09
:1018900008B9204670BD0134F4E713B50A220C469E
:1018A00001A903F0CFFB019B1B781BB9206001202D
:1018B00002B010BD0020FBE710B50446006803F03D
:1018C00084FC206010BD0000F0B585B00A220446FB
:1018D0000D46642791FBF7F601A9304603F032FB71
:1018E00001462046FFF7E8FF0D492046FFF7E4FFD9
:1018F00007FB16500A2201A903F024FB03F082FC27
:10190000084E0546012D05DD01A92046FFF7D4FF4D
:1019100005B0F0BD31462046FFF7CEFF0135F1E7B7
:10192000F8550008FA5500081FB504460A22084673
:1019300001A903F007FB01462046FFF7BDFF04B0F5
:1019400010BD0000F0B58DB03D4F0190054602AED0
:101950000024394601A803F00BFC18B954B92046FD
:101960000DB0F0BD0378002BF3D001340A2C46F8FB
:10197000040BEED1334902980195FFF77FFF092848
:1019800001F28381DFE810F00A0015008000E50213
:101990000006780984098909A209B7092A4901A81A
:1019A000FFF78AFF294901A8FFF786FF019C641B06
:1019B000D5E7012C41F06981254C264901A8FFF7A4
:1019C0007BFFA078FFF74EFF014601A8FFF7ACFFB1
:1019D000214901A8FFF770FF211D01A8FFF76CFF47
:1019E0001E4901A8FFF768FF1D4B01A81968FFF702
:1019F0009BFF1C4901A8FFF75FFF1B4B01A819685B
:101A0000FFF762FF194901A8FFF756FF184B01A81D
:101A10001968FFF759FF174901A8FFF74DFF164B4B
:101A200001A81968FFF780FF144901A8FFF744FFD8
:101A3000134B196801A8FFF777FF1249AFE700BF02
:101A4000FC5500084859000801560008DF570008F7
:101A500000000020695600087656000879560008F4
:101A6000AC06002082560008A80600208B5600080D
:101A7000A406002094560008A00600209D560008E9
:101A8000B0060020FF550008012C41F0FE80AD4C4F
:101A9000AD4901A8FFF710FFAC4901A8FFF70CFF03
:101AA000217D01A8FFF740FFA94901A8FFF704FF26
:101AB000A84901A8FFF700FFA44901A8FFF7FCFE11
:101AC000617D01A8FFF730FFA14901A8FFF7F4FEEF
:101AD000A14901A8FFF7F0FE9C4901A8FFF7ECFE21
:101AE000A17D01A8FFF720FF994901A8FFF7E4FEB7
:101AF0009A4901A8FFF7E0FE944901A8FFF7DCFE30
:101B0000E17D01A8FFF710FF914901A8FFF7D4FE7E
:101B1000934901A8FFF7D0FE8C4901A8FFF7CCFE3E
:101B2000217E01A8FFF700FF894901A8FFF7C4FE45
:101B30008C4901A8FFF7C0FE844901A8FFF7BCFE4D
:101B4000617E01A8FFF7F0FE814901A8FFF7B4FE0E
:101B5000854901A8FFF7B0FE7C4901A8FFF7ACFE5C
:101B6000A17E01A8FFF7E0FE794901A8FFF7A4FED6
:101B70007E4901A8FFF7A0FE744901A8FFF79CFE6B
:101B8000E17E01A8FFF7D0FE714901A8FFF794FE9E
:101B9000774901A8FFF790FE6C4901A8FFF78CFE7A
:101BA000217F01A8FFF7C0FE694901A8FFF784FE65
:101BB000704901A8FFF780FE644901A8FFF77CFE89
:101BC000617F01A8FFF7B0FE614901A8FFF774FE2D
:101BD000694901A8FFF770FE5C4901A8FFF76CFE98
:101BE000A17F01A8FFF7A0FE594901A8FFF764FEF5
:101BF000624901A8FFF760FE544901A8FFF75CFEA7
:101C0000E17F01A8FFF790FE514901A8FFF754FEBC
:101C10005B4901A8FFF750FE4C4901A8FFF74CFEB5
:101C200094F8201001A8FFF77FFE494901A8FFF7AB
:101C300043FE544901A8FFF73FFE444901A8FFF7BE
:101C40003BFE94F8211001A8FFF76EFE404901A861
:101C5000FFF732FE4C4901A8FFF72EFE3B4901A8D1
:101C6000FFF72AFE94F8221001A8FFF75DFE38491D
:101C700001A8FFF721FE454901A8FFF71DFE3349E2
:101C800001A8FFF719FE94F8231001A8FFF74CFEF6
:101C90002F4901A8FFF710FE3D4901A8FFF70CFEF0
:101CA0002A4901A8FFF708FE94F8241001A8FFF7BD
:101CB0003BFE274901A8FFF7FFFD364901A8FFF7C2
:101CC000FBFD224901A8FFF7F7FD94F8251001A8B4
:101CD000FFF72AFE1E4901A8FFF7EEFD2E4901A8D5
:101CE000FFF7EAFD194901A8FFF7E6FDB4F9261050
:101CF00001A8FFF719FE164901A8FFF7DDFD2749E6
:101D000001A8FFF7D9FD114901A8FFF7D5FDB4F9E6
:101D1000281001A8FFF708FE0D4901A8FFF7CCFD28
:101D20001F4901A8FFF7C8FD084901A8FFF7C4FD36
:101D3000B4F92A1001A8FFF7F7FD054901A8FFF73C
:101D4000BBFD2FE000000020A8560008A5560008A3
:101D5000FF550008AC560008B1560008B8560008F8
:101D6000C0560008C7560008D2560008DD560008C5
:101D7000E6560008EF560008F8560008015700081C
:101D80000B570008155700081F570008295700086F
:101D9000345700083E5700084857000852570008BB
:101DA0005C5700089F4901A8FFF786FD9E4901A8DE
:101DB000FFF782FD94F82C1001A8FFF7B5FD9B49B1
:101DC00001A8FFF779FD9A4901A8FFF775FD96492B
:101DD00001A8FFF771FD94F82D1001A8FFF7A4FDED
:101DE000924901A8FFF768FD924901A8FFF764FD39
:101DF0008D4901A8FFF760FD94F82E1001A8FFF7A8
:101E000093FD8A4901A8FFF757FD8B4901A8FFF709
:101E100053FD854901A8FFF74FFD94F82F1001A845
:101E2000FFF782FD814901A8FFF746FD834901A81C
:101E3000FFF742FD7C4901A8FFF73EFD94F8301002
:101E400001A8FFF771FD794901A8FFF735FD7C492D
:101E500001A8FFF731FD744901A8FFF72DFD94F8A3
:101E6000311001A8FFF760FD704901A8FFF724FDBC
:101E7000744901A8FFF720FD6B4901A8FFF71CFD7D
:101E800094F8321001A8FFF74FFD684901A8FFF749
:101E900013FD6D4901A8FFF70FFD634901A8FFF786
:101EA0000BFD94F8331001A8FFF73EFD5F4901A830
:101EB000FFF702FD654901A8FFF7FEFC5A4901A89A
:101EC000FFF7FAFC94F8341001A8FFF72DFD5749ED
:101ED00001A8FFF7F1FC5E4901A8FFF7EDFC5249AC
:101EE00001A8FFF7E9FC04F1350101A8FFF7E4FCC4
:101EF0004E4901A8FFF7E0FC564901A8FFF7DCFCBA
:101F0000494901A8FFF7D8FC94F8351101A8FFF75B
:101F10000BFD464901A8FFF7CFFC4F4901A8FFF789
:101F2000CBFC414901A8FFF7C7FC94F8361101A882
:101F3000FFF7FAFC3D4901A8FFF7BEFC474901A89D
:101F4000FFF7BAFC384901A8FFF7B6FC94F837113F
:101F500070E5022C40F0998641490398FFF78EFC0A
:101F6000212800F29286DFE810F0220037004A00B4
:101F700085009800AB00BE00D100E400F7000A0124
:101F80001D01300145015A016F0184019901AE0123
:101F9000E901FE01130228023D02520267027C029F
:101FA0009102A602BB021406D002E502FA022D49F4
:101FB0002D4C01A8FFF780FC1B4901A8FFF77CFC12
:101FC000217D01A8FFF7B0FC01A81849FFF774FCB8
:101FD000207DFFF747FCE5E42449234C01A8FFF7E7
:101FE0006BFC114901A8FFF767FC617D01A8FFF7B1
:101FF0009BFC01A80D49FFF75FFC607DE9E71C49E8
:10200000194C01A8FFF758FC074901A8FFF754FC39
:10201000A17D01A8FFF788FC01A80449FFF74CFC4B
:10202000A07DD6E766570008A5560008FF550008B2
:10203000715700087C57000887570008925700081E
:102040009E570008A8570008B2570008BD5700085F
:10205000C7570008CD570008D4570008DB570008C1
:10206000BC580008A856000800000020AC56000824
:10207000B15600089E499F4C01A8FFF71DFC9E49E0
:1020800001A8FFF719FCE17D01A8FFF74DFC01A8AD
:102090009A49FFF711FCE07D9BE79949954C01A80F
:1020A000FFF70AFC944901A8FFF706FC217E01A86E
:1020B000FFF73AFC01A89149FFF7FEFB207E88E775
:1020C00090498C4C01A8FFF7F7FB8B4901A8FFF75B
:1020D000F3FB617E01A8FFF727FC01A88749FFF702
:1020E000EBFB607E75E78849824C01A8FFF7E4FBB3
:1020F000814901A8FFF7E0FBA17E01A8FFF714FCCE
:1021000001A87E49FFF7D8FBA07E62E77F49794CA2
:1021100001A8FFF7D1FB784901A8FFF7CDFBE17ECD
:1021200001A8FFF701FC01A87449FFF7C5FBE07E99
:102130004FE777496F4C01A8FFF7BEFB6E4901A836
:10214000FFF7BAFB217F01A8FFF7EEFB01A86B495F
:10215000FFF7B2FB207F3CE76E49664C01A8FFF712
:10216000ABFB654901A8FFF7A7FB617F01A8FFF75B
:10217000DBFB01A86149FFF79FFB607F29E7664908
:102180005C4C01A8FFF798FB5B4901A8FFF794FBA3
:10219000A17F01A8FFF7C8FB01A85849FFF78CFBF6
:1021A000A07F16E75D49534C01A8FFF785FB524914
:1021B00001A8FFF781FBE17F01A8FFF7B5FB01A8AC
:1021C0004E49FFF779FBE07F03E75549494C01A8E9
:1021D000FFF772FB484901A8FFF76EFB94F8201047
:1021E00001A8FFF7A1FB01A84449FFF765FB94F89C
:1021F0002000EEE64B493F4C01A8FFF75DFB3E494E
:1022000001A8FFF759FB94F8211001A8FFF78CFBF8
:1022100001A83A49FFF750FB94F82100D9E642495A
:10222000344C01A8FFF748FB334901A8FFF744FBF2
:1022300094F8221001A8FFF777FB01A82F49FFF7B8
:102240003BFB94F82200C4E638492A4C01A8FFF76A
:1022500033FB294901A8FFF72FFB94F8231001A8AD
:10226000FFF762FB01A82549FFF726FB94F823003E
:10227000AFE62F491F4C01A8FFF71EFB1E4901A81E
:10228000FFF71AFB94F8241001A8FFF74DFB01A8F3
:102290001A49FFF711FB94F824009AE62549154CDA
:1022A00001A8FFF709FB144901A8FFF705FB94F803
:1022B000251001A8FFF738FB01A81049FFF7FCFA29
:1022C00094F8250085E61C490A4C01A8FFF7F4FAAA
:1022D000094901A8FFF7F0FAB4F9261001A8FFF7A1
:1022E00023FB01A80549FFF7E7FAB4F9260070E6D9
:1022F000B856000800000020A5560008FF55000849
:10230000C0560008C7560008D2560008DD5600081F
:10231000E6560008EF560008F85600080157000876
:102320000B570008155700081F57000829570008C9
:10233000345700083E57000848570008A949AA4CDE
:1023400001A8FFF7B9FAA94901A8FFF7B5FAB4F94E
:10235000281001A8FFF7E8FA01A8A549FFF7ACFA91
:10236000B4F9280035E6A3499F4C01A8FFF7A4FA69
:102370009E4901A8FFF7A0FAB4F92A1001A8FFF7B7
:10238000D3FA01A89A49FFF797FAB4F92A0020E690
:102390009949954C01A8FFF78FFA944901A8FFF7D6
:1023A0008BFA94F82C1001A8FFF7BEFA01A8904907
:1023B000FFF782FA94F82C000BE690498A4C01A8AA
:1023C000FFF77AFA894901A8FFF776FA94F82D10F9
:1023D00001A8FFF7A9FA01A88549FFF76DFA94F85B
:1023E0002D00F6E58649804C01A8FFF765FA7F4984
:1023F00001A8FFF761FA94F82E1001A8FFF794FAEC
:1024000001A87B49FFF758FA94F82E00E1E57D49D1
:10241000754C01A8FFF750FA744901A8FFF74CFA70
:1024200094F82F1001A8FFF77FFA01A87049FFF771
:1024300043FA94F82F00CCE573496B4C01A8FFF7E1
:102440003BFA6A4901A8FFF737FA94F8301001A85F
:10245000FFF76AFA01A86649FFF72EFA94F83000F0
:10246000B7E56A49604C01A8FFF726FA5F4901A861
:10247000FFF722FA94F8311001A8FFF755FA01A8E6
:102480005B49FFF719FA94F83100A2E56049564C10
:1024900001A8FFF711FA554901A8FFF70DFA94F8C2
:1024A000321001A8FFF740FA01A85149FFF704FADA
:1024B00094F832008DE557494B4C01A8FFF7FCF921
:1024C0004A4901A8FFF7F8F994F8331001A8FFF77B
:1024D0002BFA01A84649FFF7EFF994F8330078E5A5
:1024E0004D49414C01A8FFF7E7F9404901A8FFF722
:1024F000E3F994F8341001A8FFF716FA01A83C4953
:10250000FFF7DAF994F8340063E54449364C01A842
:10251000FFF7D2F9354901A8FFF7CEF994F8351144
:1025200001A8FFF701FA01A83149FFF7C5F994F8AE
:1025300035014EE53A492C4C01A8FFF7BDF92B496E
:1025400001A8FFF7B9F994F8361101A8FFF7ECF9E3
:1025500001A82749FFF7B0F994F8360139E5314968
:10256000214C01A8FFF7A8F9204901A8FFF7A4F919
:1025700094F8371101A8FFF7D7F901A81C49FFF714
:102580009BF994F8370124E5032C40F07E8326491B
:102590000398FFF773F9212800F27783DFE810F042
:1025A00046005B00700085009A00AF00C400D900AF
:1025B000EE00030118012D01420158016E01840152
:1025C0009A01D601EC01010216022B0241025702C8
:1025D0006D0283029902AF02C502DB02F10207031A
:1025E0001C0358035257000800000020A55600089D
:1025F000FF5500085C57000866570008715700082F
:102600007C57000887570008925700089E5700081B
:10261000A8570008B2570008BD570008CD5700085A
:10262000D4570008DB570008BC58000804986946D6
:10263000FFF733F9002800F02883B14C009B237585
:1026400002F026FA01A8AF49FFF736F9AE4901A812
:10265000FFF732F9B4E404986946FFF71EF9002841
:1026600000F01383A64C009B637502F011FA01A8D9
:10267000A649FFF721F9A44901A8FFF71DF9B4E421
:1026800004986946FFF709F9002800F0FE829C4C87
:10269000009BA37502F0FCF901A89D49FFF70CF916
:1026A000994901A8FFF708F9B2E404986946FFF7D1
:1026B000F4F8002800F0E982914C009BE37502F0E9
:1026C000E7F901A89349FFF7F7F88F4901A8FFF749
:1026D000F3F8D8E404986946FFF7DFF8002800F023
:1026E000D482874C009B237602F0D2F901A88A4954
:1026F000FFF7E2F8844901A8FFF7DEF8D6E4049872
:102700006946FFF7CAF8002800F0BF827C4C009BA6
:10271000637602F0BDF901A88049FFF7CDF87A4948
:1027200001A8FFF7C9F8D4E404986946FFF7B5F8A3
:10273000002800F0AA82724C009BA37602F0A8F950
:1027400001A87749FFF7B8F86F4901A8FFF7B4F877
:10275000D2E404986946FFF7A0F8002800F09582BB
:10276000674C009BE37602F093F901A86D49FFF7EF
:10277000A3F8654901A8FFF79FF8D0E404986946DB
:10278000FFF78BF8002800F080825D4C009B2377D8
:1027900002F07EF901A86449FFF78EF85A4901A8B2
:1027A000FFF78AF8CEE404986946FFF776F8002828
:1027B00000F06B82524C009B637702F069F901A82C
:1027C0005A49FFF779F8504901A8FFF775F8CCE4AA
:1027D00004986946FFF761F8002800F05682484CDB
:1027E000009BA37702F054F901A85149FFF764F860
:1027F000454901A8FFF760F8CAE404986946FFF765
:102800004CF8002800F041823D4C009BE37702F039
:102810003FF901A84749FFF74FF83B4901A8FFF7E7
:102820004BF8C8E404986946FFF737F8002800F031
:102830002C82334C009B84F8203002F029F901A847
:102840003D49FFF739F8304901A8FFF735F8C5E4ED
:1028500004986946FFF721F8002800F01682284CFA
:10286000009B84F8213002F013F901A83349FFF7E7
:1028700023F8254901A8FFF71FF8C4E40498694626
:10288000FFF70BF8002800F000821D4C009B84F835
:10289000223002F0FDF801A82949FFF70DF81A4986
:1028A00001A8FFF709F8C3E404986946FEF7F5FFAD
:1028B000002800F0EA81124C009B84F8233002F0DB
:1028C000E7F801A81F49FEF7F7FF0F4901A8FEF737
:1028D000F3FFC2E404986946FEF7DFFF002800F02A
:1028E000D481074C009B84F8243002F0D1F801A871
:1028F0001549FEF7E1FF044901A8FEF7DDFFC1E439
:1029000000000020A8560008A5560008AC56000894
:10291000B1560008B8560008C0560008C75600084F
:10292000D2560008DD560008E6560008EF560008AB
:10293000F8560008015700080B5700081557000803
:102940001F570008295700083457000804986946A3
:10295000FEF7A3FF002800F09881AA4C009B84F8A2
:10296000253002F095F801A8A749FEF7A5FFA74971
:1029700001A8FEF7A1FF9AE404986946FEF78DFFCF
:10298000002800F082819F4C009BE38402F080F8D5
:1029900001A89F49FEF790FF9C4901A8FEF78CFF14
:1029A0009AE404986946FEF778FF002800F06D81EC
:1029B000944C009B238502F06BF801A89549FEF723
:1029C0007BFF924901A8FEF777FFC0E404986946AF
:1029D000FEF763FF002800F058818A4C009B638556
:1029E00002F056F801A88C49FEF766FF874901A856
:1029F000FEF762FFC0E404986946FEF74EFF002828
:102A000000F043817F4C009B84F82C3002F040F8AA
:102A100001A88249FEF750FF7C4901A8FEF74CFF50
:102A2000BFE404986946FEF738FF002800F02D81C6
:102A3000744C009B84F82D3002F02AF801A87849E4
:102A4000FEF73AFF714901A8FEF736FFBEE404988D
:102A50006946FEF722FF002800F01781694C009BB1
:102A600084F82E3002F014F801A86E49FEF724FF16
:102A7000664901A8FEF720FFBDE404986946FEF709
:102A80000CFF002800F001815E4C009B84F82F3081
:102A900001F0FEFF01A86449FEF70EFF5B4901A8A3
:102AA000FEF70AFFBCE404986946FEF7F6FE00282C
:102AB00000F0EB80534C009B84F8303001F0E8FFCD
:102AC00001A85A49FEF7F8FE504901A8FEF7F4FEA6
:102AD000BBE404986946FEF7E0FE002800F0D580CC
:102AE000484C009B84F8313001F0D2FF01A85049D6
:102AF000FEF7E2FE454901A8FEF7DEFEBAE40498BF
:102B00006946FEF7CAFE002800F0BF803D4C009BDE
:102B100084F8323001F0BCFF01A84649FEF7CCFE34
:102B20003A4901A8FEF7C8FEB9E404986946FEF7E1
:102B3000B4FE002800F0A980324C009B84F83330AA
:102B400001F0A6FF01A83C49FEF7B6FE2F4901A8F7
:102B5000FEF7B2FEB8E404986946FEF79EFE002830
:102B600000F09380274C009B84F8343001F090FFF4
:102B700001A83249FEF7A0FE244901A8FEF79CFEF9
:102B8000B7E404992E484FF4807202F0DDFA01F0A8
:102B90007FFF01A82B49FEF78FFE01A81B49FEF716
:102BA0008BFE274901A8FEF787FEFEF746BF049873
:102BB0006946FEF772FE002867D0124C009B84F82D
:102BC000353101F065FF01A81F49FEF775FE0F4979
:102BD00001A8FEF771FEA1E404986946FEF75DFEC8
:102BE000002852D0074C009B84F8363101F050FF8A
:102BF00001A81649FEF760FE044901A8FEF75CFE35
:102C0000A1E400BF000000203E570008A5560008C0
:102C100048570008525700085C57000866570008DC
:102C2000715700087C570008875700089257000822
:102C30009E570008A8570008B2570008BD57000863
:102C400035000020C7570008CD570008D4570008AA
:102C500004986946FEF721FEB8B12D4C009B84F81C
:102C6000373101F015FF01A82A49FEF725FE2A4950
:102C700001A8FEF721FE7BE4012C06D102F028F822
:102C8000FEF7F0FD00287EF48DAE2449FEF78BBEE2
:102C9000012CFAD102F062F8F2E7A31E012BF4D85E
:102CA0001B4B032C93F83531009304D00099039803
:102CB00002F066F8E6E704986946FEF7EEFD0028A4
:102CC000E3D0009B013B632BF0D9DEE7022CDCD183
:102CD00003986946FEF7E1FD0028D6D0009B03F576
:102CE000FA62B2F57A6FD0D80D4A13600D4B00220C
:102CF0001A70FEF757BE012CC7D10B4B1A68002A79
:102D0000BCBF00221A601A68084B1A60FEF74ABE60
:102D100000000020DB570008A5560008E357000814
:102D2000B806002098060020380100205401002039
:102D30004FF04023D3F80024D3F80424D3F80C2414
:102D400022F01002C3F80C244822C3F81424034BC9
:102D50001A78034BDA65A3229A6570474006002073
:102D6000000002404FF04023D3F80024D3F804249D
:102D7000D3F80C2442F01002C3F80C240822C3F844
:102D8000142403F5E03300229A6570470C4B1B882E
:102D90001A461946121103D10A0703D0FFF7E2BF02
:102DA0005140F7E7074A4AF6AA211160C3F30B0224
:102DB0001B05054B48BFA2F580521A60704700BF43
:102DC0003402002000300040B806002037B5164C11
:102DD00094F82330DBB1B4F92810A1F13202824219
:102DE0000BDD00230093B4F92610A3F5FA6301F07C
:102DF00012FE0E4B186003B030BD323181420FDA43
:102E00004FF4FA6300930023B4F92A20EFE7B4F9F2
:102E100026103231814205DA4FF4FA620092F3E76C
:102E20000020E6E71846E4E700000020B80600208E
:102E300010B5274B93F82530002B39D0254B5A6B12
:102E4000B2F5FA6F27DBA3F58833234C23484AF603
:102E5000AA211960224902F5FA7393FBF1F34FF4AA
:102E60007A7101FB032321680B440168236001315F
:102E7000016089070FD11B49086883420CDDB2EB62
:102E8000C30F15DB184A5B4213604FF0FF30FEF7AB
:102E900025FC0023236010BD13480068834207DA35
:102EA0005242B2EBC30F03DC5B420B600120EEE742
:102EB0000E4B0F4A1A60074B49F291229A61312258
:102EC0001A626FF004021A610422DA60E3E700BFBD
:102ED0000000002000400140CC010020C80100207B
:102EE00018FCFFFFC4010020C00100203C060020A8
:102EF000CD320008F8B5724B1A6912F0010232D0D7
:102F00006FF001024FF090441A61236913F004033B
:102F10000DD16C4A92F82C20012A05D1FEF726FC2F
:102F2000694B01221A70F8BD684A1360FBE7684AD2
:102F300013680133072B1360F5DD664B664A1A6090
:102F4000FEF7ECFB4FF0402340F63542C3F808246F
:102F5000226912045CBF0822C3F8142442F22C0236
:102F6000C3F80C24DFE7574E96F82C000128D5D083
:102F700056495D6B0F687C1C0C60002FD3D0574FF7
:102F80004CF6CC4C0128C7F800C044D9514B544AE8
:102F90001A60FEF7C3FB4FF0402340F21242C3F821
:102FA000082496F82C20032A1CD0042A20D0022AB8
:102FB00004D14C4B4C4919604C4B1A704FF04022D5
:102FC0000823C2F81434D2F80C3443F4005343F00D
:102FD0001403C2F80C34464B02F204421A66454A06
:102FE0005A66A0E73F4B444A1A60404B2022E4E770
:102FF0003C4A424911603D4A192111704FF49662D2
:10300000C3F808244FF4A052C3F80C244FF4005224
:10301000C3F81024D2E79E6A2846F6B1B5F5FA6FD8
:1030200006DD2C4B364A1A60BDE8F840FFF700BFBA
:10303000986A772808BF0E229A6201225A610023FB
:103040000B6070E74010013B9528FBDC2D4A1068AF
:10305000984204D013600123F2E70323F4E7002B26
:103060007FF761AF032C7FF75EAF1A4A26491160E4
:103070001C4A2649264811602649584301EB600244
:10308000B2FBF0F22448013A92B202802348434353
:1030900001EB6301B1FBF3F1214B01391980084BBE
:1030A0000021196244219960332199610121D9607D
:1030B000DA62596103F540431A4A1A661A4A8FE7E1
:1030C000004001400000002098060020EC01002094
:1030D000E80100203C0600201533000800300040C5
:1030E000312D0008380600208D2D000840060020F4
:1030F00000000240340200206132000889310008DB
:10310000312E0008E40100202D310008ED330008C5
:10311000F0490200000E270732020020D8B805004F
:103120003002002034400140F0010020134BDA68E7
:10313000D10722D51A69D2071FD56FF001021A6193
:103140001A6A42B901221A624FF090430C4A1B6975
:1031500003F0040313700B4B2022DA6540F2A352F4
:103160009A65A3F540434FF0FF32DA6201225A61BB
:1031700081221A604FF40072DA607047004001400B
:103180003406002000000240F7B5314C23780F2BA5
:1031900004D003B0BDE8F040FFF7E4BD2D4B4AF684
:1031A000AA221A602C4A92F82D300B21013B594378
:1031B00003EB430303F00705C910033303F00703D0
:1031C000481C01F1020C01269E409D42205C14F82F
:1031D0000C30C5F1080706F1FF3617DA3340BB4063
:1031E0002841184392F823301BB340F2B133984280
:1031F00014DC0023009340F2B232A3F5FA63F0210D
:1032000001F009FC154B186003B0F0BD0C44BB4045
:1032100028411843E3783340AB40E2E740F24D41A8
:10322000884211DD4FF4FA63009340F20F720023DD
:10323000E6E7B0F59F7F09DD4FF4FA6200924FF4A4
:103240009F7140F20F72DBE70020DBE71846D9E7F9
:10325000340200200030004000000020B8060020AA
:10326000F0B4174B1A78202A02D15A78402A02D09B
:10327000F0BCFFF777BD134A5C8892F82D70DE78BA
:103280009A7840F2DC504FF69F75012132448F420C
:103290005E79A5EB020501F101011A7908BFC4F3BB
:1032A0000B000F2942EA062403F10203EED1AC42DF
:1032B000DED1054B4AF6AA22F0BC1A60FFF786BDA4
:1032C0003402002000000020003000400E4B5A6BFA
:1032D000986BB2F5FA6F16DBA0F11C03042B07D82C
:1032E0000A4B4AF6AA221A60094B01221A7070474B
:1032F000A0F54873B3F5AF6F05D8044B4AF6AA2280
:103300001A60FFF763BD7047004001400030004085
:10331000970600204FF0402310B5D3F80C24100678
:1033200017D52E4A2E4C1168481C615C1060C3F8FA
:1033300004142C490C68A0420ADB6FF04000C3F86B
:10334000000442F24800C3F80C04002313600B6031
:1033500010BD510608D56FF04002C3F8002442F2B8
:103360002C02C3F80C24F3E7D3F800241B4992077E
:103370000B6803D440F2FF32934203D11A4A8020F3
:10338000C2F8000C4FF04022D2F80424D2B2082A2E
:1033900001D07F2A03D1002BDAD0013BD7E75C1C98
:1033A0000F480C60022CC25406D1037823B943782D
:1033B000FF2B01D101F074FF0A2AC9D10023035564
:1033C00007480B60FEF7BEFA064B18600028BFD016
:1033D0004FF0402342F28802C3E700BFD40100202F
:1033E00034020020D001002000200040B64A916D38
:1033F00011F01001F8B520D0B44B4FF48031D960F2
:103400000021D960A3F550434FF400405864812057
:10341000186091652021D16540F2A35191654FF06C
:10342000FF32DA62442101225A61996033219961A5
:103430001A624FF40072DA60F8BDA54BA54C1F88E4
:103440007E1C4FEAA60C22460B4608462546B2F8DB
:1034500002E05B00F44500F10200D8BF43F0010335
:10346000202802F1040240F08F809B4A184616780B
:103470001A46001140F09B8006B1D24312F00F02B1
:1034800040F0878095484AF6AA270760002E63D04F
:1034900000F58830782602628260826186610126AA
:1034A00006620826466000F540408D4E8265172270
:1034B000C26540F293528265306868B9894A1768DC
:1034C0004FF6807217B1BA42A8BF3A46B2F5007FF4
:1034D0006FDA42EA40223260326817011046121158
:1034E0006AD1C04300F00F00DFF8FCE138438F00E1
:1034F00040FA07FC0CF00F0C0F441EF80CC0013111
:103500000CFA07F7042942EA0702F0D14FF0FF3026
:10351000132142FA01F7FF0748BFC043013924F8DD
:10352000020FF6D2002029806885A88572B66F49FF
:103530004A6AC2F560620F32632AB8BF6322CA6268
:10354000012248634A616A4A1288CA6262B66949BE
:103550000A689ABB0022326003F010025B1100F08F
:1035600088812F2B31DD12B1634A01211170634A2A
:1035700092F823203AB3B3F5836FACBFA3F217439D
:10358000C3F12F035B0078E1B2F800E076453FF726
:103590005EAF4D4B00229A65A3F5404385221A6029
:1035A0006FF001010122DF625A61196143E7424075
:1035B0005FE75210013089E7504090E7013A0A6016
:1035C000002AC7D0C8E72F3B57E1002A3FF434AFA9
:1035D000444A106800287FF42FAF49490A68934293
:1035E000484A1CBF0B6010601368092BDCBF013315
:1035F00013600B68591E2E293FF61EAF01A050F82C
:1036000021F000BFC1360008C1360008C1360008ED
:10361000C1360008C1360008393400080D370008EB
:103620001D3700082B3700083D37000839340008E3
:103630004B3700085D370008793700083934000837
:1036400039340008393400083934000839340008A6
:103650008F3700089F3700083934000839340008D4
:103660003934000839340008393400083934000886
:103670003934000839340008393400083934000876
:103680003934000839340008393400083934000866
:103690003934000839340008393400083934000856
:1036A000AD370008C9370008F33700081D38000897
:1036B0004B380008393400083934000865380008F0
:1036C000114A1370B8E600BF00000240001002402B
:1036D00032020020F00100203406002000300040BB
:1036E0009C060020B40600207459000800400140E8
:1036F00030020020E001002097060020000000209A
:10370000DC010020D8010020950600201368062B5C
:103710007FF492AE5C4B00229A758DE61368062BFF
:103720007FF48AAE584B0122F6E71368062B7FF42C
:1037300083AE554B002283F823207DE61368062BC9
:103740007FF47AAE504B0122F5E71368062B7FF425
:1037500073AE01F0BDFA4D4B18606DE61368062B91
:103760007FF46AAE4A4B01221A704A4B4FF46062F2
:103770001A60494B0A2284E01368062B7FF45CAE82
:10378000434B00221A70434B40F6FF62F0E7136888
:10379000062B7FF451AE414B00221A704CE61368A1
:1037A000062B7FF449AE3D4B0122F6E71368062B4A
:1037B0007FF442AE344A137E0133082BA8BF0123A5
:1037C0001376324A136037E61368062B7FF434AE63
:1037D0002D49CA7E920801320C2A03D8062A1346C4
:1037E000B8BF0623DAB29000D200C8760A77053B4C
:1037F000E7E71368062B7FF41FAE23490A2291F8EE
:103800002030B3FBF2F30133DBB20B2B28BF0023D4
:1038100003EB8302520081F82020D2E71368062BC5
:103820007FF40AAE184A92F82130632B0ADC591C47
:103830000A2906DD05330521B3FBF1F303EB83030E
:1038400000E00B4682F82130BBE71368062B7FF4BB
:10385000F3AD0D4A92F82130012BF3DD013B0A2B29
:10386000F0DDE8E71368062B7FF4E6AD01F076FAA9
:1038700071E712B10A4A012111700A4A13600A4B1A
:1038800000221A60D8E500BF00000020540100208B
:10389000940600209C060020E001002096060020EF
:1038A00097060020B8060020DC0100200C4B0D4AD2
:1038B0001A600D4B4FF400425A6454229A60312230
:1038C0009A61032101221A62D960772199624FF02F
:1038D000FF31D962042119605A6185221A6070474C
:1038E0003C060020F52E000800400140014B1B68FB
:1038F000184700BF3C060020034B4FF400325A60CB
:10390000024B1B68184700BF000002403806002029
:10391000FFF7ECBF704770470D4B44F24002C3F80D
:10392000182C4022C3F81C2C40F24442C3F8202C2F
:103930002022C3F8142C46F66802C3F8182C68221B
:10394000C3F81C2C2122C3F8142C0020FDF7D2BE92
:10395000002001402DE9F0471F4C23788AB053B175
:103960001E4A013B92F836111D4A52F8230001F01D
:1039700007FA002323701B4F3B68002B29DB174AF3
:1039800092F835516A46002490460A2093FBF0F1E4
:1039900000FB113342F8043B26460B460134002954
:1039A000F4D1192DDFF840A0DFF84090B8BF1925F9
:1039B0003446B44203D02946504601F0E1F958F8A4
:1039C0002430294659F8230001F0DAF9013CF0D2FD
:1039D0003C600AB0BDE8F08795060020000000209A
:1039E000B0590008540100201858000884590008F4
:1039F0002DE9F843B24BB34C1978B34BB34A1B785B
:103A000023B3B34B587DB1B140F2144140F254435B
:103A1000002808BF0B46582146F65800C4F8180C79
:103A2000C4F81C1CC4F8203C01231360A94B0622D7
:103A30001A60BDE8F88340F2411140F24553002876
:103A400008BF0B46682145F66800E7E7A24B1D68F2
:103A50001368002D67D04FF08040C0F83C54C0F888
:103A60002C540125C0F814549C4D287820B91BB162
:103A70003C2673433B3B13601368002947D0013B4E
:103A8000002BD8BF4FF4B47313601268571E772F02
:103A900043DC02F1EF0C77328323C4F8003C41F29F
:103AA0008733C4F82C3C8E4E894B997E36F81730FC
:103AB0004B431B114233C4F8343C36F81C304B43A3
:103AC0001B114233C4F8383C36F812304B431B11FB
:103AD0004233C4F83C3C8123C4F8003C0028A8D100
:103AE00046F66803C4F8183C6823C4F81C3C40F24E
:103AF0005553C4F8203C2123C4F8143C4FF08043B4
:103B0000C3F80C04FDF7F6FD01232B7091E7013398
:103B1000B3F5B47FC8BF0123B6E7EF2FA2F1790C4C
:103B2000B9DDF13AB8E7002900F08C80013B002BA9
:103B3000D8BF0623136012686A4B02F1FF3C02F003
:103B4000010213F80C30551A6FEA030603EAD30793
:103B500018BF012506EAD30617F001034FEA8505D1
:103B600075D05B48407D002818BF052343F480537F
:103B700040F6680017F0020F7ED0DFF854E19EF89F
:103B800015E0BEF1000F0CBF4FF0100E4FF0500EBD
:103B900040F4C04043EA0E037F077ED54C4A527D75
:103BA000002A0CBF4FF480724FF4A062134346F614
:103BB00068024D4FC4F8180CDFF81881C4F81C2CAB
:103BC0004A4AC4F8203C3B6842F82C30D8F8003010
:103BD000474E062B0CD1D2E900310B4491680B44BF
:103BE000D1680B44116952690B4413445B10336074
:103BF000DFF80091D9F80000FDF77CFD3B683E48F6
:103C0000C9F80050B3F57A7F7ADD3C4B4FF47A72F5
:103C10001A60002303603368B3F57A7F4FF0000227
:103C200080F28F80C4F8402C4FF080438522C3F887
:103C300000244FF080430022C3F810240322C3F86D
:103C40000C24F6E60133062BC8BF012372E7F30705
:103C50000DD48A4240F6080E41F2040340F64800B3
:103C60001CBF4FF48053704645F0010582E741F2D6
:103C7000040340F658007DE716F0020F04D040F42C
:103C8000A04043F0400387E78A4204BF40F48040ED
:103C900043F0400345F002057EE7760704D543F480
:103CA000806346F6580284E78A4206BF43F4806385
:103CB00046F6480246F6080245F0030579E700BFDC
:103CC0007A06002000200140780600208C060020A3
:103CD0000000002084060020880600207D060020C9
:103CE00028530008C4590008800600206006002000
:103CF000B40600205C060020540600205806002070
:103D000002680132062A026085D116490A68934288
:103D1000B4BFD21A9A1AB2EB630F4FF000020DDD56
:103D20004FF08043C3F80C240F4BC8F800201A70E2
:103D300042F210733B600D4B33607AE60B60026019
:103D400069E7B3F5FA6FAABF4FF40072C4F8402CCC
:103D5000C4F8402C4FF08043B4BF40F2851240F2CB
:103D6000852264E7580600207C0600200087930324
:103D7000054BD3F80C2C920605D56FF02002C3F842
:103D8000102CFFF735BE7047002001404FF08043F4
:103D900070B5D3F80C24D3F81014D00714D5C90784
:103DA00012D56FF00102C3F810240022C3F80C24CE
:103DB0001F4B1A601F4B1A701F4B42F210721A6091
:103DC0001E4B1F4A1A6070BD9307FCD51A4D4FF069
:103DD00080432A68D3F83434B3EB620FF3DB144822
:103DE00002EB4202B3EBA20F01681FDA8E1F74428E
:103DF00074411A44134B0F4E1B7E3470941063436E
:103E00001B11C3EBE2034FF080422C600529C2F87E
:103E10003C344FF00103C2F81434D8BF01314FF0E5
:103E20000003C2F80C34D8BF0160CCE70024E0E7FF
:103E3000840600207C06002080060020B4060020B6
:103E4000008793030000002037B51D461E4B1F4915
:103E50001C68121B31D401230B7020EAE0710A2286
:103E60001B4800F0EAFD1B4B0722186000211A488E
:103E700000F0E3FD194B042218600021184800F0FF
:103E8000DCFD184B1860184B1B78A3B1052229469E
:103E9000164800F0D2FD164B93F824304FF4FA6226
:103EA00003EB830300929B0040F28D32C82100F0A7
:103EB000B2FD104B186003B030BD09780029CCD199
:103EC00004EB62041C60C8E7500100207906002062
:103ED0004C010020AC06002048010020A80600206C
:103EE00044010020A4060020980600204001002084
:103EF00000000020B80600204FF0E0234FF0805271
:103F0000C3F8042D0022C3F8102D064A137801339C
:103F1000DBB213701B0701BF034A13680133136040
:103F2000704700BF7B0600209006002038B5384C53
:103F3000237833B1374B93F82E5015B900F018FDA4
:103F40002570354B1B781B074CD1FDF72BFC334BF1
:103F5000304D1A68324C12F01F021DD1314B1B78C4
:103F6000A3B131490B780133DBB2022B0B703AD08D
:103F7000032B41D0012B48D12C4B1B7843F4007309
:103F800072B62B4A116801B9136062B695F82E30EB
:103F9000012B01D100F0ECFC264B95F837011A7883
:103FA000824202D01870FFF7B6FC234822680368EB
:103FB000224913440A6803600132B2F57A7F0A602D
:103FC00010DB4FF47A7293FBF2F31D4A146823441A
:103FD00013604FF4B47293FBF2F31A4A1360002398
:103FE00003600B6038BD184B19221B6893FBF2F37A
:103FF000DBB243F48063C3E723680A70642093FB59
:10400000F0F3DBB243F4C063BAE71346B8E700BF8E
:1040100097060020000000207B060020900600206C
:10402000A40600209406002050060020AC060020C4
:104030009C0600203C0100204C0600204806002081
:1040400044060020A0060020A80600202DE9F04F1D
:10405000B648B74AB749B84CB84F8FB0121A01F0FA
:10406000C3F800F015FDB64AE37D137094F82430D0
:10407000B44A03EB83039B003B6094F82C305D1E35
:104080006B426B41B04D1370FDF71AFAFFF742FC1B
:1040900000F0DAFBFFF70AFC48F64203C5F8443C9F
:1040A00041F28733C5F82C3C8123C5F8003C352309
:1040B000C5F8043C4FF080433B22C3F82824002677
:1040C0000422C3F82C64C3F800240122C3F814248A
:1040D0008522C3F800248021FE2001F001F94FF071
:1040E000E02341F64B525A6107229E611A6194F80F
:1040F00033300793954BD3F824804FF0807218F03B
:10410000C0465A6200F0DE80237D13B918F0804F5C
:104110001CD08F4E42F6DF63B36240F6C313F362E6
:10412000042333604FF001080523C6F81480336080
:10413000C7F800803369D80740F1DC8000233B607A
:10414000336094F83511834800F01AFEFFF7E4FB62
:104150001422002109A800F0D1FF4FF4C87308937E
:104160004FF416734FF0000A0A93DFF8ECB1CDF864
:104170000CA00223CDF818A00493564652464FF0E7
:10418000E0230221C3F8101D30BF6C4B18686C4B44
:104190001B78002B40F0B880637E03EB830189001D
:1041A000002B00F0B480DBF80030002B18BF142384
:1041B000002E18BF1646002840F3E4800B448342CB
:1041C00080F2A780A27F637F02EB8202920003EB62
:1041D000830300929B004FF4FA6200F01CFC8146BE
:1041E0005E4AA37D12785340002204925C4803701B
:1041F000DBF80030002B00F09081B9F1000F40F0A7
:104200005E81584A116839B1B4214B431360564A54
:1042100092FBF3F3554A1360554B1B68F3B972B622
:10422000544B42F210721A604E4B4F4A1A60FFF71D
:10423000DFFB2123C5F8143CD5F80C3C43F02003E8
:10424000C5F80C3C4FF080434FF6FF72C3F83C2496
:10425000C3F82C240122C3F8142462B60127FFF707
:1042600079FB454B1B7813F00F0240F0E38107996F
:1042700094F8323013FB01F30A214B433F4909689C
:104280008B4240F3AF810AF1010A40F6B8339A45F8
:1042900040F0A98172B68023C5F8143C2C4B42F63D
:1042A000DF629A6242F20F72DA6201225A611A6088
:1042B0006FF001021A611A69D207FCD58022C3F897
:1042C000002CFEE794F8351104F1350000F058FD9C
:1042D00094F83230002B3FF417AFDFF8A49005E0DC
:1042E00094F83511484600F04BFD0136079B9E427D
:1042F000F6DB09E730BFFFF72DFB3B68002B3FF4EF
:1043000019AFC6F8148015E700210B4650E719468F
:10431000FBE7912300930A464FF47A73002100F0E3
:104320007AFB4FF00009CBF8000059E700000020AD
:10433000380100200010000800000020B80600200E
:10434000780600209806002000200140001002405E
:10435000002000401F580008880600209606002014
:104360007A060020B406002000879303B0060020E0
:104370008C060020800600207B060020A806002076
:104380001B58000800F09080AC4A92F82370022F6E
:10439000C0F1000062D1049F022F5FD092F822305A
:1043A0004FF4FA6203EB83039B000092002100F0BC
:1043B00032FB012380464FF0000904934F46E27E12
:1043C0009F4BB3FBF2F20592002F00F0BF809D4A95
:1043D000126882B19C4890FBF2F09C4A47F230513F
:1043E0001060227FB3FBF2F34EF660220093059B30
:1043F00000F011FB0590964B1B68052B00F3938092
:10440000E07F00EB80008000069B8C49A9EB03064F
:10441000904B26EAE6761B788642A8BF0646002B1C
:1044200040F0928091F821200398D31002F0070207
:104430008242039A02F10102C8BF0133082A08BF71
:1044400000224645039203DD43449E42A8BF1E4618
:104450004B7D002B0CBF0023422379E00B448342A9
:1044600015DAA27F637F02EB8202920003EB8303E3
:1044700000929B004FF4FA6200F0CDFA8146764B31
:10448000A27D1B78002A08BF83F00103AEE69123CA
:1044900000930A464FF47A73002100F0BCFA4FF003
:1044A0000009CBF80000EAE7049B94F82280012B76
:1044B00008EB88084FEA880808BF02237BE772B63A
:1044C000664B00781B683C22013B93FBF2F14A43A8
:1044D00030B3D21A02F13C03DBF8002053434FF013
:1044E0008042C2F83C344FF6FF73C2F82C340123EB
:1044F000C2F814341944594B594A196000231370F7
:10450000534ACBF800301360524A1370554B42F2B5
:1045100010721A60FFF76CFA62B6B04601274EE7D8
:104520009B1A0133D8E7454B484893F820204FF4B5
:10453000FA6300934FF47A714A434FF4FA730021FF
:10454000006800F068FA5FE700226DE746463B46E8
:10455000454A1278002A43D0059AB43A00920021C5
:104560004FF4FA62304600F056FA8323C5F8003C57
:10457000059BC5F82C3C8123C5F8340CC5F8380CD4
:10458000C5F83C0CC5F8003C002F7FF445AEDFF8C1
:10459000CC80D8F80030002B3FF461AE72B6D5F86D
:1045A0000C3C23F02003C5F80C3C4FF08043012263
:1045B000C3F82C74C3F81424C3F80C74FFF7ACF9D7
:1045C000274BC8F800701F70214BCBF800701F609C
:1045D000204B1F701B4B1F601C4B1F6062B63EE6DA
:1045E000059ABBE79246DFF8549099F83180B8F10C
:1045F000000F0BD01D4B1B686420A3EB080340F297
:10460000DC520021584300F0FDF9804699F834004F
:1046100038B1174B64224243196808A800F01DFA0C
:104620008012069B03444FF4FA624146184600F09C
:10463000E9F9069032463E46A1E500BF00000020A1
:10464000C0D40100B406002000879303B006002008
:10465000840600207C060020960600208C060020A0
:104660007D0600208006002078060020AC06002091
:10467000A4060020084BD3F80028D3F8042842F2FF
:104680001402C3F80C280822C3F8142803F5504379
:1046900000221A63704700BF00300140C0F57F431D
:1046A000CAB2F93330B59B1AC1F307229B1A064AE6
:1046B00004460D12062013711B1210705470917075
:1046C000D570537130BD00BFC006002008B51C4B2B
:1046D0001A78042A03D0FFF7CDFF002008BD5878D0
:1046E0005B884FF6FB7203449342F4D100F00F0253
:1046F000012A0ED0022AF0D140F2022100F0F0038C
:10470000902B10D0A02B07D0803B584258418000FE
:10471000E4E740F20121F1E7022A08D0094B1968C9
:104720000A2328315943BDE80840FFF7B7BF064BBD
:10473000064A93F8303011685B0891FBF3F1F2E719
:10474000C0060020AC06002000000020B0060020BB
:104750000368134403EB2323DBB210B50360A2F11B
:104760007D03012B064806D80B685C1C0C607D2479
:10477000C45402F0DF020B685C1C0C60C25410BD14
:10478000C006002037B52B4B1A787E2A04D0FFF7DD
:1047900071FF002003B030BD27485A7890F82F30C1
:1047A00002F01F02013B9A42F3D1244B19684A1CC4
:1047B000002938D0022A4FF00001F8D11A6090F891
:1047C00030301F4A4FF4A06514685B0894FBF3F483
:1047D000002301A910226846CDE90033FFF7B8FF96
:1047E00005F070026846FFF7B3FF2A0A6846FFF734
:1047F000AFFFE2B26846FFF7ABFFC4F3072268469B
:10480000FFF7A6FFC4F307426846FFF7A1FF220E99
:104810006846FFF79DFF009AD2436846D2B2FFF781
:1048200097FF0198B6E71A60064B4FF437651C688E
:10483000CEE700BFC006002000000020BC0600201C
:10484000B0060020AC0600201B4A40F21243C2F81A
:1048500008381A4B93F82E10194B022913D003294C
:1048600017D01A68144B0AB30822C3F8142842F26E
:104870001402C3F80C28134B1349144A59629A6264
:104880009963DA637047124A1A60124A0421117060
:10489000E7E7114919600F490220087040F623012B
:1048A000C2F808180021C2F81018DAE78822C3F805
:1048B000142842F20802DCE700300140000000202A
:1048C000D40600200000024004380140C006002049
:1048D000CD460008D0060020854700080F4BD3F8CE
:1048E0000C2812F0400F42F2040206D06FF0400193
:1048F000C3F80018C3F80C287047D3F80018D3F891
:104900000418C3F80C28C822C3F81428044B1A78DA
:10491000044B5A63A3221A63704700BF0030014062
:10492000D00600200000024010B50E4C23689B0604
:1049300004D5202363600023E36110BD4FF40073AE
:104940006360094B1B6898470028F6D0074B6FF04F
:104950004002C3F8002842F24802C3F80C28206243
:104960009323E9E700000240D40600200030014014
:104970001D4BDA6912F0010230B534D11B4B1C48D3
:1049800019680068642391FBF3F11A4B18701A48F8
:10499000197200689870041218485C7000681871E9
:1049A00004121748DC700068987104120812D8715C
:1049B0005C7109201D4613F8011B08244A4051B2BE
:1049C0000029BBBF490081F007015200CAB2A8BF4D
:1049D000D2B2013CF3D10138EDD1034B6A720A2205
:1049E0001A629322DA6130BD00000240B006002056
:1049F000AC060020C0060020A8060020A406002067
:104A0000A006002003468B42084603DD9342A8BF60
:104A100013461846704710B504468C421846029B50
:104A20000ADD9442BFBF641A1B1A5C43521AAEBF20
:104A3000184694FBF2F4001910BD00290BDB036843
:104A4000002BB8BF01FA02F319441341C91A0160DF
:104A500041FA02F070470020704730B50346D0E9B4
:104A600003508A1A10446C42A04203DDA842A8BF3A
:104A7000284604465869C3E90441081AD3E90015D9
:104A80009B686C4301FB024403FB004030BD000007
:104A900010B58E4B187D021E18BF01221A755A7D63
:104AA000111E18BF01215975997D003918BF0121C8
:104AB0009975D97D003918BF0121D975197E07294B
:104AC000A8BF07210129B8BF012119763AB15A7E42
:104AD0002AB1192AA8BF1922052AB8BF05225A7679
:104AE0009A7E197F0F2AA8BF0F22012AB8BF012280
:104AF0009A76DA7E302AA8BF3022102AB8BF102258
:104B00008A42DA7603DA60290A46A8BF60221A7759
:104B10005A7F997F642AA8BF6422012AB8BF012264
:104B200091425A7703DD64290A46A8BF64229A7726
:104B3000DA7F192AA8BF1922012AB8BF0122DA7721
:104B400093F8202012B1642AA8BF642283F82020A1
:104B500093F82120642AA8BF6422012AB8BF012249
:104B600083F8212093F8222012B1642AA8BF64227E
:104B700093F82C1083F8222001297BD093F823206E
:104B800012B1022AA8BF0222D2B283F82320002841
:104B900072D193F8242012B1642AA8BF6422D2B241
:104BA00083F8242093F82520B3F92A40003A18BF4F
:104BB000012283F82520B3F9262040F26C7082424E
:104BC000A8BF0246B2F5617FB8BF4FF4617202F12F
:104BD000C8008442DA8404DD40F63400A042A8BF55
:104BE0002046B3F9284058856432944204DDA0F190
:104BF0006402A242A8BF22461A8500293ED183F84A
:104C00002C10002283F82D2093F82E20002A4CD15E
:104C1000002283F82F2093F8302022F00102642A2A
:104C2000A8BF6422022AB8BF022283F8302093F87A
:104C300031202AB18C2AA8BF8C223C2AB8BF3C2242
:104C400083F8312000225A8683F8342093F83521E6
:104C500012B1642AA8BF642283F8352193F8362163
:104C600012B1642AA8BF642283F83621002283F897
:104C7000372110BD002288E7002291E704290A4667
:104C8000A8BF0422022983F82C20BADD93F82D2036
:104C900003290CBF0E211021012A04DD8A42A8BF7E
:104CA0000A46D2B2AEE70122FBE7032A1146A8BFAB
:104CB0000321022A83F82E10AADD93F82F201C2A44
:104CC000A8BF1C22012AB8BF0122A2E700000020D1
:104CD00038B51C4B1B680BB1002038BD72B61A4B9F
:104CE0001A4A5A6002F188325A604FF0FF32DA6095
:104CF00002221A61164A5A6142221A61DA68D20700
:104D0000FCD401221A61134B1149134A0E481C4668
:104D100093420FD38023036162B6C36813F0140F6C
:104D2000DAD10C490A48121B00F0D8F9B0FA80F029
:104D30004009D2E733F8025B21F8025BC568ED0752
:104D4000FCD4E5E7B40600200020024023016745BB
:104D500000100008000000203801002008B572B6DD
:104D6000054906484FF49C7200F03EFA62B6BDE871
:104D70000840FFF7ADBF00BFCA590008000000207F
:104D80002DE9F3470A220C4601A9054600F05AF91D
:104D9000019AAA427FD0A0F10A0140F2DD33994284
:104DA00000F2A78043F6982898FBF0F8002C6ED00C
:104DB000524B1B68002B40F09C80DFF8449199F81F
:104DC0000060002E40F097804E4DDFF83CA101239B
:104DD00089F8003046F65003C5F8183C5023C5F852
:104DE0001C3C40F25443C5F8203C0E23C5F8283C37
:104DF0006400174617F8013B6BB3A3F16101062964
:104E00004CD8633B00200733072193FBF1F1C1EB42
:104E1000C1015B1A5B005178042BC8BF03F1FF335B
:104E2000232904BF0133971C384A32F81330304429
:104E30000341C5F82C3CC5F8384C21230A22C5F89B
:104E4000143C01A9384600F0FDF8019ABA423BD063
:104E5000431E622B39D944F24003C5F8183C402365
:104E6000C5F81C3C40F24443C5F8203C41F287326F
:104E70000023C5F8283CC5F82C2C2122C5F8142C99
:104E800017F8014C89F80030B4FA84F4640920461C
:104E900002B0BDE8F0874FF07D0887E7A3F141013C
:104EA000062902D8433B0120ADE75F2BC5D02B2B51
:104EB00003D1002ECFD1012604E02D2BCBD1002E23
:104EC000C9D0013E3A4694E7012011490B680127F9
:104ED00000FB08330868984204D10023C5F8383C29
:104EE0001746EFE7DAF80000C00748BFCAF81470A9
:104EF000F0E70024CBE71C46C9E700BFB40600205A
:104F0000D80600200020014000200040025B00087D
:104F100090060020931E222B10B50C4604D90023C6
:104F20000B701C46204610BD0A2A09D1002807DA5A
:104F30002D230B7040420121214400F08DF8F1E750
:104F40000021F9E7FFF7E6BF242B2DE9F04786465D
:104F5000904601D8012B06D100F040F916230360DA
:104F60000020BDE8F08736480D462A4615F8014B6B
:104F7000065D16F00806F8D12D2C24D12C780126D8
:104F8000951C2BBB302C30D00A2306F1004C0CF1C1
:104F9000FF3C0022BCFBF3F9104603FB19CAA4F145
:104FA0003007092F28D83C46A34234DD571C07D0D0
:104FB00081452DD301D1A2452ADB00FB034001220C
:104FC00015F8014BEBE72B2C04BF2C78951CD8E788
:104FD000102BDAD1302CD8D12A7802F0DF02582AEF
:104FE000D3D16C7810230235CFE72B7803F0DF03A1
:104FF000582BF6D00823C8E7A4F14107192F01D890
:10500000373CD1E7A4F16107192F04D8573CCBE70F
:105010004FF0FF32D4E7531C08D12223CEF80030E2
:105020006046B8F1000F9CD0691E06E006B1404210
:10503000B8F1000F95D0002AF6D1C8F8001090E71B
:105040001D5B000813460A46014602480068FFF748
:105050007BBF00BF58010020F0B51F4C8BB0054648
:105060000B466E4604F1200C20686168374603C782
:10507000083464453E46F7D121793971911E206884
:10508000386022294FF0000104D919700B461846E8
:105090000BB0F0BD581E8446B5FBF2F702FB175665
:1050A00028366E440C4616F8286C0CF8016F2E4614
:1050B000B24201F101013D46EED900225A541919BC
:1050C000A51AAA42E3DA10F8015F0E7806700132E1
:1050D00001F80159F4E700BF9558000810B50139EF
:1050E0000244904201D1002005E0037811F8014FFD
:1050F000A34201D0181B10BD0130F2E70244034661
:10510000934200D1704703F8011BF9E730B50D4D0C
:10511000044614F8013BEA5C02F00302012A11F88C
:10512000012BA85C00F0030008BF2033012803D145
:105130002032981AEDD030BD981AFCD1002AE8D15F
:10514000F9E700BF1D5B000810B50B4662B913F804
:10515000012B002AFBD104E013F8014B00F8014BAE
:1051600014B9581A013810BD013AF5D10270EEE7B2
:1051700002460023006800F000B8F0B5044608B904
:10518000146844B1204614F8015B0F4617F8016B10
:105190001EB965B91560002005E0B542F6D1002BB7
:1051A000F0D114600370F0BD1C460CE015B914F882
:1051B000013B0E4616F8015BAB42F7D1002BF3D052
:1051C000002304F8013C1460EDE7034611F8012BBD
:1051D000184603F8012B002AF8D17047014B1868D4
:1051E000704700BF580100200A44914200F1FF338C
:1051F00000D1704710B511F8014B03F8014F9142EF
:10520000F9D110BD034613F8012B002AFBD1181A5F
:1052100001387047FEE7704710B5164B164A17491C
:105220008B4218D30021164A934217D38023154A84
:105230009B001168144C0B431360144B9C420FD31A
:10524000134C144B9C420ED3FEF700FF124C134B31
:105250009C420BD310BD01CA01C3E1E702C3E3E7DF
:1052600008CC9847E9E708CC9847EAE708CC984784
:10527000EDE7C04638010020285C0008A8010020A6
:10528000DC06002014ED00E0205C0008205C000833
:10529000205C0008205C0008205C0008205C0008FE
:1052A000014B024A1A60FEE70CED00E00400FA052B
:1052B000044A43099B009B181F2210401E3A82405B
:1052C0001A60704700E100E0044A43099B009B1804
:1052D0001F2210401E3A82401A60704780E200E0B0
:1052E00010B51F2812D90F2318400438C0B2830804
:1052F000084A9B001824C0002040E73484408140C5
:105300009B181A68A2431143196010BD8308024A12
:105310009B00EFE718ED00E000E400E0C118040096
:10532000E1180400D1180400900197019E01A50125
:10533000AC01B301BA01C101C801CF01D501DC0143
:10534000E301EA01F101F801FE0105020C0212027B
:1053500019021F0226022C02330239023F024602C2
:105360004C02520258025E0264026A027002750226
:105370007B02810286028C02910296029C02A102AB
:10538000A602AB02B002B502B902BE02C202C70257
:10539000CB02CF02D402D802DC02DF02E302E70232
:1053A000EA02EE02F102F402F802FB02FD0200033F
:1053B0000303050308030A030C030F03110312037D
:1053C00014031603170319031A031B031C031D03FD
:1053D0001E031E031F031F032003200320032003BB
:1053E00020031F031F031E031E031D031C031B03B7
:1053F0001A031903170316031403120311030F03EF
:105400000C030A030803050303030003FD02FB0268
:10541000F802F402F102EE02EA02E702E302DF021E
:10542000DC02D802D402CF02CB02C702C202BE0203
:10543000B902B502B002AB02A602A1029C0296021A
:1054400091028C02860281027B02750270026A025E
:1054500064025E02580252024C0246023F023902C6
:1054600033022C0226021F02190212020C0205024C
:10547000FE01F801F101EA01E301DC01D501CF01F0
:10548000C801C101BA01B301AC01A5019E01970198
:105490009001890182017B0174016D0166015F0148
:1054A000580151014B0144013D0136012F012801F2
:1054B00022011B0114010E0107010101FA00F40091
:1054C000ED00E700E100DA00D400CE00C800C20021
:1054D000BC00B600B000AB00A5009F009A0094008D
:1054E0008F008A0084007F007A00750070006B00D6
:1054F000670062005E005900550051004C004800F2
:10550000440041003D003900360032002F002C00DD
:1055100028002500230020001D001B001800160095
:10552000140011000F000E000C000A000900070013
:105530000600050004000300020002000100010053
:105540000000000000000000000001000100020057
:1055500002000300040005000600070009000A001D
:105560000C000E000F0011001400160018001B00A4
:105570001D0020002300250028002C002F003200F1
:10558000360039003D004100440048004C00510005
:10559000550059005E00620067006B0070007500E6
:1055A0007A007F0084008A008F0094009A009F0098
:1055B000A500AB00B000B600BC00C200C800CE0021
:1055C000D400DA00E100E700ED00F400FA00010188
:1055D00007010E0114011B01220128012F013601D0
:1055E0003D0144014B01510158015F0166016D010C
:1055F00074017B01820189012E00300020090D0A0F
:105600000055736167653A0A696E666F0A73686F61
:10561000770A676574203C706172616D3E0A73653C
:1056200074203C706172616D3E203C76616C7565E2
:105630003E0A736176650A72657365740A706C61FF
:1056400079203C6D757369633E205B3C766F6C75A9
:105650006D653E5D0A7468726F74203C76616C758E
:10566000653E0A626565700A0045534361706533A3
:10567000322072657600205B005D0A54656D703AD9
:105680002000430A566F6C743A2000560A43757224
:10569000723A2000410A4373756D3A20006D4168EB
:1056A0000A4552504D3A200061726D0064616D7080
:1056B0000072657664697200627275736865640071
:1056C00074696D696E670073696E655F72616E679C
:1056D000650073696E655F706F77657200667265ED
:1056E000715F6D696E00667265715F6D61780064EF
:1056F0007574795F6D696E00647574795F6D61783A
:1057000000647574795F7370757000647574795F87
:1057100072616D7000647574795F726174650064A4
:105720007574795F64726167007468726F745F6D1D
:105730006F6465007468726F745F73657400746879
:10574000726F745F63616C007468726F745F6D690F
:105750006E007468726F745F6D6964007468726F54
:10576000745F6D617800696E7075745F6D6F6465EC
:1057700000696E7075745F636869640074656C6558
:105780006D5F6D6F64650074656C656D5F706869F1
:10579000640074656C656D5F706F6C65730070722A
:1057A0006F745F74656D700070726F745F766F6C8C
:1057B000740070726F745F63656C6C730070726FED
:1057C000745F63757272006D7573696300766F6CD8
:1057D000756D6500626561636F6E006C6564004F96
:1057E0004B0A004552524F520A0068656C700069BE
:1057F0006E666F0073686F7700676574007361761B
:105800006500726573657400706C6179007468720C
:105810006F740062656570005F34005F324400475A
:105820004300633600462332453244324332004758
:105830002341234723412347233200472341234762
:105840002341234623324723320047234123472362
:105850004123453246233247233200472341234721
:105860002341234432453246233247233200472323
:1058700041234723412343324432453246233247B2
:105880002332004547004641004742004142230081
:105890006144474500303132333435363738396169
:1058A00062636465666768696A6B6C6D6E6F707160
:1058B00072737475767778797A000000A8560008BC
:1058C000AC560008B1560008B8560008C05600088B
:1058D000C7560008D2560008DD560008E6560008F4
:1058E000EF560008F8560008015700080B5700084B
:1058F000155700081F57000829570008345700089B
:105900003E57000848570008525700085C570008E7
:1059100066570008715700087C5700088757000831
:10592000925700089E570008A8570008B257000871
:10593000BD570008C7570008CD570008D4570008C6
:10594000DB57000800000000EA570008EF57000886
:10595000F4570008F95700083A570008FD570008A7
:1059600002580008085800080D580008135800088D
:1059700000000000191B12131D1516171A090A0B37
:105980001E0D0E0F225800082C5800082A58000837
:1059900028580008255800082F5800083B580008D0
:1059A0004A5800085B5800086E58000800000000C4
:1059B0008358000886580008895800088C58000849
:1059C0009058000835192B321E2CEA3208005F531C
:1059D0004C4F544341520000000000000000000101
:1059E0000000040008306001640A0019460000014C
:1059F000E803DC05D007010000000E000000006491
:105A000066612300000000000000000000000000AC
:105A10000000000000000000000000000000000086
:105A20000000000000000000000000000000000076
:105A30000000000000000000000000000000000066
:105A40000000000000000000000000000000000056
:105A50000000000000000000000000000000000046
:105A60000000000000000000000000000000000036
:105A70000000000000000000000000000000000026
:105A80000000000000000000000000000000000016
:105A90000000000000000000000000000000000006
:105AA00000000000000000000000000000000000F6
:105AB00000000000000000000000000000000000E6
:105AC00000000000000000000000000000000000D6
:105AD00000000000000000000000000000000000C6
:105AE00000000000000000000000000000000000B6
:105AF00000000000000000000000000000000000A6
:105B000032006F77BB70686A7164CC5E7A597554E5
:105B1000B74F3D4B05470843443FB73B002020208B
:105B2000202020202020282828282820202020204D
:105B3000202020202020202020202020208810101D
:105B40001010101010101010101010101004040479
:105B50000404040404040410101010101010414137
:105B60004141414101010101010101010101010125
:105B70000101010101010101101010101010424239
:105B800042424242020202020202020202020202F5
:105B90000202020202020202101010102000000095
:105BA00000000000000000000000000000000000F5
:105BB00000000000000000000000000000000000E5
:105BC00000000000000000000000000000000000D5
:105BD00000000000000000000000000000000000C5
:105BE00000000000000000000000000000000000B5
:105BF00000000000000000000000000000000000A5
:105C00000000000000000000000000000000000094
:105C10000000000000000000000000000000000084
:085C2000E4F5FF7F0100000024
:105C2800FFFFFFFFFF000000FFFFFFFFFFFFFFFF79
:105C3800FFFFFFFFFFFFFFFFE40C0000FFFFFFFF78
:105C48005C01002000000000000000006800000067
:105C5800D00000000000000000000000000000006C
:105C6800000000000000000000000000000000002C
:105C7800000000000000000000000000000000001C
:105C8800000000000000000000000000000000000C
:040000050800521984
:00000001FF
