:020000040800F2
:1000000000100020F9050008F7050008F5050008B4
:1000100000000000000000000000000000000000E0
:10002000000000000000000000000000F7050008CC
:100030000000000000000000F7050008F7050008B8
:10004000F5050008F5050008F5050008F5050008A8
:10005000F5050008F5050008F5050008F505000898
:10006000F5050008F5050008F5050008F505000888
:10007000F5050008F5050008F5050008F505000878
:10008000F5050008F5050008F5050008F505000868
:10009000F5050008F5050008F5050008F505000858
:1000A000F5050008F5050008F5050008F505000848
:1000B000F5050008F5050008F5050008F505000838
:1000C0001F4B204A80211A6080221F4B12011A60A8
:1000D00011221E4B49041A60A0221D4B92031A6084
:1000E0001C4A10680143116080218904106808428D
:1000F000FCD0022219680A431A6090230121164A93
:10010000DB051A60154A49421160802214499202A7
:10011000086802430A6080221249520008680243BC
:100120000A60802210495205086802430A601021C3
:100130000E4802680A4302601A688A431A607047D0
:100140001410024040000600181002400020024037
:100150000410024000100240FFFFFFEB00040048C3
:100160001C10024020000048240000480C000048F9
:1001700080231A4A1B06116830B50B4313600C3AF2
:100180001368174980250B4002211360154B164A4E
:1001900049421360154B164C1960164B0B31196010
:1001A0002D0208391868084205D020682842F9D184
:1001B0000820114908601149114808601149124886
:1001C0000860124912480860124911600422012196
:1001D0001A60114A116005221A6030BD0C000048F7
:1001E000FFFFFFBF5F0900002C2C0140102C0140D5
:1001F00010000048002C0140144400400844004016
:10020000E20400000C4400400C200000282C0140B7
:10021000BF12000087130000142C0140F7B50191B4
:100220000121144B009019600223134C5B422360A0
:1002300020260023114D019A934204DB012010E097
:1002400027680F420DD12F68380030403742F7D071
:10025000286806278446624609483A4202D0036865
:100260000020FEBD0068009AD0540120014A1B18EE
:100270001060E0E7142C0140102C014000440040C5
:10028000044400400B4B0C4AF0B51360802500235A
:100290000A4C0B4E8B4206DB402321681942FCD0EE
:1002A000084B1360F0BD27682F42FCD0C75C0133B8
:1002B0003760EFE7082000000C4400400044004095
:1002C000044400400C20000007B5022101A8FFF7FC
:1002D000A5FF002806D06B4618795B794340FF2BB9
:1002E00000D10EBD01204042FBE707B56B46C0B20E
:1002F0001871C0430221587101A8FFF7C3FF07BD61
:1003000037B50500FFF7E0FF0400431C03D10124CB
:10031000644220003EBD0134A40021002800FFF704
:100320007DFF0028F3D0042101A8FFF777FF002804
:10033000EDD02100280000F0CFF8019B9842E8D0D2
:10034000E5E737B50C00050000F0C6F80190A010F5
:100350000138FFF7CAFF28002100FFF793FF0421AF
:1003600001A8FFF78FFF37BDF0B5524CA544FFF74A
:10037000A7FEFFF7FDFE90224F4B52051968114270
:1003800071D0802252041A600020FFF7AEFFFFF701
:100390009BFF052867D800F023F9F7030F1E32569C
:1003A000022300211C2203A8029300F011F920214E
:1003B00002A8FFF7C6FFEAE7FFF786FF0400431C29
:1003C00051D0FFF781FF431C4DD001303B4B8100E2
:1003D000A002C018EDE7FFF777FF0400431C42D0EE
:1003E00002A8FFF78DFF0200431C3CD03348A40253
:1003F000334B201802A9984743425841C5E70026CD
:1004000035002E4B2F4FDB1B9B1201932E4B00937D
:10041000019B9E4206DB2A00380000992B4B98472F
:100420000120B2E7009B5819FFF76AFF0400431C44
:1004300019D00020FFF759FF80232D19DB009C42C3
:10044000E9DB0136E2E7FFF73FFF442807D05528F4
:1004500007D03328E4D1002000F050F8E0E7012075
:10046000FAE70220F8E7154B19495A781878120272
:1004700002438A428BD18022D2009818995C42783C
:1004800012020A43817809041143C27812060A4312
:1004900082F308880F490F4A9A5C5B185978090261
:1004A00011439A78DB7812040A431B0613439847DA
:1004B000FEE7C046F4FBFFFF2410024000100008D6
:1004C000010000200000000800100020AD00002006
:1004D000EA32000004040000E122064B89101A6091
:1004E000054B013902D21868C043704704C81A602E
:1004F000F7E7C046083002400030024037B5254BD0
:100500002549264A19601A60254B6C4619601A6005
:10051000012324495B42244A0B6012882270234A3B
:1005200012886270224A1288A270224A1288A3801E
:10053000E270012828D1204A204B9B1A1B139840B7
:100540004042207188221E4B92001A6040321A608D
:10055000012208681042FCD1842292001A60012412
:100560006B46114A17481D7815800D682542FCD14D
:10057000023201338242F6D114230A681A4208D1AA
:10058000114B124A1A60FEE70228DBD10023A38038
:10059000D8E737BD0420024023016745AB89EFCD82
:1005A000082002400C20024000F8FF1F02F8FF1F45
:1005B00004F8FF1F06F8FF1F00000008FF1F0008D7
:1005C000102002400CF8FF1F0CED00E00400FA05BB
:1005D00003008218934200D1704719700133F9E784
:1005E00002B4714649084900095649008E4402BCCC
:1005F0007047C046FEE7704710B5164B164A1749BC
:100600008B4218D30021164A934217D38023154AF0
:100610009B001168144C0B431360144B9C420FD386
:10062000134C144B9C420ED3FFF79EFE124C134BFF
:100630009C420BD310BD01CA01C3E1E702C3E3E74B
:1006400008CC9847E9E708CC9847EAE708CC9847F0
:10065000EDE7C0460000002080060008C80000202A
:10066000C800002014ED00E08006000880060008A5
:100670008006000880060008800600088006000842
:10068000F7B50300224C234802250460224C046085
:100690000124224864420460214C2560214D5D19EB
:1006A000AD0AAD0201950025954212DB0126002519
:1006B000266095421DDB8025256006686C3D340070
:1006C00000202C402E4203D12000904218DB012054
:1006D000FEBD019E144FB446AC4466463E604226C1
:1006E0002660012706683E42FBD18026F600AD1940
:1006F000DAE74F5B5F5307683742FCD10235D8E732
:100700001D580C58A54201D10430DEE70020DFE778
:100710002301674504200240AB89EFCD0C20024045
:1007200010200240FF0300001420024010B5FFF724
:10073000A7FF002803D0024B024A1A60FEE710BD53
:080740000CED00E00400FA05D5
:04000005080005F9F1
:00000001FF
