:020000040800F2
:10100000EA320B004D415F3100000000000000009B
:10101000000000000001000010000818306464198E
:10102000001900000001E803DC05D0070E01A0054F
:10103000010000000E000000000000006466612353
:1010400000000000000000000000000000000000A0
:101050000000000000000000000000000000000090
:101060000000000000000000000000000000000080
:101070000000000000000000000000000000000070
:101080000000000000000000000000000000000060
:101090000000000000000000000000000000000050
:1010A0000000000000000000000000000000000040
:1010B0000000000000000000000000000000000030
:1010C0000000000000000000000000000000000020
:1010D0000000000000000000000000000000000010
:1010E0000000000000000000000000000000000000
:1010F00000000000000000000000000000000000F0
:1011000000000000000000000000000000000000DF
:1011100000000000000000000000000000000000CF
:1011200000000000000000000000000000000000BF
:10113000000000000000000000000000003200007D
:1014000000200020C5590008C3590008C159000830
:1014100000000000000000000000000000000000CC
:10142000000000000000000000000000C359000898
:10143000000000000000000061450008E9440008C9
:10144000C1590008C1590008C1590008C159000814
:10145000C1590008C1590008C1590008C159000804
:10146000C159000895170008D14F0008A53E000893
:10147000C15900084D43000871170008C159000800
:1014800069430008C1590008C1590008C159000842
:10149000993E0008C1590008C1590008C159000807
:1014A000C1590008C1590008C1590008594F000826
:1014B000BD3E0008C1590008C1590008C1590008C3
:1014C00038B5724B72494FF0FF32DA601A61002270
:1014D000DA601A616F4A5A6144F601229A6140F655
:1014E0001202DA614FF0E022C2F8081D5A6822F0B9
:1014F00002025A605A681407FCD41A6822F08072FB
:101500001A60654A13211160644A5A601A6842F0F1
:1015100080721A601A689001FCD55A6842F0020283
:101520005A604FF090424FF00051116240F2222178
:1015300051622221C2F820144FF48051C2F80C14D9
:10154000574911605749C2F80014996941F4803134
:101550009961D36843F01003D360136823F010033C
:1015600013604021142004F091FA80211B2004F024
:101570008DFA40211C2004F089FA8021092004F012
:1015800085FA80210A2004F081FA40210B2004F022
:101590007DFA0D2004F062FA0E2004F05FFA1020AC
:1015A00004F05CFA142004F059FA1B2004F056FAF7
:1015B0001C2004F053FA092004F050FA0A2004F029
:1015C0004DFA0B2004F04AFA374B384AC3F8082486
:1015D000374A40F26711D1626FF0010111610921B0
:1015E00011601168C907FCD4D3F8082442F0040242
:1015F000C3F80824D3F8082412F00402FAD14FF4F7
:101600008071C3F804144FF0FF31C3F80C14C3F811
:1016100010142849C3F834240A70274A92F830205D
:10162000012A08D10A70D3F8340440F00600C3F848
:101630003404224802700A78D3F8345402EB82044E
:101640004FF40C70A0400232D2B22843C3F83404E5
:101650000A70013A1205C3F82C24194A194911617C
:10166000194951610222C3F80C2C2022C3F8082C1E
:101670004FF080436022C3F8042478210122C3F88C
:101680001824C3F81C14C3F8202438BD00100240ED
:1016900000140008050006000020024000C03420AD
:1016A000FFBFEAEBFAEFFFFF0020014001008000DE
:1016B00000100040C501002000000020C4010020EF
:1016C000000002404C240140B001002004490B6896
:1016D000C3F38502024462F387030B60704700BFC7
:1016E0000010024000F00303013B022B9ABF054AA1
:1016F00052F8233000234207034A48BF43F4004313
:10170000D3617047C85A00080000014010B50C4C66
:101710004FF48033E3600023E360142004F0AAF95F
:10172000E36943F40033E3614FF090431A6A42F4F3
:1017300080721A625A6A42F080525A6210BD00BF2B
:1017400000100240074B9A68D2070AD4064A127862
:10175000DA6040F283529A60A3F56043034AC3F80B
:101760000824704700000240C501002001019E00CE
:10177000064B6FF00202C3F8102CD3F80824D205F0
:1017800044BF034AC3F80824704700BF002001404B
:101790000101DE00154B1649022210B45A600022E6
:1017A0009A60A3F56043134AC3F80824124B1B78D0
:1017B000D3B10B880120421C31F8100031F81240DF
:1017C0000E4AB2FBF4F2504300135343A0F5A0605D
:1017D000282250432B2290FBF2F0002210BC1B1356
:1017E0001146643002F022BE1846E4E700000240D1
:1017F000B001002001008000C401002050FB4A001D
:10180000034B1A6802435EBF024A186010607047BB
:10181000400100205C01002070B505460E46002402
:1018200056F8240018B1294604F048F808B92046B3
:1018300070BD0134F4E713B50A220C4601A903F088
:10184000D9FF019B1B781BB92060012002B010BD9D
:101850000020FBE710B50446006804F08CF8206017
:1018600010BD0000F0B585B00A2204460D4664277D
:1018700091FBF7F601A9304603F040FF01462046F0
:10188000FFF7E8FF0D492046FFF7E4FF0A2201A910
:1018900007FB165003F032FF04F08AF80546012DCD
:1018A00005DD01A92046FFF7D5FF05B0F0BD0449CD
:1018B0002046FFF7CFFF0135F1E700BFA45D000828
:1018C000A65D00081FB504460A22084601A903F0D8
:1018D00015FF01462046FFF7BDFF04B010BD000014
:1018E00070B58CB00546019002AE0024404901A8B5
:1018F00004F014F818B954B920460CB070BD037840
:10190000002BF3D001340A2C46F8040BEED13949F0
:1019100002980195FFF780FF092801F2BA8201A31E
:1019200053F820F04D19000863190008391A00080F
:10193000811F0008EB260008812E0008992E000860
:10194000A32E0008192F0008432F00082A4901A8D8
:10195000FFF780FF294901A8FFF77CFF019C641B6A
:10196000CAE7012C41F09582254C264901A8FFF7D2
:1019700071FFA078FFF744FF014601A8FFF7A2FF1F
:10198000214901A8FFF766FF211D01A8FFF762FFAB
:101990001E4901A8FFF75EFF1D4B01A81968FFF75C
:1019A00091FF1C4901A8FFF755FF1B4B01A81968BF
:1019B000FFF758FF194901A8FFF74CFF184B01A882
:1019C0001968FFF74FFF174901A8FFF743FF164BB0
:1019D00001A81968FFF776FF144901A8FFF73AFF3D
:1019E000134B196801A8FFF76DFF1249AFE700BF5D
:1019F000A85D000828610008AD5D0008B05F000820
:101A000000000020155E0008225E0008255E000828
:101A1000C00600202E5E0008BC060020375E0008CD
:101A2000B8060020405E0008B4060020495E0008A9
:101A3000C4060020AB5D0008012C41F02A82AC4CAA
:101A4000AC4901A8FFF706FFAB4901A8FFF702FF69
:101A5000217D01A8FFF736FFA84901A8FFF7FAFE8C
:101A6000A74901A8FFF7F6FEA34901A8FFF7F2FE78
:101A7000617D01A8FFF726FFA04901A8FFF7EAFE54
:101A8000A04901A8FFF7E6FE9B4901A8FFF7E2FE87
:101A9000A17D01A8FFF716FF984901A8FFF7DAFE1C
:101AA000994901A8FFF7D6FE934901A8FFF7D2FE96
:101AB000E17D01A8FFF706FF904901A8FFF7CAFEE4
:101AC000924901A8FFF7C6FE8B4901A8FFF7C2FEA5
:101AD000217E01A8FFF7F6FE884901A8FFF7BAFEAC
:101AE0008B4901A8FFF7B6FE834901A8FFF7B2FEB4
:101AF000617E01A8FFF7E6FE804901A8FFF7AAFE74
:101B0000844901A8FFF7A6FE7B4901A8FFF7A2FEC2
:101B1000A17E01A8FFF7D6FE784901A8FFF79AFE3B
:101B20007D4901A8FFF796FE734901A8FFF792FED1
:101B3000E17E01A8FFF7C6FE704901A8FFF78AFE03
:101B4000764901A8FFF786FE6B4901A8FFF782FEE0
:101B5000217F01A8FFF7B6FE684901A8FFF77AFECA
:101B60006F4901A8FFF776FE634901A8FFF772FEEF
:101B7000617F01A8FFF7A6FE604901A8FFF76AFE92
:101B8000684901A8FFF766FE5B4901A8FFF762FEFE
:101B9000A17F01A8FFF796FE584901A8FFF75AFE5A
:101BA000614901A8FFF756FE534901A8FFF752FE0D
:101BB000E17F01A8FFF786FE504901A8FFF74AFE22
:101BC0005A4901A8FFF746FE4B4901A8FFF742FE1C
:101BD00094F8201001A8FFF775FE484901A8FFF707
:101BE00039FE534901A8FFF735FE434901A8FFF725
:101BF00031FE94F8211001A8FFF764FE3F4901A8C7
:101C0000FFF728FE4B4901A8FFF724FE3A4901A837
:101C1000FFF720FE94F8221001A8FFF753FE374982
:101C200001A8FFF717FE444901A8FFF713FE324948
:101C300001A8FFF70FFE94F8231001A8FFF742FE5A
:101C40002E4901A8FFF706FE3C4901A8FFF702FE56
:101C5000294901A8FFF7FEFD94F8241001A8FFF719
:101C600031FE264901A8FFF7F5FD354901A8FFF728
:101C7000F1FD214901A8FFF7EDFD94F8251001A819
:101C8000FFF720FE1D4901A8FFF7E4FD2D4901A83B
:101C9000FFF7E0FD184901A8FFF7DCFDE18C01A882
:101CA000FFF710FE154901A8FFF7D4FD264901A84A
:101CB000FFF7D0FD104901A8FFF7CCFD218D01A849
:101CC000FFF700FE0D4901A8FFF7C4FD1F4901A859
:101CD000FFF7C0FD084901A8FFF7BCFD618D01A811
:101CE000FFF7F0FD054901A8FFF7B4FD30E000BFA4
:101CF00000000020545E0008515E0008AB5D000843
:101D0000585E00085D5E0008645E00086C5E0008B6
:101D1000735E00087E5E0008895E0008925E00081F
:101D20009B5E0008A45E0008AD5E0008B75E000878
:101D3000C15E0008CB5E0008D55E0008E05E0008CA
:101D4000EA5E0008F45E0008FE5E0008085F000816
:101D5000B84901A8FFF77EFDB74901A8FFF77AFD52
:101D6000A18D01A8FFF7AEFDB44901A8FFF772FDF0
:101D7000B34901A8FFF76EFDAF4901A8FFF76AFD5F
:101D8000E18D01A8FFF79EFDAC4901A8FFF762FDB8
:101D9000AC4901A8FFF75EFDA74901A8FFF75AFD6E
:101DA00094F8301001A8FFF78DFDA44901A8FFF7B2
:101DB00051FDA54901A8FFF74DFD9F4901A8FFF777
:101DC00049FD94F8311001A8FFF77CFD9B4901A85B
:101DD000FFF740FD9D4901A8FFF73CFD964901A88A
:101DE000FFF738FD94F8321001A8FFF76BFD934917
:101DF00001A8FFF72FFD964901A8FFF72BFD8E499B
:101E000001A8FFF727FD94F8331001A8FFF75AFD4A
:101E10008A4901A8FFF71EFD8E4901A8FFF71AFDA8
:101E2000854901A8FFF716FD94F8341001A8FFF7C3
:101E300049FD824901A8FFF70DFD874901A8FFF779
:101E400009FD7D4901A8FFF705FDE18E01A8FFF717
:101E500039FD7A4901A8FFF7FDFC804901A8FFF789
:101E6000F9FC754901A8FFF7F5FC94F8381001A8B2
:101E7000FFF728FD714901A8FFF7ECFC784901A89C
:101E8000FFF7E8FC6C4901A8FFF7E4FC94F839106F
:101E900001A8FFF717FD694901A8FFF7DBFC7149AD
:101EA00001A8FFF7D7FC644901A8FFF7D3FC94F819
:101EB0003A1001A8FFF706FD604901A8FFF7CAFC28
:101EC000694901A8FFF7C6FC5B4901A8FFF7C2FCFE
:101ED00094F83B1001A8FFF7F5FC584901A8FFF75B
:101EE000B9FC624901A8FFF7B5FC534901A8FFF707
:101EF000B1FC04F13C0101A8FFF7ACFC4F4901A87B
:101F0000FFF7A8FC5A4901A8FFF7A4FC4A4901A819
:101F1000FFF7A0FC94F83C1101A8FFF7D3FC474958
:101F200001A8FFF797FC534901A8FFF793FC42492A
:101F300001A8FFF78FFC94F83D1101A8FFF7C2FC40
:101F40003E4901A8FFF786FC4B4901A8FFF782FC38
:101F5000394901A8FFF77EFC94F83E1101A8FFF76C
:101F6000B1FC364901A8FFF775FC444901A8FFF709
:101F700071FC314901A8FFF76DFC94F83F1131E580
:101F8000022C40F086873E490398FFF745FC252840
:101F900000F27F8701A353F820F000BF85200008DE
:101FA000AF200008D5200008FB20000821210008F0
:101FB000472100086D21000893210008B92100087D
:101FC000DF210008052200082B220008512200080A
:101FD0007B220008A5220008CF2200084523000824
:101FE0006F23000899230008BF230008E523000899
:101FF0000B2400083124000857240008812400081D
:10200000AB240008D5240008FF2400082925000877
:102010004F25000879250008A32500081926000887
:10202000C12D0008432600086D26000897260008E9
:10203000C1260008125F0008515E0008AB5D000871
:102040001D5F0008285F0008335F00083E5F00083E
:10205000495F0008545F0008605F00086B5F00087C
:10206000755F00087F5F00088A5F0008945F0008C2
:102070009A5F0008A15F0008A85F0008AC5F000835
:102080008C6000089C499D4C01A8FFF7E3FB9C492C
:1020900001A8FFF7DFFB217D01A8FFF713FC01A8D2
:1020A0009849FFF7D7FB207DFFF7AAFB52E496493A
:1020B000924C01A8FFF7CEFB914901A8FFF7CAFB9C
:1020C000617D01A8FFF7FEFB01A88E49FFF7C2FB67
:1020D000607DE9E78D49894C01A8FFF7BBFB884982
:1020E00001A8FFF7B7FBA17D01A8FFF7EBFB01A853
:1020F0008449FFF7AFFBA07DD6E785497F4C01A857
:10210000FFF7A8FB7E4901A8FFF7A4FBE17D01A82A
:10211000FFF7D8FB01A87B49FFF79CFBE07DC3E7F5
:102120007C49764C01A8FFF795FB754901A8FFF79C
:1021300091FB217E01A8FFF7C5FB01A87149FFF7BC
:1021400089FB207EB0E774496C4C01A8FFF782FB45
:102150006B4901A8FFF77EFB617E01A8FFF7B2FB88
:1021600001A86849FFF776FB607E9DE76B49634CE9
:1021700001A8FFF76FFB624901A8FFF76BFBA17E87
:1021800001A8FFF79FFB01A85E49FFF763FBA07E54
:102190008AE76349594C01A8FFF75CFB584901A83D
:1021A000FFF758FBE17E01A8FFF78CFB01A855491A
:1021B000FFF750FBE07E77E75A49504C01A8FFF744
:1021C00049FB4F4901A8FFF745FB217F01A8FFF715
:1021D00079FB01A84B49FFF73DFB207F64E752499B
:1021E000464C01A8FFF736FB454901A8FFF732FB33
:1021F000617F01A8FFF766FB01A84249FFF72AFBB0
:10220000607F51E749493D4C01A8FFF723FB3C495A
:1022100001A8FFF71FFBA17F01A8FFF753FB01A84F
:102220003849FFF717FBA07F3EE74149334C01A82F
:10223000FFF710FB324901A8FFF70CFBE17F01A873
:10224000FFF740FB01A82F49FFF704FBE07F2BE7D6
:1022500038492A4C01A8FFF7FDFA294901A8FFF7E0
:10226000F9FA94F8201001A8FFF72CFB01A82549E2
:10227000FFF7F0FA94F8200016E72F491F4C01A849
:10228000FFF7E8FA1E4901A8FFF7E4FA94F82110D5
:1022900001A8FFF717FB01A81A49FFF7DBFA94F82A
:1022A000210001E72549154C01A8FFF7D3FA14498D
:1022B00001A8FFF7CFFA94F8221001A8FFF702FB5C
:1022C00001A81049FFF7C6FA94F82200ECE61C4971
:1022D0000A4C01A8FFF7BEFA094901A8FFF7BAFAAC
:1022E00094F8231001A8FFF7EDFA01A80549FFF7BC
:1022F000B1FA94F82300D7E6545E000800000020ED
:10230000515E0008AB5D0008585E00085D5E000885
:10231000645E00086C5E0008735E00087E5E000864
:10232000895E0008925E00089B5E0008A45E0008BB
:10233000AD5E0008B75E0008C15E0008CB5E000815
:10234000D55E0008A149A24C01A8FFF783FAA14974
:1023500001A8FFF77FFA94F8241001A8FFF7B2FA5A
:1023600001A89D49FFF776FA94F824009CE69B4962
:10237000974C01A8FFF76EFA964901A8FFF76AFA91
:1023800094F8251001A8FFF79DFA01A89249FFF7DC
:1023900061FA94F8250087E691498D4C01A8FFF772
:1023A00059FA8C4901A8FFF755FAE18C01A8FFF70B
:1023B00089FA01A88849FFF74DFAE08C74E689494B
:1023C000834C01A8FFF746FA824901A8FFF742FAB9
:1023D000218D01A8FFF776FA01A87F49FFF73AFAA5
:1023E000208D61E680497A4C01A8FFF733FA7949DC
:1023F00001A8FFF72FFA618D01A8FFF763FA01A882
:102400007549FFF727FA608D4EE67849704C01A8B0
:10241000FFF720FA6F4901A8FFF71CFAA18D01A868
:10242000FFF750FA01A86C49FFF714FAA08D3BE6BC
:102430006F49674C01A8FFF70DFA664901A8FFF73D
:1024400009FAE18D01A8FFF73DFA01A86249FFF7FB
:1024500001FAE08D28E667495D4C01A8FFF7FAF91B
:102460005C4901A8FFF7F6F994F8301001A8FFF7CE
:1024700029FA01A85849FFF7EDF994F8300013E65E
:102480005D49534C01A8FFF7E5F9524901A8FFF750
:10249000E1F994F8311001A8FFF714FA01A84E49A8
:1024A000FFF7D8F994F83100FEE55449484C01A8EB
:1024B000FFF7D0F9474901A8FFF7CCF994F832109B
:1024C00001A8FFF7FFF901A84349FFF7C3F994F802
:1024D0003200E9E54A493E4C01A8FFF7BBF93D4906
:1024E00001A8FFF7B7F994F8331001A8FFF7EAF94C
:1024F00001A83949FFF7AEF994F83300D4E5414912
:10250000334C01A8FFF7A6F9324901A8FFF7A2F959
:1025100094F8341001A8FFF7D5F901A82E49FFF768
:1025200099F994F83400BFE53749294C01A8FFF721
:1025300091F9284901A8FFF78DF9E18E01A8FFF76D
:10254000C1F901A82449FFF785F9E08EACE52F49D0
:102550001F4C01A8FFF77EF91E4901A8FFF77AF981
:1025600094F8381001A8FFF7ADF901A81A49FFF750
:1025700071F994F8380097E52549154C01A8FFF743
:1025800069F9144901A8FFF765F994F8391001A811
:10259000FFF798F901A81049FFF75CF994F83900A2
:1025A00082E51C490A4C01A8FFF754F9094901A822
:1025B000FFF750F994F83A1001A8FFF783F901A842
:1025C0000549FFF747F994F83A006DE5E05E000829
:1025D00000000020515E0008AB5D0008EA5E0008C4
:1025E000F45E0008FE5E0008085F0008125F000845
:1025F0001D5F0008285F0008335F00083E5F000889
:10260000495F0008545F0008605F00086B5F0008C6
:10261000755F00087F5F0008B449B54C01A8FFF75B
:1026200019F9B44901A8FFF715F994F83B1001A86E
:10263000FFF748F901A8B049FFF70CF994F83B00FF
:1026400032E5AE49AA4C01A8FFF704F9A94901A84F
:10265000FFF700F994F83C1101A8FFF733F901A83E
:10266000A549FFF7F7F894F83C011DE5A449A04CF3
:1026700001A8FFF7EFF89F4901A8FFF7EBF894F8DE
:102680003D1101A8FFF71EF901A89B49FFF7E2F8E9
:1026900094F83D0108E59B49954C01A8FFF7DAF84D
:1026A000944901A8FFF7D6F894F83E1101A8FFF766
:1026B00009F901A89049FFF7CDF894F83E01F3E439
:1026C00091498B4C01A8FFF7C5F88A4901A8FFF78B
:1026D000C1F894F83F1101A8FFF7F4F801A8864962
:1026E000FFF7B8F894F83F01DEE4032C40F0D18303
:1026F00086490398FFF790F8252800F2CA8301A3C2
:1027000053F820F09D270008C7270008F12700088C
:102710001B280008452800086F2800089928000891
:10272000C3280008312900085B2900088529000812
:10273000AF290008D9290008052A0008312A000815
:102740005D2A0008892A0008B52A0008E12A000845
:102750000B2B0008352B00085F2B0008892B000885
:10276000B32B0008292C0008552C0008812C0008E8
:10277000AD2C0008D92C0008032D00082F2D0008CF
:102780005B2D0008872D0008B12D0008DD2D000805
:10279000072E0008312E0008592E000804986946BB
:1027A000FFF749F8002800F07483514C009B237513
:1027B00002F02AFD01A85649FFF74CF84D4901A83F
:1027C000FFF748F867E404986946FFF734F80028F3
:1027D00000F05F83464C009B637502F015FD01A875
:1027E0004C49FFF737F8434901A8FFF733F867E48E
:1027F00004986946FFF71FF8002800F04A833C4C14
:10280000009BA37502F000FD01A84349FFF722F8E1
:10281000384901A8FFF71EF865E404986946FFF7F8
:102820000AF8002800F03583314C009BE37502F074
:10283000EBFC01A83949FFF70DF82E4901A8FFF775
:1028400009F863E404986946FEF7F5FF002800F0F4
:102850002083274C009B237602F0D6FC01A8304948
:10286000FEF7F8FF234901A8FEF7F4FF61E404989E
:102870006946FEF7E0FF002800F00B831C4C009B2C
:10288000637602F0C1FC01A82649FEF7E3FF19496F
:1028900001A8FEF7DFFF5FE404986946FEF7CBFF6F
:1028A000002800F0F682124C009BA37602F0ACFCEC
:1028B00001A81D49FEF7CEFF0E4901A8FEF7CAFF89
:1028C0005DE404986946FEF7B6FF002800F0E18257
:1028D000074C009BE37602F097FC01A81349FEF732
:1028E000B9FF044901A8FEF7B5FF5BE48A5F000861
:1028F00000000020515E0008AB5D00089A5F0008F0
:10290000A15F0008A85F0008AC5F00088C600008A9
:10291000545E0008585E00085D5E0008645E0008B2
:102920006C5E0008735E00087E5E0008895E000829
:1029300004986946FEF77FFF002800F0AA82A84CA1
:10294000009B237702F060FC01A8A649FEF782FFF6
:10295000A54901A8FEF77EFF37E404986946FEF713
:102960006AFF002800F095829D4C009B637702F07F
:102970004BFC01A89D49FEF76DFF9B4901A8FEF79E
:1029800069FF35E404986946FEF755FF002800F01A
:102990008082934C009BA37702F036FC01A89449F7
:1029A000FEF758FF904901A8FEF754FF33E404985E
:1029B0006946FEF740FF002800F06B82884C009BC0
:1029C000E37702F021FC01A88A49FEF743FF86491C
:1029D00001A8FEF73FFF31E404986946FEF72BFF9C
:1029E000002800F056827E4C009B84F8203002F0D4
:1029F0000BFC01A88049FEF72DFF7B4901A8FEF7DB
:102A000029FF2EE404986946FEF715FF002800F020
:102A10004082734C009B84F8213002F0F5FB01A842
:102A20007649FEF717FF704901A8FEF713FF2DE462
:102A300004986946FEF7FFFE002800F02A82684CE1
:102A4000009B84F8223002F0DFFB01A86C49FEF7FE
:102A500001FF654901A8FEF7FDFE2CE404986946D4
:102A6000FEF7E9FE002800F014825D4C009B84F81C
:102A7000233002F0C9FB01A86249FEF7EBFE5A4978
:102A800001A8FEF7E7FE2BE404986946FEF7D3FEA3
:102A9000002800F0FE81524C009B84F8243002F0A4
:102AA000B3FB01A85849FEF7D5FE4F4901A8FEF730
:102AB000D1FE50E404986946FEF7BDFE002800F000
:102AC000E881474C009B84F8253002F09DFB01A86B
:102AD0004E49FEF7BFFE444901A8FEF7BBFE4FE496
:102AE00004986946FEF7A7FE002800F0D2813C4C0E
:102AF000009BE38402F088FB01A84549FEF7AAFE8B
:102B0000394901A8FEF7A6FE4FE404986946FEF78E
:102B100092FE002800F0BD81314C009B238502F01D
:102B200073FB01A83B49FEF795FE2F4901A8FEF76C
:102B300091FE4DE404986946FEF77DFE002800F002
:102B4000A881274C009B638502F05EFB01A83249F7
:102B5000FEF780FE244901A8FEF77CFE4BE40498B2
:102B60006946FEF768FE002800F093811C4C009B2C
:102B7000A38502F049FB01A82849FEF76BFE1A491C
:102B800001A8FEF767FE49E404986946FEF753FE84
:102B9000002800F07E81124C009BE38502F034FB9C
:102BA00001A81F49FEF756FE0F4901A8FEF752FE85
:102BB00047E404986946FEF73EFE002800F069816C
:102BC000074C009B84F8303002F01EFB01A8154929
:102BD000FEF740FE044901A8FEF73CFE44E400BFB6
:102BE00000000020925E0008515E00089B5E000815
:102BF000A45E0008AD5E0008B75E0008C15E000874
:102C0000CB5E0008D55E0008E05E0008EA5E0008C2
:102C1000F45E0008FE5E0008085F0008125F00080E
:102C20001D5F0008285F000804986946FEF703FE50
:102C3000002800F02E81A64C009B84F8313002F071
:102C4000E3FA01A8A349FEF705FEA34901A8FEF790
:102C500001FE1EE404986946FEF7EDFD002800F031
:102C600018819B4C009B84F8323002F0CDFA01A809
:102C70009A49FEF7EFFD984901A8FEF7EBFD1DE428
:102C800004986946FEF7D7FD002800F00281904CB9
:102C9000009B84F8333002F0B7FA01A89049FEF7A0
:102CA000D9FD8D4901A8FEF7D5FD1CE404986946BD
:102CB000FEF7C1FD002800F0EC80854C009B84F8F5
:102CC000343002F0A1FA01A88649FEF7C3FD82491B
:102CD00001A8FEF7BFFD1BE404986946FEF7ABFDB3
:102CE000002800F0D6807A4C009BE38602F08CFA34
:102CF00001A87D49FEF7AEFD774901A8FEF7AAFDC0
:102D00001BE404986946FEF796FD002800F0C18098
:102D10006F4C009B84F8383002F076FA01A87349B2
:102D2000FEF798FD6C4901A8FEF794FD18E404989D
:102D30006946FEF780FD002800F0AB80644C009BE4
:102D400084F8393002F060FA01A86949FEF782FD83
:102D5000614901A8FEF77EFD17E404986946FEF775
:102D60006AFD002800F09580594C009B84F83A30A9
:102D700002F04AFA01A85F49FEF76CFD564901A826
:102D8000FEF768FD16E404986946FEF754FD002836
:102D90007FD04F4C009B84F83B3002F035FA01A8FD
:102DA0005549FEF757FD4C4901A8FEF753FD3CE499
:102DB000049952484FF4807202F09CFD02F024FA0C
:102DC00001A84F49FEF746FD01A84349FEF742FD21
:102DD0004A4901A8FEF73EFDFEF707BE0498694682
:102DE000FEF729FD002854D0394C009B84F83C3173
:102DF00002F00AFA01A84349FEF72CFD364901A862
:102E0000FEF728FD26E404986946FEF714FD002825
:102E10003FD02F4C009B84F83D3102F0F5F901A81A
:102E20003949FEF717FD2C4901A8FEF713FD26E4EA
:102E300004986946FEF7FFFC58B3254C009B84F8C4
:102E40003E3102F0E1F901A83049FEF703FD2249C5
:102E500001A8FEF7FFFC27E404986946FEF7EBFCA7
:102E6000B8B11B4C009B84F83F3102F0CDF901A8AA
:102E70002749FEF7EFFC184901A8FEF7EBFC28E410
:102E8000012C06D102F00CFBFEF7BAFC00287EF400
:102E900061AD2049FEF75FBD012CFAD102F046FB7F
:102EA000F2E7A31E012BF4D8094B032C93F83C1135
:102EB000009109D104986946FEF7BDFC0028E8D0CE
:102EC00000994B1E632BE4D8039802F041FBDDE729
:102ED00000000020335F0008515E00083E5F0008DC
:102EE000495F0008545F0008605F00086B5F0008DE
:102EF000755F00087F5F00088A5F00083C000020C3
:102F0000945F00089A5F0008A15F0008A85F0008AE
:102F1000AC5F0008B45F0008022CBAD10398694680
:102F2000FEF789FC0028B4D0009B03F5FA62B2F5E5
:102F30007A6FAED8094A1360094B00221A70FEF767
:102F400009BD012CA5D1074A1368002BBCBF002383
:102F50001360054A1360FEF7FDBC00BFCC060020DD
:102F6000AD060020400100205C0100204FF040230E
:102F7000D3F80024D3F80424D3F80C2442F0100230
:102F8000C3F80C240822C3F8142403F5E03300220C
:102F90009A6570470A4B6FF001021A610022DA60ED
:102FA0004FF0FF32DA6201225A614FF0402343F2C0
:102FB0000C42C3F80C24034B034A1A60704700BF4D
:102FC00000400140480600203935000870B52C4CFF
:102FD0002C4B21682C486FF001021A6104294CD84F
:102FE00001A353F821F000BFFD2F00084530000871
:102FF000633000086F30000877300008234B1B68EF
:1030000064331A1242F0800290F83300204E214DB2
:10301000013800EB800030446B70405C1E4B287020
:10302000AA700131002203205A64042998644FF0E9
:1030300091005864C8BF194B2160C2BF184919607C
:10304000226070BD90F8343003EB4302154B1B68CF
:1030500093FBF2F34FF6FF729342A8BF13461A1286
:10306000D2E7114B1A68131243F04003CCE70F4B21
:103070001A681312C8E70E4BFAE700221346C3E79B
:10308000E00100200040014000000020C0060020B8
:103090005461000840020020000002404806002061
:1030A000952F0008C4060020B8060020BC060020AA
:1030B000B406002037B5144C94F82330C3B1218DE9
:1030C000A1F1320282420ADD00230093E18CA3F5D4
:1030D000FA6302F059F80D4B186003B030BD32317D
:1030E00081420DDA4FF4FA6300930023628DF0E71A
:1030F000E18C3231814205DA4FF4FA620092F5E751
:103100000020E8E71846E6E700000020CC06002093
:1031100070B4184B93F831300B24013B03EB43029E
:103120006343DB1002F007010332C45C02F00702C4
:103130001844012595409142437844FA01F4C1F1C5
:10314000080605F1FF350BDA2B40B34043EA0400D3
:1031500000EB8000C01070BC00F55C70FFF7AABFE8
:103160008078C1F110012840B340884023431843C0
:10317000EEE700BF0000002010B5274B93F8253084
:10318000002B39D0254B5A6BB2F5FA6F27DBA3F52C
:103190008833234C23484AF6AA211960224902F5B4
:1031A000FA7393FBF1F34FF47A7101FB0323216867
:1031B0000B44016823600131016089070FD11B496D
:1031C000086883420CDDB2EBC30F15DB184A5B4283
:1031D00013604FF0FF30FEF779FA0023236010BD33
:1031E00013480068834207DA5242B2EBC30F03DC94
:1031F0005B420B600120EEE70E4B0F4A1A60074B53
:1032000049F291229A6131221A626FF004021A6126
:103210000422DA60E3E700BF000000200040014024
:10322000D4010020D001002018FCFFFFCC010020B9
:10323000C80100204806002061360008F8B58B4C14
:10324000236913F0010341D06FF001064FF0904560
:1032500026612B6913F0040307D1854A92F83020C8
:10326000012A32D0834A13602FE0834A1368013366
:10327000072B136029DD814B814A1A60FEF746FA5D
:10328000EB6843F00043EB602B6823F080432B6036
:1032900041F26F73E36201236361092326612360B6
:1032A0002368DB0707D52B691A04F9D44FF04023B4
:1032B0000822C3F814244FF0402340F63542C3F8E7
:1032C000082442F22C02C3F80C24F8BD684E656B4A
:1032D00096F830100129F8D0664A1768781C1060FB
:1032E000002FF2D0674F4CF6CC4C0129C7F800C034
:1032F00067D9624C644B2360FEF708FA96F83030C9
:10330000023B032B41D801A252F823F01D330008E1
:10331000373300084D330008B53300085B4B5C4A77
:103320001A605C4B04221A704FF040234FF48272F3
:10333000C3F8082429E0554B574A1A60554B202200
:103340001A704FF0402340F21242F1E74F4B534ABC
:103350001A60504B19221A704FF040234FF49662B6
:10336000C3F808244FF4A052C3F80C244FF40052C1
:10337000C3F8102403F580330E229A624FF0FF3217
:10338000DA6201225A6181221A604FF0402208233A
:10339000C2F81434D2F80C34414943F4005343F0DA
:1033A0001C03C2F80C343F4B3F4A19665A66D96475
:1033B0001A658AE73D4B23604FF490724FF040232B
:1033C000B6E7A66A2946EEB1B5F5FA6F06DD2B4BD6
:1033D000374A1A60BDE8F840FFF7CEBEA16A7729E8
:1033E00008BF0E23A3620123636100233BE749105A
:1033F000013B9529FBDC2F490C689C4204D00B60F3
:10340000012330E70323F4E7002B7FF75EAF0328A7
:103410007FF75BAF194A284911601C4A27492848A1
:1034200011602849584301EB6002B2FBF0F22648D4
:10343000013A92B202802548434301EB6301B1FB9C
:10344000F3F1234B01391980084B00211962442103
:103450009960332199610121D960DA62596103F5DC
:1034600040431C4A1A661C4A5A662EE70040014037
:1034700000000020F8010020F40100204806002090
:10348000A936000800300040393500084406002005
:103490008D3700084C060020FD350008CD380008A7
:1034A0000444004000000240400200208135000832
:1034B00079310008F0010020DD340008853900086A
:1034C000F0490200000E27073E020020D8B8050090
:1034D0003C02002034400140FC010020134BDA681C
:1034E000D10722D51A69D2071FD56FF001021A61E0
:1034F0001A6A42B901221A624FF090430C4A1B69C2
:1035000003F0040313700B4B2022DA6540F2A35240
:103510009A65A3F540434FF0FF32DA6201225A6107
:1035200081221A604FF40072DA6070470040014057
:1035300040060020000002404FF04023D3F80C2446
:10354000520604D542F20C02C3F80C247047D3F89B
:103550000024D3F80424D3F80C2422F01002C3F87A
:103560000C24C822C3F81424034B1A78034BDA65E1
:10357000A3229A65704700BF4C060020000002405D
:103580004FF0402310B5D3F80024D3F80424D3F827
:103590000C1411F0200104D042F21C02C3F80C24D8
:1035A00010BD134AC824D06DC3F8144442F22C0451
:1035B000C3F80C44402391652628D3654FF081035E
:1035C0009365EDD10B4C61781829E9D1A378162BBE
:1035D000E6D1A01C01F0C8FD0028E1D1064B4AF657
:1035E000AA22E01C1A60BDE81040FFF791BD00BFA1
:1035F000000002404002002000300040F0B4154BB3
:103600001A78202A02D15A78402A02D0F0BCFFF75B
:10361000ADBC114A4FF69F7492F8317040F2DC5005
:1036200001229978DE780F2A41EA062508D1A542C1
:10363000ECD10A4B4AF6AA22F0BC1A60FFF73ABD59
:1036400097423144A4EB010408BFC5F30B000132DB
:103650000233E6E740020020000000200030004076
:103660000E4B5A6B986BB2F5FA6F16DBA0F11C0388
:10367000042B07D80A4B4AF6AA221A60094B0122EA
:103680001A707047A0F54873B3F5AF6F05D8044BB7
:103690004AF6AA221A60FFF70DBD704700400140AC
:1036A00000300040AC0600204FF0402310B5D3F8A6
:1036B0000C24110613D52A4A2A4C1168481C615C57
:1036C0001060C3F8041428490C68A04206DB42F2DB
:1036D0004800C3F80C04002313600B6010BD5206B1
:1036E00004D542F22C02C3F80C24F7E7D3F80024E7
:1036F0001B4912F0060F0B6803D140F2FF329342D0
:1037000003D11A4A8020C2F8000C4FF04022D2F8B0
:103710000424D2B2082A01D07F2A03D1002BDDD0A5
:10372000013BDAE75C1C0F480C60022CC25406D146
:10373000037823B94378FF2B01D102F087F90A2AD5
:10374000CCD10023035507480B60FEF7C9F8064BA0
:1037500018600028C2D04FF0402342F28802C2E72E
:10376000DC01002040020020D801002000200040A1
:1037700010B5054C2070001260700221204601F047
:10378000E3FCA07010BD00BF4002002010B5464C05
:103790000421204601F0D8FC18B1BDE81040FFF725
:1037A000E5BB424B4AF6AA221A602278B4F80130EF
:1037B00002F00F01022921D0032925D001290AD1C5
:1037C000190448BFA3F5803303F5FA61B1F57A6FA8
:1037D00001D837490B601309083B052B4ED801A2CD
:1037E00052F823F0173800087F3800089538000891
:1037F0009B3800089F380008A3380008003B2D497B
:1038000018BF01238B75E6E72A49642BA8BF642300
:1038100081F82230DFE7284B23481B682370274BB1
:103820001B6863701B12A370254B1B68E3701B128F
:103830002371244B1B6863711B12A371224B1A68FE
:103840004FF6FF739342A8BF1346E37109211B1281
:10385000237201F079FC0A2260724FF040236FF06E
:103860004001C3F8001442F24801C3F80C1403F5F8
:10387000E033002159649A6491225A6410BD124BBE
:103880001B684FF6FF709842A8BF1846FFF770FFFD
:103890000322E2E7084B1868F8E7084BFBE7084B00
:1038A000F9E7084BF7E700BF400200200030004076
:1038B000CC06002000000020C0060020BC0600202E
:1038C000B8060020B4060020C806002070B5254DBB
:1038D0002B780F2B03D0BDE87040FFF747BB224B7E
:1038E000224C01264AF6AA226661A8191A60FFF73F
:1038F0000FFC297E01F00F03042B24D11C4B1D4A21
:103900001B78023BB34206D91B4B93F83330013B83
:10391000B3EB111F18D0194B136072B6134A536AD8
:10392000C3F563437F33D3620123536162B60F4B08
:103930006FF001021A610122DA604FF0402343F276
:103940000842C3F80C2470BD0D4B136072B6636A55
:10395000C3F5F8435F33E3626661636941F29F43F5
:10396000E362E3E7400200200030004000400140F5
:10397000AB0600204806002000000020952F00081C
:10398000CD2F0008B54A916D11F01001F8B520D087
:10399000B34B4FF48031D9600021D960A3F5504377
:1039A0004FF4004058648120186091652021D16552
:1039B00040F2A35191654FF0FF32DA6244210122B7
:1039C0005A619960332199611A624FF40072DA608A
:1039D000F8BDA44BA44DB3F800C00CF101044FEAAC
:1039E000A40E2B460A4608462E465F885200BE4566
:1039F00000F10200D8BF42F00102202803F10403C5
:103A000011D01F88BC42F0DC944B00229A65A3F5CC
:103A1000404385221A606FF001010122C3F82CC0D7
:103A20005A611961D3E7914B14461F7813461B1155
:103A300040F08980381E18BF0120404260400007D6
:103A4000E2D18B484AF6AA240460002F63D000F527
:103A50008830782403628360836184610124046276
:103A60000824446000F54040824C83651723C365F9
:103A700040F29353836523686BB97F4807684FF61C
:103A8000807017B1B842A8BF3846B0F5007F5CDA45
:103A900040EA432323601F0118461B1158D1C0433D
:103AA00000F00F00DFF8D4E138438F0040FA07FC44
:103AB0000CF00F0C0F441EF80CC001310CFA07F784
:103AC000042943EA0703F0D14FF0FF30132143FAF2
:103AD00001F747F300077840013925F8020FF6D2C5
:103AE0003180674900237385B3854B6372B64B6A97
:103AF000C3F560630F33632BB8BF6323CB6201232D
:103B00004B614B695F4B1B88CB6262B65E490B68A9
:103B100003BB0023236002F01003521100F08081E8
:103B20002F2A1EDD13B1594B01211970584B93F800
:103B30002330A3B1B2F5836FACBFA2F21742C2F13A
:103B40002F02520070E15C4071E7401001339CE7A6
:103B50005840A2E7013B0B60002BDAD0DBE72F3A9D
:103B600062E1002B3FF434AF434B196800297FF426
:103B70002FAF484803689A42474B1CBF0260196048
:103B800018680928DCBF01301860501E2E283FF647
:103B90001FAF01A454F820F0553C0008553C000824
:103BA000553C0008553C0008553C0008D139000838
:103BB000A13C0008B13C0008BF3C0008D13C000813
:103BC000D1390008DF3C0008F13C00080D3D000839
:103BD000D1390008D1390008D1390008D13900089D
:103BE000D1390008233D0008313D0008D1390008D3
:103BF000D1390008D1390008D1390008D13900087D
:103C0000D1390008D1390008D1390008D13900086C
:103C1000D1390008D1390008D1390008D13900085C
:103C2000D1390008D1390008D1390008D13900084C
:103C3000D13900083F3D0008693D0008933D000868
:103C4000C33D0008F13D0008D1390008D139000812
:103C5000133E0008114B1A70BAE600BF0000024084
:103C6000001002403E020020FC010020400600201F
:103C700000300040B0060020C8060020686100083F
:103C8000004001403C020020EC010020AC06002076
:103C900000000020E8010020E4010020A906002027
:103CA0001B68062B7FF494AE624B00229A758FE658
:103CB0001B68062B7FF48CAE5E4B0122F6E71B6877
:103CC000062B7FF485AE5B4B002283F823207FE632
:103CD0001B68062B7FF47CAE564B0122F5E71B6870
:103CE000062B7FF475AE01F0DBFB534B18606FE6DB
:103CF0001B68062B7FF46CAE504B01221A70504BA0
:103D00004FF460621A604F4B0A2291E01B68062B49
:103D10007FF45EAE494B00221A70494B40F6FF62B9
:103D2000F0E71B68062B7FF453AE474B002292E767
:103D30001B68062B7FF44CAE434B01228BE71B68BC
:103D4000062B7FF445AE3B4A137E5B0801330F2BF5
:103D500008D8082BB8BF082359001176073B364A0C
:103D6000136035E60823F7E71B68062B7FF430AEB7
:103D70003049CA7E920801320C2A03D8062A13461B
:103D8000B8BF0623DAB29000D200C8760A77053BA6
:103D9000E5E71B68062B7FF41BAE264A0A2092F843
:103DA0002030B3FBF0F30133DBB283428CBF00233E
:103DB000194603EB83035B0082F820301E4B196029
:103DC00006E61B68062B7FF403AE1A4A92F82130F0
:103DD000632B0ADC591C0A2906DD0521B3FBF1F32C
:103DE000013303EB830300E00B4682F82130B6E792
:103DF0001B68062B7FF4ECAD0E4A92F82130012BA4
:103E0000F3DD013B0A2BF0DD0521B3FBF1F31BB21F
:103E1000E7E71B68062B7FF4DBAD01F087FB64E767
:103E200013B10A4B01211970094B1A60094B00228A
:103E30001A60CDE5000000205C010020A8060020EB
:103E4000B0060020EC010020AA060020AC060020ED
:103E5000CC060020E80100200C4B0D4A1A600D4BE7
:103E60004FF400425A6454229A6031229A6103212D
:103E700001221A62D960772199624FF0FF31D9622D
:103E8000042119605A6185221A6070474806002093
:103E90003D32000800400140014B1B68184700BF3D
:103EA00048060020034B4FF400325A60024B1B6857
:103EB000184700BF0000024044060020FFF7ECBF97
:103EC000704770470D4B44F24002C3F8182C402253
:103ED000C3F81C2C40F24442C3F8202C2122C3F822
:103EE000142C46F66802C3F8182C6822C3F81C2C60
:103EF0002022C3F8142C0020FDF7F4BB0020014061
:103F00002DE9F043214C23788BB053B1204A013B7B
:103F100092F83D111F4A52F8230001F019FB0023CB
:103F20002370DFF87480D8F80040002C2ADB184A90
:103F300092F83C61192EB8BF19266A4600256F46D3
:103F40000A2094FBF0F100FB114442F8044B0135C8
:103F50000C460029F5D1DFF8449007EB85071CB12A
:103F60000F48314601F0F4FA57F8043D314659F84C
:103F70002300013401F0ECFAAC42F0D14FF0FF33F2
:103F8000C8F800300BB0BDE8F08300BFA9060020E0
:103F900000000020A46100085C0100207861000896
:103FA000E95F00082DE9F843AE4BAF4C1F78AF4BEB
:103FB000AF4A1B7823B3AF4B5B7DA7B1D3B940F2B7
:103FC0001443582146F65800C4F8180CC4F81C1CB9
:103FD000C4F8203C01231360A74A1360A74BA84AEA
:103FE0001A60BDE8F88343B940F24113682145F6F1
:103FF0006800E9E740F25443E3E740F24553F5E750
:10400000A04B1868136800287AD04FF080419E4D6D
:10401000C1F83C04C1F82C040120C1F814042E7826
:1040200026B91BB13C214B433B3B13601368002F67
:1040300059D0013B002BD8BF4FF4B4731360116803
:1040400001F1FF3CBCF1770F53DC01F1EF07773151
:10405000884B9A7E93F83800D20058B18B4B1B687E
:10406000A3EB8003C3F178033C2BB8BF3C239A42F7
:10407000A8BF1A4686488323C4F8003C41F2873320
:10408000C4F82C3C30F81C305343DB11C4F8343CEA
:1040900030F817305343DB11C4F8383C30F8113096
:1040A0005343DB11C4F83C3C8123C4F8003C002E90
:1040B00097D146F66803C4F8183C6823C4F81C3C42
:1040C00040F25553C4F8203C2123C4F8143C4FF06F
:1040D00080433046C3F80C64FDF704FB664B1E605A
:1040E00001232B707DE70133B3F5B47FC8BF0123F3
:1040F000A4E7BCF1EF0FA1F17907A8DDF139A7E73B
:10410000002F00F08580013B002BD8BF06231360F1
:104110001568604B691E05F001055B5CED1B6FEADD
:10412000030003EAD30618BF012500EAD30016F006
:1041300001034FEA850570D04E4A527D002A18BF10
:10414000052343F4805340F66802B70773D5494FFF
:104150007F7D002F0CBF1027502742F4C0423B4305
:10416000760773D54348407D00280CBF4FF480701C
:104170004FF4A060034346F66800474FC4F8182C7C
:10418000DFF8F480454AC4F81C0CC4F8203C3B68B6
:1041900042F82130D8F80030384E062B0CD1D2E945
:1041A00000310B4491680B44D1680B44116952698A
:1041B0000B4413445B103360DFF8E490D9F800003F
:1041C000FDF790FA3B683749C9F80050B3F57A7F9C
:1041D0006CDD354B4FF47A721A6000230B60336844
:1041E000632B4FF0000200F38280C4F8402C4FF0A4
:1041F00080437122C3F818248522C3F800244FF0AD
:1042000080430022C3F810240322C3F80C24E8E6FC
:104210000133062BC8BF012379E7C3075DBF45F013
:10422000010541F2040340F6480241F2040348BF8D
:1042300040F6580289E7870743F040034EBF42F437
:10424000A04242F4804245F0020589E7400743F46A
:1042500080635ABF45F0030546F6480046F658000D
:104260008BE700BF8E060020002001408C06002056
:10427000A4060020000000209C060020C8060020A4
:1042800000879303A00600209106002094060020DA
:10429000D45A0008B861000898060020680600207B
:1042A000640600205C060020600600200A680132D7
:1042B000062A0A6093D1224802689342B4BFD21AF8
:1042C0009A1AB2EB630F4FF000020DDD4FF08043FE
:1042D000C3F80C241B4BC8F800201A7042F210736C
:1042E0003B60194B33607CE603600A6077E7C72BBD
:1042F00005DCC4F8402C4FF0804391227AE7B3F5F7
:104300007A7F05DAC4F8402C4FF08043C12271E770
:10431000B3F5FA6F4FF0804307DAC4F8402CC1229E
:10432000C3F8182440F2851267E74FF40072C4F80E
:10433000402CC122C3F8182440F285225DE700BF5B
:10434000600600209006002000E1F505054BD3F83B
:104350000C2C920605D56FF02002C3F8102CFFF745
:1043600021BE7047002001404FF0804370B5D3F864
:104370000C24D3F81014D00714D5C90712D56FF048
:104380000102C3F810240022C3F80C24214B1A6048
:10439000214B1A70214B42F210721A60204B214AB5
:1043A0001A6070BD9307FCD51C4C4FF08043226807
:1043B000D3F83434B3EB620FF3DB164802EB42025E
:1043C000B3EBA20F016822DA8E1F754275411344C8
:1043D000154A114E127E35709B105A432360A3EB91
:1043E00062135B10012B4FF08042B8BF0123C2F86B
:1043F0003C3405294FF00103C2F81434D8BF013111
:104400004FF00003C2F80C34D8BF0160C9E70025A3
:10441000DDE700BF9C0600209006002098060020E3
:10442000C806002000E1F5050000002037B51D4654
:10443000204B1C68121B01461F4833D40123037014
:104440000A221E4800F0B2FE1D4B18601D4B801062
:1044500020EAE0701860072200211B4800F0A6FE49
:104460001A4B042218600021194800F09FFE194BD6
:104470001860194B1B789BB105222946174800F09C
:1044800095FE174991F824304FF4FA62009203EB3D
:104490008303CA8D898D9B0000F076FE114B186056
:1044A00003B030BD00780028CAD104EB62041C6060
:1044B000C6E700BF580100208D06002054010020EF
:1044C00094060020C006002050010020BC060020F9
:1044D0004C010020B8060020AD0600204801002055
:1044E00000000020CC0600204FF0E0234FF0805267
:1044F000C3F8042D0022C3F8102D094A13780133A4
:10450000DBB2137013F00F0309D106490A680132B8
:104510000A60054909688A4204BF044A137070475B
:104520008F060020880600208406002080060020D8
:1045300072B6074B1B681844064B1860064B0122E5
:104540001A7062B60548197801B970474261FAE7F6
:10455000880600208406002080060020001000400D
:1045600038B51F4C23782BB11E4B1D7815B900F0C0
:1045700037FD25701C4B1B781A072FD1FDF7E2F889
:104580001A4B1B68DB0601D100F062FD184B93F853
:104590003F01184B1A78824202D01870FFF791FC45
:1045A0001548164A03681268154913440A680360DF
:1045B0000132B2F57A7F0A6010DB4FF47A7293FB16
:1045C000F2F3104A1468234413604FF4B47293FB5F
:1045D000F2F30D4A1360002303600B6038BD00BF87
:1045E000AC060020AB0600208F06002088060020C5
:1045F000000000204401002058060020B8060020DA
:104600005406002050060020B40600202DE9F04F8B
:10461000B248B34AB34CB449B44EDFF8D49295B023
:10462000121A01F0B7F900F0EFFD94F82430B14A06
:1046300003EB83039B00336094F83030591E4B42E8
:104640004B411370AC4BE27D1A70AC4B94F83220A6
:104650001A70FCF735FF00F075FDFFF731FC00F034
:1046600039FCFFF7F9FB4FF40843C9F8443C41F229
:104670008733C9F82C3C8123C9F8003C3523C9F89D
:10468000043C4FF080433B22C3F828240025042239
:10469000C3F82C54C3F800240122C3F81424852243
:1046A000C3F800248021FE2001F0F0F94FF0E02350
:1046B00041F64B525A6107229D611A6194F83A30D3
:1046C00007938F4B5F6A4FF0807217F0C0455A62B4
:1046D00000F0E580237D0BB97A001CD5894D42F6A8
:1046E000DF63AB6240F6C313EB6204232B60012748
:1046F00005236F612B606FF001032B6137602B691D
:10470000DB0740F1E280002333602B6094F83C111A
:104710007D4800F01DFFFFF7D5FB1422002109A8FA
:1047200001F0C4F83223089314224FF47A73002165
:104730000FA84FF0000B0A9301F0B8F84FF4C873BC
:104740000E93CDE903BB4FF416731093654E02230D
:104750005F4605935C46D8464FF0E0230222C3F83B
:10476000102D30BF614B1868737E03EB83019140BD
:104770002BB1664B1B68002B14BF14230023002CA5
:1047800008BF4FF00008002840F3E8800B44834244
:1047900080F2D280B27F737F02EB8202920003EB41
:1047A000830300929B004FF4FA6200F0EDFC044694
:1047B000574AB37D12785340564A1370002305932D
:1047C00052490B68002B00F00B82002C40F02D8129
:1047D000514A1168002940F01F81049CC2464F4B8A
:1047E000D3F80080B8F1000F40F0068272B64C4B4F
:1047F0004C4A42F210771F60474B1A60FFF7D2FB1A
:104800002123C9F8143CD9F80C3C43F02003C9F823
:104810000C3C4FF080434FF6FF720125C3F83C2457
:10482000C3F82C24C3F8145462B6394608A800F023
:10483000CDFC4746FFF764FB3B4B1B7813F00F02A0
:1048400040F02182079996F8393013FB01F30A21D1
:104850004B43364909688B4240F3EC810BF1010B65
:1048600040F6B8339B4540F0E68172B68023C9F824
:10487000143C244B42F6DF629A6242F20F72DA6213
:1048800001225A616FF001021A6109221A601A6846
:10489000D207FCD4264B8022C3F8002CFEE794F804
:1048A0003C1104F13C0000F053FE94F83930002B29
:1048B0003FF410AF079B9D42BFF60CAF94F83C113C
:1048C0001C4800F045FE0135F4E730BFFFF718FB48
:1048D0003368002B3FF413AF6F6110E70000002036
:1048E000400100200000002000100008CC0600203D
:1048F00000200140AD0600208C060020AB06002001
:104900000010024000100040F05F0008A0060020E8
:10491000AA0600208E060020C8060020A40600205B
:104920009806002000E1F5058F060020BC06002057
:1049300000200040EC5F0008F28E6AB1AF4BB3FB81
:10494000F2F300930A464FF47A73002100F01CFC46
:10495000AB4B002418602BE79123F2E746D096F882
:104960002320022AC0F1000013D1059A022A10D098
:1049700096F822304FF4FA6203EB83039B00009217
:10498000002100F001FC0123804600240593254608
:104990007FE00B44834217DAB27F737F02EB82021F
:1049A000920003EB830300929B004FF4FA6200F045
:1049B000EBFB0446934BB27D1B78002A08BF83F0C3
:1049C0000103914A1370FBE6F28E6AB18B4BB3FB85
:1049D000F2F300930A464FF47A73002100F0D4FBFF
:1049E000874B00241860E5E79123F2E7874B1B68AB
:1049F000062B18BF96F82280059B1DBF08EB880880
:104A00004FEA880804460746012B08BF0223059396
:104A1000002CBCD00446D3E6B4214B4313607C4A3F
:104A200092FBF3F37B4A1360D7E672B67A48764F6F
:104A300003683F783C25013B93FBF5F25543002F7B
:104A400000F0CB80ED1A05F13C030D684FF0804774
:104A50006B43C7F83C344FF6FF73C7F82C3401257D
:104A60006A4BC7F8145400271F606C4B0F601F700F
:104A70006B4B1F706B4B2A4442F210780260C3F8F4
:104A80000080FFF78FFA62B6414608A800F09EFB4F
:104A9000B846F27E644BB3FBF2F20692002D00F0B2
:104AA000A880624A126882B1594890FBF2F0594AD4
:104AB00047F230511060327FB3FBF2F34EF66022C2
:104AC0000093069B00F060FB0690F37F96F82010A1
:104AD00050484FF4FA62009203EB83034FF47A726A
:104AE0004A4300689B00002100F04EFB96F83820F6
:104AF000824682B14E4B1B68A3EB82036FF0180213
:104B0000534303F5FA63B3F5FA7FB8BF4FF4FA7372
:104B10009842A8BF9A46039B3C44E41A404B24EABF
:104B2000E4741B78A245A8BFA246002B5AD196F880
:104B300021200499D31002F007028A4201F10104F6
:104B400052DD0133D04503DA43449A45A8BF9A4663
:104B5000069B0093002319464FF4FA62504600F07A
:104B600013FB8323C9F8003C069B013BC9F82C3C8E
:104B70008123C9F8340CC9F8380CC9F83C0CC9F8C1
:104B8000003C002D7FF42BAEDFF88C80D8F800308D
:104B9000002B3FF44FAE72B6D9F80C3C23F0200343
:104BA000C9F80C3C4FF080430122C3F80C54C3F801
:104BB0002C54C3F81424FFF785F9114BC8F80050A2
:104BC0001D60124B1D60154B1D70154B1D70174B52
:104BD0001D60104B1D6062B62CE65B1B013334E791
:104BE000012556E70022A4E7049A072A08BF0024FB
:104BF000A8E7049CC246ABE701251BE61516050095
:104C0000A0060020AA0600208E0600209C06002098
:104C100000879303C4060020A4060020910600200C
:104C20009006002098060020C0D40100C80600208D
:104C3000940600209346F38E4BB3164AB2FBF3F270
:104C4000154BA2F54872196808A800F0C3FA07EBE3
:104C5000204727EAE777A02FA8BFA02796F83B3088
:104C600083B164225A430D4B0EA8196800F0B2FAC2
:104C7000039B03EBA02323EAE373B3F5FA6FA8BF0A
:104C80004FF4FA6303930494D0462C4664E51F4620
:104C9000E4E700BF002D310198060020B80600208F
:104CA0000368134403EB2323DBB210B50360A2F1C6
:104CB0007D03012B064806D80B685C1C0C607D2424
:104CC000C45402F0DF020B685C1C0C60C25410BDBF
:104CD000D8060020C0F57F43CAB2F93330B59B1A1D
:104CE000C1F307229B1A054A0C12062513711B12E9
:104CF000157050709170D470537130BDD80600207B
:104D0000042810B550D1294B1A78042A4CD1587870
:104D10005B884FF6FB720344934245D1244991F8D6
:104D2000333000F00F02013B6FF0040404FB032258
:104D3000013A042A38D80309092B06D00A2B0BD0D4
:104D4000083B58425841800010BD1A4B33F81210EE
:104D5000FFF7C0FF0620F7E7013A032A0AD801A3AC
:104D600053F822F0814D00089B4D0008A14D00082A
:104D7000A54D0008104B1B680A2128335943E7E76B
:104D800091F834300D4A5B08116891FBF3F14FF64E
:104D9000FF739942A8BF1946DAE7094B1968D7E7AC
:104DA000084BFBE7084BF9E70020CDE7D8060020C9
:104DB00000000020FE620008C0060020C40600209B
:104DC000BC060020B8060020B406002037B510232A
:104DD0000122CDE90032144A0C46137001A90546A0
:104DE000C2B26846FFF75CFFC5F307226846FFF7CB
:104DF00057FFE2B26846FFF753FFC4F30722684645
:104E0000FFF74EFFC4F307426846FFF749FF220E43
:104E10006846FFF745FF009AD2436846D2B2FFF7D3
:104E20003FFF019803B030BDD8060020022810B41F
:104E30003BD11F4B1A787E2A37D11E495A7891F8F8
:104E4000333002F01F02013B9A422ED11A4A1B480E
:104E50001368052B08BF00235C1C30F81300146096
:104E6000042B22D801A252F823F000BF814E000883
:104E7000874E00089B4E00089F4E0008A74E000872
:104E80000F4B196806E00F4A91F8343011685B083F
:104E900091FBF3F110BCFFF799BF0B4BF1E70B4B04
:104EA00019680A23F4E70A4BEBE7002010BC7047AF
:104EB000D806002000000020D40600200863000867
:104EC000C0060020C4060020BC060020B806002052
:104ED000B4060020184A40F21243C2F80838174BB3
:104EE0001978174B032917D004291CD0022901D1A6
:104EF000144A1A601A68104BC2B1C822C3F81428A9
:104F000042F21C02C3F80C280F4B1049104A996357
:104F1000DA6359629A6270470E49196040F62301BC
:104F2000C2F80818E6E74FF49071F9E78822C3F851
:104F3000142842F20802E5E700300140AB060020E9
:104F4000E8060020014D000800000240043801403E
:104F5000D80600202D4E000870B51A4CD4F80C5815
:104F60006B0620D415F02005D4F80028D4F80428C6
:104F700004D042F21C03C4F80C3870BD124E134B1F
:104F8000706B1B68C0F11000984760B16FF0400370
:104F9000C4F8003842F24803C4F80C389123F56194
:104FA0003062F361E9E7074B42F22C02C3F80C28A8
:104FB00003F5504300221A6310225A6381221A63B8
:104FC000DBE700BF0030014000000240E80600209F
:104FD000024B20225A600022DA6170470000024032
:104FE00038B5144DEB69DB0723D4134B134C1B6806
:104FF000642293FBF2F3124A237212682270114A60
:105000001268A2701112104A617012682271111296
:105010000E4AE1701268A271111261711A1209210F
:105020002046E27100F090F80A2360722B6293230D
:10503000EB6138BD00000240C4060020D806002005
:10504000C0060020BC060020B8060020B4060020E0
:1050500070B5324B1B78012B19D0042B1AD0304B72
:105060001B789BB12F4A13680133022B13603ED08B
:10507000032B45D0012B4ED12B4B1B7843F40073EF
:1050800072B62A4A116801B9136062B670BDFFF7A3
:10509000A7FFE4E7264DE86910F00100DFD1254BBA
:1050A000254C1A68254BA0720A211B6892FBF1F26D
:1050B00093FBF1F361700821A170227142FA01F1B2
:1050C000A3711A121E4B62711B68E1701A14E2710F
:1050D000C8261A120921A01C63722670227200F0E1
:1050E00043F80C23E0722B629323EB61B7E7114B7B
:1050F00019221B6893FBF2F3DBB243F48063BFE732
:105100000E4B64211B6893FBF1F30021DBB243F4E7
:10511000C0631160B4E70023B2E700BFAB06002014
:10512000A8060020D0060020C0060020B0060020FF
:1051300000000240BC060020D8060020B80600206F
:10514000B40600207047000010B5064A034601442B
:1051500000208B4200D110BD13F8014B6040105C61
:10516000F7E700BF2C64000810B5064A0346014467
:1051700000208B4200D110BD13F8014B6040105C41
:10518000F7E700BF2C63000810B504468C421846B0
:10519000029B0ADD9442BFBF641A1B1A5C43521A79
:1051A000AEBF184694FBF2F4001910BD00290BDBCA
:1051B0000368002BB8BF01FA02F319441341C91A5E
:1051C000016041FA02F07047002070470023C0E9F7
:1051D0000431704730B5D0E903438A1A134465425D
:1051E000AB42B8BF2B46A342A8BF23464469C0E9DF
:1051F00004310C1BD0E9001580686B4301FB0233BE
:1052000000FB043030BD000030B5A44B197D5C7D3F
:10521000D87D0A1E18BF01221A75221E18BF01224E
:105220005A759A7D003A18BF01229A75021E18BF5E
:105230000122DA751A7E012AB8BF01221F2AA8BFEF
:105240001F221A765A7E5AB1002C00F00B810028DA
:1052500040F00881052AB8BF0522192AA8BF1922E3
:105260005A769A7E1C7F93F82350012AB8BF0122F8
:105270000F2AA8BF0F229A76DA7E102AB8BF102212
:10528000302AA8BF3022A242DA76B8BF2246602A6E
:10529000A8BF60221A775A7F9C7F012AB8BF0122DB
:1052A000642AA8BF6422A2425A77B8BF2246642A61
:1052B000A8BF64229A77DA7F93F83040012AB8BFFA
:1052C0000122642AA8BF6422DA7793F82020642A96
:1052D000A8BF642283F8202093F82120012AB8BFB8
:1052E0000122642AA8BF642283F8212093F8222097
:1052F000642AA8BF642283F82220621E18BF0122FC
:105300005200AA42A8BF2A4683F82320002993F816
:1053100024200CBF642100218A42A8BF0A4683F8DA
:10532000242093F82520003A18BF012283F8252075
:10533000DA8CB2F5617FB8BF4FF4617240F26C71E4
:105340008A42A8BF0A46598DDA8402F1C805A942EB
:10535000B8BF294640F63405A942A8BF29461D8D8D
:1053600059856432AA42B8BF2A4664398A42A8BF26
:105370000A461A859A8DD98DB2F5486FA8BF4FF4A9
:1053800048629A85C8328A42B8BF0A4640F64851F8
:105390008A42A8BF0A46052CDA852246A8BF052204
:1053A000022C83F830205FDD93F83120032C14BFEA
:1053B00010210E21012AB8BF01228A42A8BF0A4645
:1053C00083F8312093F83220042A1146A8BF042123
:1053D000022A83F8321049D193F83320012AB8BF4A
:1053E0000122032AA8BF032283F8332093F8342034
:1053F00022F00102022AB8BF0222642AA8BF642256
:1054000083F83420DA8E5AB1002844D1B2F5E16F26
:10541000B8BF4FF4E162B2F5486FA8BF4FF44862DD
:10542000DA8693F838202AB13C2AB8BF3C228C2A6D
:10543000A8BF8C2293F83C1183F838206429A8BFB8
:10544000642183F83C1193F83D1164294FF0000268
:10545000A8BF642183F839205A8783F83D11A3F847
:105460003E2130BD0022FBE60022A9E7032A08D135
:1054700093F83320012AB8BF01221C2AA8BF1C229E
:10548000B2E7042C05D193F83320042AA8BF0422E4
:10549000AAE70022A8E70022C2E700BF0000002020
:1054A00038B51C4B1B680BB1002038BD72B61A4BC7
:1054B0001A4A5A6002F188325A604FF0FF32DA60BD
:1054C00002221A61164A5A6142221A61DA68D20728
:1054D000FCD401221A61134B1149134A0E481C4691
:1054E00093420FD38023036162B6C36813F0140F95
:1054F000DAD10C490A48121B00F0C8F9B0FA80F062
:105500004009D2E733F8025B21F8025BC568ED077A
:10551000FCD4E5E7C80600200020024023016745CF
:1055200000100008000000204001002008B572B6FD
:10553000054906484FF4A07200F02CFA62B6BDE8A7
:105540000840FFF7ADBF00BFBE61000800000020AB
:105550002DE9F04F85B00A220F4603A9044600F05A
:1055600049F9039AA24200F08280A0F10A0140F2B8
:10557000DD33994200F2A08043F6982898FBF0F8BA
:10558000002F00F099804D4B1868002840F094805F
:10559000DFF82CB19BF80050002D65D1494CDFF8A5
:1055A00028A101238BF8003046F65003C4F8183CBC
:1055B0005023C4F81C3C40F25443C4F8203C0E2352
:1055C000C4F8283C4FF02109164616F8013B7BB37E
:1055D000A3F1610106294DD8633B00210733072061
:1055E00093FBF0F0C0EBC0001B1A5B005078042B5B
:1055F000C8BF03F1FF33232808BF013329443AF819
:10560000133043FA01F3C4F82C3C4FEA470308BFB8
:10561000961CC4F8383CC4F8149C0A2203A93046EE
:1056200000F0E8F8039BB3423AD0421E622A38D910
:1056300044F24003C4F8183C4023C4F81C3C40F238
:105640004443C4F8203C41F287320023C4F8283C8C
:10565000C4F82C2C2122C4F8142C16F8010C8BF859
:105660000030B0FA80F0400905B0BDE8F08F4FF08F
:105670007D0885E7A3F14101062902D8433B0121BA
:10568000ACE75F2BC7D02B2B03D1002DD0D1012548
:1056900004E02D2BCCD1002DCAD0013D324693E73A
:1056A000012018FB00F00193FEF742FF019B00224E
:1056B000C4F8382C1E46F1E70020D5E7C8060020C4
:1056C000EC0600200020014012630008931E222BEC
:1056D00010B50C4604D900230B701C46204610BDA3
:1056E0000A2A09D1002807DA2D230B704042012134
:1056F000214400F089F8F1E70021F9E7FFF7E6BF60
:10570000242B2DE9F0478646904601D8012B06D17F
:1057100000F03AF9162303600020BDE8F087344812
:105720000D462A4615F8014B065D16F00806F8D11D
:105730002D2C10D12C780126951C33F0100215D198
:10574000302C0DD12A7802F0DF02582A08D16C786B
:10575000023510230AE02B2C04BF2C78951CECE7B3
:10576000002BF6D1302C14BF0A23082306F1004C7D
:105770000CF1FF3C0022BCFBF3F9104603FB19CAF5
:10578000A4F13007092F0FD83C46A3421BDD571C5C
:1057900007D0814514D301D1A24511DB00FB0340A2
:1057A000012215F8014BEBE7A4F14107192F01D8AD
:1057B000373CEAE7A4F16107192F04D8573CE4E726
:1057C0004FF0FF32EDE7531C08D12223CEF8003012
:1057D0006046B8F1000FA0D0691E06E006B1404255
:1057E000B8F1000F99D0002AF6D1C8F8001094E75C
:1057F0002D65000813460A46014602480068FFF777
:105800007FBF00BF60010020F0B51F4C8BB0054684
:105810000B466E4604F1200C20686168374603C7CA
:10582000083464453E46F7D121793971911E2068CC
:10583000386022294FF0000104D919700B46184630
:105840000BB0F0BD581E8446B5FBF2F702FB1756AD
:1058500028366E440C4616F8286C0CF8016F2E465C
:10586000B24201F101013D46EED900225A54191904
:10587000A51AAA42E3DA10F8015F0E780670013229
:1058800001F80159F4E700BF6660000810B501395E
:105890000244904201D1002005E0037811F8014F45
:1058A000A34201D0181B10BD0130F2E702440346A9
:1058B000934200D1704703F8011BF9E730B50C4D56
:1058C000024612F8013BE85C00F00300012811F8E1
:1058D000010B2C5C04F0030408BF2033012C08BF2B
:1058E00020301B1A02D10028EBD130BD1846FCE74E
:1058F0002D65000810B50B4662B913F8012B002A7C
:10590000FBD104E013F8014B00F8014B14B9581A0D
:10591000013810BD013AF5D10270EEE702460023CE
:10592000006800F000B8F0B5044608B9146844B146
:10593000204614F8015B0F4617F8016B1EB965B9D4
:105940001560002005E0B542F6D1002BF0D11460BF
:105950000370F0BD1C460CE01DB9274614F8013B4E
:105960000E4616F8015BAB42F6D1002BF2D00023B5
:105970003B701460EDE7034611F8012B184603F85D
:10598000012B002AF8D17047014B1868704700BFFF
:10599000600100200A44914200F1FF3300D17047BA
:1059A00010B511F8014B03F8014F9142F9D110BD28
:1059B000034613F8012B002AFBD1181A013870474F
:1059C000FEE7704710B5164B164A17498B4218D39D
:1059D0000021164A934217D38023154A9B00116871
:1059E000144C0B431360144B9C420FD3134C144BB9
:1059F0009C420ED3FEF70AFE124C134B9C420BD373
:105A000010BD01CA01C3E1E702C3E3E708CC984730
:105A1000E9E708CC9847EAE708CC9847EDE7C046A5
:105A20004001002038660008B0010020F006002088
:105A300014ED00E0306600083066000830660008AB
:105A4000306600083066000830660008014B024AE4
:105A50001A60FEE70CED00E00400FA05044A430971
:105A60009B009B181F2210401E3A82401A6070470C
:105A700000E100E0044A43099B009B181F221040EC
:105A80001E3A82401A60704780E200E010B51F287D
:105A900012D90F2318400438C0B28308084A9B006B
:105AA0001824C0002040E734844081409B181A68C5
:105AB000A2431143196010BD8308024A9B00EFE71F
:105AC00018ED00E000E400E0E1180400C118040053
:105AD000D1180400900197019E01A501AC01B3010A
:105AE000BA01C101C801CF01D501DC01E301EA011E
:105AF000F101F801FE0105020C02120219021F0257
:105B000026022C02330239023F0246024C025202A4
:105B100058025E0264026A02700275027B02810210
:105B200086028C02910296029C02A102A602AB029E
:105B3000B002B502B902BE02C202C702CB02CF0256
:105B4000D402D802DC02DF02E302E702EA02EE023C
:105B5000F102F402F802FB02FD0200030303050355
:105B600008030A030C030F031103120314031603A3
:105B7000170319031A031B031C031D031E031E0333
:105B80001F031F03200320032003200320031F0300
:105B90001F031E031E031D031C031B031A0319030B
:105BA000170316031403120311030F030C030A0354
:105BB0000803050303030003FD02FB02F802F402DD
:105BC000F102EE02EA02E702E302DF02DC02D8029F
:105BD000D402CF02CB02C702C202BE02B902B50292
:105BE000B002AB02A602A1029C02960291028C02B4
:105BF000860281027B02750270026A0264025E0202
:105C0000580252024C0246023F02390233022C0271
:105C100026021F02190212020C020502FE01F801FF
:105C2000F101EA01E301DC01D501CF01C801C101A5
:105C3000BA01B301AC01A5019E0197019001890150
:105C400082017B0174016D0166015F015801510100
:105C50004B0144013D0136012F01280122011B01A6
:105C600014010E0107010101FA00F400ED00E70044
:105C7000E100DA00D400CE00C800C200BC00B600CB
:105C8000B000AB00A5009F009A0094008F008A002E
:105C900084007F007A00750070006B00670062006E
:105CA0005E005900550051004C004800440041007E
:105CB0003D003900360032002F002C00280025005E
:105CC000230020001D001B00180016001400110006
:105CD0000F000E000C000A00090007000600050076
:105CE00004000300020002000100010000000000A7
:105CF000000000000000010001000200020003009B
:105D0000040005000600070009000A000C000E0050
:105D10000F0011001400160018001B001D002000C9
:105D20002300250028002C002F0032003600390007
:105D30003D004100440048004C005100550059000E
:105D40005E00620067006B00700075007A007F00E3
:105D500084008A008F0094009A009F00A500AB0089
:105D6000B000B600BC00C200C800CE00D400DA000B
:105D7000E100E700ED00F400FA00010107010E0167
:105D800014011B01220128012F0136013D014401AC
:105D90004B01510158015F0166016D0174017B01E6
:105DA000820189012E00300020090D0A005573611F
:105DB00067653A0A696E666F0A73686F770A676586
:105DC00074203C706172616D3E0A736574203C7092
:105DD0006172616D3E203C76616C75653E0A73614F
:105DE00076650A72657365740A706C6179203C6D22
:105DF000757369633E205B3C766F6C756D653E5DC7
:105E00000A7468726F74203C76616C75653E0A6234
:105E10006565700A004553436170653332207265D1
:105E20007600205B005D0A54656D703A2000430ADD
:105E3000566F6C743A2000560A437572723A20000D
:105E4000410A4373756D3A20006D41680A4552500E
:105E50004D3A200061726D0064616D70007265766C
:105E600064697200627275736865640074696D6953
:105E70006E670073696E655F72616E676500736956
:105E80006E655F706F77657200667265715F6D69D0
:105E90006E00667265715F6D617800647574795F1C
:105EA0006D696E00647574795F6D617800647574F6
:105EB000795F7370757000647574795F72616D706D
:105EC00000647574795F7261746500647574795FDC
:105ED00064726167007468726F745F6D6F646500EF
:105EE0007468726F745F736574007468726F745F46
:105EF00063616C007468726F745F6D696E007468C2
:105F0000726F745F6D6964007468726F745F6D6145
:105F10007800616E616C6F675F6D696E00616E61C4
:105F20006C6F675F6D617800696E7075745F6D6F1F
:105F3000646500696E7075745F6368696400746598
:105F40006C656D5F6D6F64650074656C656D5F7029
:105F50006869640074656C656D5F706F6C65730073
:105F600070726F745F7374616C6C0070726F745FC9
:105F700074656D700070726F745F766F6C74007012
:105F8000726F745F63656C6C730070726F745F63C3
:105F9000757272006D7573696300766F6C756D65EF
:105FA00000626561636F6E00626563006C6564002A
:105FB0004F4B0A004552524F520A0068656C700000
:105FC000696E666F0073686F770067657400736150
:105FD000766500726573657400706C617900746831
:105FE000726F740062656570005F34005F32440058
:105FF0004743006336004623324532443243320081
:10600000472341234723412347233200472341238A
:106010004723412346233247233200472341234766
:10602000234123453246233247233200472341236D
:106030004723412344324532462332472332004727
:1060400023412347234123433244324532462332FE
:106050004723320045470046410047420041422362
:1060600000614447450030313233343536373839F2
:106070006162636465666768696A6B6C6D6E6F7098
:106080007172737475767778797A0000545E0008BF
:10609000585E00085D5E0008645E00086C5E0008E3
:1060A000735E00087E5E0008895E0008925E00084C
:1060B0009B5E0008A45E0008AD5E0008B75E0008A5
:1060C000C15E0008CB5E0008D55E0008E05E0008F7
:1060D000EA5E0008F45E0008FE5E0008085F000843
:1060E000125F00081D5F0008285F0008335F00088A
:1060F0003E5F0008495F0008545F0008605F0008C9
:106100006B5F0008755F00087F5F00088A5F00080A
:10611000945F00089A5F0008A15F0008A85F00086C
:10612000AC5F000800000000BB5F0008C05F000813
:10613000C55F0008CA5F0008E65E0008CE5F000881
:10614000D35F0008D95F0008DE5F0008E45F000845
:1061500000000000C323A363E3D333B373F3CB2B5B
:10616000AB6BEBDB3BBB7BFB191B12131D1516172F
:106170001A090A0B1E0D0E0FF35F0008FD5F0008E1
:10618000FB5F0008F95F0008F65F00080060000888
:106190000C6000081B6000082C6000083F600008CD
:1061A0000000000054600008576000085A600008B2
:1061B0005D6000086160000835192B321E2CEA3240
:1061C0000B004D415F3100000000000000000000A6
:1061D0000000000100001000081830646419001964
:1061E00000000001E803DC05D0070E01A005010056
:1061F00000000E0000000000000064666123000043
:10620000000000000000000000000000000000008E
:10621000000000000000000000000000000000007E
:10622000000000000000000000000000000000006E
:10623000000000000000000000000000000000005E
:10624000000000000000000000000000000000004E
:10625000000000000000000000000000000000003E
:10626000000000000000000000000000000000002E
:10627000000000000000000000000000000000001E
:10628000000000000000000000000000000000000E
:1062900000000000000000000000000000000000FE
:1062A00000000000000000000000000000000000EE
:1062B00000000000000000000000000000000000DE
:1062C00000000000000000000000000000000000CE
:1062D00000000000000000000000000000000000BE
:1062E00000000000000000000000000000000000AE
:1062F0000000000000000000000000320000010269
:106300000202030205020602700B000510020002E1
:1063100000066F77BB70686A7164CC5E7A597554F9
:10632000B74F3D4B05470843443FB73B00D57FAAD5
:10633000FE2B815429FC5683D702A87D52872DF865
:10634000AC79D3067BAE04D18550FA2FA471DB0E55
:106350005A8F25F08D58F22773A60CD9F623895C45
:1063600008DD77A2DF0AA07521F45E8B9D48E23735
:1063700063B61CC9B461CB1E4A9F35E0CF1AB06525
:1063800031E44E9BE633994C18CD67B239EC469315
:10639000C712B86D10C56FBAEE3B91446BBE14C105
:1063A0009540EA3F42973DE8BC69C316EF3A9045F5
:1063B00011C46EBBC613B96C38ED4792BD68C217E5
:1063C00043963CE99441EB3E6ABF15C04B9E34E1D5
:1063D000B560CA1F62B71DC89C49E33619CC66B3C5
:1063E000E732984D30E54F9ACE1BB16472A70DD8B5
:1063F0008C59F3265B8E24F1A570DA0F20F55F8AA5
:10640000DE0BA17409DC76A3F722885DD603A97C94
:1064100028FD5782FF2A805501D47EAB8451FB2E84
:106420007AAF05D0AD78D20753862CF900070E0954
:106430001C1B1215383F363124232A2D70777E79A4
:106440006C6B6265484F464154535A5DE0E7EEE994
:10645000FCFBF2F5D8DFD6D1C4C3CACD90979E9984
:106460008C8B8285A8AFA6A1B4B3BABDC7C0C9CE74
:10647000DBDCD5D2FFF8F1F6E3E4EDEAB7B0B9BE64
:10648000ABACA5A28F88818693949D9A2720292E54
:106490003B3C35321F18111603040D0A5750595E44
:1064A0004B4C45426F68616673747D7A898E878034
:1064B00095929B9CB1B6BFB8ADAAA3A4F9FEF7F024
:1064C000E5E2EBECC1C6CFC8DDDAD3D4696E676014
:1064D00075727B7C51565F584D4A4344191E171004
:1064E00005020B0C21262F283D3A33344E494047F4
:1064F00052555C5B7671787F6A6D64633E393037E4
:1065000022252C2B0601080F1A1D1413AEA9A0A7D3
:10651000B2B5BCBB9691989F8A8D8483DED9D0D7C3
:10652000C2C5CCCBE6E1E8EFFAFDF4F30020202071
:106530002020202020202828282828202020202033
:106540002020202020202020202020202088101003
:10655000101010101010101010101010100404045F
:10656000040404040404041010101010101041411D
:10657000414141410101010101010101010101010B
:10658000010101010101010110101010101042421F
:1065900042424242020202020202020202020202DB
:1065A000020202020202020210101010200000007B
:1065B00000000000000000000000000000000000DB
:1065C00000000000000000000000000000000000CB
:1065D00000000000000000000000000000000000BB
:1065E00000000000000000000000000000000000AB
:1065F000000000000000000000000000000000009B
:10660000000000000000000000000000000000008A
:10661000000000000000000000000000000000007A
:10662000000000000000000000000000000000006A
:0866300080F3FF7F0100000070
:10663800FFFFFFFFFF000000FFFFFFFFFFFFFFFF5F
:10664800FFFFFFFFFFFFFFFFE40C0000FFFFFFFF5E
:106658006401002000000000000000006800000045
:10666800D000000000000000000000000000000052
:106678000000000000000000000000000000000012
:106688000000000000000000000000000000000002
:1066980000000000000000000000000000000000F2
:04000005080059C5D1
:00000001FF
