:020000040800F2
:10100000EA320B0052454D4F52415F3231365F316B
:101010003434320000010000100008183064640A03
:10102000001900000001E803DC05D0070100000002
:101030000E00000000000000646661230000000054
:1010400000000000000000000000000000000000A0
:101050000000000000000000000000000000000090
:101060000000000000000000000000000000000080
:101070000000000000000000000000000000000070
:101080000000000000000000000000000000000060
:101090000000000000000000000000000000000050
:1010A0000000000000000000000000000000000040
:1010B0000000000000000000000000000000000030
:1010C0000000000000000000000000000000000020
:1010D0000000000000000000000000000000000010
:1010E0000000000000000000000000000000000000
:1010F00000000000000000000000000000000000F0
:1011000000000000000000000000000000000000DF
:1011100000000000000000000000000000000000CF
:1011200000000000000000000000000000000000BF
:10113000000000000000000000320000000000007D
:1014000000200020A5570008A3570008A157000896
:1014100000000000000000000000000000000000CC
:10142000000000000000000000000000A3570008BA
:10143000000000000000000089430008114300087C
:10144000A1570008A1570008A1570008A15700089C
:10145000A1570008A1570008A1570008A15700088C
:10146000A157000895170008D14D0008D13C00088D
:10147000A15700087541000871170008A15700081E
:1014800091410008A1570008A1570008A157000882
:10149000C53C0008A1570008A1570008A157000843
:1014A000A1570008A1570008A1570008594D00088E
:1014B000E93C0008A1570008A1570008A1570008FF
:1014C00038B5724B72494FF0FF32DA601A61002270
:1014D000DA601A616F4A5A6144F601229A6140F655
:1014E0001202DA614FF0E022C2F8081D5A6822F0B9
:1014F00002025A605A681407FCD41A6822F08072FB
:101500001A60654A13211160644A5A601A6842F0F1
:1015100080721A601A689001FCD55A6842F0020283
:101520005A604FF090424FF00051116240F2222178
:1015300051622221C2F820144FF48051C2F80C14D9
:10154000574911605749C2F80014996941F4803134
:101550009961D36843F01003D360136823F010033C
:1015600013604021142004F081F980211B2004F035
:101570007DF940211C2004F079F98021092004F034
:1015800075F980210A2004F071F940210B2004F044
:101590006DF90D2004F052F90E2004F04FF91020DF
:1015A00004F04CF9142004F049F91B2004F046F92A
:1015B0001C2004F043F9092004F040F90A2004F04B
:1015C0003DF90B2004F03AF9374B384AC3F80824A8
:1015D000374A40F26711D1626FF0010111610921B0
:1015E00011601168C907FCD4D3F8082442F0040242
:1015F000C3F80824D3F8082412F00402FAD14FF4F7
:101600008071C3F804144FF0FF31C3F80C14C3F811
:1016100010142849C3F834240A70274A92F82C2061
:10162000012A08D10A70D3F8340440F00600C3F848
:101630003404224802700A78D3F8345402EB82044E
:101640004FF40C70A0400232D2B22843C3F83404E5
:101650000A70013A1205C3F82C24194A194911617C
:10166000194951610222C3F80C2C2022C3F8082C1E
:101670004FF080436022C3F8042478210122C3F88C
:101680001824C3F81C14C3F8202438BD00100240ED
:1016900000140008050006000020024000C03420AD
:1016A000FFBFEAEBFAEFFFFF0020014001008000DE
:1016B00000100040C501002000000020C4010020EF
:1016C000000002404C240140B001002004490B6896
:1016D000C3F38502024462F387030B60704700BFC7
:1016E0000010024000F00303013B022B9ABF054AA1
:1016F00052F8233000234207034A48BF43F4004313
:10170000D3617047A85800080000014010B50C4C88
:101710004FF48033E3600023E360142004F09AF870
:10172000E36943F40033E3614FF090431A6A42F4F3
:1017300080721A625A6A42F080525A6210BD00BF2B
:1017400000100240074B9A68D2070AD4064A127862
:10175000DA6040F283529A60A3F56043034AC3F80B
:101760000824704700000240C501002001019E00CE
:10177000064B6FF00202C3F8102CD3F80824D205F0
:1017800044BF034AC3F80824704700BF002001404B
:101790000101DE00164B1749022210B45A600022E4
:1017A0009A60A3F56043144AC3F80824134B0A88CF
:1017B0001B78D3B113460120421C31F8100031F8D8
:1017C00012400F4AB2FBF4F2504300135343A0F50A
:1017D000A060282250432B2290FBF2F0002210BC84
:1017E0001B131146643002F035BD1846E4E700BF14
:1017F00000000240B001002001008000C401002070
:1018000050FB4A00034B1A6802435EBF024A18604D
:1018100010607047400100205C01002070B5054653
:101820000E46002456F8240018B1294603F036FF6E
:1018300008B9204670BD0134F4E713B50A220C46FE
:1018400001A903F0C7FE019B1B781BB92060012092
:1018500002B010BD0020FBE710B50446006803F09D
:101860007AFF206010BD0000F0B585B00A22044662
:101870000D46642791FBF7F601A9304603F02EFED2
:1018800001462046FFF7E8FF0D492046FFF7E4FF39
:1018900007FB16500A2201A903F020FE03F078FF8F
:1018A000084E0546012D05DD01A92046FFF7D4FFAE
:1018B00005B0F0BD31462046FFF7CEFF0135F1E718
:1018C000845B0008865B00081FB504460A220846B0
:1018D00001A903F003FE01462046FFF7BDFF04B057
:1018E00010BD0000F0B58DB03D4F0190054602AE31
:1018F0000024394601A803F001FF18B954B9204665
:101900000DB0F0BD0378002BF3D001340A2C46F85B
:10191000040BEED1334902980195FFF77FFF0928A8
:1019200001F2EE81DFE810F00A00150080000403E8
:101930006B06E309EF09F4090D0A220A2A4901A8F6
:10194000FFF78AFF294901A8FFF786FF019C641B66
:10195000D5E7012C41F0D481254C264901A8FFF799
:101960007BFFA078FFF74EFF014601A8FFF7ACFF11
:10197000214901A8FFF770FF211D01A8FFF76CFFA7
:101980001E4901A8FFF768FF1D4B01A81968FFF762
:101990009BFF1C4901A8FFF75FFF1B4B01A81968BB
:1019A000FFF762FF194901A8FFF756FF184B01A87E
:1019B0001968FFF759FF174901A8FFF74DFF164BAC
:1019C00001A81968FFF780FF144901A8FFF744FF39
:1019D000134B196801A8FFF777FF1249AFE700BF63
:1019E000885B0008EC5E00088D5B00087A5D0008EB
:1019F00000000020F55B0008025C0008055C0008A0
:101A0000C00600200E5C0008BC060020175C000821
:101A1000B8060020205C0008B4060020295C0008FD
:101A2000C40600208B5B0008012C41F06981AC4C9E
:101A3000AC4901A8FFF710FFAB4901A8FFF70CFF65
:101A4000217D01A8FFF740FFA84901A8FFF704FF87
:101A5000A74901A8FFF700FFA34901A8FFF7FCFE73
:101A6000617D01A8FFF730FFA04901A8FFF7F4FE50
:101A7000A04901A8FFF7F0FE9B4901A8FFF7ECFE83
:101A8000A17D01A8FFF720FF984901A8FFF7E4FE18
:101A9000994901A8FFF7E0FE934901A8FFF7DCFE92
:101AA000E17D01A8FFF710FF904901A8FFF7D4FEE0
:101AB000924901A8FFF7D0FE8B4901A8FFF7CCFEA1
:101AC000217E01A8FFF700FF884901A8FFF7C4FEA7
:101AD0008B4901A8FFF7C0FE834901A8FFF7BCFEB0
:101AE000617E01A8FFF7F0FE804901A8FFF7B4FE70
:101AF000844901A8FFF7B0FE7B4901A8FFF7ACFEBF
:101B0000A17E01A8FFF7E0FE784901A8FFF7A4FE37
:101B10007D4901A8FFF7A0FE734901A8FFF79CFECD
:101B2000E17E01A8FFF7D0FE704901A8FFF794FEFF
:101B3000764901A8FFF790FE6B4901A8FFF78CFEDC
:101B4000217F01A8FFF7C0FE684901A8FFF784FEC6
:101B50006F4901A8FFF780FE634901A8FFF77CFEEB
:101B6000617F01A8FFF7B0FE604901A8FFF774FE8E
:101B7000684901A8FFF770FE5B4901A8FFF76CFEFA
:101B8000A17F01A8FFF7A0FE584901A8FFF764FE56
:101B9000614901A8FFF760FE534901A8FFF75CFE09
:101BA000E17F01A8FFF790FE504901A8FFF754FE1E
:101BB0005A4901A8FFF750FE4B4901A8FFF74CFE18
:101BC00094F8201001A8FFF77FFE484901A8FFF70D
:101BD00043FE534901A8FFF73FFE434901A8FFF721
:101BE0003BFE94F8211001A8FFF76EFE3F4901A8C3
:101BF000FFF732FE4B4901A8FFF72EFE3A4901A834
:101C0000FFF72AFE94F8221001A8FFF75DFE37497E
:101C100001A8FFF721FE444901A8FFF71DFE324944
:101C200001A8FFF719FE94F8231001A8FFF74CFE56
:101C30002E4901A8FFF710FE3C4901A8FFF70CFE52
:101C4000294901A8FFF708FE94F8241001A8FFF71E
:101C50003BFE264901A8FFF7FFFD354901A8FFF724
:101C6000FBFD214901A8FFF7F7FD94F8251001A815
:101C7000FFF72AFE1D4901A8FFF7EEFD2D4901A837
:101C8000FFF7EAFD184901A8FFF7E6FDE18C01A87E
:101C9000FFF71AFE154901A8FFF7DEFD264901A846
:101CA000FFF7DAFD104901A8FFF7D6FD218D01A845
:101CB000FFF70AFE0D4901A8FFF7CEFD1F4901A855
:101CC000FFF7CAFD084901A8FFF7C6FD618D01A80D
:101CD000FFF7FAFD054901A8FFF7BEFD30E000BFA0
:101CE00000000020345C0008315C00088B5B0008B9
:101CF000385C00083D5C0008445C00084C5C00084F
:101D0000535C00085E5C0008695C0008725C0008B7
:101D10007B5C0008845C00088D5C0008975C000810
:101D2000A15C0008AB5C0008B55C0008C05C000862
:101D3000CA5C0008D45C0008DE5C0008E85C0008AF
:101D4000A74901A8FFF788FDA64901A8FFF784FD70
:101D500094F82C1001A8FFF7B7FDA34901A8FFF7DD
:101D60007BFDA24901A8FFF777FD9E4901A8FFF777
:101D700073FD94F82D1001A8FFF7A6FD9A4901A85C
:101D8000FFF76AFD9A4901A8FFF766FD954901A88A
:101D9000FFF762FD94F82E1001A8FFF795FD924918
:101DA00001A8FFF759FD934901A8FFF755FD8D499B
:101DB00001A8FFF751FD94F82F1001A8FFF784FD4B
:101DC000894901A8FFF748FD8B4901A8FFF744FDA9
:101DD000844901A8FFF740FD94F8301001A8FFF7EF
:101DE00073FD814901A8FFF737FD844901A8FFF77A
:101DF00033FD7C4901A8FFF72FFD618E01A8FFF795
:101E000063FD794901A8FFF727FD7D4901A8FFF788
:101E100023FD744901A8FFF71FFD94F8341001A8B1
:101E2000FFF752FD704901A8FFF716FD754901A89B
:101E3000FFF712FD6B4901A8FFF70EFD94F835106E
:101E400001A8FFF741FD684901A8FFF705FD6E49AC
:101E500001A8FFF701FD634901A8FFF7FDFC94F815
:101E6000361001A8FFF730FD5F4901A8FFF7F4FC29
:101E7000664901A8FFF7F0FC5A4901A8FFF7ECFCFE
:101E800094F8371001A8FFF71FFD574901A8FFF785
:101E9000E3FC5F4901A8FFF7DFFC524901A8FFF707
:101EA000DBFC04F1380101A8FFF7D6FC4E4901A87C
:101EB000FFF7D2FC574901A8FFF7CEFC494901A81A
:101EC000FFF7CAFC94F8381101A8FFF7FDFC46495A
:101ED00001A8FFF7C1FC504901A8FFF7BDFC41492B
:101EE00001A8FFF7B9FC94F8391101A8FFF7ECFC41
:101EF0003D4901A8FFF7B0FC484901A8FFF7ACFC39
:101F0000384901A8FFF7A8FC94F83A1101A8FFF797
:101F1000DBFC354901A8FFF79FFC414901A8FFF709
:101F20009BFC304901A8FFF797FC94F83B1151E561
:101F3000022C40F0E5863B490398FFF76FFC23280D
:101F400000F2DE86DFE810F0240039007600890018
:101F50009C00AF00C200D500E800FB000E0121018B
:101F6000340149015E01730188019D01D801EB0133
:101F7000FE01110226023B02500265027A028D0226
:101F8000A202B702CC027306E102F6020B0346037B
:101F90002549264C01A8FFF75FFC124901A8FFF76D
:101FA0005BFC217D01A8FFF78FFC01A80E49FFF71C
:101FB00053FC207DFFF726FCC4E41D491B4C01A8FF
:101FC000FFF74AFC074901A8FFF746FC617D01A81D
:101FD000FFF77AFC01A80449FFF73EFC607DE9E7C2
:101FE000F25C0008315C00088B5B0008FD5C0008B7
:101FF000085D0008135D00081E5D00082A5D0008EA
:10200000355D00083F5D0008495D0008545D00082B
:102010005E5D0008645D00086B5D0008725D00088D
:10202000765D0008585E0008345C0008000000205F
:10203000385C00089D499E4C01A8FFF70DFC9D49A6
:1020400001A8FFF709FCA17D01A8FFF73DFC01A84D
:102050009949FFF701FCA07DACE79849944C01A891
:10206000FFF7FAFB934901A8FFF7F6FBE17D01A812
:10207000FFF72AFC01A89049FFF7EEFBE07D99E706
:102080008F498B4C01A8FFF7E7FB8A4901A8FFF7AE
:10209000E3FB217E01A8FFF717FC01A88649FFF7A3
:1020A000DBFB207E86E78749814C01A8FFF7D4FB44
:1020B000804901A8FFF7D0FB617E01A8FFF704FC6F
:1020C00001A87D49FFF7C8FB607E73E77E49784C25
:1020D00001A8FFF7C1FB774901A8FFF7BDFBA17E6F
:1020E00001A8FFF7F1FB01A87349FFF7B5FBA07E3C
:1020F00060E776496E4C01A8FFF7AEFB6D4901A879
:10210000FFF7AAFBE17E01A8FFF7DEFB01A86A4901
:10211000FFF7A2FBE07E4DE76D49654C01A8FFF794
:102120009BFB644901A8FFF797FB217F01A8FFF7FC
:10213000CBFB01A86049FFF78FFB207F3AE7654999
:102140005B4C01A8FFF788FB5A4901A8FFF784FB05
:10215000617F01A8FFF7B8FB01A85749FFF77CFB97
:10216000607F27E75C49524C01A8FFF775FB514996
:1021700001A8FFF771FBA17F01A8FFF7A5FB01A84C
:102180004D49FFF769FBA07F14E75449484C01A86B
:10219000FFF762FB474901A8FFF75EFBE17F01A85B
:1021A000FFF792FB01A84449FFF756FBE07F01E7E8
:1021B0004B493F4C01A8FFF74FFB3E4901A8FFF7F1
:1021C0004BFB94F8201001A8FFF77EFB01A83A49C9
:1021D000FFF742FB94F82000ECE64249344C01A89A
:1021E000FFF73AFB334901A8FFF736FB94F82110BB
:1021F00001A8FFF769FB01A82F49FFF72DFB94F811
:102200002100D7E638492A4C01A8FFF725FB2949C8
:1022100001A8FFF721FB94F8221001A8FFF754FB57
:1022200001A82549FFF718FB94F82200C2E62F49C0
:102230001F4C01A8FFF710FB1E4901A8FFF70CFB7C
:1022400094F8231001A8FFF73FFB01A81A49FFF7F4
:1022500003FB94F82300ADE62549154C01A8FFF7D0
:10226000FBFA144901A8FFF7F7FA94F8241001A823
:10227000FFF72AFB01A81049FFF7EEFA94F82400B3
:1022800098E61C490A4C01A8FFF7E6FA094901A89B
:10229000FFF7E2FA94F8251001A8FFF715FB01A853
:1022A0000549FFF7D9FA94F8250083E63D5C00085C
:1022B00000000020315C00088B5B0008445C0008D3
:1022C0004C5C0008535C00085E5C0008695C000818
:1022D000725C00087B5C0008845C00088D5C000870
:1022E000975C0008A15C0008AB5C0008B55C0008C6
:1022F000C05C0008CA5C0008A349A44C01A8FFF711
:10230000ABFAA34901A8FFF7A7FAE18C01A8FFF7F0
:10231000DBFA01A89F49FFF79FFAE08C4AE69E4945
:102320009A4C01A8FFF798FA994901A8FFF794FA87
:10233000218D01A8FFF7C8FA01A89649FFF78CFA8A
:10234000208D37E69549914C01A8FFF785FA904911
:1023500001A8FFF781FA618D01A8FFF7B5FA01A87E
:102360008C49FFF779FA608D24E68D49874C01A8E6
:10237000FFF772FA864901A8FFF76EFA94F82C105D
:1023800001A8FFF7A1FA01A88249FFF765FA94F8BE
:102390002C000FE683497D4C01A8FFF75DFA7C49CC
:1023A00001A8FFF759FA94F82D1001A8FFF78CFA4D
:1023B00001A87849FFF750FA94F82D00FAE57A4918
:1023C000724C01A8FFF748FA714901A8FFF744FAD7
:1023D00094F82E1001A8FFF777FA01A86D49FFF7CE
:1023E0003BFA94F82E00E5E57049684C01A8FFF728
:1023F00033FA674901A8FFF72FFA94F82F1001A8C4
:10240000FFF762FA01A86349FFF726FA94F82F0054
:10241000D0E567495D4C01A8FFF71EFA5C4901A8A9
:10242000FFF71AFA94F8301001A8FFF74DFA01A847
:102430005849FFF711FA94F83000BBE55D49534C59
:1024400001A8FFF709FA524901A8FFF705FA618EC2
:1024500001A8FFF739FA01A84E49FFF7FDF9608E90
:10246000A8E55549494C01A8FFF7F6F9484901A8E4
:10247000FFF7F2F994F8341001A8FFF725FA01A844
:102480004449FFF7E9F994F8340093E54B493F4C90
:1024900001A8FFF7E1F93E4901A8FFF7DDF994F83B
:1024A000351001A8FFF710FA01A83A49FFF7D4F94F
:1024B00094F835007EE54249344C01A8FFF7CCF989
:1024C000334901A8FFF7C8F994F8361001A8FFF7BF
:1024D000FBF901A82F49FFF7BFF994F8360069E529
:1024E00038492A4C01A8FFF7B7F9294901A8FFF795
:1024F000B3F994F8371001A8FFF7E6F901A82549C8
:10250000FFF7AAF994F8370054E52F491F4C01A8AA
:10251000FFF7A2F91E4901A8FFF79EF994F83811B8
:1025200001A8FFF7D1F901A81A49FFF795F994F826
:1025300038013FE52549154C01A8FFF78DF91449ED
:1025400001A8FFF789F994F8391101A8FFF7BCF940
:1025500001A81049FFF780F994F839012AE51C49D0
:102560000A4C01A8FFF778F9094901A8FFF774F9A7
:1025700094F83A1101A8FFF7A7F901A80549FFF758
:102580006BF994F83A0115E5D45C000800000020CE
:10259000315C00088B5B0008DE5C0008E85C00082A
:1025A000F25C0008FD5C0008085D0008135D00088F
:1025B0001E5D00082A5D0008355D00083F5D0008CB
:1025C000495D0008545D0008645D00086B5D00080B
:1025D000725D0008A049A14C01A8FFF73DF9A04990
:1025E00001A8FFF739F994F83B1101A8FFF76CF93E
:1025F00001A89C49FFF730F994F83B01DAE4032C79
:1026000040F07E8398490398FFF708F9232800F2E9
:102610007783DFE810F0240039004E006300780073
:102620008D00A200B700CC00E100F6000B014301D1
:1026300059016F0185019B01B101C701DC01F10165
:1026400006021C02320248025E0274028902C302C0
:10265000D902EF0204031A032F034403580304981A
:102660006946FFF7EAF8002800F04A837B4C009B9C
:10267000237502F0C9FC01A87C49FFF7EDF8784901
:1026800001A8FFF7E9F88CE404986946FFF7D5F84C
:10269000002800F03583714C009B637502F0B4FC98
:1026A00001A87349FFF7D8F86D4901A8FFF7D4F8DE
:1026B0008CE404986946FFF7C0F8002800F02083F6
:1026C000664C009BA37502F09FFC01A86949FFF7C7
:1026D000C3F8634901A8FFF7BFF8B4E4049869465A
:1026E000FFF7ABF8002800F00B835C4C009BE37510
:1026F00002F08AFC01A86049FFF7AEF8584901A82A
:10270000FFF7AAF8B2E404986946FFF796F80028A4
:1027100000F0F682514C009B237602F075FC01A874
:102720005649FFF799F84E4901A8FFF795F8B0E42C
:1027300004986946FFF781F8002800F0E182474CD1
:10274000009B637602F060FC01A84D49FFF784F816
:10275000434901A8FFF780F8AEE404986946FFF703
:102760006CF8002800F0CC823C4C009BA37602F071
:102770004BFC01A84349FFF76FF8394901A8FFF75F
:102780006BF8ACE404986946FFF757F8002800F0AE
:10279000B782324C009BE37602F036FC01A83A493E
:1027A000FFF75AF82E4901A8FFF756F8AAE4049853
:1027B0006946FFF742F8002800F0A282274C009BF0
:1027C000237702F021FC01A83049FFF745F824499E
:1027D00001A8FFF741F8A8E404986946FFF72DF82F
:1027E000002800F08D821D4C009B637702F00CFCEA
:1027F00001A82749FFF730F8194901A8FFF72CF87D
:10280000A6E404986946FFF718F8002800F07882DB
:10281000124C009BA37702F0F7FB01A81D49FFF7BC
:102820001BF80F4901A8FFF717F8A4E404986946BC
:10283000FFF703F8002800F06382084C009BE37761
:1028400002F0E2FB01A81449FFF706F8044901A8C9
:10285000FFF702F8A2E400BF765D00080000002048
:10286000315C00088B5B0008585E0008345C00088F
:10287000385C00083D5C0008445C00084C5C0008C3
:10288000535C00085E5C0008695C0008725C00082C
:102890007B5C0008845C00088D5C00080498694635
:1028A000FEF7CBFF002800F02B82AA4C009B84F897
:1028B000203002F0A9FB01A8A749FEF7CDFFA749E8
:1028C00001A8FEF7C9FF7CE404986946FEF7B5FF4E
:1028D000002800F015829F4C009B84F8213002F004
:1028E00093FB01A89E49FEF7B7FF9C4901A8FEF79C
:1028F000B3FF7BE404986946FEF79FFF002800F0D1
:10290000FF81944C009B84F8223002F07DFB01A8EB
:102910009449FEF7A1FF914901A8FEF79DFF7AE4D3
:1029200004986946FEF789FF002800F0E981894C88
:10293000009B84F8233002F067FB01A88A49FEF768
:102940008BFF864901A8FEF787FF79E40498694662
:10295000FEF773FF002800F0D3817E4C009B84F8C3
:10296000243002F051FB01A88049FEF775FF7B4936
:1029700001A8FEF771FF78E404986946FEF75DFF51
:10298000002800F0BD81734C009B84F8253002F0D4
:102990003BFB01A87649FEF75FFF704901A8FEF7EF
:1029A0005BFF77E404986946FEF747FF002800F0D4
:1029B000A781684C009BE38402F026FB01A86D49C7
:1029C000FEF74AFF654901A8FEF746FF9DE404981B
:1029D0006946FEF732FF002800F092815D4C009BB3
:1029E000238502F011FB01A86349FEF735FF5B491F
:1029F00001A8FEF731FF9BE404986946FEF71DFF2E
:102A0000002800F07D81534C009B638502F0FCFAA6
:102A100001A85A49FEF720FF504901A8FEF71CFF04
:102A200099E404986946FEF708FF002800F06881E1
:102A3000484C009B84F82C3002F0E6FA01A850497B
:102A4000FEF70AFF454901A8FEF706FF96E4049841
:102A50006946FEF7F2FE002800F052813D4C009BD3
:102A600084F82D3002F0D0FA01A84649FEF7F4FEB2
:102A70003A4901A8FEF7F0FE95E404986946FEF78E
:102A8000DCFE002800F03C81324C009B84F82E30A4
:102A900002F0BAFA01A83C49FEF7DEFE2F4901A870
:102AA000FEF7DAFE94E404986946FEF7C6FE0028B5
:102AB00000F02681274C009B84F82F3002F0A4FA06
:102AC00001A83249FEF7C8FE244901A8FEF7C4FE5A
:102AD00093E404986946FEF7B0FE002800F01081E8
:102AE0001C4C009B84F8303002F08EFA01A8284973
:102AF000FEF7B2FE194901A8FEF7AEFE92E4049873
:102B00006946FEF79AFE002800F0FA80114C009BFF
:102B1000638602F079FA01A81E49FEF79DFE0F496F
:102B200001A8FEF799FE92E404986946FEF785FE37
:102B3000002800F0E580074C009B84F8343002F058
:102B400063FA01A81449FEF787FE044901A8FEF7BD
:102B500083FE8FE400000020975C0008315C0008D1
:102B6000A15C0008AB5C0008B55C0008C05C000814
:102B7000CA5C0008D45C0008DE5C0008E85C000861
:102B8000F25C0008FD5C0008085D0008135D0008A9
:102B90001E5D00082A5D0008355D0008049869463E
:102BA000FEF74BFE002800F0AB80774C009B84F8CA
:102BB000353002F029FA01A87449FEF74DFE744938
:102BC00001A8FEF749FE6AE404986946FEF735FE5F
:102BD000002800F095806C4C009B84F8363002F0A1
:102BE00013FA01A86B49FEF737FE694901A8FEF701
:102BF00033FE69E404986946FEF71FFE00287FD083
:102C0000614C009B84F8373002F0FEF901A862495C
:102C1000FEF722FE5E4901A8FEF71EFE69E4049954
:102C20005E484FF4807202F055FD02F0EDF901A804
:102C30005B49FEF711FE01A85549FEF70DFE574905
:102C400001A8FEF709FEFEF7C8BE04986946FEF724
:102C5000F4FD002854D04C4C009B84F8383102F02D
:102C6000D3F901A84F49FEF7F7FD494901A8FEF73E
:102C7000F3FD53E404986946FEF7DFFD00283FD0DA
:102C8000414C009B84F8393102F0BEF901A8464955
:102C9000FEF7E2FD3E4901A8FEF7DEFD53E404988D
:102CA0006946FEF7CAFD58B3374C009B84F83A31A9
:102CB00002F0AAF901A83D49FEF7CEFD344901A86A
:102CC000FEF7CAFD54E404986946FEF7B6FDB8B1B4
:102CD0002D4C009B84F83B3102F096F901A8344951
:102CE000FEF7BAFD2A4901A8FEF7B6FD7BE4012CE8
:102CF00006D102F0C3FAFEF785FD00287EF422AE6D
:102D00002C49FEF720BE012CFAD102F0FDFAF2E7C1
:102D1000A31E012BF4D81C4B032C93F838310093DD
:102D200004D00099039802F001FBE6E70498694695
:102D3000FEF783FD0028E3D0009B013B632BF0D915
:102D4000DEE7022CDCD103986946FEF776FD002809
:102D5000D6D0009B03F5FA62B2F57A6FD0D8164A46
:102D60001360164B00221A70FEF7ECBD012CC7D180
:102D7000134B1A68002ABCBF00221A601A68114B54
:102D80001A60FEF7DFBD00BF000000203F5D0008B5
:102D9000315C0008495D0008545D000838000020DF
:102DA0005E5D0008645D00086B5D0008725D0008F0
:102DB000765D00087E5D0008CC060020AD06002090
:102DC000400100205C0100204FF04023D3F8002494
:102DD000D3F80424D3F80C2442F01002C3F80C24D6
:102DE0000822C3F8142403F5E03300229A657047E3
:102DF0000A4B6FF001021A610022DA604FF0FF32D5
:102E0000DA6201225A614FF0402343F20C42C3F8C8
:102E10000C24034B034A1A60704700BF0040014076
:102E2000480600209533000870B5284C284B2168CF
:102E300028486FF001021A61042943D8DFE801F045
:102E40000327363C4000244B1B6864331A1242F0BF
:102E5000800290F82F00214E214D013800EB8000B8
:102E600030446B70405C1F4B2870AA700131002207
:102E700003205A64042998644FF091005864C8BF35
:102E8000194B2160C2BF19491960226070BD90F8CA
:102E9000303003EB4302164B1B6893FBF2F34FF603
:102EA000FF729342A8BF13461A12D2E7114B1A6859
:102EB000131243F04003CCE70F4B1A681312C8E714
:102EC0000E4BFAE700221346C3E700BFE0010020E3
:102ED0000040014000000020C0060020185F0008EC
:102EE000400200200000024048060020F12D0008AA
:102EF000C4060020B8060020BC060020B40600204E
:102F000037B5144C94F82330C3B1218DA1F13202AE
:102F100082420ADD00230093E18CA3F5FA6302F0FC
:102F200033F80D4B186003B030BD323181420DDAF9
:102F30004FF4FA6300930023628DF0E7E18C3231A5
:102F4000814205DA4FF4FA620092F5E70020E8E7E3
:102F50001846E6E700000020CC06002070B4184BAD
:102F600093F82D300B24013B03EB43026343DB104A
:102F700002F007010332C45C02F007021844012585
:102F800095409142437844FA01F4C1F1080605F1F5
:102F9000FF350BDA2B40B34043EA040000EB80001E
:102FA000C01070BC00F55C70FFF7AABF8078C1F15B
:102FB00010012840B340884023431843EEE700BF88
:102FC0000000002010B5054C207000126070022136
:102FD000204601F0B9FFA070032010BD4002002080
:102FE00010B5274B93F82530002B39D0254B5A6B61
:102FF000B2F5FA6F27DBA3F58833234C23484AF652
:10300000AA211960224902F5FA7393FBF1F34FF4F8
:103010007A7101FB032321680B44016823600131AD
:10302000016089070FD11B49086883420CDDB2EBB0
:10303000C30F15DB184A5B4213604FF0FF30FEF7F9
:1030400045FB0023236010BD13480068834207DA64
:103050005242B2EBC30F03DC5B420B600120EEE790
:103060000E4B0F4A1A60074B49F291229A613122A6
:103070001A626FF004021A610422DA60E3E700BF0B
:103080000000002000400140D4010020D0010020B9
:1030900018FCFFFFCC010020C801002048060020DA
:1030A000C5340008F8B5884C236913F0010341D0FA
:1030B0006FF001064FF0904526612B6913F0040371
:1030C00007D1824A92F82C20012A32D0804A13601C
:1030D0002FE0804A13680133072B136029DD7E4BF4
:1030E0007E4A1A60FEF712FBEB6843F00043EB6088
:1030F0002B6823F080432B6041F26F73E36201235E
:1031000063610923266123602368DB0707D52B69E8
:103110001A04F9D44FF040230822C3F814244FF0C6
:10312000402340F63542C3F8082442F22C02C3F88B
:103130000C24F8BD654E656B96F82C100129F8D06B
:10314000634A1768781C1060002FF2D0644F4CF669
:10315000CC4C0129C7F800C060D95F4C614B23609B
:10316000FEF7D4FA96F82C30023B032B3AD8DFE86E
:1031700003F0020F1A4E5C4B5C4A1A605C4B04224F
:103180001A704FF040234FF48272C3F8082429E0EC
:10319000554B584A1A60564B20221A704FF0402364
:1031A00040F21242F1E7504B534A1A60504B192239
:1031B0001A704FF040234FF49662C3F808244FF47E
:1031C000A052C3F80C244FF40052C3F8102403F5A6
:1031D00080330E229A624FF0FF32DA6201225A6186
:1031E00081221A604FF040220823C2F81434D2F82A
:1031F0000C34424943F4005343F01C03C2F80C342E
:103200003F4B404A19665A66D9641A6591E73E4BAE
:1032100023604FF490724FF04023B6E7A66A294628
:10322000EEB1B5F5FA6F06DD2B4B384A1A60BDE8F2
:10323000F840FFF7D5BEA16A772908BF0E23A36225
:1032400001236361002342E74910013B9529FBDC20
:103250002F490C689C4204D00B60012337E70323FD
:10326000F4E7002B7FF765AF03287FF762AF1A4AB8
:10327000284911601C4A28492848116028495843A8
:1032800001EB6002B2FBF0F22648013A92B20280F2
:103290002548434301EB6301B1FBF3F1234B0139B3
:1032A0001980094B002119624421996033219961E9
:1032B0000121D960DA62596103F540431C4A1A665C
:1032C0001C4A5A6635E700BF00400140000000205C
:1032D000F8010020F40100204806002039360008DB
:1032E0000030004095330008440600200D350008EA
:1032F0004C060020593400080137000804440040FF
:103300000000024040020020DD330008E12F0008E9
:10331000F001002039330008B9370008F0490200F5
:10332000000E27073E020020D8B805003C0200200E
:1033300034400140FC010020134BDA68D10722D54C
:103340001A69D2071FD56FF001021A611A6A42B9D1
:1033500001221A624FF090430C4A1B6903F00403E8
:1033600013700B4B2022DA6540F2A3529A65A3F545
:1033700040434FF0FF32DA6201225A6181221A6023
:103380004FF40072DA6070470040014040060020B0
:10339000000002404FF04023D3F80C24520604D51D
:1033A00042F20C02C3F80C247047D3F80024D3F87F
:1033B0000424D3F80C2422F01002C3F80C24C822F1
:1033C000C3F81424034B1A78034BDA65A3229A65D9
:1033D000704700BF4C060020000002404FF0402321
:1033E00010B5D3F80024D3F80424D3F80C1411F04A
:1033F000200104D042F21C02C3F80C2410BD134A71
:10340000C824D06DC3F8144442F22C04C3F80C4411
:10341000402391652628D3654FF081039365EDD154
:103420000B4C61781829E9D1A378162BE6D1A01CA2
:1034300001F09AFD0028E1D1064B4AF6AA22E01CD1
:103440001A60BDE81040FFF789BD00BF00000240D0
:103450004002002000300040F0B4174B1A78202AB8
:1034600002D15A78402A02D0F0BCFFF7ADBC134A13
:103470005C8892F82D70DE789A7840F2DC504FF636
:103480009F75012132448F425E79A5EB020501F15F
:1034900001011A7908BFC4F30B000F2942EA062480
:1034A00003F10203EED1AC42DED1054B4AF6AA226B
:1034B000F0BC1A60FFF724BD40020020000000208D
:1034C000003000400E4B5A6B986BB2F5FA6F16DB6A
:1034D000A0F11C03042B07D80A4B4AF6AA221A6053
:1034E000094B01221A707047A0F54873B3F5AF6F0E
:1034F00005D8044B4AF6AA221A60FFF701BD7047AF
:103500000040014000300040AC06002010B5414CA6
:103510000421204601F018FD18B1BDE81040FFF766
:1035200053BC3D4B4AF6AA221A602278B4F8013007
:1035300002F00F01022917D003291BD001290AD15B
:10354000190448BFA3F5803303F5FA61B1F57A6F2A
:1035500001D832490B601309083B052B50D8DFE82E
:1035600003F0104450535557003B2D4918BF012319
:103570008B75F0E72A49642BA8BF642381F82230B9
:10358000E9E7284B23481B682370274B1B686370AF
:103590001B12A370254B1B68E3701B122371244B75
:1035A0001B6863711B12A371224B1A684FF6FF73DD
:1035B0009342A8BF1346E37109211B12237201F045
:1035C000C3FC60720A204FF040236FF04002C3F842
:1035D000002442F24802C3F80C2403F5E033002231
:1035E0005A64912298645A640AE0124B1B684FF6A1
:1035F000FF709842A8BF1846FFF7E4FC0028E2D10C
:1036000010BD084B1868F7E7074BFBE7074BF9E7D6
:10361000074BF7E74002002000300040CC060020B6
:1036200000000020C0060020BC060020B8060020D4
:10363000B4060020C80600204FF0402310B5D3F890
:103640000C24110613D52A4A2A4C1168481C615CC7
:103650001060C3F8041428490C68A04206DB42F24B
:103660004800C3F80C04002313600B6010BD520621
:1036700004D542F22C02C3F80C24F7E7D3F8002457
:103680001B4912F0060F0B6803D140F2FF32934240
:1036900003D11A4A8020C2F8000C4FF04022D2F821
:1036A0000424D2B2082A01D07F2A03D1002BDDD016
:1036B000013BDAE75C1C0F480C60022CC25406D1B7
:1036C000037823B94378FF2B01D102F0AFF80A2A1F
:1036D000CCD10023035507480B60FEF703F9064BD6
:1036E00018600028C2D04FF0402342F28802C2E79F
:1036F000DC01002040020020D80100200020004012
:1037000070B5254D2B780F2B03D0BDE87040FFF727
:103710005BBB224B224C01264AF6AA226661A819FD
:103720001A60FFF71BFC297E01F00F03042B24D144
:103730001C4B1D4A1B78023BB34206D91B4B93F826
:103740002F30013BB3EB111F18D0194B136072B629
:10375000134A536AC3F563437F33D3620123536132
:1037600062B60F4B6FF001021A610122DA604FF06E
:10377000402343F20842C3F80C2470BD0D4B136084
:1037800072B6636AC3F5F8435F33E36266616369E7
:1037900041F29F43E362E3E7400200200030004033
:1037A00000400140AB060020480600200000002039
:1037B000F12D0008292E0008B64A916D11F0100174
:1037C000F8B520D0B44B4FF48031D9600021D960D6
:1037D000A3F550434FF40040586481201860916570
:1037E0002021D16540F2A35191654FF0FF32DA629A
:1037F000442101225A619960332199611A624FF480
:103800000072DA60F8BDA54BA54C1F887E1C4FEAFC
:10381000A60C22460B4608462546B2F802E05B009D
:10382000F44500F10200D8BF43F00103202802F163
:10383000040240F090809B4A184616781A46001100
:1038400040F09C8006B1D24312F00F0240F0888015
:1038500095484AF6AA270760002E64D000F5883004
:1038600078260262826082618661012606620826ED
:10387000466000F540408D4E82651722C26540F2D9
:1038800093528265306868B9894A17684FF680722A
:1038900017B1BA42A8BF3A46B2F5007F70DA42EAE1
:1038A0004022326032681701104612116BD1C043BA
:1038B00000F00F00DFF8FCE138438F0040FA07FC0E
:1038C0000CF00F0C0F441EF80CC001310CFA07F776
:1038D000042942EA0702F0D14FF0FF30132142FAE7
:1038E00001F7FF0748BFC043013924F8020FF6D2A1
:1038F0002980714900226A85AA854A6372B64A6A9C
:10390000C2F560620F32632AB8BF6322CA62012225
:103910004A614A69694A1288CA6262B668490A6895
:103920009ABB0022326003F010025B1100F08E811E
:103930002F2B31DD12B1634A01211170624A92F8D6
:1039400023203AB3B3F5836FACBFA3F21743C3F19F
:103950002F035B007EE1B2F800E076453FF75DAFF4
:103960004C4B00229A65A3F5404385221A606FF004
:1039700001010122DF625A61196142E742405EE7BC
:103980005210013088E750408FE7013A0A60002A60
:10399000C7D0C8E72F3B5DE1002A3FF433AF444A6C
:1039A000106800287FF42EAF48490A689342484ABD
:1039B0001CBF0B6010601368092BDCBF0133136060
:1039C0000B68591E2E293FF61DAF01A050F821F0BB
:1039D0008D3A00088D3A00088D3A00088D3A0008AB
:1039E0008D3A000805380008D93A0008E93A00087D
:1039F000F73A0008093B000805380008173B0008A3
:103A0000293B0008453B0008053800080538000838
:103A10000538000805380008053800085B3B000839
:103A20006B3B000805380008053800080538000819
:103A30000538000805380008053800080538000872
:103A40000538000805380008053800080538000862
:103A50000538000805380008053800080538000852
:103A6000053800080538000805380008793B0008CB
:103A7000A33B0008CD3B0008F73B0008253C0008AD
:103A800005380008053800083F3C0008114A13704B
:103A9000B8E600BF00000240001002403E020020D5
:103AA000FC0100204006002000300040B00600204D
:103AB000C80600202C5F0008004001403C020020A6
:103AC000EC010020AC06002000000020E8010020EE
:103AD000E4010020A90600201368062B7FF492AEB3
:103AE0005F4B00229A758DE61368062B7FF48AAE31
:103AF0005B4B0122F6E71368062B7FF483AE584B2D
:103B0000002283F823207DE61368062B7FF47AAE2B
:103B1000534B0122F5E71368062B7FF473AE01F0D7
:103B2000ADFB504B18606DE61368062B7FF46AAE50
:103B30004D4B01221A704D4B4FF460621A604C4B92
:103B40000A228BE01368062B7FF45CAE464B002202
:103B50001A70464B40F6FF62F0E71368062B7FF4BD
:103B600051AE444B00221A704CE61368062B7FF4CA
:103B700049AE404B0122F6E71368062B7FF442AEB4
:103B8000374A137E5B0801330F2B08D8082BB8BFC8
:103B9000082359001176073B324A136032E60823A6
:103BA000F7E71368062B7FF42DAE2D49CA7E9208E5
:103BB00001320C2A03D8062A1346B8BF0623DAB20C
:103BC0009000D200C8760A77053BE5E71368062B1C
:103BD0007FF418AE22490A2291F82030B3FBF2F3A9
:103BE0000133DBB20B2B28BF002303EB830252000F
:103BF00081F82020D0E71368062B7FF403AE184A23
:103C000092F82130632B0ADC591C0A2906DD0533A2
:103C10000521B3FBF1F303EB830300E00B4682F8CD
:103C20002130B9E71368062B7FF4ECAD0C4A92F80B
:103C30002130012BF3DD013B0A2BF0DDE8E71368AF
:103C4000062B7FF4DFAD01F05FFB6AE712B10A4A91
:103C500001211170094A1360094B00221A60D1E555
:103C6000000000205C010020A8060020B006002013
:103C7000EC010020AA060020AC060020CC060020A3
:103C8000E80100200C4B0D4A1A600D4B4FF4004226
:103C90005A6454229A6031229A61032101221A62E5
:103CA000D960772199624FF0FF31D9620421196000
:103CB0005A6185221A60704748060020A530000826
:103CC00000400140014B1B68184700BF4806002018
:103CD000034B4FF400325A60024B1B68184700BF79
:103CE0000000024044060020FFF7ECBF7047704719
:103CF0000D4B44F24002C3F8182C4022C3F81C2C90
:103D000040F24442C3F8202C2122C3F8142C46F67A
:103D10006802C3F8182C6822C3F81C2C2022C3F8B0
:103D2000142C0020FDF7DEBC002001402DE9F047F7
:103D30001F4C23788AB053B11E4A013B92F83911C7
:103D40001D4A52F8230001F0F1FA002323701B4FA3
:103D50003B68002B29DB174A92F838516A46192D27
:103D6000B8BF1925002490460A2093FBF0F100FB10
:103D7000113342F8043B26460B4601340029F4D1A6
:103D8000DFF83CA0DFF83C903446B44203D029462B
:103D9000504601F0CBFA58F82430294659F8230050
:103DA00001F0C4FA013CF0D23C600AB0BDE8F087F3
:103DB000A906002000000020685F00085C010020C8
:103DC000B35D00083C5F00082DE9F843AF4BB04CF1
:103DD0001F78B04BB04A1B7833B3B04B597DC7B195
:103DE00040F2144040F25443002908BF03465821D2
:103DF00046F65800C4F8180CC4F81C1CC4F8203C43
:103E000001231360A64A1360A64BA74A1A60BDE8B7
:103E1000F88340F2411040F24553002908BF0346A1
:103E2000682145F66800E5E7A04B1868136800288C
:103E30007AD04FF080419E4DC1F83C04C1F82C046B
:103E40000120C1F814042E7826B91BB13C214B4344
:103E50003B3B13601368002F59D0013B002BD8BFA8
:103E60004FF4B4731360116801F1FF3CBCF1770F9C
:103E700053DC01F1EF077731884B9A7E93F83400D9
:103E8000D20058B18B4B1B68A3EB8003C3F17803BE
:103E90003C2BB8BF3C239A42A8BF1A4686488323CE
:103EA000C4F8003C41F28733C4F82C3C30F81C3095
:103EB0005343DB11C4F8343C30F817305343DB1163
:103EC000C4F8383C30F811305343DB11C4F83C3CA3
:103ED0008123C4F8003C002E99D146F66803C4F84B
:103EE000183C6823C4F81C3C40F25553C4F8203CED
:103EF0002123C4F8143C4FF080433046C3F80C64CF
:103F0000FDF7F0FB664B1E6001232B707FE701334A
:103F1000B3F5B47FC8BF0123A4E7BCF1EF0FA1F153
:103F20007907A8DDF139A7E7002F00F08580013B74
:103F3000002BD8BF062313601568604B691E05F07F
:103F400001055B5CED1B6FEA030003EAD30618BFB3
:103F5000012500EAD30016F001034FEA850570D071
:103F60004E4A527D002A18BF052343F4805340F681
:103F70006802B70773D5494F7F7D002F0CBF10270C
:103F8000502742F4C0423B43760773D54348407DF7
:103F900000280CBF4FF480704FF4A060034346F636
:103FA0006800474FC4F8182CDFF8F480454AC4F87D
:103FB0001C0CC4F8203C3B6842F82130D8F8003093
:103FC000384E062B0CD1D2E900310B4491680B44DA
:103FD000D1680B44116952690B4413445B10336080
:103FE000DFF8E490D9F80000FDF77CFB3B68374927
:103FF000C9F80050B3F57A7F6CDD354B4FF47A7217
:104000001A6000230B603368632B4FF0000200F34B
:104010008280C4F8402C4FF080437122C3F81824EA
:104020008522C3F800244FF080430022C3F81024F7
:104030000322C3F80C24EAE60133062BC8BF012390
:1040400079E7C3075DBF45F0010541F2040340F67F
:10405000480241F2040348BF40F6580289E7870747
:1040600043F040034EBF42F4A04242F4804245F088
:10407000020589E7400743F480635ABF45F0030512
:1040800046F6480046F658008BE700BF8E06002033
:10409000002001408C060020A40600200000002023
:1040A0009C060020C806002000879303A00600207D
:1040B0009106002094060020B45800087C5F000898
:1040C0009806002068060020640600205C06002098
:1040D000600600200A680132062A0A6093D122484D
:1040E00002689342B4BFD21A9A1AB2EB630F4FF030
:1040F00000020DDD4FF08043C3F80C241B4BC8F8C1
:1041000000201A7042F210733B60194B33607EE658
:1041100003600A6077E7C72B05DCC4F8402C4FF03A
:10412000804391227AE7B3F57A7F05DAC4F8402C10
:104130004FF08043C12271E7B3F5FA6F4FF080432F
:1041400007DAC4F8402CC122C3F8182440F28512C3
:1041500067E74FF40072C4F8402CC122C3F818245A
:1041600040F285225DE700BF600600209006002037
:1041700000E1F505054BD3F80C2C920605D56FF040
:104180002002C3F8102CFFF71FBE7047002001402B
:104190004FF0804370B5D3F80C24D3F81014D00737
:1041A00014D5C90712D56FF00102C3F810240022FC
:1041B000C3F80C24214B1A60214B1A70214B42F298
:1041C00010721A60204B214A1A6070BD9307FCD50B
:1041D0001C4C4FF080432268D3F83434B3EB620FA9
:1041E000F3DB164802EB4202B3EBA20F016822DABE
:1041F0008E1F754275411344154A114E127E35705B
:104200009B105A432360A3EB62135B10012B4FF00A
:104210008042B8BF0123C2F83C3405294FF00103A6
:10422000C2F81434D8BF01314FF00003C2F80C3487
:10423000D8BF0160C9E70025DDE700BF9C0600206C
:104240009006002098060020C806002000E1F50531
:104250000000002037B51D46204B1C68121B01468C
:104260001F4834D4012303700A221E4800F09EFE2A
:104270001D4B18601D4B801020EAE070186007226B
:1042800000211B4800F092FE1A4B04221860002106
:10429000194800F08BFE194B1860194B1B78A3B11D
:1042A00005222946174800F081FE174B93F8243069
:1042B0004FF4FA6203EB830300929B0040F2A25298
:1042C000D82100F061FE114B186003B030BD0078BA
:1042D0000028C9D104EB62041C60C5E75801002026
:1042E0008D0600205401002094060020C006002006
:1042F00050010020BC0600204C010020B806002020
:10430000AD0600204801002000000020CC0600205F
:104310004FF0E0234FF08052C3F8042D0022C3F881
:10432000102D094A13780133DBB2137013F00F0319
:1043300009D106490A6801320A60054909688A42BA
:1043400004BF044A137070478F06002088060020BF
:10435000840600208006002072B6074B1B681844B4
:10436000064B1860064B01221A7062B60548197890
:1043700001B970474261FAE78806002084060020F0
:10438000800600200010004038B51F4C23782BB168
:104390001E4B1D7815B900F023FD25701C4B1B78B2
:1043A0001A072FD1FDF7CEF91A4B1B68DB0601D196
:1043B00000F04EFD184B93F83B01184B1A788242DF
:1043C00002D01870FFF793FC1548164A036812686C
:1043D000154913440A6803600132B2F57A7F0A6016
:1043E00010DB4FF47A7293FBF2F3104A1468234403
:1043F00013604FF4B47293FBF2F30D4A1360002381
:1044000003600B6038BD00BFAC060020AB06002087
:104410008F060020880600200000002044010020B4
:1044200058060020B8060020540600205006002040
:10443000B40600202DE9F04FA548A64AA64CA7498E
:10444000A74EDFF8A09295B0121A01F093F900F090
:10445000DBFD94F82430A44A03EB83039B00336014
:1044600094F82C30591E4B424B4113709F4BE27D08
:104470001A709F4B94F82E201A70FDF721F800F067
:1044800061FDFFF733FC00F025FCFFF7FBFB4FF469
:104490000843C9F8443C41F28733C9F82C3C8123D6
:1044A000C9F8003C3523C9F8043C4FF080433B2257
:1044B000C3F8282400250422C3F82C54C3F8002490
:1044C0000122C3F814248522C3F800248021FE2091
:1044D00001F0CCF94FF0E02341F64B525A6107222C
:1044E0009D611A6194F836300793824B5F6A4FF0F2
:1044F000807217F0C0455A6273D0237D0BB97A00E1
:104500001BD57D4D42F6DF63AB6240F6C313EB6211
:1045100004232B60012705236F612B606FF00103DB
:104520002B6137602B69DB0772D5002333602B606A
:1045300094F83811714800F0F9FEFFF7D9FB142206
:10454000002109A801F0A2F83223089314224FF4A5
:104550007A7300210FA84FF0000B0A9301F096F830
:104560004FF4C8730E93CDE903BB4FF41673109349
:10457000594D02235E4605935F46D8464FF0E0232F
:104580000222C3F8102D30BF554B18686B7E03EB29
:10459000830191402BB15A4B1B68002B14BF14238D
:1045A0000023002F08BF4FF0000800284ADD0B440D
:1045B000834235DAAA7F6B7F02EB8202920003EB23
:1045C000830300929B004FF4FA6200F0DDFC074683
:1045D0004C4AAB7D12785340002205924A4A137030
:1045E000ADE094F8381104F1380000F09FFE94F823
:1045F0003530002B81D0DFF8148105E094F83811B4
:10460000404600F093FE0135079B9D42F6DB74E7C0
:1046100030BFFFF78BFB3368002B83D06F6181E7DE
:104620006A8E6AB13A4BB3FBF2F300930A464FF439
:104630007A73002100F0A8FC314B00271860C7E70F
:104640009123F2E766D095F82320022AC0F10000FA
:1046500013D1059A022A10D095F822304FF4FA624D
:1046600003EB83039B000092002100F08DFC0123EB
:104670008046002705933C46A8E00B44834215DAA8
:10468000AA7F6B7F02EB8202920003EB830300920E
:104690009B004FF4FA6200F077FC0746194BAA7DA5
:1046A0001B78002A08BF83F0010397E76A8E6AB17E
:1046B000174BB3FBF2F300930A464FF47A730021D1
:1046C00000F062FC0E4B00271860E7E79123F2E749
:1046D0000000002040010020000000200010000821
:1046E000CC06002000200140AD0600208C060020F2
:1046F000AB0600200010024000100040BA5D000828
:10470000A0060020AA0600208E060020B65D000844
:1047100015160500A14B1B68062B18BF95F82280C3
:10472000059B1DBF08EB88084FEA88080746064628
:10473000012B08BF02230593002F9CD00746984900
:104740000B68002B00F0238167B9964A116839B1D4
:10475000B4214B431360944A92FBF3F3934A1360E2
:10476000C246B5E072B69248924E036836783C2451
:10477000013B93FBF4F25443002E00F00581E41A50
:1047800004F13C030C684FF080466343C6F83C34A8
:104790004FF6FF73C6F82C340124804BC6F814443E
:1047A00000261E60844B0E601E70844B1E70844B6E
:1047B000224442F210780260C3F80080FFF704FB45
:1047C00062B6414608A800F001FCB046EA7E7D4B87
:1047D000B3FBF2F20692002C00F0DD80714A126801
:1047E00082B1714890FBF2F0704A47F2305110608C
:1047F0002A7FB3FBF2F34EF660220093069B00F093
:10480000C3FB0690EB7F95F8202068484FF4FA61CF
:10481000009103EB83034FF47A714A4300689B00D5
:10482000002100F0B1FB95F8342082B1664B1B6883
:10483000A3EB82036FF01802534303F5FA63B3F559
:10484000FA7FB8BF4FF4FA739842A8BF1846039B8B
:1048500006EB070AAAEB030A584B2AEAEA7A1B7806
:104860008245A8BF8246002B40F0938095F8212016
:104870000499D31002F007028A42049A02F101025D
:10488000C8BF0133082A08BF0022C245049203DDD5
:1048900043449A45A8BF9A46069B009300231946B5
:1048A0004FF4FA62504600F06FFB8323C9F8003CD6
:1048B000069B013BC9F82C3C8123C9F8340CC9F88C
:1048C000380CC9F83C0CC9F8003C002C00F088807A
:1048D000374B1F68002F40F0A88072B6384B3B4A18
:1048E00042F210761E602F4B1A60FFF76DFA2123FB
:1048F000C9F8143CD9F80C3C43F02003C9F80C3C2F
:104900004FF080434FF6FF720124C3F83C24C3F8F4
:104910002C24C3F8144462B6314608A800F056FBB4
:104920003E46FFF703FA2A4B1B7813F00F0240F0C4
:10493000A780079995F8353013FB01F30A214B4303
:10494000244909688B4272DD0BF1010B40F6B83344
:104950009B456DD172B68023C9F8143C1E4B42F6BC
:10496000DF629A6242F20F72DA6201225A616FF0DC
:1049700001021A6109221A601A68D207FCD4174B87
:104980008022C3F8002CFEE71B1B0133FAE601244A
:104990001CE700226CE7C2467EE700BF9C060020B1
:1049A000A0060020C806002000879303C40600204C
:1049B000A40600208E06002091060020900600200C
:1049C00098060020C0D401009406002000E1F505FF
:1049D0008F060020BC060020001000400020004090
:1049E0002A4F3B68002B9CD072B6D9F80C3C23F0C0
:1049F0002003C9F80C3C4FF080430122C3F80C445B
:104A0000C3F82C44C3F81424FFF772F9204B3C6020
:104A10001C60204B1C60204B1C70204B1C70204BDA
:104A20001C60204B1C6062B67BE7012479E793464B
:104A30006B8E43B31C4AB2FBF3F21C4BA2F54872D7
:104A4000196808A800F0C6FA06EB204626EAE676C2
:104A5000A02EA8BFA02695F8373083B164225A4310
:104A6000134B0EA8196800F0B5FA039B03EBA023C3
:104A700023EAE373B3F5FA6FA8BF4FF4FA63039325
:104A80002746D0467AE51E46E5E700BFA40600208B
:104A9000A00600209C060020910600209006002021
:104AA000C8060020C4060020002D31019806002011
:104AB000B8060020C0F57F43CAB2F93330B59B1A5F
:104AC000C1F307229B1A064A04460D1206201371F1
:104AD0001B12107054709170D570537130BD00BFAF
:104AE000D8060020042810B44AD1264B1A78042A8C
:104AF00046D158785B884FF6FB72034493423FD10E
:104B0000214991F82F2000F00F03013A6FF00404BF
:104B100004FB0233013B042B32D80209092A08D0D6
:104B20000A2A0CD0A2F1080358425841800010BC58
:104B30007047164A32F8131010BCFFF7BBBF013B99
:104B4000032B03D8DFE803F00815181A104B1B6875
:104B50000A2128335943EFE791F830300D4A5B08BA
:104B6000116891FBF3F14FF6FF739942A8BF194604
:104B7000E2E7094B1968DFE7084BFBE7084BF9E769
:104B80000020D4E7D806002000000020BE60000806
:104B9000C0060020C4060020BC060020B806002085
:104BA000B40600200368134403EB2323DBB210B5E3
:104BB0000360A2F17D03012B064806D80B685C1C3C
:104BC0000C607D24C45402F0DF020B685C1C0C6096
:104BD000C25410BDD806002037B500230C46054648
:104BE00001A968461022CDE90033FFF7DBFFEAB2E6
:104BF0006846FFF7D7FFC5F307226846FFF7D2FFE5
:104C0000E2B26846FFF7CEFFC4F307226846FFF71B
:104C1000C9FFC4F307426846FFF7C4FF220E684687
:104C2000FFF7C0FF009AD2436846D2B2FFF7BAFF3F
:104C3000019803B030BD0000022810B434D11C4BE1
:104C40001A787E2A30D11B495A7891F82F3002F019
:104C50001F02013B9A4227D1174A18481368052BB7
:104C600004BF0023136013685C1C30F81300146049
:104C7000042B19D8DFE803F0030610121600104BBE
:104C8000196806E00F4A91F8303011685B0891FB13
:104C9000F3F110BCFFF7A0BF0B4BF1E70B4B19680A
:104CA0000A23F4E70A4BEBE7002010BC704700BF73
:104CB000D806002000000020D4060020C8600008AC
:104CC000C0060020C4060020BC060020B806002054
:104CD000B4060020184A40F21243C2F80838174BB5
:104CE0001978174B032917D004291CD0022901D1A8
:104CF000144A1A601A68104BC2B1C822C3F81428AB
:104D000042F21C02C3F80C280F4B1049104A996359
:104D1000DA6359629A6270470E49196040F62301BE
:104D2000C2F80818E6E74FF49071F9E78822C3F853
:104D3000142842F20802E5E700300140AB060020EB
:104D4000E8060020E54A000800000240043801405F
:104D5000D8060020394C000870B51A4CD4F80C580D
:104D60006B0620D415F02005D4F80028D4F80428C8
:104D700004D042F21C03C4F80C3870BD124E134B21
:104D8000706B1B68C0F11000984760B16FF0400372
:104D9000C4F8003842F24803C4F80C389123F56196
:104DA0003062F361E9E7074B42F22C02C3F80C28AA
:104DB00003F5504300221A6310225A6381221A63BA
:104DC000DBE700BF0030014000000240E8060020A1
:104DD000024B20225A600022DA6170470000024034
:104DE00038B5144DEB69DB0723D4134B134C1B6808
:104DF000642293FBF2F3124A237212682270114A62
:104E00001268A2701112104A617012682271111298
:104E10000E4AE1701268A271111261711A12092111
:104E20002046E27100F090F80A2360722B6293230F
:104E3000EB6138BD00000240C4060020D806002007
:104E4000C0060020BC060020B8060020B4060020E2
:104E500070B5324B1B78012B19D0042B1AD0304B74
:104E60001B789BB12F4A13680133022B13603ED08D
:104E7000032B45D0012B4ED12B4B1B7843F40073F1
:104E800072B62A4A116801B9136062B670BDFFF7A5
:104E9000A7FFE4E7264DE86910F00100DFD1254BBC
:104EA000254C1A68254BA0720A211B6892FBF1F26F
:104EB00093FBF1F361700821A170227142FA01F1B4
:104EC000A3711A121E4B62711B68E1701A14E27111
:104ED000C8261A120921A01C63722670227200F0E3
:104EE00043F80C23E0722B629323EB61B7E7114B7D
:104EF00019221B6893FBF2F3DBB243F48063BFE734
:104F00000E4B64211B6893FBF1F30021DBB243F4E9
:104F1000C0631160B4E70023B2E700BFAB06002016
:104F2000A8060020D0060020C0060020B006002001
:104F300000000240BC060020D8060020B806002071
:104F4000B40600207047000010B5064A034601442D
:104F500000208B4200D110BD13F8014B6040105C63
:104F6000F7E700BFEC61000810B5064A03460144AC
:104F700000208B4200D110BD13F8014B6040105C43
:104F8000F7E700BFEC60000810B504468C421846F5
:104F9000029B0ADD9442BFBF641A1B1A5C43521A7B
:104FA000AEBF184694FBF2F4001910BD00290BDBCC
:104FB0000368002BB8BF01FA02F319441341C91A60
:104FC000016041FA02F07047002070470023C0E9F9
:104FD0000431704730B5D0E903438A1A134465425F
:104FE000AB42B8BF2B46A342A8BF23464469C0E9E1
:104FF00004310C1BD0E9001580686B4301FB0233C0
:1050000000FB043030BD000030B59B4B197D5C7D4A
:10501000D87D0A1E18BF01221A75221E18BF012250
:105020005A759A7D003A18BF01229A75021E18BF60
:105030000122DA751A7E012AB8BF01221F2AA8BFF1
:105040001F221A765A7E5AB1002C00F0F9800028EF
:1050500040F0F680052AB8BF0522192AA8BF1922F8
:105060005A769A7E1C7F93F82350012AB8BF0122FA
:105070000F2AA8BF0F229A76DA7E102AB8BF102214
:10508000302AA8BF3022A242DA76B8BF2246602A70
:10509000A8BF60221A775A7F9C7F012AB8BF0122DD
:1050A000642AA8BF6422A2425A77B8BF2246642A63
:1050B000A8BF64229A77DA7F93F82C40012AB8BF00
:1050C0000122322AA8BF3222DA7793F82020642AFC
:1050D000A8BF642283F8202093F82120012AB8BFBA
:1050E0000122642AA8BF642283F8212093F8222099
:1050F000642AA8BF642283F82220621E18BF0122FE
:105100005200AA42A8BF2A4683F82320002993F818
:1051100024200CBF642100218A42A8BF0A4683F8DC
:10512000242093F82520003A18BF012283F8252077
:10513000DA8CB2F5617FB8BF4FF4617240F26C71E6
:105140008A42A8BF0A46598DDA8402F1C805A942ED
:10515000B8BF294640F63405A942A8BF29461D8D8F
:1051600059856432AA42B8BF2A4664398A42A8BF28
:105170000A46052C1A852246A8BF0522022C83F870
:105180002C205FDD93F82D20032C14BF10210E215D
:10519000012AB8BF01228A42A8BF0A4683F82D20FF
:1051A00093F82E20042A1146A8BF0421022A83F86E
:1051B0002E1049D193F82F20012AB8BF0122032ACB
:1051C000A8BF032283F82F2093F8302022F0010299
:1051D000022AB8BF0222642AA8BF642283F83020C2
:1051E0005A8E5AB1002844D1B2F5E16FB8BF4FF4DE
:1051F000E162B2F5486FA8BF4FF448625A8693F84F
:1052000034202AB13C2AB8BF3C228C2AA8BF8C2269
:1052100093F8381183F834206429A8BF642183F8F7
:10522000381193F8391164294FF00002A8BF6421A6
:1052300083F83520DA8683F83911A3F83A2130BD96
:1052400000220DE70022A9E7032A08D193F82F20B6
:10525000012AB8BF01221C2AA8BF1C22B2E7042CD5
:1052600005D193F82F20042AA8BF0422AAE7002220
:10527000A8E70022C2E700BF0000002038B51C4BA1
:105280001B680BB1002038BD72B61A4B1A4A5A601F
:1052900002F188325A604FF0FF32DA6002221A615E
:1052A000164A5A6142221A61DA68D207FCD40122F6
:1052B0001A61134B1149134A0E481C4693420FD3EF
:1052C0008023036162B6C36813F0140FDAD10C496E
:1052D0000A48121B00F0CAF9B0FA80F04009D2E780
:1052E00033F8025B21F8025BC568ED07FCD4E5E703
:1052F000C806002000200240230167450010000876
:10530000000000204001002008B572B6054906489B
:105310004FF49E7200F02EFA62B6BDE80840FFF727
:10532000ADBF00BF825F0008000000202DE9F04FF4
:1053300085B00A220C4603A9054600F04BF9039AF2
:10534000AA4200F08280A0F10A0140F2DD339942C6
:1053500000F2A08043F6982898FBF0F8002C70D05B
:105360004E4B1B68002B40F09580DFF834B19BF862
:105370000060002E40F090804A4DDFF82CA1012300
:105380008BF8003046F65003C5F8183C5023C5F89A
:105390001C3C40F25443C5F8203C0E23C5F8283C81
:1053A00064004FF02109174617F8013B6BB3A3F1D6
:1053B000610106294CD8633B00210733072093FB8A
:1053C000F0F0C0EBC0001B1A5B005078042BC8BF84
:1053D00003F1FF33232808BF013331443AF8133077
:1053E00043FA01F3C5F82C3C08BF971CC5F8384CAC
:1053F000C5F8149C0A2203A9384600F0EBF8039B79
:10540000BB423BD0421E622A39D944F24003C5F860
:10541000183C4023C5F81C3C40F24443C5F8203CEE
:1054200041F287320023C5F8283CC5F82C2C2122F4
:10543000C5F8142C17F8014C8BF80030B4FA84F43A
:105440006409204605B0BDE8F08F4FF07D0885E780
:10545000A3F14101062902D8433B0121ADE75F2BAF
:10546000C6D02B2B03D1002ECFD1012604E02D2B4B
:10547000CBD1002EC9D0013E3A4694E7012000FB73
:1054800008F00193FEF768FF019B0022C5F8382C55
:105490001F46F1E70024D4E71C46D2E7C8060020E7
:1054A000EC06002000200140D2600008931E222B51
:1054B00010B50C4604D900230B701C46204610BDC5
:1054C0000A2A09D1002807DA2D230B704042012156
:1054D000214400F089F8F1E70021F9E7FFF7E6BF82
:1054E000242B2DE9F0478646904601D8012B06D1A2
:1054F00000F03AF9162303600020BDE8F087344835
:105500000D462A4615F8014B065D16F00806F8D13F
:105510002D2C10D12C780126951C33F0100215D1BA
:10552000302C0DD12A7802F0DF02582A08D16C788D
:10553000023510230AE02B2C04BF2C78951CECE7D5
:10554000002BF6D1302C14BF0A23082306F1004C9F
:105550000CF1FF3C0022BCFBF3F9104603FB19CA17
:10556000A4F13007092F0FD83C46A3421BDD571C7E
:1055700007D0814514D301D1A24511DB00FB0340C4
:10558000012215F8014BEBE7A4F14107192F01D8CF
:10559000373CEAE7A4F16107192F04D8573CE4E748
:1055A0004FF0FF32EDE7531C08D12223CEF8003034
:1055B0006046B8F1000FA0D0691E06E006B1404277
:1055C000B8F1000F99D0002AF6D1C8F8001094E77E
:1055D000ED62000813460A46014602480068FFF7DC
:1055E0007FBF00BF60010020F0B51F4C8BB00546A7
:1055F0000B466E4604F1200C20686168374603C7ED
:10560000083464453E46F7D121793971911E2068EE
:10561000386022294FF0000104D919700B46184652
:105620000BB0F0BD581E8446B5FBF2F702FB1756CF
:1056300028366E440C4616F8286C0CF8016F2E467E
:10564000B24201F101013D46EED900225A54191926
:10565000A51AAA42E3DA10F8015F0E78067001324B
:1056600001F80159F4E700BF305E000810B50139B8
:105670000244904201D1002005E0037811F8014F67
:10568000A34201D0181B10BD0130F2E702440346CB
:10569000934200D1704703F8011BF9E730B50C4D78
:1056A000024612F8013BE85C00F00300012811F803
:1056B000010B2C5C04F0030408BF2033012C08BF4D
:1056C00020301B1A02D10028EBD130BD1846FCE770
:1056D000ED62000810B50B4662B913F8012B002AE1
:1056E000FBD104E013F8014B00F8014B14B9581A30
:1056F000013810BD013AF5D10270EEE702460023F1
:10570000006800F000B8F0B5044608B9146844B168
:10571000204614F8015B0F4617F8016B1EB965B9F6
:105720001560002005E0B542F6D1002BF0D11460E1
:105730000370F0BD1C460CE01DB9274614F8013B70
:105740000E4616F8015BAB42F6D1002BF2D00023D7
:105750003B701460EDE7034611F8012B184603F87F
:10576000012B002AF8D17047014B1868704700BF21
:10577000600100200A44914200F1FF3300D17047DC
:1057800010B511F8014B03F8014F9142F9D110BD4A
:10579000034613F8012B002AFBD1181A0138704771
:1057A000FEE7704710B5164B164A17498B4218D3BF
:1057B0000021164A934217D38023154A9B00116893
:1057C000144C0B431360144B9C420FD3134C144BDB
:1057D0009C420ED3FEF72EFE124C134B9C420BD371
:1057E00010BD01CA01C3E1E702C3E3E708CC984753
:1057F000E9E708CC9847EAE708CC9847EDE7C046C8
:1058000040010020F8630008B0010020F0060020ED
:1058100014ED00E0F0630008F0630008F063000896
:10582000F0630008F0630008F0630008014B024ACF
:105830001A60FEE70CED00E00400FA05044A430993
:105840009B009B181F2210401E3A82401A6070472E
:1058500000E100E0044A43099B009B181F2210400E
:105860001E3A82401A60704780E200E010B51F289F
:1058700012D90F2318400438C0B28308084A9B008D
:105880001824C0002040E734844081409B181A68E7
:10589000A2431143196010BD8308024A9B00EFE741
:1058A00018ED00E000E400E0E1180400C118040075
:1058B000D1180400900197019E01A501AC01B3012C
:1058C000BA01C101C801CF01D501DC01E301EA0140
:1058D000F101F801FE0105020C02120219021F0279
:1058E00026022C02330239023F0246024C025202C7
:1058F00058025E0264026A02700275027B02810233
:1059000086028C02910296029C02A102A602AB02C0
:10591000B002B502B902BE02C202C702CB02CF0278
:10592000D402D802DC02DF02E302E702EA02EE025E
:10593000F102F402F802FB02FD0200030303050377
:1059400008030A030C030F031103120314031603C5
:10595000170319031A031B031C031D031E031E0355
:105960001F031F03200320032003200320031F0322
:105970001F031E031E031D031C031B031A0319032D
:10598000170316031403120311030F030C030A0376
:105990000803050303030003FD02FB02F802F402FF
:1059A000F102EE02EA02E702E302DF02DC02D802C1
:1059B000D402CF02CB02C702C202BE02B902B502B4
:1059C000B002AB02A602A1029C02960291028C02D6
:1059D000860281027B02750270026A0264025E0224
:1059E000580252024C0246023F02390233022C0294
:1059F00026021F02190212020C020502FE01F80122
:105A0000F101EA01E301DC01D501CF01C801C101C7
:105A1000BA01B301AC01A5019E0197019001890172
:105A200082017B0174016D0166015F015801510122
:105A30004B0144013D0136012F01280122011B01C8
:105A400014010E0107010101FA00F400ED00E70066
:105A5000E100DA00D400CE00C800C200BC00B600ED
:105A6000B000AB00A5009F009A0094008F008A0050
:105A700084007F007A00750070006B006700620090
:105A80005E005900550051004C00480044004100A0
:105A90003D003900360032002F002C002800250080
:105AA000230020001D001B00180016001400110028
:105AB0000F000E000C000A00090007000600050098
:105AC00004000300020002000100010000000000C9
:105AD00000000000000001000100020002000300BD
:105AE000040005000600070009000A000C000E0073
:105AF0000F0011001400160018001B001D002000EC
:105B00002300250028002C002F0032003600390029
:105B10003D004100440048004C0051005500590030
:105B20005E00620067006B00700075007A007F0005
:105B300084008A008F0094009A009F00A500AB00AB
:105B4000B000B600BC00C200C800CE00D400DA002D
:105B5000E100E700ED00F400FA00010107010E0189
:105B600014011B01220128012F0136013D014401CE
:105B70004B01510158015F0166016D0174017B0108
:105B8000820189012E00300020090D0A0055736141
:105B900067653A0A696E666F0A73686F770A6765A8
:105BA00074203C706172616D3E0A736574203C70B4
:105BB0006172616D3E203C76616C75653E0A736171
:105BC00076650A72657365740A706C6179203C6D44
:105BD000757369633E205B3C766F6C756D653E5DE9
:105BE0000A7468726F74203C76616C75653E0A6257
:105BF0006565700A004553436170653332207265F4
:105C00007600205B005D0A54656D703A2000430AFF
:105C1000566F6C743A2000560A437572723A20002F
:105C2000410A4373756D3A20006D41680A45525030
:105C30004D3A200061726D0064616D70007265768E
:105C400064697200627275736865640074696D6975
:105C50006E670073696E655F72616E676500736978
:105C60006E655F706F77657200667265715F6D69F2
:105C70006E00667265715F6D617800647574795F3E
:105C80006D696E00647574795F6D61780064757418
:105C9000795F7370757000647574795F72616D708F
:105CA00000647574795F7261746500647574795FFE
:105CB00064726167007468726F745F6D6F64650011
:105CC0007468726F745F736574007468726F745F68
:105CD00063616C007468726F745F6D696E007468E4
:105CE000726F745F6D6964007468726F745F6D6168
:105CF0007800696E7075745F6D6F646500696E70B1
:105D000075745F636869640074656C656D5F6D6F61
:105D100064650074656C656D5F70686964007465C6
:105D20006C656D5F706F6C65730070726F745F731C
:105D300074616C6C0070726F745F74656D7000706C
:105D4000726F745F766F6C740070726F745F6365EE
:105D50006C6C730070726F745F63757272006D7536
:105D600073696300766F6C756D6500626561636F62
:105D70006E00626563006C6564004F4B0A0045521B
:105D8000524F520A0068656C7000696E666F00734E
:105D9000686F77006765740073617665007265737C
:105DA000657400706C6179007468726F740062656C
:105DB0006570005F34005F32440047430063360083
:105DC000462332453244324332004723412347239E
:105DD00041234723320047234123472341234623BE
:105DE000324723320047234123472341234532468C
:105DF00023324723320047234123472341234432A0
:105E0000453246233247233200472341234723416B
:105E1000234332443245324623324723320045473A
:105E2000004641004742004142230061444745008B
:105E30003031323334353637383961626364656600
:105E40006768696A6B6C6D6E6F707172737475766A
:105E50007778797A00000000345C0008385C00082C
:105E60003D5C0008445C00084C5C0008535C000882
:105E70005E5C0008695C0008725C00087B5C0008DE
:105E8000845C00088D5C0008975C0008A15C000839
:105E9000AB5C0008B55C0008C05C0008CA5C000888
:105EA000D45C0008DE5C0008E85C0008F25C0008D6
:105EB000FD5C0008085D0008135D00081E5D000819
:105EC0002A5D0008355D00083F5D0008495D000857
:105ED000545D00085E5D0008645D00086B5D0008AD
:105EE000725D0008765D000800000000855D000816
:105EF0008A5D00088F5D0008945D0008C65C00089C
:105F0000985D00089D5D0008A35D0008A85D00087D
:105F1000AE5D000800000000C323A363E3D333B3E6
:105F200073F3CB2BAB6BEBDB3BBB7BFB191B121374
:105F30001D1516171A090A0B1E0D0E0FBD5D000860
:105F4000C75D0008C55D0008C35D0008C05D0008AE
:105F5000CA5D0008D65D0008E55D0008F65D000832
:105F6000095E0008000000001E5E0008215E0008B7
:105F7000245E0008275E00082B5E000835192B32CE
:105F80001E2CEA320B0052454D4F52415F323136E2
:105F90005F31343432000001000010000818306412
:105FA000640A001900000001E803DC05D0070100C5
:105FB00000000E0000000000000064666123000085
:105FC00000000000000000000000000000000000D1
:105FD00000000000000000000000000000000000C1
:105FE00000000000000000000000000000000000B1
:105FF00000000000000000000000000000000000A1
:106000000000000000000000000000000000000090
:106010000000000000000000000000000000000080
:106020000000000000000000000000000000000070
:106030000000000000000000000000000000000060
:106040000000000000000000000000000000000050
:106050000000000000000000000000000000000040
:106060000000000000000000000000000000000030
:106070000000000000000000000000000000000020
:106080000000000000000000000000000000000010
:106090000000000000000000000000000000000000
:1060A00000000000000000000000000000000000F0
:1060B00000000000000000000000003200000102AB
:1060C0000202030205020602700B00051002000224
:1060D00000066F77BB70686A7164CC5E7A5975543C
:1060E000B74F3D4B05470843443FB73B00D57FAA18
:1060F000FE2B815429FC5683D702A87D52872DF8A8
:10610000AC79D3067BAE04D18550FA2FA471DB0E97
:106110005A8F25F08D58F22773A60CD9F623895C87
:1061200008DD77A2DF0AA07521F45E8B9D48E23777
:1061300063B61CC9B461CB1E4A9F35E0CF1AB06567
:1061400031E44E9BE633994C18CD67B239EC469357
:10615000C712B86D10C56FBAEE3B91446BBE14C147
:106160009540EA3F42973DE8BC69C316EF3A904537
:1061700011C46EBBC613B96C38ED4792BD68C21727
:1061800043963CE99441EB3E6ABF15C04B9E34E117
:10619000B560CA1F62B71DC89C49E33619CC66B307
:1061A000E732984D30E54F9ACE1BB16472A70DD8F7
:1061B0008C59F3265B8E24F1A570DA0F20F55F8AE7
:1061C000DE0BA17409DC76A3F722885DD603A97CD7
:1061D00028FD5782FF2A805501D47EAB8451FB2EC7
:1061E0007AAF05D0AD78D20753862CF900070E0997
:1061F0001C1B1215383F363124232A2D70777E79E7
:106200006C6B6265484F464154535A5DE0E7EEE9D6
:10621000FCFBF2F5D8DFD6D1C4C3CACD90979E99C6
:106220008C8B8285A8AFA6A1B4B3BABDC7C0C9CEB6
:10623000DBDCD5D2FFF8F1F6E3E4EDEAB7B0B9BEA6
:10624000ABACA5A28F88818693949D9A2720292E96
:106250003B3C35321F18111603040D0A5750595E86
:106260004B4C45426F68616673747D7A898E878076
:1062700095929B9CB1B6BFB8ADAAA3A4F9FEF7F066
:10628000E5E2EBECC1C6CFC8DDDAD3D4696E676056
:1062900075727B7C51565F584D4A4344191E171046
:1062A00005020B0C21262F283D3A33344E49404736
:1062B00052555C5B7671787F6A6D64633E39303726
:1062C00022252C2B0601080F1A1D1413AEA9A0A716
:1062D000B2B5BCBB9691989F8A8D8483DED9D0D706
:1062E000C2C5CCCBE6E1E8EFFAFDF4F300202020B4
:1062F0002020202020202828282828202020202076
:106300002020202020202020202020202088101045
:1063100010101010101010101010101010040404A1
:10632000040404040404041010101010101041415F
:10633000414141410101010101010101010101014D
:106340000101010101010101101010101010424261
:10635000424242420202020202020202020202021D
:1063600002020202020202021010101020000000BD
:10637000000000000000000000000000000000001D
:10638000000000000000000000000000000000000D
:1063900000000000000000000000000000000000FD
:1063A00000000000000000000000000000000000ED
:1063B00000000000000000000000000000000000DD
:1063C00000000000000000000000000000000000CD
:1063D00000000000000000000000000000000000BD
:1063E00000000000000000000000000000000000AD
:0863F000A0F3FF7F0100000093
:1063F800FFFFFFFFFF000000FFFFFFFFFFFFFFFFA2
:10640800FFFFFFFFFFFFFFFFE40C0000FFFFFFFFA0
:106418006401002000000000000000006800000087
:10642800D000000000000000000000000000000094
:106438000000000000000000000000000000000054
:106448000000000000000000000000000000000044
:106458000000000000000000000000000000000034
:04000005080057A5F3
:00000001FF
