:020000040800F2
:10100000EA320B0052454D4F52415F3138305F316B
:10101000343430000001000010000818305A641900
:10102000001900000001E803DC05D0070100000002
:101030000E00000000000000646661230000000054
:1010400000000000000000000000000000000000A0
:101050000000000000000000000000000000000090
:101060000000000000000000000000000000000080
:101070000000000000000000000000000000000070
:101080000000000000000000000000000000000060
:101090000000000000000000000000000000000050
:1010A0000000000000000000000000000000000040
:1010B0000000000000000000000000000000000030
:1010C0000000000000000000000000000000000020
:1010D0000000000000000000000000000000000010
:1010E0000000000000000000000000000000000000
:1010F00000000000000000000000000000000000F0
:1011000000000000000000000000000000000000DF
:1011100000000000000000000000000000000000CF
:1011200000000000000000000000000000000000BF
:10113000000000000000000000320000000000007D
:1014000000200020995800089758000895580008B7
:1014100000000000000000000000000000000000CC
:1014200000000000000000000000000097580008C5
:10143000000000000000000059440008E1430008DB
:1014400095580008955800089558000895580008C8
:1014500095580008955800089558000895580008B8
:101460009558000895170008C94E00089D3D0008D2
:101470009558000845420008711700089558000863
:1014800061420008955800089558000895580008D2
:10149000913D000895580008955800089558000897
:1014A000955800089558000895580008514E0008B6
:1014B000B53D000895580008955800089558000853
:1014C00038B5724B72494FF0FF32DA601A61002270
:1014D000DA601A616F4A5A6144F601229A6140F655
:1014E0001202DA614FF0E022C2F8081D5A6822F0B9
:1014F00002025A605A681407FCD41A6822F08072FB
:101500001A60654A13211160644A5A601A6842F0F1
:1015100080721A601A689001FCD55A6842F0020283
:101520005A604FF090424FF00051116240F2222178
:1015300051622221C2F820144FF48051C2F80C14D9
:10154000574911605749C2F80014996941F4803134
:101550009961D36843F01003D360136823F010033C
:1015600013604021142004F0FBF980211B2004F0BB
:10157000F7F940211C2004F0F3F98021092004F040
:10158000EFF980210A2004F0EBF940210B2004F050
:10159000E7F90D2004F0CCF90E2004F0C9F9102071
:1015A00004F0C6F9142004F0C3F91B2004F0C0F9BC
:1015B0001C2004F0BDF9092004F0BAF90A2004F057
:1015C000B7F90B2004F0B4F9374B384AC3F80824B4
:1015D000374A40F26711D1626FF0010111610921B0
:1015E00011601168C907FCD4D3F8082442F0040242
:1015F000C3F80824D3F8082412F00402FAD14FF4F7
:101600008071C3F804144FF0FF31C3F80C14C3F811
:1016100010142849C3F834240A70274A92F82C2061
:10162000012A08D10A70D3F8340440F00600C3F848
:101630003404224802700A78D3F8345402EB82044E
:101640004FF40C70A0400232D2B22843C3F83404E5
:101650000A70013A1205C3F82C24194A194911617C
:10166000194951610222C3F80C2C2022C3F8082C1E
:101670004FF080436022C3F8042478210122C3F88C
:101680001824C3F81C14C3F8202438BD00100240ED
:1016900000140008050006000020024000C03420AD
:1016A000FFBFEAEBFAEFFFFF0020014001008000DE
:1016B00000100040C501002000000020C4010020EF
:1016C000000002404C240140B001002004490B6896
:1016D000C3F38502024462F387030B60704700BFC7
:1016E0000010024000F00303013B022B9ABF054AA1
:1016F00052F8233000234207034A48BF43F4004313
:10170000D36170479C5900080000014010B50C4C93
:101710004FF48033E3600023E360142004F014F9F5
:10172000E36943F40033E3614FF090431A6A42F4F3
:1017300080721A625A6A42F080525A6210BD00BF2B
:1017400000100240074B9A68D2070AD4064A127862
:10175000DA6040F283529A60A3F56043034AC3F80B
:101760000824704700000240C501002001019E00CE
:10177000064B6FF00202C3F8102CD3F80824D205F0
:1017800044BF034AC3F80824704700BF002001404B
:101790000101DE00154B1649022210B45A600022E6
:1017A0009A60A3F56043134AC3F80824124B1B78D0
:1017B000D3B10B880120421C31F8100031F81240DF
:1017C0000E4AB2FBF4F2504300135343A0F5A0605D
:1017D000282250432B2290FBF2F0002210BC1B1356
:1017E0001146643002F09EBD1846E4E70000024056
:1017F000B001002001008000C401002050FB4A001D
:10180000034B1A6802435EBF024A186010607047BB
:10181000400100205C01002070B505460E46002402
:1018200056F8240018B1294603F0B2FF08B9204643
:1018300070BD0134F4E713B50A220C4601A903F088
:1018400043FF019B1B781BB92060012002B010BD33
:101850000020FBE710B50446006803F0F6FF2060A7
:1018600010BD0000F0B585B00A2204460D4664277D
:1018700091FBF7F601A9304603F0AAFE0146204687
:10188000FFF7E8FF0D492046FFF7E4FF0A2201A910
:1018900007FB165003F09CFE03F0F4FF0546012DF4
:1018A00005DD01A92046FFF7D5FF05B0F0BD0449CD
:1018B0002046FFF7CFFF0135F1E700BF785C000855
:1018C0007A5C00081FB504460A22084601A903F005
:1018D0007FFE01462046FFF7BDFF04B010BD0000AB
:1018E00070B58CB00546019002AE0024404901A8B5
:1018F00003F07EFF18B954B920460CB070BD0378D0
:10190000002BF3D001340A2C46F8040BEED13949F0
:1019100002980195FFF780FF092801F2438201A395
:1019200053F820F04D19000863190008391A00080F
:10193000411F00085B260008932D0008AB2D00080E
:10194000B52D0008E32D00080D2E00082A4901A836
:10195000FFF780FF294901A8FFF77CFF019C641B6A
:10196000CAE7012C41F01E82254C264901A8FFF749
:1019700071FFA078FFF744FF014601A8FFF7A2FF1F
:10198000214901A8FFF766FF211D01A8FFF762FFAB
:101990001E4901A8FFF75EFF1D4B01A81968FFF75C
:1019A00091FF1C4901A8FFF755FF1B4B01A81968BF
:1019B000FFF758FF194901A8FFF74CFF184B01A882
:1019C0001968FFF74FFF174901A8FFF743FF164BB0
:1019D00001A81968FFF776FF144901A8FFF73AFF3D
:1019E000134B196801A8FFF76DFF1249AFE700BF5D
:1019F0007C5C0008E05F0008815C00086E5E000807
:101A000000000020E95C0008F65C0008F95C0008B2
:101A1000C0060020025D0008BC0600200B5D000827
:101A2000B8060020145D0008B40600201D5D000803
:101A3000C40600207F5C0008012C41F0B381AC4C4F
:101A4000AC4901A8FFF706FFAB4901A8FFF702FF69
:101A5000217D01A8FFF736FFA84901A8FFF7FAFE8C
:101A6000A74901A8FFF7F6FEA34901A8FFF7F2FE78
:101A7000617D01A8FFF726FFA04901A8FFF7EAFE54
:101A8000A04901A8FFF7E6FE9B4901A8FFF7E2FE87
:101A9000A17D01A8FFF716FF984901A8FFF7DAFE1C
:101AA000994901A8FFF7D6FE934901A8FFF7D2FE96
:101AB000E17D01A8FFF706FF904901A8FFF7CAFEE4
:101AC000924901A8FFF7C6FE8B4901A8FFF7C2FEA5
:101AD000217E01A8FFF7F6FE884901A8FFF7BAFEAC
:101AE0008B4901A8FFF7B6FE834901A8FFF7B2FEB4
:101AF000617E01A8FFF7E6FE804901A8FFF7AAFE74
:101B0000844901A8FFF7A6FE7B4901A8FFF7A2FEC2
:101B1000A17E01A8FFF7D6FE784901A8FFF79AFE3B
:101B20007D4901A8FFF796FE734901A8FFF792FED1
:101B3000E17E01A8FFF7C6FE704901A8FFF78AFE03
:101B4000764901A8FFF786FE6B4901A8FFF782FEE0
:101B5000217F01A8FFF7B6FE684901A8FFF77AFECA
:101B60006F4901A8FFF776FE634901A8FFF772FEEF
:101B7000617F01A8FFF7A6FE604901A8FFF76AFE92
:101B8000684901A8FFF766FE5B4901A8FFF762FEFE
:101B9000A17F01A8FFF796FE584901A8FFF75AFE5A
:101BA000614901A8FFF756FE534901A8FFF752FE0D
:101BB000E17F01A8FFF786FE504901A8FFF74AFE22
:101BC0005A4901A8FFF746FE4B4901A8FFF742FE1C
:101BD00094F8201001A8FFF775FE484901A8FFF707
:101BE00039FE534901A8FFF735FE434901A8FFF725
:101BF00031FE94F8211001A8FFF764FE3F4901A8C7
:101C0000FFF728FE4B4901A8FFF724FE3A4901A837
:101C1000FFF720FE94F8221001A8FFF753FE374982
:101C200001A8FFF717FE444901A8FFF713FE324948
:101C300001A8FFF70FFE94F8231001A8FFF742FE5A
:101C40002E4901A8FFF706FE3C4901A8FFF702FE56
:101C5000294901A8FFF7FEFD94F8241001A8FFF719
:101C600031FE264901A8FFF7F5FD354901A8FFF728
:101C7000F1FD214901A8FFF7EDFD94F8251001A819
:101C8000FFF720FE1D4901A8FFF7E4FD2D4901A83B
:101C9000FFF7E0FD184901A8FFF7DCFDE18C01A882
:101CA000FFF710FE154901A8FFF7D4FD264901A84A
:101CB000FFF7D0FD104901A8FFF7CCFD218D01A849
:101CC000FFF700FE0D4901A8FFF7C4FD1F4901A859
:101CD000FFF7C0FD084901A8FFF7BCFD618D01A811
:101CE000FFF7F0FD054901A8FFF7B4FD30E000BFA4
:101CF00000000020285D0008255D00087F5C0008CA
:101D00002C5D0008315D0008385D0008405D00086A
:101D1000475D0008525D00085D5D0008665D0008D3
:101D20006F5D0008785D0008815D00088B5D00082C
:101D3000955D00089F5D0008A95D0008B45D00087E
:101D4000BE5D0008C85D0008D25D0008DC5D0008CB
:101D5000BA4901A8FFF77EFDB94901A8FFF77AFD4E
:101D600094F82C1001A8FFF7ADFDB64901A8FFF7C4
:101D700071FDB54901A8FFF76DFDB14901A8FFF755
:101D800069FD94F82D1001A8FFF79CFDAD4901A84D
:101D9000FFF760FDAD4901A8FFF75CFDA84901A868
:101DA000FFF758FD94F82E1001A8FFF78BFDA54909
:101DB00001A8FFF74FFDA64901A8FFF74BFDA04979
:101DC00001A8FFF747FD94F82F1001A8FFF77AFD4F
:101DD0009C4901A8FFF73EFD9E4901A8FFF73AFD87
:101DE000974901A8FFF736FD94F8301001A8FFF7D6
:101DF00069FD944901A8FFF72DFD974901A8FFF758
:101E000029FD8F4901A8FFF725FD618E01A8FFF785
:101E100059FD8C4901A8FFF71DFD904901A8FFF766
:101E200019FD874901A8FFF715FD94F8341001A8A2
:101E3000FFF748FD834901A8FFF70CFD884901A879
:101E4000FFF708FD7E4901A8FFF704FD94F835105F
:101E500001A8FFF737FD7B4901A8FFF7FBFC81498B
:101E600001A8FFF7F7FC764901A8FFF7F3FC94F807
:101E7000361001A8FFF726FD724901A8FFF7EAFC1A
:101E8000794901A8FFF7E6FC6D4901A8FFF7E2FCDC
:101E900094F8371001A8FFF715FD6A4901A8FFF76C
:101EA000D9FC724901A8FFF7D5FC654901A8FFF7E5
:101EB000D1FC04F1380101A8FFF7CCFC614901A86D
:101EC000FFF7C8FC6A4901A8FFF7C4FC5C4901A8F8
:101ED000FFF7C0FC94F8381101A8FFF7F3FC59494B
:101EE00001A8FFF7B7FC634901A8FFF7B3FC544909
:101EF00001A8FFF7AFFC94F8391101A8FFF7E2FC45
:101F0000504901A8FFF7A6FC5B4901A8FFF7A2FC16
:101F10004B4901A8FFF79EFC94F83A1101A8FFF77E
:101F2000D1FC484901A8FFF795FC544901A8FFF7E7
:101F300091FC434901A8FFF78DFC94F83B1151E552
:101F4000022C40F02F874E490398FFF765FC2328A9
:101F500000F2288701A353F820F000BFED1F00080E
:101F60001720000891200008B7200008DD20000895
:101F700003210008292100084F21000875210008CD
:101F80009B210008C1210008E72100080D2200085C
:101F900037220008612200088B220008B5220008C1
:101FA000DF220008552300087B230008A123000836
:101FB000C7230008F12300081B240008452400085B
:101FC0006F24000899240008BF240008E9240008B1
:101FD000132500083D250008D32C000867250008BC
:101FE00091250008BB250008312600082549264C0C
:101FF00001A8FFF72FFC124901A8FFF72BFC217D58
:1020000001A8FFF75FFC01A80E49FFF723FC207D24
:10201000FFF7F6FB9EE41D491B4C01A8FFF71AFCD5
:10202000074901A8FFF716FC617D01A8FFF74AFCEC
:1020300001A80449FFF70EFC607DE9E7E65D0008B2
:10204000255D00087F5C0008F15D0008FC5D00086C
:10205000075E0008125E00081E5E0008295E000888
:10206000335E00083D5E0008485E0008525E0008CE
:10207000585E00085F5E0008665E00086A5E000841
:102080004C5F0008285D0008000000202C5D00085F
:102090009D499E4C01A8FFF7DDFB9D4901A8FFF774
:1020A000D9FBA17D01A8FFF70DFC01A89949FFF715
:1020B000D1FBA07DACE79849944C01A8FFF7CAFB7F
:1020C000934901A8FFF7C6FBE17D01A8FFF7FAFBE2
:1020D00001A89049FFF7BEFBE07D99E78F498B4C43
:1020E00001A8FFF7B7FB8A4901A8FFF7B3FB217EE0
:1020F00001A8FFF7E7FB01A88649FFF7ABFB207EAD
:1021000086E78749814C01A8FFF7A4FB804901A815
:10211000FFF7A0FB617E01A8FFF7D4FB01A87D4972
:10212000FFF798FB607E73E77E49784C01A8FFF7C4
:1021300091FB774901A8FFF78DFBA17E01A8FFF76E
:10214000C1FB01A87349FFF785FBA07E60E77649D4
:102150006E4C01A8FFF77EFB6D4901A8FFF77AFBE3
:10216000E17E01A8FFF7AEFB01A86A49FFF772FB09
:10217000E07E4DE76D49654C01A8FFF76BFB6449B4
:1021800001A8FFF767FB217F01A8FFF79BFB01A8D0
:102190006049FFF75FFB207F3AE765495B4C01A888
:1021A000FFF758FB5A4901A8FFF754FB617F01A8CC
:1021B000FFF788FB01A85749FFF74CFB607F27E733
:1021C0005C49524C01A8FFF745FB514901A8FFF7B4
:1021D00041FBA17F01A8FFF775FB01A84D49FFF75F
:1021E00039FBA07F14E75449484C01A8FFF732FBA4
:1021F000474901A8FFF72EFBE17F01A8FFF762FB2B
:1022000001A84449FFF726FBE07F01E74B493F4C1B
:1022100001A8FFF71FFB3E4901A8FFF71BFB94F83D
:10222000201001A8FFF74EFB01A83A49FFF712FB67
:1022300094F82000ECE64249344C01A8FFF70AFB71
:10224000334901A8FFF706FB94F8211001A8FFF716
:1022500039FB01A82F49FFF7FDFA94F82100D7E6D2
:1022600038492A4C01A8FFF7F5FA294901A8FFF7D8
:10227000F1FA94F8221001A8FFF724FB01A82549E0
:10228000FFF7E8FA94F82200C2E62F491F4C01A894
:10229000FFF7E0FA1E4901A8FFF7DCFA94F82310D3
:1022A00001A8FFF70FFB01A81A49FFF7D3FA94F82A
:1022B0002300ADE62549154C01A8FFF7CBFA1449D8
:1022C00001A8FFF7C7FA94F8241001A8FFF7FAFA5B
:1022D00001A81049FFF7BEFA94F8240098E61C49BB
:1022E0000A4C01A8FFF7B6FA094901A8FFF7B2FAAC
:1022F00094F8251001A8FFF7E5FA01A80549FFF7B2
:10230000A9FA94F8250083E6315D0008000000205A
:10231000255D00087F5C0008385D0008405D00080E
:10232000475D0008525D00085D5D0008665D0008BD
:102330006F5D0008785D0008815D00088B5D000816
:10234000955D00089F5D0008A95D0008B45D000868
:10235000BE5D0008A349A44C01A8FFF77BFAA3497E
:1023600001A8FFF777FAE18C01A8FFF7ABFA01A803
:102370009F49FFF76FFAE08C4AE69E499A4C01A804
:10238000FFF768FA994901A8FFF764FA218D01A8BF
:10239000FFF798FA01A89649FFF75CFA208D37E617
:1023A0009549914C01A8FFF755FA904901A8FFF70C
:1023B00051FA618D01A8FFF785FA01A88C49FFF752
:1023C00049FA608D24E68D49874C01A8FFF742FA4F
:1023D000864901A8FFF73EFA94F82C1001A8FFF7F0
:1023E00071FA01A88249FFF735FA94F82C000FE63C
:1023F00083497D4C01A8FFF72DFA7C4901A8FFF71E
:1024000029FA94F82D1001A8FFF75CFA01A8784981
:10241000FFF720FA94F82D00FAE57A49724C01A8EA
:10242000FFF718FA714901A8FFF714FA94F82E1073
:1024300001A8FFF747FA01A86D49FFF70BFA94F8D6
:102440002E00E5E57049684C01A8FFF703FA6749DB
:1024500001A8FFF7FFF994F82F1001A8FFF732FA4F
:1024600001A86349FFF7F6F994F82F00D0E5674912
:102470005D4C01A8FFF7EEF95C4901A8FFF7EAF906
:1024800094F8301001A8FFF71DFA01A85849FFF78A
:10249000E1F994F83000BBE55D49534C01A8FFF722
:1024A000D9F9524901A8FFF7D5F9618E01A8FFF7C4
:1024B00009FA01A84E49FFF7CDF9608EA8E5554904
:1024C000494C01A8FFF7C6F9484901A8FFF7C2F92E
:1024D00094F8341001A8FFF7F5F901A84449FFF773
:1024E000B9F994F8340093E54B493F4C01A8FFF744
:1024F000B1F93E4901A8FFF7ADF994F8351001A8EC
:10250000FFF7E0F901A83A49FFF7A4F994F835007C
:102510007EE54249344C01A8FFF79CF9334901A8F4
:10252000FFF798F994F8361001A8FFF7CBF901A846
:102530002F49FFF78FF994F8360069E538492A4C9E
:1025400001A8FFF787F9294901A8FFF783F994F853
:10255000371001A8FFF7B6F901A82549FFF77AF966
:1025600094F8370054E52F491F4C01A8FFF772F982
:102570001E4901A8FFF76EF994F8381101A8FFF77A
:10258000A1F901A81A49FFF765F994F838013FE568
:102590002549154C01A8FFF75DF9144901A8FFF77B
:1025A00059F994F8391101A8FFF78CF901A81049DD
:1025B000FFF750F994F839012AE51C490A4C01A8A3
:1025C000FFF748F9094901A8FFF744F994F83A11CF
:1025D00001A8FFF777F901A80549FFF73BF994F83F
:1025E0003A0115E5C85D000800000020255D0008DF
:1025F0007F5C0008D25D0008DC5D0008E65D000835
:10260000F15D0008FC5D0008075E0008125E00082E
:102610001E5E0008295E0008335E00083D5E00086B
:10262000485E0008585E00085F5E0008665E0008AD
:10263000B249B34C01A8FFF70DF9B24901A8FFF761
:1026400009F994F83B1101A8FFF73CF901A8AE493C
:10265000FFF700F994F83B01DAE4032C40F0A28381
:10266000AA490398FFF7D8F8232800F29B8301A317
:1026700053F820F0052700082F27000859270008E5
:1026800083270008AD270008D72700080128000885
:102690002B280008552800087F280008A9280008D2
:1026A000D3280008412900086D290008992900084D
:1026B000C5290008F12900081D2A0008492A000838
:1026C000732A00089D2A0008C72A0008F32A000878
:1026D0001F2B00084B2B0008772B0008A32B0008AA
:1026E000CD2B0008412C00086D2C0008992C000807
:1026F000C32C0008EF2C0008192D0008432D0008FA
:102700006B2D000804986946FFF795F8002800F043
:1027100049837B4C009B237502F0F2FC01A87C49A5
:10272000FFF798F8774901A8FFF794F867E4049851
:102730006946FFF780F8002800F03483704C009B56
:10274000637502F0DDFC01A87249FFF783F86D495B
:1027500001A8FFF77FF867E404986946FFF76BF874
:10276000002800F01F83664C009BA37502F0C8FC94
:1027700001A86949FFF76EF8624901A8FFF76AF8F6
:102780008FE404986946FFF756F8002800F00A83A2
:102790005B4C009BE37502F0B3FC01A85F49FFF7B7
:1027A00059F8584901A8FFF755F88DE4049869468F
:1027B000FFF741F8002800F0F582514C009B23768A
:1027C00002F09EFC01A85649FFF744F84D4901A8C4
:1027D000FFF740F88BE404986946FFF72CF80028CF
:1027E00000F0E082464C009B637602F089FC01A871
:1027F0004C49FFF72FF8434901A8FFF72BF889E46C
:1028000004986946FFF717F8002800F0CB823C4C8B
:10281000009BA37602F074FC01A84349FFF71AF865
:10282000384901A8FFF716F887E404986946FFF7CE
:1028300002F8002800F0B682314C009BE37602F0EB
:102840005FFC01A83949FFF705F82E4901A8FFF7F9
:1028500001F885E404986946FEF7EDFF002800F0D2
:10286000A182274C009B237702F04AFC01A8304943
:10287000FEF7F0FF234901A8FEF7ECFF83E404987C
:102880006946FEF7D8FF002800F08C821C4C009BA4
:10289000637702F035FC01A82649FEF7DBFF1949F2
:1028A00001A8FEF7D7FF81E404986946FEF7C3FF4D
:1028B000002800F07782124C009BA37702F020FCE6
:1028C00001A81D49FEF7C6FF0E4901A8FEF7C2FF89
:1028D0007FE404986946FEF7AEFF002800F06282AC
:1028E000074C009BE37702F00BFC01A81349FEF7AD
:1028F000B1FF044901A8FEF7ADFF7DE46A5E000860
:1029000000000020255D00087F5C00084C5F000887
:10291000285D00082C5D0008315D0008385D000866
:10292000405D0008475D0008525D00085D5D0008DD
:10293000665D00086F5D0008785D0008815D000835
:1029400004986946FEF777FF002800F02B82AA4C16
:10295000009B84F8203002F0D3FB01A8A749FEF7C2
:1029600079FFA74901A8FEF775FF58E40498694666
:10297000FEF761FF002800F015829F4C009B84F851
:10298000213002F0BDFB01A89E49FEF763FF9C4980
:1029900001A8FEF75FFF57E404986946FEF74BFF76
:1029A000002800F0FF81944C009B84F8223002F054
:1029B000A7FB01A89449FEF74DFF914901A8FEF736
:1029C00049FF56E404986946FEF735FF002800F0F9
:1029D000E981894C009B84F8233002F091FB01A827
:1029E0008A49FEF737FF864901A8FEF733FF55E411
:1029F00004986946FEF71FFF002800F0D3817E4C43
:102A0000009B84F8243002F07BFB01A88049FEF78C
:102A100021FF7B4901A8FEF71DFF54E40498694695
:102A2000FEF709FF002800F0BD81734C009B84F87D
:102A3000253002F065FB01A87649FEF70BFF7049CF
:102A400001A8FEF707FF53E404986946FEF7F3FE7A
:102A5000002800F0A781684C009BE38402F050FB43
:102A600001A86D49FEF7F6FE654901A8FEF7F2FEE2
:102A700079E404986946FEF7DEFE002800F09281B2
:102A80005D4C009B238502F03BFB01A86349FEF7E8
:102A9000E1FE5B4901A8FEF7DDFE77E40498694694
:102AA000FEF7C9FE002800F07D81534C009B638532
:102AB00002F026FB01A85A49FEF7CCFE504901A8B6
:102AC000FEF7C8FE75E404986946FEF7B4FE0028D8
:102AD00000F06881484C009B84F82C3002F010FB19
:102AE00001A85049FEF7B6FE454901A8FEF7B2FE1F
:102AF00072E404986946FEF79EFE002800F05281B9
:102B00003D4C009B84F82D3002F0FAFA01A84649AA
:102B1000FEF7A0FE3A4901A8FEF79CFE71E4049876
:102B20006946FEF788FE002800F03C81324C009B8D
:102B300084F82E3002F0E4FA01A83C49FEF78AFE40
:102B40002F4901A8FEF786FE70E404986946FEF757
:102B500072FE002800F02681274C009B84F82F305D
:102B600002F0CEFA01A83249FEF774FE244901A80A
:102B7000FEF770FE6FE404986946FEF75CFE0028DD
:102B800000F010811C4C009B84F8303002F0B8FA41
:102B900001A82849FEF75EFE194901A8FEF75AFE72
:102BA0006EE404986946FEF746FE002800F0FA80BD
:102BB000114C009B638602F0A3FA01A81E49FEF7A0
:102BC00049FE0F4901A8FEF745FE6EE404986946E8
:102BD000FEF731FE002800F0E580074C009B84F8EA
:102BE000343002F08DFA01A81449FEF733FE04498F
:102BF00001A8FEF72FFE6BE4000000208B5D0008AB
:102C0000255D0008955D00089F5D0008A95D00082E
:102C1000B45D0008BE5D0008C85D0008D25D000814
:102C2000DC5D0008E65D0008F15D0008FC5D000861
:102C3000075E0008125E00081E5E0008295E00089C
:102C400004986946FEF7F7FD002800F0AB80754C4C
:102C5000009B84F8353002F053FA01A87249FEF760
:102C6000F9FD724901A8FEF7F5FD46E404986946AE
:102C7000FEF7E1FD002800F095806A4C009B84F887
:102C8000363002F03DFA01A86949FEF7E3FD6749D5
:102C900001A8FEF7DFFD45E404986946FEF7CBFD89
:102CA00000287FD05F4C009B84F8373002F028FA70
:102CB00001A86049FEF7CEFD5C4901A8FEF7CAFDF8
:102CC00045E404995C484FF4807202F07DFD02F007
:102CD00017FA01A85949FEF7BDFD01A85349FEF7AF
:102CE000B9FD554901A8FEF7B5FDFEF77EBE049873
:102CF0006946FEF7A0FD002854D04A4C009B84F89A
:102D0000383102F0FDF901A84D49FEF7A3FD47490E
:102D100001A8FEF79FFD2FE404986946FEF78BFD9E
:102D200000283FD03F4C009B84F8393102F0E8F98D
:102D300001A84449FEF78EFD3C4901A8FEF78AFD33
:102D40002FE404986946FEF776FD58B3354C009B96
:102D500084F83A3102F0D4F901A83B49FEF77AFD34
:102D6000324901A8FEF776FD30E404986946FEF783
:102D700062FDB8B12B4C009B84F83B3102F0C0F9E6
:102D800001A83249FEF766FD284901A8FEF762FD59
:102D900057E4012C06D102F0EDFAFEF731FD0028D0
:102DA0007EF4D8AD2A49FEF7D6BD012CFAD102F047
:102DB00027FBF2E7A31E012BF4D81A4B032C93F840
:102DC0003811009109D104986946FEF734FD0028B6
:102DD000E8D000994B1E632BE4D8039802F022FB45
:102DE000DDE7022CDED103986946FEF724FD0028BA
:102DF000D8D0009B03F5FA62B2F57A6FD2D8154AA3
:102E00001360154B00221A70FEF7A4BD012CC9D126
:102E1000124A1368002BBCBF00231360104A1360D2
:102E2000FEF798BD00000020335E0008255D000815
:102E30003D5E0008485E000838000020525E000831
:102E4000585E00085F5E0008665E00086A5E000863
:102E5000725E0008CC060020AD0600204001002074
:102E60005C0100204FF04023D3F80024D3F8042461
:102E7000D3F80C2442F01002C3F80C240822C3F843
:102E8000142403F5E03300229A6570470A4B6FF073
:102E900001021A610022DA604FF0FF32DA62012289
:102EA0005A614FF0402343F20C42C3F80C24034B09
:102EB000034A1A60704700BF0040014048060020E6
:102EC0003134000870B52C4C2C4B21682C486FF025
:102ED00001021A6104294CD801A353F821F000BF64
:102EE000F52E00083D2F00085B2F0008672F000813
:102EF0006F2F0008234B1B6864331A1242F08002C4
:102F000090F82F00204E214D013800EB8000304416
:102F10006B70405C1E4B2870AA70013100220320A8
:102F20005A64042998644FF091005864C8BF194B43
:102F30002160C2BF18491960226070BD90F830301E
:102F400003EB4302154B1B6893FBF2F34FF6FF7242
:102F50009342A8BF13461A12D2E7114B1A681312F4
:102F600043F04003CCE70F4B1A681312C8E70E4B2F
:102F7000FAE700221346C3E7E001002000400140C9
:102F800000000020C00600200C6000084002002065
:102F900000000240480600208D2E0008C4060020D4
:102FA000B8060020BC060020B406002037B5144C3B
:102FB00094F82330C3B1218DA1F1320282420ADD9F
:102FC00000230093E18CA3F5FA6302F059F80D4B4E
:102FD000186003B030BD323181420DDA4FF4FA632C
:102FE00000930023628DF0E7E18C3231814205DAF3
:102FF0004FF4FA620092F5E70020E8E71846E6E7AA
:1030000000000020CC06002070B4184B93F82D303F
:103010000B24013B03EB43026343DB1002F0070187
:103020000332C45C02F00702184401259540914226
:10303000437844FA01F4C1F1080605F1FF350BDAD3
:103040002B40B34043EA040000EB8000C01070BC8A
:1030500000F55C70FFF7AABF8078C1F1100128402D
:10306000B340884023431843EEE700BF0000002030
:1030700010B5274B93F82530002B39D0254B5A6BD0
:10308000B2F5FA6F27DBA3F58833234C23484AF6C1
:10309000AA211960224902F5FA7393FBF1F34FF468
:1030A0007A7101FB032321680B440168236001311D
:1030B000016089070FD11B49086883420CDDB2EB20
:1030C000C30F15DB184A5B4213604FF0FF30FEF769
:1030D000FDFA0023236010BD13480068834207DA1D
:1030E0005242B2EBC30F03DC5B420B600120EEE700
:1030F0000E4B0F4A1A60074B49F291229A61312216
:103100001A626FF004021A610422DA60E3E700BF7A
:103110000000002000400140D4010020D001002028
:1031200018FCFFFFCC010020C80100204806002049
:1031300059350008F8B58B4C236913F0010341D0D1
:103140006FF001064FF0904526612B6913F00403E0
:1031500007D1854A92F82C20012A32D0834A136085
:103160002FE0834A13680133072B136029DD814B5D
:10317000814A1A60FEF7CAFAEB6843F00043EB603D
:103180002B6823F080432B6041F26F73E3620123CD
:1031900063610923266123602368DB0707D52B6958
:1031A0001A04F9D44FF040230822C3F814244FF036
:1031B000402340F63542C3F8082442F22C02C3F8FB
:1031C0000C24F8BD684E656B96F82C100129F8D0D8
:1031D000664A1768781C1060002FF2D0674F4CF6D3
:1031E000CC4C0129C7F800C067D9624C644B2360FE
:1031F000FEF78CFA96F82C30023B032B41D801A243
:1032000052F823F0153200082F320008453200082A
:10321000AD3200085B4B5C4A1A605C4B04221A70AA
:103220004FF040234FF48272C3F8082429E0554B35
:10323000574A1A60554B20221A704FF0402340F233
:103240001242F1E74F4B534A1A60504B19221A7041
:103250004FF040234FF49662C3F808244FF4A05275
:10326000C3F80C244FF40052C3F8102403F5803344
:103270000E229A624FF0FF32DA6201225A618122F5
:103280001A604FF040220823C2F81434D2F80C34EC
:10329000414943F4005343F01C03C2F80C343F4B44
:1032A0003F4A19665A66D9641A658AE73D4B23601E
:1032B0004FF490724FF04023B6E7A66A2946EEB16C
:1032C000B5F5FA6F06DD2B4B374A1A60BDE8F840BA
:1032D000FFF7CEBEA16A772908BF0E23A3620123A0
:1032E000636100233BE74910013B9529FBDC2F4933
:1032F0000C689C4204D00B60012330E70323F4E701
:10330000002B7FF75EAF03287FF75BAF194A284990
:1033100011601C4A2749284811602849584301EB8D
:103320006002B2FBF0F22648013A92B202802548D0
:10333000434301EB6301B1FBF3F1234B01391980E6
:10334000084B0021196244219960332199610121C0
:10335000D960DA62596103F540431C4A1A661C4A77
:103360005A662EE70040014000000020F8010020CE
:10337000F401002048060020A1350008003000407C
:103380003134000844060020853600084C06002031
:10339000F5340008C537000804440040000002402E
:1033A000400200207934000871300008F00100204C
:1033B000D53300087D380008F0490200000E2707C9
:1033C0003E020020D8B805003C02002034400140F5
:1033D000FC010020134BDA68D10722D51A69D20705
:1033E0001FD56FF001021A611A6A42B901221A62EE
:1033F0004FF090430C4A1B6903F0040313700B4B0E
:103400002022DA6540F2A3529A65A3F540434FF0BB
:10341000FF32DA6201225A6181221A604FF400728F
:10342000DA60704700400140400600200000024082
:103430004FF04023D3F80C24520604D542F20C027C
:10344000C3F80C247047D3F80024D3F80424D3F82D
:103450000C2422F01002C3F80C24C822C3F8142450
:10346000034B1A78034BDA65A3229A65704700BFB5
:103470004C060020000002404FF0402310B5D3F866
:103480000024D3F80424D3F80C1411F0200104D044
:1034900042F21C02C3F80C2410BD134AC824D06D9C
:1034A000C3F8144442F22C04C3F80C444023916541
:1034B0002628D3654FF081039365EDD10B4C6178DD
:1034C0001829E9D1A378162BE6D1A01C01F0C8FD7C
:1034D0000028E1D1064B4AF6AA22E01C1A60BDE89A
:1034E0001040FFF791BD00BF0000024040020020E5
:1034F00000300040F0B4154B1A78202A02D15A78D7
:10350000402A02D0F0BCFFF7ADBC114A4FF69F74C1
:1035100092F82D7040F2DC5001229978DE780F2A63
:1035200041EA062508D1A542ECD10A4B4AF6AA2267
:10353000F0BC1A60FFF73ABD97423144A4EB010496
:1035400008BFC5F30B0001320233E6E7400200205A
:1035500000000020003000400E4B5A6B986BB2F513
:10356000FA6F16DBA0F11C03042B07D80A4B4AF6AE
:10357000AA221A60094B01221A707047A0F54873FD
:10358000B3F5AF6F05D8044B4AF6AA221A60FFF7CD
:103590000DBD70470040014000300040AC060020E7
:1035A0004FF0402310B5D3F80C24110613D52A4A46
:1035B0002A4C1168481C615C1060C3F80414284947
:1035C0000C68A04206DB42F24800C3F80C0400235A
:1035D00013600B6010BD520604D542F22C02C3F8F2
:1035E0000C24F7E7D3F800241B4912F0060F0B68F0
:1035F00003D140F2FF32934203D11A4A8020C2F82D
:10360000000C4FF04022D2F80424D2B2082A01D094
:103610007F2A03D1002BDDD0013BDAE75C1C0F4889
:103620000C60022CC25406D1037823B94378FF2BD7
:1036300001D102F075F90A2ACCD1002303550748BD
:103640000B60FEF74DF9064B18600028C2D04FF012
:10365000402342F28802C2E7DC0100204002002041
:10366000D80100200020004010B5054C2070001249
:1036700060700221204601F0E3FCA07010BD00BF85
:103680004002002010B5464C0421204601F0D8FC31
:1036900018B1BDE81040FFF7E5BB424B4AF6AA223D
:1036A0001A602278B4F8013002F00F01022921D00B
:1036B000032925D001290AD1190448BFA3F5803375
:1036C00003F5FA61B1F57A6F01D837490B60130938
:1036D000083B052B4ED801A252F823F00F37000803
:1036E000773700088D3700089337000897370008B0
:1036F0009B370008003B2D4918BF01238B75E6E777
:103700002A49642BA8BF642381F82230DFE7284BC5
:1037100023481B682370274B1B6863701B12A37020
:10372000254B1B68E3701B122371244B1B686371CC
:103730001B12A371224B1A684FF6FF739342A8BF66
:103740001346E37109211B12237201F079FC0A224E
:1037500060724FF040236FF04001C3F8001442F252
:103760004801C3F80C1403F5E033002159649A644E
:1037700091225A6410BD124B1B684FF6FF7098429D
:10378000A8BF1846FFF770FF0322E2E7084B18684E
:10379000F8E7084BFBE7084BF9E7084BF7E700BFF2
:1037A0004002002000300040CC0600200000002035
:1037B000C0060020BC060020B8060020B406002089
:1037C000C806002070B5254D2B780F2B03D0BDE81F
:1037D0007040FFF747BB224B224C01264AF6AA2233
:1037E0006661A8191A60FFF70FFC297E01F00F032C
:1037F000042B24D11C4B1D4A1B78023BB34206D933
:103800001B4B93F82F30013BB3EB111F18D0194B12
:10381000136072B6134A536AC3F563437F33D362AE
:103820000123536162B60F4B6FF001021A6101224E
:10383000DA604FF0402343F20842C3F80C2470BD15
:103840000D4B136072B6636AC3F5F8435F33E362EE
:103850006661636941F29F43E362E3E7400200204F
:103860000030004000400140AB0600204806002028
:10387000000000208D2E0008C52E0008B54A916D6D
:1038800011F01001F8B520D0B34B4FF48031D9605E
:103890000021D960A3F550434FF4004058648120C3
:1038A000186091652021D16540F2A35191654FF0D8
:1038B000FF32DA62442101225A6199603321996111
:1038C0001A624FF40072DA60F8BDA44BA44DB3F84D
:1038D00000C00CF101044FEAA40E2B460A4608462C
:1038E0002E465F885200BE4500F10200D8BF42F06C
:1038F0000102202803F1040311D01F88BC42F0DC30
:10390000944B00229A65A3F5404385221A606FF01C
:1039100001010122C3F82CC05A611961D3E7914B10
:1039200014461F7813461B1140F08980381E18BFBB
:103930000120404260400007E2D18B484AF6AA24A9
:103940000460002F63D000F5883078240362836020
:1039500083618461012404620824446000F54040CE
:10396000824C83651723C36540F2935383652368B4
:103970006BB97F4807684FF6807017B1B842A8BF8F
:103980003846B0F5007F5CDA40EA432323601F012C
:1039900018461B1158D1C04300F00F00DFF8D4E1E6
:1039A00038438F0040FA07FC0CF00F0C0F441EF850
:1039B0000CC001310CFA07F7042943EA0703F0D1E0
:1039C0004FF0FF30132143FA01F747F30007784027
:1039D000013925F8020FF6D231806749002373853B
:1039E000B3854B6372B64B6AC3F560630F33632BC9
:1039F000B8BF6323CB6201234B614B695F4B1B88CC
:103A0000CB6262B65E490B6803BB0023236002F001
:103A10001003521100F080812F2A1EDD13B1594B83
:103A200001211970584B93F82330A3B1B2F5836F7D
:103A3000ACBFA2F21742C2F12F02520070E15C400B
:103A400071E7401001339CE75840A2E7013B0B604F
:103A5000002BDAD0DBE72F3A62E1002B3FF434AFE2
:103A6000434B196800297FF42FAF484803689A42F6
:103A7000474B1CBF0260196018680928DCBF013081
:103A80001860501E2E283FF61FAF01A454F820F0F6
:103A90004D3B00084D3B00084D3B00084D3B0008E6
:103AA0004D3B0008C9380008993B0008A93B0008B5
:103AB000B73B0008C93B0008C9380008D73B0008DD
:103AC000E93B0008053C0008C9380008C93800086F
:103AD000C9380008C9380008C93800081B3C00086C
:103AE000293C0008C9380008C9380008C93800084E
:103AF000C9380008C9380008C9380008C9380008A2
:103B0000C9380008C9380008C9380008C938000891
:103B1000C9380008C9380008C9380008C938000881
:103B2000C9380008C9380008C9380008373C0008FF
:103B3000613C00088B3C0008BB3C0008E93C0008E5
:103B4000C9380008C93800080B3D0008114B1A702D
:103B5000BAE600BF00000240001002403E02002012
:103B6000FC0100204006002000300040B00600208C
:103B7000C806002020600008004001403C020020F0
:103B8000EC010020AC06002000000020E80100202D
:103B9000E4010020A90600201B68062B7FF494AEE8
:103BA000624B00229A758FE61B68062B7FF48CAE61
:103BB0005E4B0122F6E71B68062B7FF485AE5B4B5C
:103BC000002283F823207FE61B68062B7FF47CAE5F
:103BD000564B0122F5E71B68062B7FF475AE01F00A
:103BE000C9FB534B18606FE61B68062B7FF46CAE65
:103BF000504B01221A70504B4FF460621A604F4BC9
:103C00000A2291E01B68062B7FF45EAE494B00222E
:103C10001A70494B40F6FF62F0E71B68062B7FF4F1
:103C200053AE474B002292E71B68062B7FF44CAE45
:103C3000434B01228BE71B68062B7FF445AE3B4AC2
:103C4000137E5B0801330F2B08D8082BB8BF08235D
:103C500059001176073B364A136035E60823F7E72B
:103C60001B68062B7FF430AE3049CA7E92080132C1
:103C70000C2A03D8062A1346B8BF0623DAB29000EE
:103C8000D200C8760A77053BE5E71B68062B7FF470
:103C90001BAE264A0A2092F82030B3FBF0F3013322
:103CA000DBB283428CBF0023194603EB83035B0026
:103CB00082F820301E4B196006E61B68062B7FF445
:103CC00003AE1A4A92F82130632B0ADC591C0A29E8
:103CD00006DD0521B3FBF1F3013303EB830300E0C1
:103CE0000B4682F82130B6E71B68062B7FF4ECAD5B
:103CF0000E4A92F82130012BF3DD013B0A2BF0DD57
:103D00000521B3FBF1F31BB2E7E71B68062B7FF439
:103D1000DBAD01F075FB64E713B10A4B01211970AB
:103D2000094B1A60094B00221A60CDE50000002003
:103D30005C010020A8060020B0060020EC01002055
:103D4000AA060020AC060020CC060020E8010020D6
:103D50000C4B0D4A1A600D4B4FF400425A6454222A
:103D60009A6031229A61032101221A62D960772177
:103D700099624FF0FF31D962042119605A6185229E
:103D80001A607047480600203531000800400140A5
:103D9000014B1B68184700BF48060020034B4FF437
:103DA00000325A60024B1B68184700BF00000240F7
:103DB00044060020FFF7ECBF704770470D4B44F2FC
:103DC0004002C3F8182C4022C3F81C2C40F2444295
:103DD000C3F8202C2122C3F8142C46F66802C3F83D
:103DE000182C6822C3F81C2C2022C3F8142C0020A5
:103DF000FDF778BC002001402DE9F043214C2378E9
:103E00008BB053B1204A013B92F839111F4A52F846
:103E1000230001F007FB00232370DFF87480D8F83B
:103E20000040002C2ADB184A92F83861192EB8BFDE
:103E300019266A4600256F460A2094FBF0F100FB24
:103E4000114442F8044B01350C460029F5D1DFF846
:103E5000449007EB85071CB10F48314601F0E2FAA8
:103E600057F8043D314659F82300013401F0DAFADD
:103E7000AC42F0D14FF0FF33C8F800300BB0BDE8D2
:103E8000F08300BFA9060020000000205C6000084D
:103E90005C01002030600008A75E00082DE9F843AF
:103EA000AE4BAF4C1F78AF4BAF4A1B7823B3AF4B31
:103EB0005B7DA7B1D3B940F21443582146F65800B0
:103EC000C4F8180CC4F81C1CC4F8203C012313606F
:103ED000A74A1360A74BA84A1A60BDE8F88343B904
:103EE00040F24113682145F66800E9E740F2544387
:103EF000E3E740F24553F5E7A04B18681368002844
:103F00007AD04FF080419E4DC1F83C04C1F82C049A
:103F10000120C1F814042E7826B91BB13C214B4373
:103F20003B3B13601368002F59D0013B002BD8BFD7
:103F30004FF4B4731360116801F1FF3CBCF1770FCB
:103F400053DC01F1EF077731884B9A7E93F8340008
:103F5000D20058B18B4B1B68A3EB8003C3F17803ED
:103F60003C2BB8BF3C239A42A8BF1A4686488323FD
:103F7000C4F8003C41F28733C4F82C3C30F81C30C4
:103F80005343DB11C4F8343C30F817305343DB1192
:103F9000C4F8383C30F811305343DB11C4F83C3CD2
:103FA0008123C4F8003C002E97D146F66803C4F87C
:103FB000183C6823C4F81C3C40F25553C4F8203C1C
:103FC0002123C4F8143C4FF080433046C3F80C64FE
:103FD000FDF788FB664B1E6001232B707DE70133E4
:103FE000B3F5B47FC8BF0123A4E7BCF1EF0FA1F183
:103FF0007907A8DDF139A7E7002F00F08580013BA4
:10400000002BD8BF062313601568604B691E05F0AE
:1040100001055B5CED1B6FEA030003EAD30618BFE2
:10402000012500EAD30016F001034FEA850570D0A0
:104030004E4A527D002A18BF052343F4805340F6B0
:104040006802B70773D5494F7F7D002F0CBF10273B
:10405000502742F4C0423B43760773D54348407D26
:1040600000280CBF4FF480704FF4A060034346F665
:104070006800474FC4F8182CDFF8F480454AC4F8AC
:104080001C0CC4F8203C3B6842F82130D8F80030C2
:10409000384E062B0CD1D2E900310B4491680B4409
:1040A000D1680B44116952690B4413445B103360AF
:1040B000DFF8E490D9F80000FDF714FB3B683749BE
:1040C000C9F80050B3F57A7F6CDD354B4FF47A7246
:1040D0001A6000230B603368632B4FF0000200F37B
:1040E0008280C4F8402C4FF080437122C3F818241A
:1040F0008522C3F800244FF080430022C3F8102427
:104100000322C3F80C24E8E60133062BC8BF0123C1
:1041100079E7C3075DBF45F0010541F2040340F6AE
:10412000480241F2040348BF40F6580289E7870776
:1041300043F040034EBF42F4A04242F4804245F0B7
:10414000020589E7400743F480635ABF45F0030541
:1041500046F6480046F658008BE700BF8E06002062
:10416000002001408C060020A40600200000002052
:104170009C060020C806002000879303A0060020AC
:104180009106002094060020A859000870600008DD
:104190009806002068060020640600205C060020C7
:1041A000600600200A680132062A0A6093D122487C
:1041B00002689342B4BFD21A9A1AB2EB630F4FF05F
:1041C00000020DDD4FF08043C3F80C241B4BC8F8F0
:1041D00000201A7042F210733B60194B33607CE68A
:1041E00003600A6077E7C72B05DCC4F8402C4FF06A
:1041F000804391227AE7B3F57A7F05DAC4F8402C40
:104200004FF08043C12271E7B3F5FA6F4FF080435E
:1042100007DAC4F8402CC122C3F8182440F28512F2
:1042200067E74FF40072C4F8402CC122C3F8182489
:1042300040F285225DE700BF600600209006002066
:1042400000E1F505054BD3F80C2C920605D56FF06F
:104250002002C3F8102CFFF721BE70470020014058
:104260004FF0804370B5D3F80C24D3F81014D00766
:1042700014D5C90712D56FF00102C3F8102400222B
:10428000C3F80C24214B1A60214B1A70214B42F2C7
:1042900010721A60204B214A1A6070BD9307FCD53A
:1042A0001C4C4FF080432268D3F83434B3EB620FD8
:1042B000F3DB164802EB4202B3EBA20F016822DAED
:1042C0008E1F754275411344154A114E127E35708A
:1042D0009B105A432360A3EB62135B10012B4FF03A
:1042E0008042B8BF0123C2F83C3405294FF00103D6
:1042F000C2F81434D8BF01314FF00003C2F80C34B7
:10430000D8BF0160C9E70025DDE700BF9C0600209B
:104310009006002098060020C806002000E1F50560
:104320000000002037B51D46204B1C68121B0146BB
:104330001F4834D4012303700A221E4800F0B2FE45
:104340001D4B18601D4B801020EAE070186007229A
:1043500000211B4800F0A6FE1A4B04221860002121
:10436000194800F09FFE194B1860194B1B78A3B138
:1043700005222946174800F095FE174B93F8243084
:104380004FF4FA6203EB830300929B004FF4B46294
:10439000B42100F075FE114B186003B030BD0078F9
:1043A0000028C9D104EB62041C60C5E75801002055
:1043B0008D0600205401002094060020C006002035
:1043C00050010020BC0600204C010020B80600204F
:1043D000AD0600204801002000000020CC0600208F
:1043E0004FF0E0234FF08052C3F8042D0022C3F8B1
:1043F000102D094A13780133DBB2137013F00F0349
:1044000009D106490A6801320A60054909688A42E9
:1044100004BF044A137070478F06002088060020EE
:10442000840600208006002072B6074B1B681844E3
:10443000064B1860064B01221A7062B605481978BF
:1044400001B970474261FAE788060020840600201F
:10445000800600200010004038B51F4C23782BB197
:104460001E4B1D7815B900F037FD25701C4B1B78CD
:104470001A072FD1FDF766F91A4B1B68DB0601D12D
:1044800000F062FD184B93F83B01184B1A788242FA
:1044900002D01870FFF791FC1548164A036812689D
:1044A000154913440A6803600132B2F57A7F0A6045
:1044B00010DB4FF47A7293FBF2F3104A1468234432
:1044C00013604FF4B47293FBF2F30D4A13600023B0
:1044D00003600B6038BD00BFAC060020AB060020B7
:1044E0008F060020880600200000002044010020E4
:1044F00058060020B8060020540600205006002070
:10450000B40600202DE9F04FB248B34AB34CB44989
:10451000B44EDFF8D49295B0121A01F0A5F900F06C
:10452000EFFD94F82430B14A03EB83039B00336022
:1045300094F82C30591E4B424B411370AC4BE27D2A
:104540001A70AC4B94F82E201A70FCF7B9FF00F0EB
:1045500075FDFFF731FC00F039FCFFF7F9FB4FF474
:104560000843C9F8443C41F28733C9F82C3C812305
:10457000C9F8003C3523C9F8043C4FF080433B2286
:10458000C3F8282400250422C3F82C54C3F80024BF
:104590000122C3F814248522C3F800248021FE20C0
:1045A00001F0DEF94FF0E02341F64B525A61072249
:1045B0009D611A6194F8363007938F4B5F6A4FF014
:1045C000807217F0C0455A6200F0E580237D0BB978
:1045D0007A001CD5894D42F6DF63AB6240F6C31307
:1045E000EB6204232B60012705236F612B606FF0C2
:1045F00001032B6137602B69DB0740F1E280002368
:1046000033602B6094F838117D4800F00BFFFFF702
:10461000D5FB1422002109A801F0B2F83223089337
:1046200014224FF47A7300210FA84FF0000B0A9365
:1046300001F0A6F84FF4C8730E93CDE903BB4FF415
:1046400016731093654E02235F4605935C46D84669
:104650004FF0E0230222C3F8102D30BF614B1868E1
:10466000737E03EB830191402BB1664B1B68002BDB
:1046700014BF14230023002C08BF4FF000080028AB
:1046800040F3E8800B44834280F2D280B27F737F94
:1046900002EB8202920003EB830300929B004FF433
:1046A000FA6200F0EDFC0446574AB37D127853409D
:1046B000564A13700023059352490B68002B00F0F3
:1046C0000B82002C40F02D81514A1168002940F0E6
:1046D0001F81049CC2464F4BD3F80080B8F1000FF5
:1046E00040F0068272B64C4B4C4A42F210771F6083
:1046F000474B1A60FFF7D2FB2123C9F8143CD9F8C5
:104700000C3C43F02003C9F80C3C4FF080434FF6BB
:10471000FF720125C3F83C24C3F82C24C3F81454B9
:1047200062B6394608A800F0CDFC4746FFF764FBA7
:104730003B4B1B7813F00F0240F02182079996F84B
:10474000353013FB01F30A214B43364909688B428C
:1047500040F3EC810BF1010B40F6B8339B4540F080
:10476000E68172B68023C9F8143C244B42F6DF621E
:104770009A6242F20F72DA6201225A616FF001020C
:104780001A6109221A601A68D207FCD4264B8022CB
:10479000C3F8002CFEE794F8381104F1380000F05B
:1047A00041FE94F83530002B3FF410AF079B9D423B
:1047B000BFF60CAF94F838111C4800F033FE0135F9
:1047C000F4E730BFFFF718FB3368002B3FF413AF5B
:1047D0006F6110E700000020400100200000002071
:1047E00000100008CC06002000200140AD0600208B
:1047F0008C060020AB060020001002400010004094
:10480000AE5E0008A0060020AA0600208E0600204A
:10481000C8060020A40600209806002000E1F50547
:104820008F060020BC06002000200040AA5E000881
:10483000728E6AB1AF4BB3FBF2F300930A464FF4AA
:104840007A73002100F01CFCAB4B002418602BE7AE
:104850009123F2E746D096F82320022AC0F1000007
:1048600013D1059A022A10D096F822304FF4FA623A
:1048700003EB83039B000092002100F001FC012365
:1048800080460024059325467FE00B44834217DAD7
:10489000B27F737F02EB8202920003EB83030092EC
:1048A0009B004FF4FA6200F0EBFB0446934BB27DA1
:1048B0001B78002A08BF83F00103914A1370FBE6BE
:1048C000728E6AB18B4BB3FBF2F300930A464FF43E
:1048D0007A73002100F0D4FB874B00241860E5E7D1
:1048E0009123F2E7874B1B68062B18BF96F82280AE
:1048F000059B1DBF08EB88084FEA88080446074659
:10490000012B08BF02230593002CBCD00446D3E63C
:10491000B4214B4313607C4A92FBF3F37B4A136050
:10492000D7E672B67A48764F03683F783C25013B5C
:1049300093FBF5F25543002F00F0CB80ED1A05F103
:104940003C030D684FF080476B43C7F83C344FF68B
:10495000FF73C7F82C3401256A4BC7F8145400279D
:104960001F606C4B0F601F706B4B1F706B4B2A44AA
:1049700042F210780260C3F80080FFF78FFA62B647
:10498000414608A800F09EFBB846F27E644BB3FB9C
:10499000F2F20692002D00F0A880624A126882B1FD
:1049A000594890FBF2F0594A47F230511060327F7B
:1049B000B3FBF2F34EF660220093069B00F060FB1F
:1049C0000690F37F96F8201050484FF4FA62009258
:1049D00003EB83034FF47A724A4300689B00002183
:1049E00000F04EFB96F83420824682B14E4B1B6895
:1049F000A3EB82036FF01802534303F5FA63B3F598
:104A0000FA7FB8BF4FF4FA739842A8BF9A46039B47
:104A10003C44E41A404B24EAE4741B78A245A8BF46
:104A2000A246002B5AD196F821200499D31002F007
:104A300007028A4201F1010452DD0133D04503DA55
:104A400043449A45A8BF9A46069B00930023194603
:104A50004FF4FA62504600F013FB8323C9F8003C80
:104A6000069B013BC9F82C3C8123C9F8340CC9F8DA
:104A7000380CC9F83C0CC9F8003C002D7FF42BAE73
:104A8000DFF88C80D8F80030002B3FF44FAE72B6C0
:104A9000D9F80C3C23F02003C9F80C3C4FF08043BC
:104AA0000122C3F80C54C3F82C54C3F81424FFF7A4
:104AB00085F9114BC8F800501D60124B1D60154B55
:104AC0001D70154B1D70174B1D60104B1D6062B69D
:104AD0002CE65B1B013334E7012556E70022A4E7EF
:104AE000049A072A08BF0024A8E7049CC246ABE743
:104AF00001251BE615160500A0060020AA060020C9
:104B00008E0600209C06002000879303C406002028
:104B1000A4060020910600209006002098060020A0
:104B2000C0D40100C8060020940600209346738E6E
:104B30004BB3164AB2FBF3F2154BA2F54872196853
:104B400008A800F0C3FA07EB204727EAE777A02F71
:104B5000A8BFA02796F8373083B164225A430D4B83
:104B60000EA8196800F0B2FA039B03EBA02323EA16
:104B7000E373B3F5FA6FA8BF4FF4FA630393049499
:104B8000D0462C4664E51F46E4E700BF002D310106
:104B900098060020B80600200368134403EB232383
:104BA000DBB210B50360A2F17D03012B064806D8E5
:104BB0000B685C1C0C607D24C45402F0DF020B689F
:104BC0005C1C0C60C25410BDD8060020C0F57F43A9
:104BD000CAB2F93330B59B1AC1F307229B1A054AB2
:104BE0000C12062513711B12157050709170D47041
:104BF000537130BDD8060020042810B550D1294B80
:104C00001A78042A4CD158785B884FF6FB7203441B
:104C1000934245D1244991F82F3000F00F02013B17
:104C20006FF0040404FB0322013A042A38D8030974
:104C3000092B06D00A2B0BD0083B58425841800064
:104C400010BD1A4B33F81210FFF7C0FF0620F7E72C
:104C5000013A032A0AD801A353F822F0794C00083C
:104C6000934C0008994C00089D4C0008104B1B68A1
:104C70000A2128335943E7E791F830300D4A5B08A1
:104C8000116891FBF3F14FF6FF739942A8BF1946E3
:104C9000DAE7094B1968D7E7084BFBE7084BF9E758
:104CA0000020CDE7D806002000000020B2610008F7
:104CB000C0060020C4060020BC060020B806002064
:104CC000B406002037B510230122CDE90032144A82
:104CD0000C46137001A90546C2B26846FFF75CFF97
:104CE000C5F307226846FFF757FFE2B26846FFF7B1
:104CF00053FFC4F307226846FFF74EFFC4F3074291
:104D00006846FFF749FF220E6846FFF745FF009A05
:104D1000D2436846D2B2FFF73FFF019803B030BDDF
:104D2000D8060020022810B43BD11F4B1A787E2AE7
:104D300037D11E495A7891F82F3002F01F02013BFB
:104D40009A422ED11A4A1B481368052B08BF00232C
:104D50005C1C30F813001460042B22D801A252F816
:104D600023F000BF794D00087F4D0008934D0008E7
:104D7000974D00089F4D00080F4B196806E00F4A39
:104D800091F8303011685B0891FBF3F110BCFFF72C
:104D900099BF0B4BF1E70B4B19680A23F4E70A4B59
:104DA000EBE7002010BC7047D80600200000002070
:104DB000D4060020BC610008C0060020C406002004
:104DC000BC060020B8060020B4060020184A40F2B5
:104DD0001243C2F80838174B1978174B032917D01C
:104DE00004291CD0022901D1144A1A601A68104BF8
:104DF000C2B1C822C3F8142842F21C02C3F80C281E
:104E00000F4B1049104A9963DA6359629A627047EE
:104E10000E49196040F62301C2F80818E6E74FF47E
:104E20009071F9E78822C3F8142842F20802E5E7F6
:104E300000300140AB060020E8060020F94B0008D6
:104E40000000024004380140D8060020254D00082B
:104E500070B51A4CD4F80C586B0620D415F0200508
:104E6000D4F80028D4F8042804D042F21C03C4F873
:104E70000C3870BD124E134B706B1B68C0F11000E4
:104E8000984760B16FF04003C4F8003842F248031D
:104E9000C4F80C389123F5613062F361E9E7074B00
:104EA00042F22C02C3F80C2803F5504300221A6387
:104EB00010225A6381221A63DBE700BF00300140F1
:104EC00000000240E8060020024B20225A60002227
:104ED000DA6170470000024038B5144DEB69DB071A
:104EE00023D4134B134C1B68642293FBF2F3124A36
:104EF000237212682270114A1268A2701112104AAD
:104F000061701268227111120E4AE1701268A2716A
:104F1000111261711A1209212046E27100F090F815
:104F20000A2360722B629323EB6138BD00000240BC
:104F3000C4060020D8060020C0060020BC060020C1
:104F4000B8060020B406002070B5324B1B78012B48
:104F500019D0042B1AD0304B1B789BB12F4A136801
:104F60000133022B13603ED0032B45D0012B4ED1D1
:104F70002B4B1B7843F4007372B62A4A116801B9AF
:104F8000136062B670BDFFF7A7FFE4E7264DE8693E
:104F900010F00100DFD1254B254C1A68254BA0727B
:104FA0000A211B6892FBF1F293FBF1F36170082177
:104FB000A170227142FA01F1A3711A121E4B6271A3
:104FC0001B68E1701A14E271C8261A120921A01C8C
:104FD00063722670227200F043F80C23E0722B6299
:104FE0009323EB61B7E7114B19221B6893FBF2F394
:104FF000DBB243F48063BFE70E4B64211B6893FB75
:10500000F1F30021DBB243F4C0631160B4E7002385
:10501000B2E700BFAB060020A8060020D0060020A3
:10502000C0060020B006002000000240BC060020A0
:10503000D8060020B8060020B40600207047000003
:1050400010B5064A0346014400208B4200D110BD32
:1050500013F8014B6040105CF7E700BFE062000806
:1050600010B5064A0346014400208B4200D110BD12
:1050700013F8014B6040105CF7E700BFE0610008E7
:1050800010B504468C421846029B0ADD9442BFBF0D
:10509000641A1B1A5C43521AAEBF184694FBF2F412
:1050A000001910BD00290BDB0368002BB8BF01FA03
:1050B00002F319441341C91A016041FA02F0704722
:1050C000002070470023C0E90431704730B5D0E9B3
:1050D00003438A1A13446542AB42B8BF2B46A3422E
:1050E000A8BF23464469C0E904310C1BD0E9001570
:1050F00080686B4301FB023300FB043030BD0000CD
:1051000030B59B4B197D5C7DD87D0A1E18BF0122EE
:105110001A75221E18BF01225A759A7D003A18BFCF
:1051200001229A75021E18BF0122DA751A7E012A21
:10513000B8BF01221F2AA8BF1F221A765A7E5AB171
:10514000002C00F0F980002840F0F680052AB8BF56
:105150000522192AA8BF19225A769A7E1C7F93F835
:105160002350012AB8BF01220F2AA8BF0F229A7626
:10517000DA7E102AB8BF1022302AA8BF3022A242FD
:10518000DA76B8BF2246602AA8BF60221A775A7F13
:105190009C7F012AB8BF0122642AA8BF6422A242D0
:1051A0005A77B8BF2246642AA8BF64229A77DA7F6A
:1051B00093F82C40012AB8BF0122642AA8BF6422B8
:1051C000DA7793F82020642AA8BF642283F820208D
:1051D00093F82120012AB8BF0122642AA8BF6422C3
:1051E00083F8212093F82220642AA8BF642283F840
:1051F0002220621E18BF01225200AA42A8BF2A46DE
:1052000083F82320002993F824200CBF6421002177
:105210008A42A8BF0A4683F8242093F82520003A42
:1052200018BF012283F82520DA8CB2F5617FB8BF60
:105230004FF4617240F26C718A42A8BF0A46598DE0
:10524000DA8402F1C805A942B8BF294640F6340500
:10525000A942A8BF29461D8D59856432AA42B8BF0C
:105260002A4664398A42A8BF0A46052C1A85224676
:10527000A8BF0522022C83F82C205FDD93F82D2097
:10528000032C14BF10210E21012AB8BF01228A422B
:10529000A8BF0A4683F82D2093F82E20042A114631
:1052A000A8BF0421022A83F82E1049D193F82F2099
:1052B000012AB8BF0122032AA8BF032283F82F20A6
:1052C00093F8302022F00102022AB8BF0222642A99
:1052D000A8BF642283F830205A8E5AB1002844D1E6
:1052E000B2F5E16FB8BF4FF4E162B2F5486FA8BF05
:1052F0004FF448625A8693F834202AB13C2AB8BF4A
:105300003C228C2AA8BF8C2293F8381183F83420D1
:105310006429A8BF642183F8381193F839116429EE
:105320004FF00002A8BF642183F83520DA8683F8A5
:105330003911A3F83A2130BD00220DE70022A9E778
:10534000032A08D193F82F20012AB8BF01221C2A72
:10535000A8BF1C22B2E7042C05D193F82F20042A01
:10536000A8BF0422AAE70022A8E70022C2E700BFE4
:105370000000002038B51C4B1B680BB1002038BD65
:1053800072B61A4B1A4A5A6002F188325A604FF0CC
:10539000FF32DA6002221A61164A5A6142221A6109
:1053A000DA68D207FCD401221A61134B1149134A5F
:1053B0000E481C4693420FD38023036162B6C36834
:1053C00013F0140FDAD10C490A48121B00F0C8F987
:1053D000B0FA80F04009D2E733F8025B21F8025BB3
:1053E000C568ED07FCD4E5E7C806002000200240B0
:1053F0002301674500100008000000204001002044
:1054000008B572B6054906484FF49E7200F02CFAB2
:1054100062B6BDE80840FFF7ADBF00BF7660000888
:10542000000000202DE9F04F85B00A220F4603A9A5
:10543000044600F049F9039AA24200F08280A0F1EC
:105440000A0140F2DD33994200F2A08043F6982829
:1054500098FBF0F8002F00F099804D4B1868002859
:1054600040F09480DFF82CB19BF80050002D65D1FE
:10547000494CDFF828A101238BF8003046F6500391
:10548000C4F8183C5023C4F81C3C40F25443C4F800
:10549000203C0E23C4F8283C4FF02109164616F88C
:1054A000013B7BB3A3F1610106294DD8633B002189
:1054B0000733072093FBF0F0C0EBC0001B1A5B0022
:1054C0005078042BC8BF03F1FF33232808BF0133F2
:1054D00029443AF8133043FA01F3C4F82C3C4FEA5C
:1054E000470308BF961CC4F8383CC4F8149C0A2231
:1054F00003A9304600F0E8F8039BB3423AD0421EBD
:10550000622A38D944F24003C4F8183C4023C4F856
:105510001C3C40F24443C4F8203C41F28732002353
:10552000C4F8283CC4F82C2C2122C4F8142C16F8FA
:10553000010C8BF80030B0FA80F0400905B0BDE8EE
:10554000F08F4FF07D0885E7A3F14101062902D8CD
:10555000433B0121ACE75F2BC7D02B2B03D1002DA0
:10556000D0D1012504E02D2BCCD1002DCAD0013D96
:10557000324693E7012018FB00F00193FEF754FF39
:10558000019B0022C4F8382C1E46F1E70020D5E725
:10559000C8060020EC06002000200140C66100087B
:1055A000931E222B10B50C4604D900230B701C4609
:1055B000204610BD0A2A09D1002807DA2D230B70D6
:1055C00040420121214400F089F8F1E70021F9E788
:1055D000FFF7E6BF242B2DE9F0478646904601D819
:1055E000012B06D100F03AF9162303600020BDE834
:1055F000F08734480D462A4615F8014B065D16F033
:105600000806F8D12D2C10D12C780126951C33F0EA
:10561000100215D1302C0DD12A7802F0DF02582A61
:1056200008D16C78023510230AE02B2C04BF2C78AB
:10563000951CECE7002BF6D1302C14BF0A2308236D
:1056400006F1004C0CF1FF3C0022BCFBF3F91046C4
:1056500003FB19CAA4F13007092F0FD83C46A34217
:105660001BDD571C07D0814514D301D1A24511DBA6
:1056700000FB0340012215F8014BEBE7A4F14107C1
:10568000192F01D8373CEAE7A4F16107192F04D894
:10569000573CE4E74FF0FF32EDE7531C08D12223DB
:1056A000CEF800306046B8F1000FA0D0691E06E0C9
:1056B00006B14042B8F1000F99D0002AF6D1C8F8DF
:1056C000001094E7E163000813460A4601460248C9
:1056D0000068FFF77FBF00BF60010020F0B51F4CDE
:1056E0008BB005460B466E4604F1200C20686168BD
:1056F000374603C7083464453E46F7D121793971EE
:10570000911E2068386022294FF0000104D91970D9
:105710000B4618460BB0F0BD581E8446B5FBF2F799
:1057200002FB175628366E440C4616F8286C0CF807
:10573000016F2E46B24201F101013D46EED9002231
:105740005A541919A51AAA42E3DA10F8015F0E7823
:105750000670013201F80159F4E700BF245F000828
:1057600010B501390244904201D1002005E00378D0
:1057700011F8014FA34201D0181B10BD0130F2E710
:1057800002440346934200D1704703F8011BF9E736
:1057900030B50C4D024612F8013BE85C00F0030006
:1057A000012811F8010B2C5C04F0030408BF20331E
:1057B000012C08BF20301B1A02D10028EBD130BDCC
:1057C0001846FCE7E163000810B50B4662B913F810
:1057D000012B002AFBD104E013F8014B00F8014B28
:1057E00014B9581A013810BD013AF5D10270EEE72C
:1057F00002460023006800F000B8F0B5044608B97E
:10580000146844B1204614F8015B0F4617F8016B89
:105810001EB965B91560002005E0B542F6D1002B30
:10582000F0D114600370F0BD1C460CE01DB9274692
:1058300014F8013B0E4616F8015BAB42F6D1002B83
:10584000F2D000233B701460EDE7034611F8012B02
:10585000184603F8012B002AF8D17047014B18684D
:10586000704700BF600100200A44914200F1FF33FD
:1058700000D1704710B511F8014B03F8014F914268
:10588000F9D110BD034613F8012B002AFBD1181AD9
:1058900001387047FEE7704710B5164B164A174996
:1058A0008B4218D30021164A934217D38023154AFE
:1058B0009B001168144C0B431360144B9C420FD394
:1058C000134C144B9C420ED3FEF71CFE124C134B90
:1058D0009C420BD310BD01CA01C3E1E702C3E3E759
:1058E00008CC9847E9E708CC9847EAE708CC9847FE
:1058F000EDE7C04640010020EC640008B001002044
:10590000F006002014ED00E0E4640008E464000800
:10591000E4640008E4640008E4640008E464000847
:10592000014B024A1A60FEE70CED00E00400FA05A4
:10593000044A43099B009B181F2210401E3A8240D4
:105940001A60704700E100E0044A43099B009B187D
:105950001F2210401E3A82401A60704780E200E029
:1059600010B51F2812D90F2318400438C0B283087D
:10597000084A9B001824C0002040E734844081403E
:105980009B181A68A2431143196010BD8308024A8C
:105990009B00EFE718ED00E000E400E0E1180400F0
:1059A000C1180400D1180400900197019E01A501BF
:1059B000AC01B301BA01C101C801CF01D501DC01BD
:1059C000E301EA01F101F801FE0105020C021202F5
:1059D00019021F0226022C02330239023F0246023C
:1059E0004C02520258025E0264026A0270027502A0
:1059F0007B02810286028C02910296029C02A10225
:105A0000A602AB02B002B502B902BE02C202C702D0
:105A1000CB02CF02D402D802DC02DF02E302E702AB
:105A2000EA02EE02F102F402F802FB02FD020003B8
:105A30000303050308030A030C030F0311031203F6
:105A400014031603170319031A031B031C031D0376
:105A50001E031E031F031F03200320032003200334
:105A600020031F031F031E031E031D031C031B0330
:105A70001A031903170316031403120311030F0368
:105A80000C030A030803050303030003FD02FB02E2
:105A9000F802F402F102EE02EA02E702E302DF0298
:105AA000DC02D802D402CF02CB02C702C202BE027D
:105AB000B902B502B002AB02A602A1029C02960294
:105AC00091028C02860281027B02750270026A02D8
:105AD00064025E02580252024C0246023F02390240
:105AE00033022C0226021F02190212020C020502C6
:105AF000FE01F801F101EA01E301DC01D501CF016A
:105B0000C801C101BA01B301AC01A5019E01970111
:105B10009001890182017B0174016D0166015F01C1
:105B2000580151014B0144013D0136012F0128016B
:105B300022011B0114010E0107010101FA00F4000A
:105B4000ED00E700E100DA00D400CE00C800C2009A
:105B5000BC00B600B000AB00A5009F009A00940006
:105B60008F008A0084007F007A00750070006B004F
:105B7000670062005E005900550051004C0048006B
:105B8000440041003D003900360032002F002C0057
:105B900028002500230020001D001B00180016000F
:105BA000140011000F000E000C000A00090007008D
:105BB00006000500040003000200020001000100CD
:105BC00000000000000000000000010001000200D1
:105BD00002000300040005000600070009000A0097
:105BE0000C000E000F0011001400160018001B001E
:105BF0001D0020002300250028002C002F0032006B
:105C0000360039003D004100440048004C0051007E
:105C1000550059005E00620067006B00700075005F
:105C20007A007F0084008A008F0094009A009F0011
:105C3000A500AB00B000B600BC00C200C800CE009A
:105C4000D400DA00E100E700ED00F400FA00010101
:105C500007010E0114011B01220128012F01360149
:105C60003D0144014B01510158015F0166016D0185
:105C700074017B01820189012E00300020090D0A88
:105C80000055736167653A0A696E666F0A73686FDB
:105C9000770A676574203C706172616D3E0A7365B6
:105CA00074203C706172616D3E203C76616C75655C
:105CB0003E0A736176650A72657365740A706C6179
:105CC00079203C6D757369633E205B3C766F6C7523
:105CD0006D653E5D0A7468726F74203C76616C7508
:105CE000653E0A626565700A00455343617065331D
:105CF000322072657600205B005D0A54656D703A53
:105D00002000430A566F6C743A2000560A4375729D
:105D1000723A2000410A4373756D3A20006D416864
:105D20000A4552504D3A200061726D0064616D70F9
:105D300000726576646972006272757368656400EA
:105D400074696D696E670073696E655F72616E6715
:105D5000650073696E655F706F7765720066726566
:105D6000715F6D696E00667265715F6D6178006468
:105D70007574795F6D696E00647574795F6D6178B3
:105D800000647574795F7370757000647574795F01
:105D900072616D7000647574795F7261746500641E
:105DA0007574795F64726167007468726F745F6D97
:105DB0006F6465007468726F745F736574007468F3
:105DC000726F745F63616C007468726F745F6D6989
:105DD0006E007468726F745F6D6964007468726FCE
:105DE000745F6D617800696E7075745F6D6F646566
:105DF00000696E7075745F636869640074656C65D2
:105E00006D5F6D6F64650074656C656D5F7068696A
:105E1000640074656C656D5F706F6C6573007072A3
:105E20006F745F7374616C6C0070726F745F746513
:105E30006D700070726F745F766F6C740070726F4B
:105E4000745F63656C6C730070726F745F637572FE
:105E500072006D7573696300766F6C756D650062B5
:105E60006561636F6E00626563006C6564004F4B33
:105E70000A004552524F520A0068656C7000696E04
:105E8000666F0073686F770067657400736176658D
:105E900000726573657400706C6179007468726F6C
:105EA000740062656570005F34005F3244004743F0
:105EB00000633600462332453244324332004723E2
:105EC00041234723412347233200472341234723CC
:105ED00041234623324723320047234123472341AE
:105EE00023453246233247233200472341234723A9
:105EF000412344324532462332472332004723416F
:105F00002347234123433244324532462332472339
:105F100032004547004641004742004142230061AC
:105F200044474500303132333435363738396162D1
:105F3000636465666768696A6B6C6D6E6F707172B9
:105F4000737475767778797A00000000285D000810
:105F50002C5D0008315D0008385D0008405D0008D8
:105F6000475D0008525D00085D5D0008665D000841
:105F70006F5D0008785D0008815D00088B5D00089A
:105F8000955D00089F5D0008A95D0008B45D0008EC
:105F9000BE5D0008C85D0008D25D0008DC5D000839
:105FA000E65D0008F15D0008FC5D0008075E000882
:105FB000125E00081E5E0008295E0008335E0008BD
:105FC0003D5E0008485E0008525E0008585E00080A
:105FD0005F5E0008665E00086A5E00080000000060
:105FE000795E00087E5E0008835E0008885E000817
:105FF000BA5D00088C5E0008915E0008975E00089C
:106000009C5E0008A25E000800000000C323A3639A
:10601000E3D333B373F3CB2BAB6BEBDB3BBB7BFB40
:10602000191B12131D1516171A090A0B1E0D0E0F38
:10603000B15E0008BB5E0008B95E0008B75E0008EC
:10604000B45E0008BE5E0008CA5E0008D95E0008A3
:10605000EA5E0008FD5E000800000000125F000814
:10606000155F0008185F00081B5F00081F5F00082D
:1060700035192B321E2CEA320B0052454D4F52413E
:106080005F3138305F3134343000000100001000DF
:106090000818305A6419001900000001E803DC05F3
:1060A000D007010000000E00000000000000646640
:1060B000612300000000000000000000000000005C
:1060C00000000000000000000000000000000000D0
:1060D00000000000000000000000000000000000C0
:1060E00000000000000000000000000000000000B0
:1060F00000000000000000000000000000000000A0
:10610000000000000000000000000000000000008F
:10611000000000000000000000000000000000007F
:10612000000000000000000000000000000000006F
:10613000000000000000000000000000000000005F
:10614000000000000000000000000000000000004F
:10615000000000000000000000000000000000003F
:10616000000000000000000000000000000000002F
:10617000000000000000000000000000000000001F
:10618000000000000000000000000000000000000F
:1061900000000000000000000000000000000000FF
:1061A00000000000000000000000000000000032BD
:1061B000000001020202030205020602700B000544
:1061C0001002000200066F77BB70686A7164CC5ED3
:1061D0007A597554B74F3D4B05470843443FB73B89
:1061E00000D57FAAFE2B815429FC5683D702A87DB7
:1061F00052872DF8AC79D3067BAE04D18550FA2FA7
:10620000A471DB0E5A8F25F08D58F22773A60CD996
:10621000F623895C08DD77A2DF0AA07521F45E8B86
:106220009D48E23763B61CC9B461CB1E4A9F35E076
:10623000CF1AB06531E44E9BE633994C18CD67B266
:1062400039EC4693C712B86D10C56FBAEE3B914456
:106250006BBE14C19540EA3F42973DE8BC69C31646
:10626000EF3A904511C46EBBC613B96C38ED479236
:10627000BD68C21743963CE99441EB3E6ABF15C026
:106280004B9E34E1B560CA1F62B71DC89C49E33616
:1062900019CC66B3E732984D30E54F9ACE1BB16406
:1062A00072A70DD88C59F3265B8E24F1A570DA0FF6
:1062B00020F55F8ADE0BA17409DC76A3F722885DE6
:1062C000D603A97C28FD5782FF2A805501D47EABD6
:1062D0008451FB2E7AAF05D0AD78D20753862CF9C6
:1062E00000070E091C1B1215383F363124232A2DB6
:1062F00070777E796C6B6265484F464154535A5DA6
:10630000E0E7EEE9FCFBF2F5D8DFD6D1C4C3CACD95
:1063100090979E998C8B8285A8AFA6A1B4B3BABD85
:10632000C7C0C9CEDBDCD5D2FFF8F1F6E3E4EDEA75
:10633000B7B0B9BEABACA5A28F88818693949D9A65
:106340002720292E3B3C35321F18111603040D0A55
:106350005750595E4B4C45426F68616673747D7A45
:10636000898E878095929B9CB1B6BFB8ADAAA3A435
:10637000F9FEF7F0E5E2EBECC1C6CFC8DDDAD3D425
:10638000696E676075727B7C51565F584D4A434415
:10639000191E171005020B0C21262F283D3A333405
:1063A0004E49404752555C5B7671787F6A6D6463F5
:1063B0003E39303722252C2B0601080F1A1D1413E5
:1063C000AEA9A0A7B2B5BCBB9691989F8A8D8483D5
:1063D000DED9D0D7C2C5CCCBE6E1E8EFFAFDF4F3C5
:1063E00000202020202020202020282828282820A5
:1063F000202020202020202020202020202020209D
:106400002088101010101010101010101010101004
:1064100010040404040404040404041010101010F4
:1064200010104141414141410101010101010101BE
:106430000101010101010101010101011010101010
:106440001010424242424242020202020202020290
:1064500002020202020202020202020210101010E4
:10646000200000000000000000000000000000000C
:10647000000000000000000000000000000000001C
:10648000000000000000000000000000000000000C
:1064900000000000000000000000000000000000FC
:1064A00000000000000000000000000000000000EC
:1064B00000000000000000000000000000000000DC
:1064C00000000000000000000000000000000000CC
:1064D00000000000000000000000000000000000BC
:0464E00000000000B8
:0864E400A0F3FF7F010000009E
:1064EC00FFFFFFFFFF000000FFFFFFFFFFFFFFFFAD
:1064FC00FFFFFFFFFFFFFFFFE40C0000FFFFFFFFAC
:10650C006401002000000000000000006800000092
:10651C00D00000000000000000000000000000009F
:10652C00000000000000000000000000000000005F
:10653C00000000000000000000000000000000004F
:10654C00000000000000000000000000000000003F
:0400000508005899FE
:00000001FF
