:020000040800F2
:10100000EA32090052454D4F52415F4445460000C7
:101010000000000000010000040008306001640AC4
:10102000001900000001E803DC05D0070100000002
:101030000E00000000646661230000000000000054
:1010400000000000000000000000000000000000A0
:101050000000000000000000000000000000000090
:101060000000000000000000000000000000000080
:101070000000000000000000000000000000000070
:101080000000000000000000000000000000000060
:101090000000000000000000000000000000000050
:1010A0000000000000000000000000000000000040
:1010B0000000000000000000000000000000000030
:1010C0000000000000000000000000000000000020
:1010D0000000000000000000000000000000000010
:1010E0000000000000000000000000000000000000
:1010F00000000000000000000000000000000000F0
:1011000000000000000000000000000000000000DF
:1011100000000000000000000000000000000000CF
:1011200000000000000000000000000000000000BF
:08113000000000000000320085
:1014000000200020ED550008EB550008E9550008C4
:1014100000000000000000000000000000000000CC
:10142000000000000000000000000000EB55000874
:1014300000000000000000005D4200082942000892
:10144000E9550008E9550008E9550008E955000884
:10145000E9550008E9550008E9550008E955000874
:10146000E9550008D11700082D4C00081D3C000864
:10147000E9550008A1400008AD170008E95500082B
:10148000BD400008E9550008E9550008E955000885
:10149000113C0008E9550008E9550008E955000825
:1014A000E9550008E9550008E9550008B54B000862
:1014B000353C0008E9550008E9550008E9550008E1
:1014C00038B5754B5A6822F002025A605A68140700
:1014D000FCD41A6822F080721A60704A13211160DD
:1014E0006F4A5A601A6842F080721A601A68900156
:1014F000FCD55A686B4842F002025A604FF0FF3246
:10150000DA6000211A6102F10612D96019615A618C
:10151000654A9A6140F60212DA614FF0E022C2F8A1
:10152000080D4FF090424FF00050106240F2222020
:1015300050622220C2F82004C2F824144FF0105147
:10154000D1604FF48051C2F80C14584911605849C9
:10155000C2F80014996941F480319961D36843F06D
:101560001003D360136823F010031360402114208C
:1015700004F0A0F880211B2004F09CF840211C20DE
:1015800004F098F88021092004F094F880210A20C2
:1015900004F090F840210B2004F08CF80D2004F0AA
:1015A00071F80E2004F06EF8102004F06BF814208F
:1015B00004F068F81B2004F065F81C2004F062F8C1
:1015C000092004F05FF80A2004F05CF80B2004F016
:1015D00059F8384B384AC3F80824384A40F26711A2
:1015E000C2F82C180921C2F80018D2F80018C9074F
:1015F000FBD4D3F8082442F00402C3F80824D3F83B
:10160000082412F00402FAD14FF48071C3F80414D4
:101610004FF0FF31C3F80C14C3F810142849C3F875
:1016200034240A70274A92F82C20012A08D10A7023
:10163000D3F8340440F00600C3F8340422480270A2
:101640000A78D3F8345402EB82044FF40C70A040B3
:101650000232D2B22843C3F834040A70013A1205A8
:10166000C3F82C24194A1A4911611A4951610222FE
:10167000C3F80C2C2022C3F8082C4FF080436022C2
:10168000C3F80424C122C3F818247822C3F81C2408
:101690000122C3F8202438BD00100240002002407F
:1016A00000C0342000140008014A0400FFBFEAEB28
:1016B000FAEFFFFF002001400100800000400140E0
:1016C000BD01002000000020BC01002000000240FD
:1016D0004C240140A801002004490B68C3F3850293
:1016E000024462F387030B60704700BF00100240A2
:1016F00000F00303013B022B9ABF054A52F8233046
:1017000000234207034A48BF43F40043D3617047B4
:10171000F05600080000014010B50C4C4FF4803327
:10172000E3600023E360142003F0B8FFE36943F4AF
:101730000033E3614FF090431A6A42F480721A62F8
:101740005A6A42F080525A6210BD00BF0010024037
:1017500008B50A4B4FF48032DA600022DA601420B8
:1017600003F09CFF4FF09043DA6822F03002DA6019
:101770001A6842F030021A6008BD00BF0010024033
:10178000074B9A68D2070AD4064A1278DA6040F208
:1017900083529A60A3F56043034AC3F80824704754
:1017A00000000240BD01002001019E00064B6FF0C9
:1017B0000202C3F8102CD3F80824D20544BF034A10
:1017C000C3F80824704700BF002001400101DE007B
:1017D000164B1749022210B45A6000229A60A3F5F2
:1017E0006043144AC3F80824134B0A881B78D3B10A
:1017F00013460120421C31F8100031F812400F4A04
:10180000B2FBF4F2504300135343A0F5A0600A2248
:1018100050432B2290FBF2F0002210BC1B13114608
:10182000193002F0A9BC1846E4E700BF00000240EE
:10183000A801002001008000BC01002050FB4A00EC
:10184000034B1A6802435EBF024A1860106070477B
:10185000380100205401002070B505460E460024D2
:1018600056F8240018B1294603F03AFE08B920467C
:1018700070BD0134F4E713B50A220C4601A903F048
:10188000CBFD019B1B781BB92060012002B010BD6D
:101890000020FBE710B50446006803F080FE2060DE
:1018A00010BD0000F0B585B00A2204460D4664273D
:1018B00091FBF7F601A9304603F02EFD01462046C4
:1018C000FFF7E8FF0D492046FFF7E4FF07FB16503E
:1018D0000A2201A903F020FD03F07EFE084E054612
:1018E000012D05DD01A92046FFF7D4FF05B0F0BDAD
:1018F00031462046FFF7CEFF0135F1E7CC5900080D
:10190000CE5900081FB504460A22084601A903F073
:1019100003FD01462046FFF7BDFF04B010BD0000E7
:10192000F0B58DB03D4F0190054602AE002439461A
:1019300001A803F007FE18B954B920460DB0F0BD58
:101940000378002BF3D001340A2C46F8040BEED1B7
:10195000334902980195FFF77FFF092801F283813F
:10196000DFE810F00A0015008000E50200067809A3
:1019700084098909A209B7092A4901A8FFF78AFF42
:10198000294901A8FFF786FF019C641BD5E7012CBC
:1019900041F06981254C264901A8FFF77BFFA0781B
:1019A000FFF74EFF014601A8FFF7ACFF214901A850
:1019B000FFF770FF211D01A8FFF76CFF1E4901A86A
:1019C000FFF768FF1D4B01A81968FFF79BFF1C4933
:1019D00001A8FFF75FFF1B4B01A81968FFF762FF23
:1019E000194901A8FFF756FF184B01A81968FFF71E
:1019F00059FF174901A8FFF74DFF164B01A81968B9
:101A0000FFF780FF144901A8FFF744FF134B196843
:101A100001A8FFF777FF1249AFE700BFD0590008D0
:101A20001C5D0008D5590008B35B000800000020C9
:101A30003D5A00084A5A00084D5A0008AC060020DA
:101A4000565A0008A80600205F5A0008A406002085
:101A5000685A0008A0060020715A0008B00600204D
:101A6000D3590008012C41F0FE80AD4CAD4901A8CE
:101A7000FFF710FFAC4901A8FFF70CFF217D01A87B
:101A8000FFF740FFA94901A8FFF704FFA84901A8F3
:101A9000FFF700FFA44901A8FFF7FCFE617D01A844
:101AA000FFF730FFA14901A8FFF7F4FEA14901A803
:101AB000FFF7F0FE9C4901A8FFF7ECFEA17D01A80D
:101AC000FFF720FF994901A8FFF7E4FE9A4901A812
:101AD000FFF7E0FE944901A8FFF7DCFEE17D01A8D5
:101AE000FFF710FF914901A8FFF7D4FE934901A821
:101AF000FFF7D0FE8C4901A8FFF7CCFE217E01A89C
:101B0000FFF700FF894901A8FFF7C4FE8C4901A82F
:101B1000FFF7C0FE844901A8FFF7BCFE617E01A863
:101B2000FFF7F0FE814901A8FFF7B4FE854901A83F
:101B3000FFF7B0FE7C4901A8FFF7ACFEA17E01A82B
:101B4000FFF7E0FE794901A8FFF7A4FE7E4901A84E
:101B5000FFF7A0FE744901A8FFF79CFEE17E01A8F3
:101B6000FFF7D0FE714901A8FFF794FE774901A85D
:101B7000FFF790FE6C4901A8FFF78CFE217F01A8BA
:101B8000FFF7C0FE694901A8FFF784FE704901A86C
:101B9000FFF780FE644901A8FFF77CFE617F01A882
:101BA000FFF7B0FE614901A8FFF774FE694901A87B
:101BB000FFF770FE5C4901A8FFF76CFEA17F01A84A
:101BC000FFF7A0FE594901A8FFF764FE624901A88A
:101BD000FFF760FE544901A8FFF75CFEE17F01A812
:101BE000FFF790FE514901A8FFF754FE5B4901A899
:101BF000FFF750FE4C4901A8FFF74CFE94F8201067
:101C000001A8FFF77FFE494901A8FFF743FE5449A9
:101C100001A8FFF73FFE444901A8FFF73BFE94F8F7
:101C2000211001A8FFF76EFE404901A8FFF732FE20
:101C30004C4901A8FFF72EFE3B4901A8FFF72AFEF9
:101C400094F8221001A8FFF75DFE384901A8FFF7BC
:101C500021FE454901A8FFF71DFE334901A8FFF702
:101C600019FE94F8231001A8FFF74CFE2F4901A894
:101C7000FFF710FE3D4901A8FFF70CFE2A4901A815
:101C8000FFF708FE94F8241001A8FFF73BFE274950
:101C900001A8FFF7FFFD364901A8FFF7FBFD224928
:101CA00001A8FFF7F7FD94F8251001A8FFF72AFE19
:101CB0001E4901A8FFF7EEFD2E4901A8FFF7EAFD36
:101CC000194901A8FFF7E6FDB4F9261001A8FFF7AE
:101CD00019FE164901A8FFF7DDFD274901A8FFF706
:101CE000D9FD114901A8FFF7D5FDB4F9281001A8C5
:101CF000FFF708FE0D4901A8FFF7CCFD1F4901A819
:101D0000FFF7C8FD084901A8FFF7C4FDB4F92A1080
:101D100001A8FFF7F7FD054901A8FFF7BBFD2FE07C
:101D2000000000207C5A0008795A0008D3590008A6
:101D3000805A0008855A00088C5A0008945A0008F6
:101D40009B5A0008A65A0008B15A0008BA5A00085F
:101D5000C35A0008CC5A0008D55A0008DF5A0008B8
:101D6000E95A0008F35A0008FD5A0008085B000809
:101D7000125B00081C5B0008265B0008305B000853
:101D80009F4901A8FFF786FD9E4901A8FFF782FD44
:101D900094F82C1001A8FFF7B5FD9B4901A8FFF7A7
:101DA00079FD9A4901A8FFF775FD964901A8FFF74B
:101DB00071FD94F82D1001A8FFF7A4FD924901A828
:101DC000FFF768FD924901A8FFF764FD8D4901A85E
:101DD000FFF760FD94F82E1001A8FFF793FD8A49E4
:101DE00001A8FFF757FD8B4901A8FFF753FD85496F
:101DF00001A8FFF74FFD94F82F1001A8FFF782FD0F
:101E0000814901A8FFF746FD834901A8FFF742FD7C
:101E10007C4901A8FFF73EFD94F8301001A8FFF7B8
:101E200071FD794901A8FFF735FD7C4901A8FFF74D
:101E300031FD744901A8FFF72DFD94F8311001A878
:101E4000FFF760FD704901A8FFF724FD744901A860
:101E5000FFF720FD6B4901A8FFF71CFD94F8321035
:101E600001A8FFF74FFD684901A8FFF713FD6D4971
:101E700001A8FFF70FFD634901A8FFF70BFD94F8D8
:101E8000331001A8FFF73EFD5F4901A8FFF702FDEF
:101E9000654901A8FFF7FEFC5A4901A8FFF7FAFCC3
:101EA00094F8341001A8FFF72DFD574901A8FFF75A
:101EB000F1FC5E4901A8FFF7EDFC524901A8FFF7CC
:101EC000E9FC04F1350101A8FFF7E4FC4E4901A843
:101ED000FFF7E0FC564901A8FFF7DCFC494901A8DF
:101EE000FFF7D8FC94F8351101A8FFF70BFD464920
:101EF00001A8FFF7CFFC4F4901A8FFF7CBFC4149F0
:101F000001A8FFF7C7FC94F8361101A8FFF7FAFC07
:101F10003D4901A8FFF7BEFC474901A8FFF7BAFCFD
:101F2000384901A8FFF7B6FC94F8371170E5022C88
:101F300040F0998641490398FFF78EFC212800F272
:101F40009286DFE810F0220037004A0085009800F2
:101F5000AB00BE00D100E400F7000A011D01300112
:101F600045015A016F0184019901AE01E901FE01A9
:101F7000130228023D02520267027C029102A6026D
:101F8000BB021406D002E502FA022D492D4C01A82D
:101F9000FFF780FC1B4901A8FFF77CFC217D01A80D
:101FA000FFF7B0FC01A81849FFF774FC207DFFF78C
:101FB00047FCE5E42449234C01A8FFF76BFC1149D9
:101FC00001A8FFF767FC617D01A8FFF79BFC01A852
:101FD0000D49FFF75FFC607DE9E71C49194C01A83A
:101FE000FFF758FC074901A8FFF754FCA17D01A8A1
:101FF000FFF788FC01A80449FFF74CFCA07DD6E759
:102000003A5B0008795A0008D3590008455B00087C
:10201000505B00085B5B0008665B0008725B0008B1
:102020007C5B0008865B0008915B00089B5B0008F6
:10203000A15B0008A85B0008AF5B0008905C00088B
:102040007C5A000800000020805A0008855A0008C9
:102050009E499F4C01A8FFF71DFC9E4901A8FFF770
:1020600019FCE17D01A8FFF74DFC01A89A49FFF793
:1020700011FCE07D9BE79949954C01A8FFF70AFC0C
:10208000944901A8FFF706FC217E01A8FFF73AFC5E
:1020900001A89149FFF7FEFB207E88E790498C4C10
:1020A00001A8FFF7F7FB8B4901A8FFF7F3FB617E5F
:1020B00001A8FFF727FC01A88749FFF7EBFB607E2B
:1020C00075E78849824C01A8FFF7E4FB814901A824
:1020D000FFF7E0FBA17E01A8FFF714FC01A87E49F1
:1020E000FFF7D8FBA07E62E77F49794C01A8FFF794
:1020F000D1FB784901A8FFF7CDFBE17E01A8FFF7EE
:1021000001FC01A87449FFF7C5FBE07E4FE7774962
:102110006F4C01A8FFF7BEFB6E4901A8FFF7BAFBA1
:10212000217F01A8FFF7EEFB01A86B49FFF7B2FB87
:10213000207F3CE76E49664C01A8FFF7ABFB654981
:1021400001A8FFF7A7FB617F01A8FFF7DBFB01A850
:102150006149FFF79FFB607F29E766495C4C01A856
:10216000FFF798FB5B4901A8FFF794FBA17F01A84B
:10217000FFF7C8FB01A85849FFF78CFBA07F16E7C3
:102180005D49534C01A8FFF785FB524901A8FFF7B1
:1021900081FBE17F01A8FFF7B5FB01A84E49FFF7DE
:1021A00079FBE07F03E75549494C01A8FFF772FB33
:1021B000484901A8FFF76EFB94F8201001A8FFF72B
:1021C000A1FB01A84449FFF765FB94F82000EEE667
:1021D0004B493F4C01A8FFF75DFB3E4901A8FFF7C3
:1021E00059FB94F8211001A8FFF78CFB01A83A498C
:1021F000FFF750FB94F82100D9E64249344C01A87E
:10220000FFF748FB334901A8FFF744FB94F822107D
:1022100001A8FFF777FB01A82F49FFF73BFB94F8D4
:102220002200C4E638492A4C01A8FFF733FB2949AC
:1022300001A8FFF72FFB94F8231001A8FFF762FB1A
:1022400001A82549FFF726FB94F82300AFE62F49A4
:102250001F4C01A8FFF71EFB1E4901A8FFF71AFB40
:1022600094F8241001A8FFF74DFB01A81A49FFF7C5
:1022700011FB94F824009AE62549154C01A8FFF7B4
:1022800009FB144901A8FFF705FB94F8251001A8E4
:10229000FFF738FB01A81049FFF7FCFA94F8250076
:1022A00085E61C490A4C01A8FFF7F4FA094901A880
:1022B000FFF7F0FAB4F9261001A8FFF723FB01A8F5
:1022C0000549FFF7E7FAB4F9260070E68C5A0008D2
:1022D00000000020795A0008D3590008945A0008D9
:1022E0009B5A0008A65A0008B15A0008BA5A0008BA
:1022F000C35A0008CC5A0008D55A0008DF5A000813
:10230000E95A0008F35A0008FD5A0008085B000863
:10231000125B00081C5B0008A949AA4C01A8FFF742
:10232000B9FAA94901A8FFF7B5FAB4F9281001A82C
:10233000FFF7E8FA01A8A549FFF7ACFAB4F92800BD
:1023400035E6A3499F4C01A8FFF7A4FA9E4901A8CE
:10235000FFF7A0FAB4F92A1001A8FFF7D3FA01A8F1
:102360009A49FFF797FAB4F92A0020E69949954C63
:1023700001A8FFF78FFA944901A8FFF78BFA94F8A8
:102380002C1001A8FFF7BEFA01A89049FFF782FAC6
:1023900094F82C000BE690498A4C01A8FFF77AFAD2
:1023A000894901A8FFF776FA94F82D1001A8FFF7E4
:1023B000A9FA01A88549FFF76DFA94F82D00F6E512
:1023C0008649804C01A8FFF765FA7F4901A8FFF70D
:1023D00061FA94F82E1001A8FFF794FA01A87B493E
:1023E000FFF758FA94F82E00E1E57D49754C01A8F5
:1023F000FFF750FA744901A8FFF74CFA94F82F1030
:1024000001A8FFF77FFA01A87049FFF743FA94F893
:102410002F00CCE573496B4C01A8FFF73BFA6A49E2
:1024200001A8FFF737FA94F8301001A8FFF76AFA0D
:1024300001A86649FFF72EFA94F83000B7E56A491B
:10244000604C01A8FFF726FA5F4901A8FFF722FABE
:1024500094F8311001A8FFF755FA01A85B49FFF77E
:1024600019FA94F83100A2E56049564C01A8FFF72B
:1024700011FA554901A8FFF70DFA94F8321001A896
:10248000FFF740FA01A85149FFF704FA94F8320027
:102490008DE557494B4C01A8FFF7FCF94A4901A8C3
:1024A000FFF7F8F994F8331001A8FFF72BFA01A809
:1024B0004649FFF7EFF994F8330078E54D49414C70
:1024C00001A8FFF7E7F9404901A8FFF7E3F994F8FD
:1024D000341001A8FFF716FA01A83C49FFF7DAF912
:1024E00094F8340063E54449364C01A8FFF7D2F96B
:1024F000354901A8FFF7CEF994F8351101A8FFF787
:1025000001FA01A83149FFF7C5F994F835014EE504
:102510003A492C4C01A8FFF7BDF92B4901A8FFF758
:10252000B9F994F8361101A8FFF7ECF901A8274989
:10253000FFF7B0F994F8360139E53149214C01A88B
:10254000FFF7A8F9204901A8FFF7A4F994F837117B
:1025500001A8FFF7D7F901A81C49FFF79BF994F8E8
:10256000370124E5032C40F07E8326490398FFF7CA
:1025700073F9212800F27783DFE810F046005B0052
:10258000700085009A00AF00C400D900EE0003017E
:1025900018012D01420158016E0184019A01D601F2
:1025A000EC01010216022B02410257026D02830266
:1025B0009902AF02C502DB02F10207031C035803B4
:1025C000265B000800000020795A0008D359000853
:1025D000305B00083A5B0008455B0008505B000870
:1025E0005B5B0008665B0008725B00087C5B0008B0
:1025F000865B0008915B0008A15B0008A85B0008EF
:10260000AF5B0008905C000804986946FFF733F957
:10261000002800F02883B14C009B237502F01CFCBD
:1026200001A8AF49FFF736F9AE4901A8FFF732F923
:10263000B4E404986946FFF71EF9002800F01383FC
:10264000A64C009B637502F007FC01A8A649FFF7A2
:1026500021F9A44901A8FFF71DF9B4E404986946DB
:10266000FFF709F9002800F0FE829C4C009BA3753F
:1026700002F0F2FB01A89D49FFF70CF9994901A866
:10268000FFF708F9B2E404986946FFF7F4F8002868
:1026900000F0E982914C009BE37502F0DDFB01A89C
:1026A0009349FFF7F7F88F4901A8FFF7F3F8D8E44B
:1026B00004986946FFF7DFF8002800F0D482874CC1
:1026C000009B237602F0C8FB01A88A49FFF7E2F8D5
:1026D000844901A8FFF7DEF8D6E404986946FFF7BD
:1026E000CAF8002800F0BF827C4C009B637602F0A1
:1026F000B3FB01A88049FFF7CDF87A4901A8FFF79D
:10270000C9F8D4E404986946FFF7B5F8002800F04A
:10271000AA82724C009BA37602F09EFB01A8774927
:10272000FFF7B8F86F4901A8FFF7B4F8D2E40498AE
:102730006946FFF7A0F8002800F09582674C009BDF
:10274000E37602F089FB01A86D49FFF7A3F865491C
:1027500001A8FFF79FF8D0E404986946FFF78BF8CB
:10276000002800F080825D4C009B237702F074FB10
:1027700001A86449FFF78EF85A4901A8FFF78AF8C3
:10278000CEE404986946FFF776F8002800F06B82E3
:10279000524C009B637702F05FFB01A85A49FFF798
:1027A00079F8504901A8FFF775F8CCE40498694618
:1027B000FFF761F8002800F05682484C009BA37791
:1027C00002F04AFB01A85149FFF764F8454901A806
:1027D000FFF760F8CAE404986946FFF74CF8002850
:1027E00000F041823D4C009BE37702F035FB01A8ED
:1027F0004749FFF74FF83B4901A8FFF74BF8C8E4FA
:1028000004986946FFF737F8002800F02C82334C13
:10281000009B84F8203002F01FFB01A83D49FFF720
:1028200039F8304901A8FFF735F8C5E4049869463E
:10283000FFF721F8002800F01682284C009B84F84E
:10284000213002F009FB01A83349FFF723F825499D
:1028500001A8FFF71FF8C4E404986946FFF70BF8D6
:10286000002800F000821D4C009B84F8223002F00A
:10287000F3FA01A82949FFF70DF81A4901A8FFF753
:1028800009F8C3E404986946FEF7F5FF002800F054
:10289000EA81124C009B84F8233002F0DDFA01A893
:1028A0001F49FEF7F7FF0F4901A8FEF7F3FFC2E447
:1028B00004986946FEF7DFFF002800F0D481074C3A
:1028C000009B84F8243002F0C7FA01A81549FEF7EE
:1028D000E1FF044901A8FEF7DDFFC1E4000000208C
:1028E0007C5A0008795A0008805A0008855A000866
:1028F0008C5A0008945A00089B5A0008A65A0008EF
:10290000B15A0008BA5A0008C35A0008CC5A000845
:10291000D55A0008DF5A0008E95A0008F35A00089F
:10292000FD5A0008085B000804986946FEF7A3FFFB
:10293000002800F09881AA4C009B84F8253002F012
:102940008BFA01A8A749FEF7A5FFA74901A8FEF742
:10295000A1FF9AE404986946FEF78DFF002800F075
:1029600082819F4C009BE38402F076FA01A89F4984
:10297000FEF790FF9C4901A8FEF78CFF9AE40498AB
:102980006946FEF778FF002800F06D81944C009BAB
:10299000238502F061FA01A89549FEF77BFF924971
:1029A00001A8FEF777FFC0E404986946FEF763FFCD
:1029B000002800F058818A4C009B638502F04CFA95
:1029C00001A88C49FEF766FF874901A8FEF762FF60
:1029D000C0E404986946FEF74EFF002800F04381EA
:1029E0007F4C009B84F82C3002F036FA01A8824913
:1029F000FEF750FF7C4901A8FEF74CFFBFE40498A6
:102A00006946FEF738FF002800F02D81744C009BCA
:102A100084F82D3002F020FA01A87849FEF73AFF39
:102A2000714901A8FEF736FFBEE404986946FEF737
:102A300022FF002800F01781694C009B84F82E309B
:102A400002F00AFA01A86E49FEF724FF664901A8C0
:102A5000FEF720FFBDE404986946FEF70CFF00284E
:102A600000F001815E4C009B84F82F3002F0F4F9F5
:102A700001A86449FEF70EFF5B4901A8FEF70AFFB3
:102A8000BCE404986946FEF7F6FE002800F0EB80EF
:102A9000534C009B84F8303002F0DEF901A85A490B
:102AA000FEF7F8FE504901A8FEF7F4FEBBE40498D7
:102AB0006946FEF7E0FE002800F0D580484C009BF8
:102AC00084F8313002F0C8F901A85049FEF7E2FE5F
:102AD000454901A8FEF7DEFEBAE404986946FEF710
:102AE000CAFE002800F0BF803D4C009B84F83230C5
:102AF00002F0B2F901A84649FEF7CCFE3A4901A816
:102B0000FEF7C8FEB9E404986946FEF7B4FE002853
:102B100000F0A980324C009B84F8333002F09CF91D
:102B200001A83C49FEF7B6FE2F4901A8FEF7B2FE08
:102B3000B8E404986946FEF79EFE002800F09380F2
:102B4000274C009B84F8343002F086F901A8324902
:102B5000FEF7A0FE244901A8FEF79CFEB7E4049905
:102B60002E484FF4807202F0D9FC02F075F901A8EA
:102B70002B49FEF78FFE01A81B49FEF78BFE274964
:102B800001A8FEF787FEFEF746BF04986946FEF7E8
:102B900072FE002867D0124C009B84F8353102F099
:102BA0005BF901A81F49FEF775FE0F4901A8FEF762
:102BB00071FEA1E404986946FEF75DFE002852D03C
:102BC000074C009B84F8363102F046F901A81649FB
:102BD000FEF760FE044901A8FEF75CFEA1E400BF19
:102BE00000000020125B0008795A00081C5B0008F6
:102BF000265B0008305B00083A5B0008455B000874
:102C0000505B00085B5B0008665B0008725B0008B5
:102C10007C5B0008865B0008915B000835000020A3
:102C20009B5B0008A15B0008A85B0008049869464C
:102C3000FEF721FEB8B12D4C009B84F8373102F02D
:102C40000BF901A82A49FEF725FE2A4901A8FEF73B
:102C500021FE7BE4012C06D102F024FAFEF7F0FD00
:102C600000287EF48DAE2449FEF78BBE012CFAD1EC
:102C700002F05EFAF2E7A31E012BF4D81B4B032CE3
:102C800093F83531009304D00099039802F062FA6A
:102C9000E6E704986946FEF7EEFD0028E3D0009BC6
:102CA000013B632BF0D9DEE7022CDCD103986946A7
:102CB000FEF7E1FD0028D6D0009B03F5FA62B2F5DD
:102CC0007A6FD0D80D4A13600D4B00221A70FEF7B0
:102CD00057BE012CC7D10B4B1A68002ABCBF00227B
:102CE0001A601A68084B1A60FEF74ABE00000020FE
:102CF000AF5B0008795A0008B75B0008B8060020EF
:102D00009906002038010020540100204FF0402394
:102D1000D3F80024D3F80424D3F80C2442F0100292
:102D2000C3F80C240822C3F8142403F5E03300226E
:102D30009A6570470A4B6FF001021A610022DA604F
:102D40004FF0FF32DA6201225A614FF0402343F222
:102D50000C42C3F80C24034B034A1A60704700BFAF
:102D60000040014040060020ED32000870B5284CBC
:102D7000284B216828486FF001021A61042943D8C2
:102D8000DFE801F00327363C4000244B1B68643326
:102D90001A1242F0800290F82F00214E214D013886
:102DA00000EB800030446B70405C1F4B2870AA70B1
:102DB0000131002203205A64042998644FF09100E5
:102DC0005864C8BF194B2160C2BF194919602260FD
:102DD00070BD90F8303003EB4302164B1B6893FB39
:102DE000F2F34FF6FF729342A8BF13461A12D2E7CE
:102DF000114B1A68131243F04003CCE70F4B1A68CB
:102E00001312C8E70E4BFAE700221346C3E700BFD0
:102E1000D80100200040014000000020AC06002046
:102E2000485D0008380200200000024040060020F3
:102E3000352D0008B0060020A4060020A8060020BA
:102E4000A006002037B5164C94F82330DBB1B4F956
:102E50002810A1F1320282420BDD00230093B4F965
:102E60002610A3F5FA6301F0BBFF0E4B186003B008
:102E700030BD323181420FDA4FF4FA630093002300
:102E8000B4F92A20EFE7B4F926103231814205DA8D
:102E90004FF4FA620092F3E70020E6E71846E4E711
:102EA00000000020B806002070B4184B93F82D30B5
:102EB0000B24013B03EB43026343DB1002F00701E9
:102EC0000332C45C02F00702184401259540914288
:102ED000437844FA01F4C1F1080605F1FF350BDA35
:102EE0002B40B34043EA040000EB8000C01070BCEC
:102EF00000F55C70FFF7A6BF8078C1F11001284093
:102F0000B340884023431843EEE700BF0000002091
:102F100010B5054C2070001260700221204601F0AF
:102F20003FFFA070032010BD3802002010B5274BD2
:102F300093F82530002B39D0254B5A6BB2F5FA6F38
:102F400027DBA3F58833234C23484AF6AA211960CE
:102F5000224902F5FA7393FBF1F34FF47A7101FB06
:102F6000032321680B440168236001310160890754
:102F70000FD11B49086883420CDDB2EBC30F15DB90
:102F8000184A5B4213604FF0FF30FEF7A5FB0023A9
:102F9000236010BD13480068834207DA5242B2EB47
:102FA000C30F03DC5B420B600120EEE70E4B0F4AC0
:102FB0001A60074B49F291229A6131221A626FF02E
:102FC00004021A610422DA60E3E700BF0000002077
:102FD00000400140CC010020C801002018FCFFFF88
:102FE000C4010020C0010020400600201D3400085C
:102FF000F8B58A4C236913F0010346D06FF0010342
:103000004FF0904523612B6913F004030DD1844ADE
:1030100092F82C20012A05D1FEF79AFB814B012260
:103020001A70F8BD804A1360FBE7804A13680133C9
:10303000072B1360F5DD7E4B7E4A1A60FEF76CFBB2
:10304000EB6843F00043EB602B6823F080432B6078
:1030500041F26F73E36201236361092323602368F4
:10306000DB0707D52B691A04F9D44FF04023082257
:10307000C3F814244FF0402340F63542C3F8082427
:1030800042F22C02C3F80C24CBE7654E96F82C10C4
:103090000129C1D0644A656B1768781C1060002F45
:1030A000BFD0654F4CF6CC4C0129C7F800C060D9A1
:1030B0005F4C624B2360FEF72FFB96F82C30023BEF
:1030C000032B3AD8DFE803F0020F1A4E5C4B5D4A3F
:1030D0001A605D4B04221A704FF040234FF4827245
:1030E000C3F8082429E0564B584A1A60564B202250
:1030F0001A704FF0402340F21242F1E7504B544A0D
:103100001A60514B19221A704FF040234FF4966207
:10311000C3F808244FF4A052C3F80C244FF4005213
:10312000C3F8102403F580330E229A624FF0FF3269
:10313000DA6201225A6181221A604FF0402208238C
:10314000C2F81434D2F80C34424943F4005343F02B
:103150001C03C2F80C34404B404A19665A66D964C5
:103160001A655EE73E4B23604FF490724FF04023A8
:10317000B6E7A66A2946EEB1B5F5FA6F06DD2C4B27
:10318000384A1A60BDE8F840FFF7D0BEA16A772937
:1031900008BF0E23A36201236361002343E74910A4
:1031A000013B9529FBDC30490C689C4204D00B6044
:1031B000012338E70323F4E7002B7FF732AF03281E
:1031C0007FF72FAF1A4A294911601D4A284929481B
:1031D00011602949584301EB6002B2FBF0F2274825
:1031E000013A92B202802648434301EB6301B1FBEE
:1031F000F3F1244B01391980084B00211962442155
:103200009960332199610121D960DA62596103F52E
:1032100040431D4A1A661D4A5A6602E700400140B3
:103220000000002099060020F0010020EC010020A1
:10323000400600209135000800300040ED320008C3
:103240003C0600206534000844060020B133000825
:1032500059360008044400400000024038020020B3
:10326000353300082D2F0008E801002091320008B6
:1032700011370008F0490200000E2707360200202F
:10328000D8B805003402002034400140F401002089
:10329000134BDA68D10722D51A69D2071FD56FF010
:1032A00001021A611A6A42B901221A624FF0904370
:1032B0000C4A1B6903F0040313700B4B2022DA65E0
:1032C00040F2A3529A65A3F540434FF0FF32DA6211
:1032D00001225A6181221A604FF40072DA6070474D
:1032E0000040014038060020000002404FF040231B
:1032F000D3F80C24520604D542F20C02C3F80C2475
:103300007047D3F80024D3F80424D3F80C2422F017
:103310001002C3F80C24C822C3F81424034B1A78F3
:10332000034BDA65A3229A65704700BF440600206C
:10333000000002404FF0402310B5D3F80024D3F82A
:103340000424D3F80C1411F0200104D042F21C0222
:10335000C3F80C2410BD134AC824D06DC3F814441C
:1033600042F22C04C3F80C44402391652628D3650F
:103370004FF081039365EDD10B4C61781829E9D1A9
:10338000A378162BE6D1A01C01F01AFD0028E1D18C
:10339000064B4AF6AA22E01C1A60BDE81040FFF76F
:1033A00083BD00BF00000240380200200030004012
:1033B000F0B4174B1A78202A02D15A78402A02D04A
:1033C000F0BCFFF7A3BC134A5C8892F82D70DE783E
:1033D0009A7840F2DC504FF69F75012132448F42BB
:1033E0005E79A5EB020501F101011A7908BFC4F36A
:1033F0000B000F2942EA062403F10203EED1AC428E
:10340000DED1054B4AF6AA22F0BC1A60FFF71ABDBE
:103410003802002000000020003000400E4B5A6BA4
:10342000986BB2F5FA6F16DBA0F11C03042B07D8DA
:103430000A4B4AF6AA221A60094B01221A707047F9
:10344000A0F54873B3F5AF6F05D8044B4AF6AA222E
:103450001A60FFF7F7BC70470040014000300040A1
:103460009806002010B5414C0421204601F098FC3C
:1034700018B1BDE81040FFF749BC3D4B4AF6AA22FF
:103480001A602278B4F8013002F00F01022917D037
:1034900003291BD001290AD1190448BFA3F58033A1
:1034A00003F5FA61B1F57A6F01D832490B6013095F
:1034B000083B052B50D8DFE803F010445053555714
:1034C000003B2D4918BF01238B75F0E72A49642B77
:1034D000A8BF642381F82230E9E7284B23481B6802
:1034E0002370274B1B6863701B12A370254B1B684E
:1034F000E3701B122371244B1B6863711B12A371B1
:10350000224B1A684FF6FF739342A8BF1346E3712C
:1035100009211B12237201F043FC60720A204FF054
:1035200040236FF04002C3F8002442F24802C3F87F
:103530000C2403F5E03300225A64912298645A6403
:103540000AE0124B1B684FF6FF709842A8BF18465E
:10355000FFF7DEFC0028E2D110BD084B1868F7E742
:10356000074BFBE7074BF9E7074BF7E7380200206B
:1035700000300040B806002000000020AC0600200B
:10358000A8060020A4060020A0060020B406002003
:103590004FF0402310B5D3F80C24110613D52A4A56
:1035A0002A4C1168481C615C1060C3F80414284957
:1035B0000C68A04206DB42F24800C3F80C0400236A
:1035C00013600B6010BD520604D542F22C02C3F802
:1035D0000C24F7E7D3F800241B4912F0060F0B6800
:1035E00003D140F2FF32934203D11A4A8020C2F83D
:1035F000000C4FF04022D2F80424D2B2082A01D0A5
:103600007F2A03D1002BDDD0013BDAE75C1C0F4899
:103610000C60022CC25406D1037823B94378FF2BE7
:1036200001D102F027F80A2ACCD10023035507481C
:103630000B60FEF775F9064B18600028C2D04FF0FA
:10364000402342F28802C2E7D40100203802002061
:10365000D00100200020004070B5254D2B780F2BA5
:1036600003D0BDE87040FFF751BB224B224C01262E
:103670004AF6AA226661A8191A60FFF715FC297E8E
:1036800001F00F03042B24D11C4B1D4A1B78023B75
:10369000B34206D91B4B93F82F30013BB3EB111FFC
:1036A00018D0194B136072B6134A536AC3F56343BB
:1036B0007F33D3620123536162B60F4B6FF0010277
:1036C0001A610122DA604FF0402343F20842C3F846
:1036D0000C2470BD0D4B136072B6636AC3F5F843DA
:1036E0005F33E3626661636941F29F43E362E3E74C
:1036F00038020020003000400040014097060020C2
:103700004006002000000020352D00086D2D000827
:10371000B64A916D11F01001F8B520D0B44B4FF4BA
:103720008031D9600021D960A3F550434FF40040A7
:1037300058648120186091652021D16540F2A35121
:1037400091654FF0FF32DA62442101225A6199609B
:10375000332199611A624FF40072DA60F8BDA54B0B
:10376000A54C1F887E1C4FEAA60C22460B46084635
:103770002546B2F802E05B00F44500F10200D8BF34
:1037800043F00103202802F1040240F090809B4A9C
:10379000184616781A46001140F09C8006B1D243B4
:1037A00012F00F0240F0888095484AF6AA27076079
:1037B000002E64D000F58830782602628260826133
:1037C0008661012606620826466000F540408D4E5F
:1037D00082651722C26540F293528265306868B9EB
:1037E000894A17684FF6807217B1BA42A8BF3A46A5
:1037F000B2F5007F70DA42EA402232603268170187
:10380000104612116BD1C04300F00F00DFF8FCE14D
:1038100038438F0040FA07FC0CF00F0C0F441EF8E1
:103820000CC001310CFA07F7042942EA0702F0D173
:103830004FF0FF30132142FA01F7FF0748BFC043A2
:10384000013924F8020FF6D22980714900226A85D5
:10385000AA854A6372B64A6AC2F560620F32632A69
:10386000B8BF6322CA6201224A614A69694A128862
:10387000CA6262B668490A689ABB0022326003F0E5
:1038800010025B1100F087812F2B31DD12B1634AEA
:1038900001211170624A92F823203AB3B3F5836F85
:1038A000ACBFA3F21743C3F12F035B0077E1B2F87B
:1038B00000E076453FF75DAF4C4B00229A65A3F5DB
:1038C000404385221A606FF001010122DF625A61D4
:1038D000196142E742405EE75210013088E75040EC
:1038E0008FE7013A0A60002AC7D0C8E72F3B56E1AC
:1038F000002A3FF433AF444A106800287FF42EAF0B
:1039000048490A689342484A1CBF0B60106013681C
:10391000092BDCBF013313600B68591E2E293FF6BB
:103920001DAF01A050F821F0E5390008E539000885
:10393000E5390008E5390008E53900085D37000879
:10394000313A0008413A00084F3A0008613A00084D
:103950005D3700086F3A0008813A00089D3A000878
:103960005D3700085D3700085D3700085D370008E7
:103970005D370008B33A0008C33A00085D37000815
:103980005D3700085D3700085D3700085D370008C7
:103990005D3700085D3700085D3700085D370008B7
:1039A0005D3700085D3700085D3700085D370008A7
:1039B0005D3700085D3700085D3700085D37000897
:1039C0005D370008D13A0008ED3A0008173B0008BF
:1039D000413B00086F3B00085D3700085D37000879
:1039E000893B0008114A1370B8E600BF000002408E
:1039F0000010024036020020F401002038060020AA
:103A0000003000409C060020B40600205C5D0008E9
:103A10000040014034020020E4010020980600200C
:103A200000000020E0010020DC01002095060020BD
:103A30001368062B7FF492AE5C4B00229A758DE6DC
:103A40001368062B7FF48AAE584B0122F6E7136801
:103A5000062B7FF483AE554B002283F823207DE6AE
:103A60001368062B7FF47AAE504B0122F5E71368FA
:103A7000062B7FF473AE01F015FB4D4B18606DE61D
:103A80001368062B7FF46AAE4A4B01221A704A4B28
:103A90004FF460621A60494B0A2284E01368062BD7
:103AA0007FF45CAE434B00221A70434B40F6FF623A
:103AB000F0E71368062B7FF451AE414B00221A70D9
:103AC0004CE61368062B7FF449AE3D4B0122F6E726
:103AD0001368062B7FF442AE344A137E0133082B61
:103AE000A8BF01231376324A136037E61368062B0A
:103AF0007FF434AE2D49CA7E920801320C2A03D8D5
:103B0000062A1346B8BF0623DAB29000D200C87660
:103B10000A77053BE7E71368062B7FF41FAE2349BE
:103B20000A2291F82030B3FBF2F30133DBB20B2B06
:103B300028BF002303EB8302520081F82020D2E744
:103B40001368062B7FF40AAE184A92F82130632BD3
:103B50000ADC591C0A2906DD05330521B3FBF1F304
:103B600003EB830300E00B4682F82130BBE71368C8
:103B7000062B7FF4F3AD0D4A92F82130012BF3DDD3
:103B8000013B0A2BF0DDE8E71368062B7FF4E6AD76
:103B900001F0CEFA71E712B10A4A012111700A4A06
:103BA00013600A4B00221A60D8E500BF0000002015
:103BB00054010020940600209C060020E40100200F
:103BC0009606002098060020B8060020E00100209C
:103BD0000C4B0D4A1A600D4B4FF400425A645422AC
:103BE0009A6031229A61032101221A62D9607721F9
:103BF00099624FF0FF31D962042119605A61852220
:103C00001A60704740060020F12F00080040014074
:103C1000014B1B68184700BF40060020034B4FF4C0
:103C200000325A60024B1B68184700BF0000024078
:103C30003C060020FFF7ECBF704770470D4B44F285
:103C40004002C3F8182C4022C3F81C2C40F2444216
:103C5000C3F8202C2022C3F8142C46F66802C3F8BF
:103C6000182C6822C3F81C2C2122C3F8142C002025
:103C7000FDF73EBD002001402DE9F0471F4C2378A1
:103C80008AB053B11E4A013B92F836111D4A52F8D0
:103C9000230001F05FFA002323701B4F3B68002BC9
:103CA00029DB174A92F835516A46192DB8BF1925F4
:103CB000002490460A2093FBF0F100FB113342F8F8
:103CC000043B26460B4601340029F4D1DFF83CA022
:103CD000DFF83C903446B44203D02946504601F008
:103CE00039FA58F82430294659F8230001F032FAFD
:103CF000013CF0D23C600AB0BDE8F0879506002098
:103D000000000020985D000854010020EC5B0008D2
:103D10006C5D00082DE9F843B44BB54C1978B54BF0
:103D2000B54A1B7833B3B54B587DC1B140F214414D
:103D300040F25443002808BF0B46582146F658006D
:103D4000C4F8180CC4F81C1CC4F8203C01231360F0
:103D5000AB4A1360AB4BAC4A1A60BDE8F88340F243
:103D6000411140F24553002808BF0B46682145F633
:103D70006800E5E7A54B1D681368002D6AD04FF079
:103D80008040C0F83C54C0F82C540125C0F81454AD
:103D90009F4D2E7826B91BB13C2043433B3B13601B
:103DA000136800294AD0013B002BD8BF4FF4B473ED
:103DB00013601268571E772F46DC02F1EF0C773242
:103DC0008323C4F8003C41F28733C4F82C3C91486B
:103DD0008A4B997E30F817304B431B114233C4F89D
:103DE000343C30F81C304B431B114233C4F8383C90
:103DF00030F812304B431B114233C4F83C3C812352
:103E0000C4F8003C002EA8D146F66803C4F8183C5C
:103E10006823C4F81C3C40F25553C4F8203C2123CD
:103E2000C4F8143C4FF080433046C3F80C64FDF7EF
:103E30005FFC734B1E6001232B708EE70133B3F5DB
:103E4000B47FC8BF0123B3E7EF2FA2F1790CB6DD31
:103E5000F13AB5E7002900F08C80013B002BD8BF78
:103E60000623136012686C4B02F1FF3C02F0010262
:103E700013F80C30551A6FEA030603EAD30718BF8C
:103E8000012506EAD30617F001034FEA850575D030
:103E90005A48407D002818BF052343F4805340F65C
:103EA000680017F0020F7ED0DFF850E19EF815E0B1
:103EB000BEF1000F0CBF4FF0100E4FF0500E40F44B
:103EC000C04043EA0E037F077ED54C4A527D002A4C
:103ED0000CBF4FF480724FF4A062134346F66802A1
:103EE0004E4FC4F8180CDFF81881C4F81C2C4C4A4B
:103EF000C4F8203C3B6842F82C30D8F80030414EE2
:103F0000062B0CD1D2E900310B4491680B44D168E7
:103F10000B44116952690B4413445B103360DFF8A2
:103F20000491D9F80000FDF7E3FB3B683E48C9F86F
:103F30000050B3F57A7F7BDD3C4B4FF47A721A6008
:103F4000002303603368B3F57A7F4FF0000280F2FC
:103F50009080C4F8402C4FF080438522C3F80024A1
:103F60004FF080430022C3F810240322C3F80C242E
:103F7000F3E60133062BC8BF012372E7F3070DD424
:103F80008A4240F6080E41F2040340F648001CBF86
:103F90004FF48053704645F0010582E741F2040377
:103FA00040F658007DE716F0020F04D040F4A04020
:103FB00043F0400387E78A4204BF40F4804043F067
:103FC000400345F002057EE7760704D543F480639D
:103FD00046F6580284E78A4206BF43F4806346F6F9
:103FE000480246F6080245F0030579E77A06002004
:103FF00000200140780600208C06002000000020F0
:1040000084060020B4060020008793038806002061
:104010007D060020FC560008AC5D000880060020EC
:10402000600600205C060020540600205806002090
:1040300002680132062A026084D116490A68934256
:10404000B4BFD21A9A1AB2EB630F4FF000020DDD23
:104050004FF08043C3F80C240F4BC8F800201A70AF
:1040600042F210733B600D4B336076E60B600260EA
:1040700068E7B3F5FA6FAABF4FF40072C4F8402C9A
:10408000C4F8402C4FF08043B4BF40F2851240F298
:10409000852263E7580600207C06002000E1F50534
:1040A000054BD3F80C2C920605D56FF02002C3F80F
:1040B000102CFFF72FBE7047002001404FF08043C7
:1040C00070B5D3F80C24D3F81014D00714D5C90751
:1040D00012D56FF00102C3F810240022C3F80C249B
:1040E0001F4B1A601F4B1A701F4B42F210721A605E
:1040F0001E4B1F4A1A6070BD9307FCD51A4D4FF036
:1041000080432A68D3F83434B3EB620FF3DB1448EE
:1041100002EB4202B3EBA20F01681FDA8E1F74425A
:1041200074411A44134B0F4E1B7E3470941063433A
:104130001B11C3EBE2034FF080422C600529C2F84B
:104140003C344FF00103C2F81434D8BF01314FF0B2
:104150000003C2F80C34D8BF0160CCE70024E0E7CC
:10416000840600207C06002080060020B406002083
:1041700000E1F5050000002037B51D461E4B1F4924
:104180001C68121B31D401230B7020EAE0710A2253
:104190001B4800F037FE1B4B0722186000211A480D
:1041A00000F030FE194B042218600021184800F07E
:1041B00029FE184B1860184B1B78A3B1052229461D
:1041C000164800F01FFE164B93F824304FF4FA62A5
:1041D00003EB830300929B0040F28D32C82100F074
:1041E000FFFD104B186003B030BD09780029CCD119
:1041F00004EB62041C60C8E750010020790600202F
:104200004C010020AC06002048010020A806002038
:1042100044010020A406002099060020400100204F
:1042200000000020B80600204FF0E0234FF080523D
:10423000C3F8042D0022C3F8102D064A1378013369
:10424000DBB213701B0701BF034A1368013313600D
:10425000704700BF7B0600209006002038B51F4C39
:1042600023782BB11E4B1D7815B900F0E7FC2570A3
:104270001C4B1B781A072FD1FDF782FA1A4B1B68CB
:10428000DB0601D100F012FD184B93F83701184BF3
:104290001A78824202D01870FFF7CFFC1548164AF0
:1042A00003681268154913440A6803600132B2F5C5
:1042B0007A7F0A6010DB4FF47A7293FBF2F3104AB4
:1042C0001468234413604FF4B47293FBF2F30D4A65
:1042D0001360002303600B6038BD00BF9806002008
:1042E000970600207B06002090060020000000209A
:1042F0003C01002050060020A40600204C060020AF
:1043000048060020A00600202DE9F04FA148A24A4F
:10431000DFF88882A249A34E8FB0121A01F04EF93D
:1043200000F09AFD98F824309F4A03EB83039B002A
:10433000336098F82C305D1E6B426B4113709B4BC1
:1043400098F817201A709A4B98F82E20994D1A70E9
:10435000FDF7B6F8FFF770FC00F0EAFBFFF738FC5A
:1043600048F64203C5F8443C41F28733C5F82C3C7B
:104370008123C5F8003C3523C5F8043C4FF0804349
:104380003B22C3F8282400240422C3F82C44C3F899
:1043900000240122C3F814248522C3F800248021BC
:1043A000FE2001F087F94FF0E02341F64B525A61AD
:1043B00007229C611A6198F8333007937E4B5F6A3D
:1043C0004FF0807217F0C0445A626ED098F81430E3
:1043D0000BB97C0019D5794C42F6DF63A36240F635
:1043E000C313E36201270523676123606FF00103B4
:1043F000236137602369D8076ED5002333602360BB
:1044000098F835116E4800F0A5FEFFF717FC14224E
:10441000002109A801F05CF84FF0000A4FF4C873BE
:104420000893CDE904AA4FF416730A935B4E022356
:104430000393D14654464FF0E0230222C3F8102DD7
:1044400030BF584B1F68594B1B78002B4CD1737EE3
:1044500003EB83019140002B49D05A4B1B68002B82
:1044600018BF1423B9F1000F08BF0024002F4DDD41
:104470000B44BB423DDA98F81E2098F81D3002EB41
:104480008202920003EB8303009238469B004FF4B4
:10449000FA6200F0A5FC07464B4AB37D1278534000
:1044A00000220392494A1370A8E098F8351108F1E8
:1044B000350000F04FFE98F83230002B86D0DFF840
:1044C000109105E098F83511484600F043FE01349C
:1044D000079B9C42F6DB79E730BFFFF7CDFB3368E3
:1044E000002B87D0676185E700210B46BAE71946A4
:1044F000FBE7912300930A464FF47A733846002174
:1045000000F06EFC2F4B00271860C5E762D096F8CC
:104510002320022AC7F1000014D1039A022A11D0E5
:1045200096F822304FF4FA6203EB83039B0000926B
:10453000002100F055FC012304464FF000090393CD
:104540004F4661E00B44834217DA98F81E2098F832
:104550001D3002EB8202920003EB830300929B006A
:104560004FF4FA6200F03CFC0746174BB27D1B7813
:10457000002A08BF83F0010394E7912300930A46C1
:104580004FF47A73002100F02BFC0E4B00271860CB
:10459000EBE700BF000000203801002000000020F1
:1045A00000100008B80600209906002078060020B8
:1045B000970600200020014000100240002000402B
:1045C000F35B000888060020960600207A0600208B
:1045D000EF5B0008A64B1B68062B18BF96F822401D
:1045E000039B1DBF04EB8404A400B9463C46012B89
:1045F00008BF02230393B9F1000FA1D09D480368BF
:10460000002B57D1B9460127F27E9B4BB3FBF2F248
:104610000692002F00F09480984A126882B1984860
:1046200090FBF2F0974A47F230511060327FB3FBB3
:10463000F2F34EF660220093069B00F0D1FB069049
:10464000F37F96F820208F484FF4FA61009103EB36
:1046500083034FF47A719B004A430068002100F005
:10466000BFFB059BA9EB0309874B29EAE979814543
:104670001B78A8BF8146CB46002B5FD196F821203E
:104680000499D31002F007028A42049A02F101024F
:10469000C8BF0133082A08BF0022A345049203DDE6
:1046A00023449B45A8BF9B46737D002B0CBF002372
:1046B000422347E067B9714A116839B1B4214B43CD
:1046C00013606F4A92FBF3F36E4A1360A34656E001
:1046D00072B6DFF8B8C1DFF8B8E1DCF800309EF858
:1046E00000E03C22013B93FBF2F14A43BEF1000F94
:1046F00021D0D31A3C33026853434FF08042C2F8B2
:104700003C344FF6FF73C2F82C340123C2F8143442
:10471000574A1944002313605E4A036013705A4AD3
:10472000CCF8001013705C4B42F210721A60FFF765
:10473000F1FA62B666E79B1A0133DCE700229FE7D5
:10474000A3463B46554A1278002A3CD0069AB43A12
:10475000009200214FF4FA62584600F041FB832397
:10476000C5F8003C069BC5F82C3C8123C5F8340CE9
:10477000C5F8380CC5F83C0CC5F8003C2FB3434BCA
:104780001B68F3B972B6444B42F210721A603B4B8D
:10479000434A1A60FFF7BEFA2123C5F8143CD5F846
:1047A0000C3C43F02003C5F80C3C4FF080434FF61F
:1047B000FF72C3F83C24C3F82C240122C3F814244C
:1047C00062B6012724E0069AC2E7304C2368FBB1A9
:1047D00072B6D5F80C3C23F02003C5F80C3C4FF022
:1047E00080430122C3F82C74C3F81424C3F80C745A
:1047F000FFF724FA1F4B27601F601D4B1F60254BDE
:104800001F70214B1F701D4B1F601E4B1F6062B637
:10481000FFF732FA234B1B7813F00F0270D1079980
:1048200096F8323013FB01F30A214B431E49096805
:104830008B423DDD0AF1010A40F6B8339A4538D182
:1048400072B68023C5F8143C184B42F6DF629A62B8
:1048500042F20F72DA6201225A611A606FF00102AD
:104860001A611A69D207FCD58022C3F8002CFEE732
:104870008406002088060020C0D40100B406002071
:1048800000879303B00600207C0600208C060020E1
:104890007A0600207D060020800600207806002091
:1048A00000E1F5057B060020A8060020002000405E
:1048B000924696F831405CB1134B1B681B1B642475
:1048C0005C4324EAE47440F2DC539C42A8BF1C46DB
:1048D00096F8340038B10D4B64224243196808A899
:1048E00000F0A0FA8012059B0344A3421846B8BF0B
:1048F0002046B0F5FA6F0346A8BF4FF4FA6305935C
:10490000B9465C4697E500BFAC060020A40600202F
:10491000C0F57F43CAB2F93330B59B1AC1F3072201
:104920009B1A064A04460D12062013711B121070C2
:1049300054709170D570537130BD00BFC406002013
:10494000042810B44AD1264B1A78042A46D1587844
:104950005B884FF6FB72034493423FD1214991F8A3
:104960002F2000F00F03013A6FF0040404FB023320
:10497000013B042B32D80209092A08D00A2A0CD09C
:10498000A2F1080358425841800010BC7047164AF3
:1049900032F8131010BCFFF7BBBF013B032B03D849
:1049A000DFE803F00815181A104B1B680A2128339A
:1049B0005943EFE791F830300D4A5B08116891FBDD
:1049C000F3F14FF6FF739942A8BF1946E2E7094B8E
:1049D0001968DFE7084BFBE7084BF9E70020D4E74D
:1049E000C406002000000020EA5E0008AC0600209B
:1049F000B0060020A8060020A4060020A006002083
:104A00000368134403EB2323DBB210B50360A2F168
:104A10007D03012B064806D80B685C1C0C607D24C6
:104A2000C45402F0DF020B685C1C0C60C25410BD61
:104A3000C406002037B500230C46054601A9684688
:104A40001022CDE90033FFF7DBFFEAB26846FFF73B
:104A5000D7FFC5F307226846FFF7D2FFE2B26846E8
:104A6000FFF7CEFFC4F307226846FFF7C9FFC4F380
:104A700007426846FFF7C4FF220E6846FFF7C0FFF3
:104A8000009AD2436846D2B2FFF7BAFF019803B04A
:104A900030BD0000022810B434D11C4B1A787E2A95
:104AA00030D11B495A7891F82F3002F01F02013B98
:104AB0009A4227D1174A18481368052B04BF0023D0
:104AC000136013685C1C30F813001460042B19D8B1
:104AD000DFE803F0030610121600104B196806E019
:104AE0000F4A91F8303011685B0891FBF3F110BC6C
:104AF000FFF7A0BF0B4BF1E70B4B19680A23F4E754
:104B00000A4BEBE7002010BC704700BFC406002032
:104B100000000020C0060020F45E0008AC06002063
:104B2000B0060020A8060020A4060020A006002051
:104B3000184A40F21243C2F80838174B1978174B3D
:104B4000032917D004291CD0022901D1144A1A6064
:104B50001A68104BC2B1C822C3F8142842F21C02D2
:104B6000C3F80C280F4B1049104A9963DA63596255
:104B70009A6270470E49196040F62301C2F808187E
:104B8000E6E74FF49071F9E78822C3F8142842F25F
:104B90000802E5E70030014097060020D406002017
:104BA000414900080000024004380140C4060020CA
:104BB000954A000870B51A4CD4F80C586B0620D4EE
:104BC00015F02005D4F80028D4F8042804D042F2C7
:104BD0001C03C4F80C3870BD124E134B706B1B686D
:104BE000C0F11000984760B16FF04003C4F800387E
:104BF00042F24803C4F80C389123F5613062F36146
:104C0000E9E7074B42F22C02C3F80C2803F55043A6
:104C100000221A6310225A6381221A63DBE700BF65
:104C20000030014000000240D4060020024B202248
:104C30005A600022DA6170470000024038B5144D16
:104C4000EB69DB0723D4134B134C1B68642293FBE3
:104C5000F2F3124A237212682270114A1268A2708B
:104C60001112104A61701268227111120E4AE1701D
:104C70001268A271111261711A1209212046E271A3
:104C800000F08EF80A2360722B629323EB6138BD2B
:104C900000000240B0060020C4060020AC06002040
:104CA000A8060020A4060020A006002070B5324B04
:104CB0001B78012B19D0042B1AD0304B1B789BB1D9
:104CC0002F4A13680133022B13603ED0032B45D0CB
:104CD000012B4ED12B4B1B7843F4007372B62A4A3A
:104CE000116801B9136062B670BDFFF7A7FFE4E772
:104CF000264DE86910F00100DFD1254B254C1A68DC
:104D0000254BA0720A211B6892FBF1F293FBF1F391
:104D100061700821A170227142FA01F1A3711A1287
:104D20001E4B62711B68E1701A14E271C8261A12D8
:104D30000921A01C63722670227200F041F80C2336
:104D4000E0722B629323EB61B7E7114B19221B68CA
:104D500093FBF2F3DBB243F48063BFE70E4B6421B5
:104D60001B6893FBF1F30021DBB243F4C0631160D5
:104D7000B4E70023B2E700BF9706002094060020A6
:104D8000BC060020AC0600209C060020000002406B
:104D9000A8060020C4060020A4060020A0060020CB
:104DA00010B5064A0346014400208B4200D110BDD5
:104DB00013F8014B6040105CF7E700BF1860000873
:104DC00010B5064A0346014400208B4200D110BDB5
:104DD00013F8014B6040105CF7E700BF185F000854
:104DE00010B504468C421846029B0ADD9442BFBFB0
:104DF000641A1B1A5C43521AAEBF184694FBF2F4B5
:104E0000001910BD00290BDB0368002BB8BF01FAA5
:104E100002F319441341C91A016041FA02F07047C4
:104E20000020704730B5D0E903438A1A1344654225
:104E3000AB42B8BF2B46A342A8BF23464469C0E992
:104E400004310C1BD0E9001580686B4301FB023371
:104E500000FB043030BD000010B5914B1C7D221EBC
:104E600018BF01221A755A7D111E18BF01215975EC
:104E7000997D003918BF01219975D97D003918BF76
:104E80000121D975197E0129B8BF01210729A8BFC1
:104E9000072119763AB15A7E2AB1052AB8BF0522F0
:104EA000192AA8BF19225A769A7E197F93F82C00E6
:104EB000012AB8BF01220F2AA8BF0F229A76DA7EF4
:104EC000102AB8BF1022302AA8BF30228A42DA76D0
:104ED000B8BF0A46602AA8BF60221A775A7F997F16
:104EE000012AB8BF0122642AA8BF64228A425A77E5
:104EF000B8BF0A46642AA8BF64229A77DA7F012ADB
:104F0000B8BF0122322AA8BF3222DA7793F82020D4
:104F1000642AA8BF642283F8202093F82120012A64
:104F2000B8BF0122642AA8BF642283F8212093F825
:104F30002220642AA8BF6422012883F8222000F0DE
:104F4000948093F82320022AA8BF022283F823200A
:104F5000002C40F08C8093F82420642AA8BF64229F
:104F600083F8242093F82520003A18BF012283F803
:104F70002520B3F92620B2F5617FB8BF4FF46172E6
:104F800040F26C718A42A8BF0A46B3F92A10DA844B
:104F900002F1C804A142B8BF214640F63404A14240
:104FA000A8BF2146B3F9284059856432A242B8BF50
:104FB000224664398A42A8BF0A4605281A85024655
:104FC000A8BF0522022883F82C2052DD93F82D205B
:104FD000032814BF10210E21012AB8BF01228A42E2
:104FE000A8BF0A4683F82D2093F82E20042A1146E4
:104FF000A8BF0421022A83F82E103CD193F82F2059
:10500000012AB8BF0122032AA8BF032283F82F2058
:1050100093F8302022F00102022AB8BF0222642A4B
:10502000A8BF642283F8302093F831202AB13C2AAB
:10503000B8BF3C228C2AA8BF8C2293F8351183F884
:1050400031206429A8BF642183F8351193F8361103
:1050500064294FF00002A8BF64215A8683F83420E7
:1050600083F8361183F8372110BD00226EE7002245
:1050700076E70022B6E7032A08D193F82F20012A09
:10508000B8BF01221C2AA8BF1C22BFE7042805D1F3
:1050900093F82F20042AA8BF0422B7E70022B5E71F
:1050A0000000002038B51C4B1B680BB1002038BD38
:1050B00072B61A4B1A4A5A6002F188325A604FF09F
:1050C000FF32DA6002221A61164A5A6142221A61DC
:1050D000DA68D207FCD401221A61134B1149134A32
:1050E0000E481C4693420FD38023036162B6C36807
:1050F00013F0140FDAD10C490A48121B00F0D8F94A
:10510000B0FA80F04009D2E733F8025B21F8025B85
:10511000C568ED07FCD4E5E7B40600200020024096
:10512000230167450010000800000020380100201E
:1051300008B572B6054906484FF49C7200F03EFA75
:1051400062B6BDE80840FFF7ADBF00BFB25D000822
:10515000000000202DE9F74F0A220C4601A9054660
:1051600000F05AF9019AAA4200F08280A0F10A01E7
:1051700040F2DD33994200F2A68043F6982898FB6E
:10518000F0F8002C70D0524B1B68002B40F09B8035
:10519000DFF8409199F80060002E40F096804E4D67
:1051A000DFF838A1DFF838B1012389F8003046F67E
:1051B0005003C5F8183C5023C5F81C3C40F254433A
:1051C000C5F8203C0E23C5F8283C6400174617F8A4
:1051D000013B6BB3A3F1610106294CD8633B00216D
:1051E0000733072093FBF0F0C0EBC0001B1A5B00F5
:1051F0005078042BC8BF03F1FF33232804BF0133C9
:10520000971C384A32F8133031440B41C5F82C3C16
:10521000C5F8384C21230A22C5F8143C01A93846A8
:1052200000F0FAF8019ABA423BD0431E622B39D9FA
:1052300044F24003C5F8183C4023C5F81C3C40F23A
:105240004443C5F8203C41F287320023C5F8283C8E
:10525000C5F82C2C2122C5F8142C17F8014C89F81C
:105260000030B4FA84F46409204603B0BDE8F08F3E
:105270004FF07D0885E7A3F14101062902D8433BA1
:105280000121ADE75F2BC5D02B2B03D1002ECFD151
:10529000012604E02D2BCBD1002EC9D0013E3A4689
:1052A00094E70120DAF8003000FB08330120DAF837
:1052B0000010994204D10023C5F8383C1746EEE7A8
:1052C000CBF81400F3E70024CEE71C46CCE700BF80
:1052D000B4060020D80600200020014090060020DF
:1052E00000200040FE5E0008931E222B10B50C46E5
:1052F00004D900230B701C46204610BD0A2A09D190
:10530000002807DA2D230B7040420121214400F0D0
:105310008DF8F1E70021F9E7FFF7E6BF242B2DE92F
:10532000F0478646904601D8012B06D100F040F99F
:10533000162303600020BDE8F08736480D462A4654
:1053400015F8014B065D16F00806F8D12D2C24D176
:105350002C780126951C2BBB302C30D00A2306F16B
:10536000004C0CF1FF3C0022BCFBF3F9104603FBA0
:1053700019CAA4F13007092F28D83C46A34234DDCE
:10538000571C07D081452DD301D1A2452ADB00FB54
:105390000340012215F8014BEBE72B2C04BF2C78BE
:1053A000951CD8E7102BDAD1302CD8D12A7802F00E
:1053B000DF02582AD3D16C7810230235CFE72B783F
:1053C00003F0DF03582BF6D00823C8E7A4F1410708
:1053D000192F01D8373CD1E7A4F16107192F04D860
:1053E000573CCBE74FF0FF32D4E7531C08D12223C0
:1053F000CEF800306046B8F1000F9CD0691E06E080
:1054000006B14042B8F1000F95D0002AF6D1C8F895
:10541000001090E71961000813460A460146024849
:105420000068FFF77BBF00BF58010020F0B51F4C9C
:105430008BB005460B466E4604F1200C206861686F
:10544000374603C7083464453E46F7D121793971A0
:10545000911E2068386022294FF0000104D919708C
:105460000B4618460BB0F0BD581E8446B5FBF2F74C
:1054700002FB175628366E440C4616F8286C0CF8BA
:10548000016F2E46B24201F101013D46EED90022E4
:105490005A541919A51AAA42E3DA10F8015F0E78D6
:1054A0000670013201F80159F4E700BF695C000899
:1054B00010B501390244904201D1002005E0037883
:1054C00011F8014FA34201D0181B10BD0130F2E7C3
:1054D00002440346934200D1704703F8011BF9E7E9
:1054E00030B50D4D044614F8013BEA5C02F00302AE
:1054F000012A11F8012BA85C00F0030008BF20333B
:10550000012803D12032981AEDD030BD981AFCD171
:10551000002AE8D1F9E700BF1961000810B50B4671
:1055200062B913F8012B002AFBD104E013F8014BF8
:1055300000F8014B14B9581A013810BD013AF5D1E1
:105540000270EEE702460023006800F000B8F0B5F4
:10555000044608B9146844B1204614F8015B0F46AC
:1055600017F8016B1EB965B91560002005E0B5425A
:10557000F6D1002BF0D114600370F0BD1C460CE096
:1055800015B914F8013B0E4616F8015BAB42F7D192
:10559000002BF3D0002304F8013C1460EDE7034630
:1055A00011F8012B184603F8012B002AF8D1704797
:1055B000014B1868704700BF580100200A4491420F
:1055C00000F1FF3300D1704710B511F8014B03F81B
:1055D000014F9142F9D110BD034613F8012B002A67
:1055E000FBD1181A01387047FEE7704710B5164B0B
:1055F000164A17498B4218D30021164A934217D3F3
:105600008023154A9B001168144C0B431360144B04
:105610009C420FD3134C144B9C420ED3FEF774FEE6
:10562000124C134B9C420BD310BD01CA01C3E1E7DE
:1056300002C3E3E708CC9847E9E708CC9847EAE7D4
:1056400008CC9847EDE7C0463801002024620008E6
:10565000A8010020DC06002014ED00E01C62000818
:105660001C6200081C6200081C6200081C62000822
:105670001C620008014B024A1A60FEE70CED00E0D4
:105680000400FA05044A43099B009B181F2210409E
:105690001E3A82401A60704700E100E0044A430964
:1056A0009B009B181F2210401E3A82401A607047D0
:1056B00080E200E010B51F2812D90F2318400438EB
:1056C000C0B28308084A9B001824C0002040E73479
:1056D000844081409B181A68A2431143196010BD91
:1056E0008308024A9B00EFE718ED00E000E400E0C9
:1056F000C1180400E1180400D118040090019701BA
:105700009E01A501AC01B301BA01C101C801CF01DD
:10571000D501DC01E301EA01F101F801FE01050216
:105720000C02120219021F0226022C023302390255
:105730003F0246024C02520258025E0264026A02B2
:10574000700275027B02810286028C02910296022F
:105750009C02A102A602AB02B002B502B902BE02CF
:10576000C202C702CB02CF02D402D802DC02DF029F
:10577000E302E702EA02EE02F102F402F802FB029F
:10578000FD0200030303050308030A030C030F03D0
:105790001103120314031603170319031A031B033F
:1057A0001C031D031E031E031F031F0320032003EE
:1057B0002003200320031F031F031E031E031D03DA
:1057C0001C031B031A031903170316031403120304
:1057D00011030F030C030A0308030503030300036B
:1057E000FD02FB02F802F402F102EE02EA02E70215
:1057F000E302DF02DC02D802D402CF02CB02C702EE
:10580000C202BE02B902B502B002AB02A602A102F8
:105810009C02960291028C02860281027B02750232
:1058200070026A0264025E02580252024C02460290
:105830003F02390233022C0226021F021902120211
:105840000C020502FE01F801F101EA01E301DC01AD
:10585000D501CF01C801C101BA01B301AC01A50155
:105860009E0197019001890182017B0174016D0104
:1058700066015F01580151014B0144013D013601B0
:105880002F01280122011B0114010E010701010152
:10589000FA00F400ED00E700E100DA00D400CE00E9
:1058A000C800C200BC00B600B000AB00A5009F005D
:1058B0009A0094008F008A0084007F007A007500AF
:1058C00070006B00670062005E00590055005100D7
:1058D0004C004800440041003D00390036003200D1
:1058E0002F002C0028002500230020001D001B0095
:1058F00018001600140011000F000E000C000A0022
:105900000900070006000500040003000200020071
:105910000100010000000000000000000000010084
:105920000100020002000300040005000600070059
:1059300009000A000C000E000F00110014001600F0
:1059400018001B001D0020002300250028002C004B
:105950002F003200360039003D004100440048006D
:105960004C005100550059005E00620067006B005A
:10597000700075007A007F0084008A008F00940018
:105980009A009F00A500AB00B000B600BC00C200AA
:10599000C800CE00D400DA00E100E700ED00F4001A
:1059A000FA00010107010E0114011B012201280167
:1059B0002F0136013D0144014B01510158015F01A6
:1059C00066016D0174017B01820189012E003000A6
:1059D00020090D0A0055736167653A0A696E666FA2
:1059E0000A73686F770A676574203C706172616D35
:1059F0003E0A736574203C706172616D3E203C7696
:105A0000616C75653E0A736176650A7265736574CB
:105A10000A706C6179203C6D757369633E205B3C54
:105A2000766F6C756D653E5D0A7468726F74203CAC
:105A300076616C75653E0A626565700A0045534380
:105A400061706533322072657600205B005D0A5418
:105A5000656D703A2000430A566F6C743A20005608
:105A60000A437572723A2000410A4373756D3A20F9
:105A7000006D41680A4552504D3A200061726D0038
:105A800064616D700072657664697200627275732C
:105A90006865640074696D696E670073696E655F3F
:105AA00072616E67650073696E655F706F776572AE
:105AB00000667265715F6D696E00667265715F6D1B
:105AC000617800647574795F6D696E0064757479CE
:105AD0005F6D617800647574795F737075700064D0
:105AE0007574795F72616D7000647574795F72614D
:105AF000746500647574795F6472616700746872BC
:105B00006F745F6D6F6465007468726F745F736546
:105B100074007468726F745F63616C007468726F94
:105B2000745F6D696E007468726F745F6D69640094
:105B30007468726F745F6D617800696E7075745F00
:105B40006D6F646500696E7075745F636869640089
:105B500074656C656D5F6D6F64650074656C656D13
:105B60005F706869640074656C656D5F706F6C650B
:105B7000730070726F745F74656D700070726F7413
:105B80005F766F6C740070726F745F63656C6C73BA
:105B90000070726F745F63757272006D7573696304
:105BA00000766F6C756D6500626561636F6E006C89
:105BB0006564004F4B0A004552524F520A00686517
:105BC0006C7000696E666F0073686F77006765744C
:105BD000007361766500726573657400706C61793D
:105BE000007468726F740062656570005F34005FF6
:105BF0003244004743006336004623324532443284
:105C000043320047234123472341234723320047A0
:105C1000234123472341234623324723320047238E
:105C2000412347234123453246233247233200474D
:105C3000234123472341234432453246233247231D
:105C40003200472341234723412343324432453224
:105C50004623324723320045470046410047420071
:105C600041422300614447450030313233343536F8
:105C70003738396162636465666768696A6B6C6D41
:105C80006E6F707172737475767778797A00000030
:105C90007C5A0008805A0008855A00088C5A00086F
:105CA000945A00089B5A0008A65A0008B15A0008E6
:105CB000BA5A0008C35A0008CC5A0008D55A00083E
:105CC000DF5A0008E95A0008F35A0008FD5A000894
:105CD000085B0008125B00081C5B0008265B0008DC
:105CE000305B00083A5B0008455B0008505B000829
:105CF0005B5B0008665B0008725B00087C5B000869
:105D0000865B0008915B00089B5B0008A15B0008B4
:105D1000A85B0008AF5B000800000000BE5B000845
:105D2000C35B0008C85B0008CD5B00080E5B000881
:105D3000D15B0008D65B0008DC5B0008E15B000873
:105D4000E75B000800000000C323A363E3D333B381
:105D500073F3CB2BAB6BEBDB3BBB7BFB191B121346
:105D60001D1516171A090A0B1E0D0E0FF65B0008FB
:105D7000005C0008FE5B0008FC5B0008F95B0008A3
:105D8000035C00080F5C00081E5C00082F5C000824
:105D9000425C000800000000575C00085A5C0008E4
:105DA0005D5C0008605C0008645C000835192B32FB
:105DB0001E2CEA32090052454D4F52415F44454680
:105DC0000000000000000001000004000830600135
:105DD000640A001900000001E803DC05D007010097
:105DE00000000E0000000064666123000000000057
:105DF00000000000000000000000000000000000A3
:105E00000000000000000000000000000000000092
:105E10000000000000000000000000000000000082
:105E20000000000000000000000000000000000072
:105E30000000000000000000000000000000000062
:105E40000000000000000000000000000000000052
:105E50000000000000000000000000000000000042
:105E60000000000000000000000000000000000032
:105E70000000000000000000000000000000000022
:105E80000000000000000000000000000000000012
:105E90000000000000000000000000000000000002
:105EA00000000000000000000000000000000000F2
:105EB00000000000000000000000000000000000E2
:105EC00000000000000000000000000000000000D2
:105ED00000000000000000000000000000000000C2
:105EE0000000000000000000320001020202030274
:105EF00005020602700B00051002000200066F7713
:105F0000BB70686A7164CC5E7A597554B74F3D4B6B
:105F100005470843443FB73B00D57FAAFE2B815479
:105F200029FC5683D702A87D52872DF8AC79D30679
:105F30007BAE04D18550FA2FA471DB0E5A8F25F069
:105F40008D58F22773A60CD9F623895C08DD77A259
:105F5000DF0AA07521F45E8B9D48E23763B61CC949
:105F6000B461CB1E4A9F35E0CF1AB06531E44E9B39
:105F7000E633994C18CD67B239EC4693C712B86D29
:105F800010C56FBAEE3B91446BBE14C19540EA3F19
:105F900042973DE8BC69C316EF3A904511C46EBB09
:105FA000C613B96C38ED4792BD68C21743963CE9F9
:105FB0009441EB3E6ABF15C04B9E34E1B560CA1FE9
:105FC00062B71DC89C49E33619CC66B3E732984DD9
:105FD00030E54F9ACE1BB16472A70DD88C59F326C9
:105FE0005B8E24F1A570DA0F20F55F8ADE0BA174B9
:105FF00009DC76A3F722885DD603A97C28FD5782A9
:10600000FF2A805501D47EAB8451FB2E7AAF05D098
:10601000AD78D20753862CF900070E091C1B121508
:10602000383F363124232A2D70777E796C6B626578
:10603000484F464154535A5DE0E7EEE9FCFBF2F568
:10604000D8DFD6D1C4C3CACD90979E998C8B828558
:10605000A8AFA6A1B4B3BABDC7C0C9CEDBDCD5D248
:10606000FFF8F1F6E3E4EDEAB7B0B9BEABACA5A238
:106070008F88818693949D9A2720292E3B3C353228
:106080001F18111603040D0A5750595E4B4C454218
:106090006F68616673747D7A898E878095929B9C08
:1060A000B1B6BFB8ADAAA3A4F9FEF7F0E5E2EBECF8
:1060B000C1C6CFC8DDDAD3D4696E676075727B7CE8
:1060C00051565F584D4A4344191E171005020B0CD8
:1060D00021262F283D3A33344E49404752555C5BC8
:1060E0007671787F6A6D64633E39303722252C2BB8
:1060F0000601080F1A1D1413AEA9A0A7B2B5BCBBA8
:106100009691989F8A8D8483DED9D0D7C2C5CCCB97
:10611000E6E1E8EFFAFDF4F3002020202020202023
:106120002020282828282820202020202020202047
:106130002020202020202020208810101010101057
:1061400010101010101010101004040404040404A3
:10615000040404101010101010104141414141413D
:10616000010101010101010101010101010101011F
:10617000010101011010101010104242424242422F
:1061800002020202020202020202020202020202EF
:106190000202020210101010200000000000000097
:1061A00000000000000000000000000000000000EF
:1061B00000000000000000000000000000000000DF
:1061C00000000000000000000000000000000000CF
:1061D00000000000000000000000000000000000BF
:1061E00000000000000000000000000000000000AF
:1061F000000000000000000000000000000000009F
:10620000000000000000000000000000000000008E
:0C62100000000000000000000000000082
:08621C00BCF3FF7F010000004C
:10622400FFFFFFFFFF000000FFFFFFFFFFFFFFFF77
:10623400FFFFFFFFFFFFFFFFE40C0000FFFFFFFF76
:106244005C01002000000000000000006800000065
:10625400D00000000000000000000000000000006A
:10626400000000000000000000000000000000002A
:10627400000000000000000000000000000000001A
:10628400000000000000000000000000000000000A
:04000005080055EDAD
:00000001FF
